{"contracts/mocks/MockPriceFeed.sol":{"MockPriceFeed":{"abi":[{"inputs":[{"internalType":"int256","name":"_price","type":"int256"}],"stateMutability":"nonpayable","type":"constructor"},{"inputs":[],"name":"MAX_PRICE_CHANGE","outputs":[{"internalType":"uint256","name":"","type":"uint256"}],"stateMutability":"view","type":"function"},{"inputs":[],"name":"MIN_UPDATE_DELAY","outputs":[{"internalType":"uint256","name":"","type":"uint256"}],"stateMutability":"view","type":"function"},{"inputs":[],"name":"answeredInRound","outputs":[{"internalType":"uint80","name":"","type":"uint80"}],"stateMutability":"view","type":"function"},{"inputs":[],"name":"description","outputs":[{"internalType":"string","name":"","type":"string"}],"stateMutability":"view","type":"function"},{"inputs":[],"name":"lastUpdate","outputs":[{"internalType":"uint256","name":"","type":"uint256"}],"stateMutability":"view","type":"function"},{"inputs":[],"name":"latestRoundData","outputs":[{"internalType":"uint80","name":"","type":"uint80"},{"internalType":"int256","name":"","type":"int256"},{"internalType":"uint256","name":"","type":"uint256"},{"internalType":"uint256","name":"","type":"uint256"},{"internalType":"uint80","name":"","type":"uint80"}],"stateMutability":"view","type":"function"},{"inputs":[],"name":"price","outputs":[{"internalType":"int256","name":"","type":"int256"}],"stateMutability":"view","type":"function"},{"inputs":[],"name":"roundId","outputs":[{"internalType":"uint80","name":"","type":"uint80"}],"stateMutability":"view","type":"function"},{"inputs":[{"internalType":"string","name":"newDescription","type":"string"}],"name":"setDescription","outputs":[],"stateMutability":"nonpayable","type":"function"},{"inputs":[{"internalType":"int256","name":"_price","type":"int256"}],"name":"setPrice","outputs":[],"stateMutability":"nonpayable","type":"function"},{"inputs":[],"name":"timestamp","outputs":[{"internalType":"uint256","name":"","type":"uint256"}],"stateMutability":"view","type":"function"}],"evm":{"bytecode":{"linkReferences":{},"object":"60806040526000805460646001600160501b0319918216811790925560038054909116909117905534801561003357600080fd5b506040516109313803806109318339810160408190526100529161008e565b600181905542600281905560045560408051808201909152600381526242544360e81b60208201526005906100879082610146565b5050610205565b6000602082840312156100a057600080fd5b5051919050565b634e487b7160e01b600052604160045260246000fd5b600181811c908216806100d157607f821691505b6020821081036100f157634e487b7160e01b600052602260045260246000fd5b50919050565b601f82111561014157600081815260208120601f850160051c8101602086101561011e5750805b601f850160051c820191505b8181101561013d5782815560010161012a565b5050505b505050565b81516001600160401b0381111561015f5761015f6100a7565b6101738161016d84546100bd565b846100f7565b602080601f8311600181146101a857600084156101905750858301515b600019600386901b1c1916600185901b17855561013d565b600085815260208120601f198616915b828110156101d7578886015182559484019460019091019084016101b8565b50858210156101f55787850151600019600388901b60f8161c191681555b5050505050600190811b01905550565b61071d806102146000396000f3fe608060405234801561001057600080fd5b50600436106100a95760003560e01c8063a035b1fe11610071578063a035b1fe14610127578063b80777ea14610130578063c046371114610139578063c22c249914610142578063f7a3080614610155578063feaf968c1461016857600080fd5b80632084bf9f146100ae5780635416c818146100ca5780637284e416146100d25780638cd221c9146100e757806390c3f38f14610112575b600080fd5b6100b76103e881565b6040519081526020015b60405180910390f35b6100b7600381565b6100da6101ab565b6040516100c191906103bb565b6000546100fa906001600160501b031681565b6040516001600160501b0390911681526020016100c1565b61012561012036600461041f565b61023d565b005b6100b760015481565b6100b760025481565b6100b760045481565b6003546100fa906001600160501b031681565b6101256101633660046104d0565b61024d565b600054600154600254600354604080516001600160501b03958616815260208101949094528301829052606083019190915291909116608082015260a0016100c1565b6060600580546101ba906104e9565b80601f01602080910402602001604051908101604052809291908181526020018280546101e6906104e9565b80156102335780601f1061020857610100808354040283529160200191610233565b820191906000526020600020905b81548152906001019060200180831161021657829003601f168201915b5050505050905090565b60056102498282610572565b5050565b600360045461025c9190610648565b4210156102b05760405162461bcd60e51b815260206004820152601a60248201527f5072696365207570646174656420746f6f20726563656e746c7900000000000060448201526064015b60405180910390fd5b6000600154131561035457600081600154136102d8576001546102d39083610661565b6102e6565b816001546102e69190610661565b90506000600154826127106102fb9190610688565b610305919061069f565b90506103e88111156103515760405162461bcd60e51b81526020600482015260156024820152740a0e4d2c6ca40d2dae0c2c6e840e8dede40d0d2ced605b1b60448201526064016102a7565b50505b6001819055426002819055600455600080546001600160501b0316908061037a836106c1565b82546101009290920a6001600160501b03818102199093169183160217909155600054600380549190921669ffffffffffffffffffff199091161790555050565b600060208083528351808285015260005b818110156103e8578581018301518582016040015282016103cc565b506000604082860101526040601f19601f8301168501019250505092915050565b634e487b7160e01b600052604160045260246000fd5b60006020828403121561043157600080fd5b813567ffffffffffffffff8082111561044957600080fd5b818401915084601f83011261045d57600080fd5b81358181111561046f5761046f610409565b604051601f8201601f19908116603f0116810190838211818310171561049757610497610409565b816040528281528760208487010111156104b057600080fd5b826020860160208301376000928101602001929092525095945050505050565b6000602082840312156104e257600080fd5b5035919050565b600181811c908216806104fd57607f821691505b60208210810361051d57634e487b7160e01b600052602260045260246000fd5b50919050565b601f82111561056d57600081815260208120601f850160051c8101602086101561054a5750805b601f850160051c820191505b8181101561056957828155600101610556565b5050505b505050565b815167ffffffffffffffff81111561058c5761058c610409565b6105a08161059a84546104e9565b84610523565b602080601f8311600181146105d557600084156105bd5750858301515b600019600386901b1c1916600185901b178555610569565b600085815260208120601f198616915b82811015610604578886015182559484019460019091019084016105e5565b50858210156106225787850151600019600388901b60f8161c191681555b5050505050600190811b01905550565b634e487b7160e01b600052601160045260246000fd5b8082018082111561065b5761065b610632565b92915050565b818103600083128015838313168383128216171561068157610681610632565b5092915050565b808202811582820484141761065b5761065b610632565b6000826106bc57634e487b7160e01b600052601260045260246000fd5b500490565b60006001600160501b038083168181036106dd576106dd610632565b600101939250505056fea2646970667358221220c21c78c1f10616aebbb0365587afe3283def4846f0b79f7ea527a1f451aa743364736f6c63430008130033","opcodes":"PUSH1 0x80 PUSH1 0x40 MSTORE PUSH1 0x0 DUP1 SLOAD PUSH1 0x64 PUSH1 0x1 PUSH1 0x1 PUSH1 0x50 SHL SUB NOT SWAP2 DUP3 AND DUP2 OR SWAP1 SWAP3 SSTORE PUSH1 0x3 DUP1 SLOAD SWAP1 SWAP2 AND SWAP1 SWAP2 OR SWAP1 SSTORE CALLVALUE DUP1 ISZERO PUSH2 0x33 JUMPI PUSH1 0x0 DUP1 REVERT JUMPDEST POP PUSH1 0x40 MLOAD PUSH2 0x931 CODESIZE SUB DUP1 PUSH2 0x931 DUP4 CODECOPY DUP2 ADD PUSH1 0x40 DUP2 SWAP1 MSTORE PUSH2 0x52 SWAP2 PUSH2 0x8E JUMP JUMPDEST PUSH1 0x1 DUP2 SWAP1 SSTORE TIMESTAMP PUSH1 0x2 DUP2 SWAP1 SSTORE PUSH1 0x4 SSTORE PUSH1 0x40 DUP1 MLOAD DUP1 DUP3 ADD SWAP1 SWAP2 MSTORE PUSH1 0x3 DUP2 MSTORE PUSH3 0x425443 PUSH1 0xE8 SHL PUSH1 0x20 DUP3 ADD MSTORE PUSH1 0x5 SWAP1 PUSH2 0x87 SWAP1 DUP3 PUSH2 0x146 JUMP JUMPDEST POP POP PUSH2 0x205 JUMP JUMPDEST PUSH1 0x0 PUSH1 0x20 DUP3 DUP5 SUB SLT ISZERO PUSH2 0xA0 JUMPI PUSH1 0x0 DUP1 REVERT JUMPDEST POP MLOAD SWAP2 SWAP1 POP JUMP JUMPDEST PUSH4 0x4E487B71 PUSH1 0xE0 SHL PUSH1 0x0 MSTORE PUSH1 0x41 PUSH1 0x4 MSTORE PUSH1 0x24 PUSH1 0x0 REVERT JUMPDEST PUSH1 0x1 DUP2 DUP2 SHR SWAP1 DUP3 AND DUP1 PUSH2 0xD1 JUMPI PUSH1 0x7F DUP3 AND SWAP2 POP JUMPDEST PUSH1 0x20 DUP3 LT DUP2 SUB PUSH2 0xF1 JUMPI PUSH4 0x4E487B71 PUSH1 0xE0 SHL PUSH1 0x0 MSTORE PUSH1 0x22 PUSH1 0x4 MSTORE PUSH1 0x24 PUSH1 0x0 REVERT JUMPDEST POP SWAP2 SWAP1 POP JUMP JUMPDEST PUSH1 0x1F DUP3 GT ISZERO PUSH2 0x141 JUMPI PUSH1 0x0 DUP2 DUP2 MSTORE PUSH1 0x20 DUP2 KECCAK256 PUSH1 0x1F DUP6 ADD PUSH1 0x5 SHR DUP2 ADD PUSH1 0x20 DUP7 LT ISZERO PUSH2 0x11E JUMPI POP DUP1 JUMPDEST PUSH1 0x1F DUP6 ADD PUSH1 0x5 SHR DUP3 ADD SWAP2 POP JUMPDEST DUP2 DUP2 LT ISZERO PUSH2 0x13D JUMPI DUP3 DUP2 SSTORE PUSH1 0x1 ADD PUSH2 0x12A JUMP JUMPDEST POP POP POP JUMPDEST POP POP POP JUMP JUMPDEST DUP2 MLOAD PUSH1 0x1 PUSH1 0x1 PUSH1 0x40 SHL SUB DUP2 GT ISZERO PUSH2 0x15F JUMPI PUSH2 0x15F PUSH2 0xA7 JUMP JUMPDEST PUSH2 0x173 DUP2 PUSH2 0x16D DUP5 SLOAD PUSH2 0xBD JUMP JUMPDEST DUP5 PUSH2 0xF7 JUMP JUMPDEST PUSH1 0x20 DUP1 PUSH1 0x1F DUP4 GT PUSH1 0x1 DUP2 EQ PUSH2 0x1A8 JUMPI PUSH1 0x0 DUP5 ISZERO PUSH2 0x190 JUMPI POP DUP6 DUP4 ADD MLOAD JUMPDEST PUSH1 0x0 NOT PUSH1 0x3 DUP7 SWAP1 SHL SHR NOT AND PUSH1 0x1 DUP6 SWAP1 SHL OR DUP6 SSTORE PUSH2 0x13D JUMP JUMPDEST PUSH1 0x0 DUP6 DUP2 MSTORE PUSH1 0x20 DUP2 KECCAK256 PUSH1 0x1F NOT DUP7 AND SWAP2 JUMPDEST DUP3 DUP2 LT ISZERO PUSH2 0x1D7 JUMPI DUP9 DUP7 ADD MLOAD DUP3 SSTORE SWAP5 DUP5 ADD SWAP5 PUSH1 0x1 SWAP1 SWAP2 ADD SWAP1 DUP5 ADD PUSH2 0x1B8 JUMP JUMPDEST POP DUP6 DUP3 LT ISZERO PUSH2 0x1F5 JUMPI DUP8 DUP6 ADD MLOAD PUSH1 0x0 NOT PUSH1 0x3 DUP9 SWAP1 SHL PUSH1 0xF8 AND SHR NOT AND DUP2 SSTORE JUMPDEST POP POP POP POP POP PUSH1 0x1 SWAP1 DUP2 SHL ADD SWAP1 SSTORE POP JUMP JUMPDEST PUSH2 0x71D DUP1 PUSH2 0x214 PUSH1 0x0 CODECOPY PUSH1 0x0 RETURN INVALID PUSH1 0x80 PUSH1 0x40 MSTORE CALLVALUE DUP1 ISZERO PUSH2 0x10 JUMPI PUSH1 0x0 DUP1 REVERT JUMPDEST POP PUSH1 0x4 CALLDATASIZE LT PUSH2 0xA9 JUMPI PUSH1 0x0 CALLDATALOAD PUSH1 0xE0 SHR DUP1 PUSH4 0xA035B1FE GT PUSH2 0x71 JUMPI DUP1 PUSH4 0xA035B1FE EQ PUSH2 0x127 JUMPI DUP1 PUSH4 0xB80777EA EQ PUSH2 0x130 JUMPI DUP1 PUSH4 0xC0463711 EQ PUSH2 0x139 JUMPI DUP1 PUSH4 0xC22C2499 EQ PUSH2 0x142 JUMPI DUP1 PUSH4 0xF7A30806 EQ PUSH2 0x155 JUMPI DUP1 PUSH4 0xFEAF968C EQ PUSH2 0x168 JUMPI PUSH1 0x0 DUP1 REVERT JUMPDEST DUP1 PUSH4 0x2084BF9F EQ PUSH2 0xAE JUMPI DUP1 PUSH4 0x5416C818 EQ PUSH2 0xCA JUMPI DUP1 PUSH4 0x7284E416 EQ PUSH2 0xD2 JUMPI DUP1 PUSH4 0x8CD221C9 EQ PUSH2 0xE7 JUMPI DUP1 PUSH4 0x90C3F38F EQ PUSH2 0x112 JUMPI JUMPDEST PUSH1 0x0 DUP1 REVERT JUMPDEST PUSH2 0xB7 PUSH2 0x3E8 DUP2 JUMP JUMPDEST PUSH1 0x40 MLOAD SWAP1 DUP2 MSTORE PUSH1 0x20 ADD JUMPDEST PUSH1 0x40 MLOAD DUP1 SWAP2 SUB SWAP1 RETURN JUMPDEST PUSH2 0xB7 PUSH1 0x3 DUP2 JUMP JUMPDEST PUSH2 0xDA PUSH2 0x1AB JUMP JUMPDEST PUSH1 0x40 MLOAD PUSH2 0xC1 SWAP2 SWAP1 PUSH2 0x3BB JUMP JUMPDEST PUSH1 0x0 SLOAD PUSH2 0xFA SWAP1 PUSH1 0x1 PUSH1 0x1 PUSH1 0x50 SHL SUB AND DUP2 JUMP JUMPDEST PUSH1 0x40 MLOAD PUSH1 0x1 PUSH1 0x1 PUSH1 0x50 SHL SUB SWAP1 SWAP2 AND DUP2 MSTORE PUSH1 0x20 ADD PUSH2 0xC1 JUMP JUMPDEST PUSH2 0x125 PUSH2 0x120 CALLDATASIZE PUSH1 0x4 PUSH2 0x41F JUMP JUMPDEST PUSH2 0x23D JUMP JUMPDEST STOP JUMPDEST PUSH2 0xB7 PUSH1 0x1 SLOAD DUP2 JUMP JUMPDEST PUSH2 0xB7 PUSH1 0x2 SLOAD DUP2 JUMP JUMPDEST PUSH2 0xB7 PUSH1 0x4 SLOAD DUP2 JUMP JUMPDEST PUSH1 0x3 SLOAD PUSH2 0xFA SWAP1 PUSH1 0x1 PUSH1 0x1 PUSH1 0x50 SHL SUB AND DUP2 JUMP JUMPDEST PUSH2 0x125 PUSH2 0x163 CALLDATASIZE PUSH1 0x4 PUSH2 0x4D0 JUMP JUMPDEST PUSH2 0x24D JUMP JUMPDEST PUSH1 0x0 SLOAD PUSH1 0x1 SLOAD PUSH1 0x2 SLOAD PUSH1 0x3 SLOAD PUSH1 0x40 DUP1 MLOAD PUSH1 0x1 PUSH1 0x1 PUSH1 0x50 SHL SUB SWAP6 DUP7 AND DUP2 MSTORE PUSH1 0x20 DUP2 ADD SWAP5 SWAP1 SWAP5 MSTORE DUP4 ADD DUP3 SWAP1 MSTORE PUSH1 0x60 DUP4 ADD SWAP2 SWAP1 SWAP2 MSTORE SWAP2 SWAP1 SWAP2 AND PUSH1 0x80 DUP3 ADD MSTORE PUSH1 0xA0 ADD PUSH2 0xC1 JUMP JUMPDEST PUSH1 0x60 PUSH1 0x5 DUP1 SLOAD PUSH2 0x1BA SWAP1 PUSH2 0x4E9 JUMP JUMPDEST DUP1 PUSH1 0x1F ADD PUSH1 0x20 DUP1 SWAP2 DIV MUL PUSH1 0x20 ADD PUSH1 0x40 MLOAD SWAP1 DUP2 ADD PUSH1 0x40 MSTORE DUP1 SWAP3 SWAP2 SWAP1 DUP2 DUP2 MSTORE PUSH1 0x20 ADD DUP3 DUP1 SLOAD PUSH2 0x1E6 SWAP1 PUSH2 0x4E9 JUMP JUMPDEST DUP1 ISZERO PUSH2 0x233 JUMPI DUP1 PUSH1 0x1F LT PUSH2 0x208 JUMPI PUSH2 0x100 DUP1 DUP4 SLOAD DIV MUL DUP4 MSTORE SWAP2 PUSH1 0x20 ADD SWAP2 PUSH2 0x233 JUMP JUMPDEST DUP3 ADD SWAP2 SWAP1 PUSH1 0x0 MSTORE PUSH1 0x20 PUSH1 0x0 KECCAK256 SWAP1 JUMPDEST DUP2 SLOAD DUP2 MSTORE SWAP1 PUSH1 0x1 ADD SWAP1 PUSH1 0x20 ADD DUP1 DUP4 GT PUSH2 0x216 JUMPI DUP3 SWAP1 SUB PUSH1 0x1F AND DUP3 ADD SWAP2 JUMPDEST POP POP POP POP POP SWAP1 POP SWAP1 JUMP JUMPDEST PUSH1 0x5 PUSH2 0x249 DUP3 DUP3 PUSH2 0x572 JUMP JUMPDEST POP POP JUMP JUMPDEST PUSH1 0x3 PUSH1 0x4 SLOAD PUSH2 0x25C SWAP2 SWAP1 PUSH2 0x648 JUMP JUMPDEST TIMESTAMP LT ISZERO PUSH2 0x2B0 JUMPI PUSH1 0x40 MLOAD PUSH3 0x461BCD PUSH1 0xE5 SHL DUP2 MSTORE PUSH1 0x20 PUSH1 0x4 DUP3 ADD MSTORE PUSH1 0x1A PUSH1 0x24 DUP3 ADD MSTORE PUSH32 0x5072696365207570646174656420746F6F20726563656E746C79000000000000 PUSH1 0x44 DUP3 ADD MSTORE PUSH1 0x64 ADD JUMPDEST PUSH1 0x40 MLOAD DUP1 SWAP2 SUB SWAP1 REVERT JUMPDEST PUSH1 0x0 PUSH1 0x1 SLOAD SGT ISZERO PUSH2 0x354 JUMPI PUSH1 0x0 DUP2 PUSH1 0x1 SLOAD SGT PUSH2 0x2D8 JUMPI PUSH1 0x1 SLOAD PUSH2 0x2D3 SWAP1 DUP4 PUSH2 0x661 JUMP JUMPDEST PUSH2 0x2E6 JUMP JUMPDEST DUP2 PUSH1 0x1 SLOAD PUSH2 0x2E6 SWAP2 SWAP1 PUSH2 0x661 JUMP JUMPDEST SWAP1 POP PUSH1 0x0 PUSH1 0x1 SLOAD DUP3 PUSH2 0x2710 PUSH2 0x2FB SWAP2 SWAP1 PUSH2 0x688 JUMP JUMPDEST PUSH2 0x305 SWAP2 SWAP1 PUSH2 0x69F JUMP JUMPDEST SWAP1 POP PUSH2 0x3E8 DUP2 GT ISZERO PUSH2 0x351 JUMPI PUSH1 0x40 MLOAD PUSH3 0x461BCD PUSH1 0xE5 SHL DUP2 MSTORE PUSH1 0x20 PUSH1 0x4 DUP3 ADD MSTORE PUSH1 0x15 PUSH1 0x24 DUP3 ADD MSTORE PUSH21 0xA0E4D2C6CA40D2DAE0C2C6E840E8DEDE40D0D2CED PUSH1 0x5B SHL PUSH1 0x44 DUP3 ADD MSTORE PUSH1 0x64 ADD PUSH2 0x2A7 JUMP JUMPDEST POP POP JUMPDEST PUSH1 0x1 DUP2 SWAP1 SSTORE TIMESTAMP PUSH1 0x2 DUP2 SWAP1 SSTORE PUSH1 0x4 SSTORE PUSH1 0x0 DUP1 SLOAD PUSH1 0x1 PUSH1 0x1 PUSH1 0x50 SHL SUB AND SWAP1 DUP1 PUSH2 0x37A DUP4 PUSH2 0x6C1 JUMP JUMPDEST DUP3 SLOAD PUSH2 0x100 SWAP3 SWAP1 SWAP3 EXP PUSH1 0x1 PUSH1 0x1 PUSH1 0x50 SHL SUB DUP2 DUP2 MUL NOT SWAP1 SWAP4 AND SWAP2 DUP4 AND MUL OR SWAP1 SWAP2 SSTORE PUSH1 0x0 SLOAD PUSH1 0x3 DUP1 SLOAD SWAP2 SWAP1 SWAP3 AND PUSH10 0xFFFFFFFFFFFFFFFFFFFF NOT SWAP1 SWAP2 AND OR SWAP1 SSTORE POP POP JUMP JUMPDEST PUSH1 0x0 PUSH1 0x20 DUP1 DUP4 MSTORE DUP4 MLOAD DUP1 DUP3 DUP6 ADD MSTORE PUSH1 0x0 JUMPDEST DUP2 DUP2 LT ISZERO PUSH2 0x3E8 JUMPI DUP6 DUP2 ADD DUP4 ADD MLOAD DUP6 DUP3 ADD PUSH1 0x40 ADD MSTORE DUP3 ADD PUSH2 0x3CC JUMP JUMPDEST POP PUSH1 0x0 PUSH1 0x40 DUP3 DUP7 ADD ADD MSTORE PUSH1 0x40 PUSH1 0x1F NOT PUSH1 0x1F DUP4 ADD AND DUP6 ADD ADD SWAP3 POP POP POP SWAP3 SWAP2 POP POP JUMP JUMPDEST PUSH4 0x4E487B71 PUSH1 0xE0 SHL PUSH1 0x0 MSTORE PUSH1 0x41 PUSH1 0x4 MSTORE PUSH1 0x24 PUSH1 0x0 REVERT JUMPDEST PUSH1 0x0 PUSH1 0x20 DUP3 DUP5 SUB SLT ISZERO PUSH2 0x431 JUMPI PUSH1 0x0 DUP1 REVERT JUMPDEST DUP2 CALLDATALOAD PUSH8 0xFFFFFFFFFFFFFFFF DUP1 DUP3 GT ISZERO PUSH2 0x449 JUMPI PUSH1 0x0 DUP1 REVERT JUMPDEST DUP2 DUP5 ADD SWAP2 POP DUP5 PUSH1 0x1F DUP4 ADD SLT PUSH2 0x45D JUMPI PUSH1 0x0 DUP1 REVERT JUMPDEST DUP2 CALLDATALOAD DUP2 DUP2 GT ISZERO PUSH2 0x46F JUMPI PUSH2 0x46F PUSH2 0x409 JUMP JUMPDEST PUSH1 0x40 MLOAD PUSH1 0x1F DUP3 ADD PUSH1 0x1F NOT SWAP1 DUP2 AND PUSH1 0x3F ADD AND DUP2 ADD SWAP1 DUP4 DUP3 GT DUP2 DUP4 LT OR ISZERO PUSH2 0x497 JUMPI PUSH2 0x497 PUSH2 0x409 JUMP JUMPDEST DUP2 PUSH1 0x40 MSTORE DUP3 DUP2 MSTORE DUP8 PUSH1 0x20 DUP5 DUP8 ADD ADD GT ISZERO PUSH2 0x4B0 JUMPI PUSH1 0x0 DUP1 REVERT JUMPDEST DUP3 PUSH1 0x20 DUP7 ADD PUSH1 0x20 DUP4 ADD CALLDATACOPY PUSH1 0x0 SWAP3 DUP2 ADD PUSH1 0x20 ADD SWAP3 SWAP1 SWAP3 MSTORE POP SWAP6 SWAP5 POP POP POP POP POP JUMP JUMPDEST PUSH1 0x0 PUSH1 0x20 DUP3 DUP5 SUB SLT ISZERO PUSH2 0x4E2 JUMPI PUSH1 0x0 DUP1 REVERT JUMPDEST POP CALLDATALOAD SWAP2 SWAP1 POP JUMP JUMPDEST PUSH1 0x1 DUP2 DUP2 SHR SWAP1 DUP3 AND DUP1 PUSH2 0x4FD JUMPI PUSH1 0x7F DUP3 AND SWAP2 POP JUMPDEST PUSH1 0x20 DUP3 LT DUP2 SUB PUSH2 0x51D JUMPI PUSH4 0x4E487B71 PUSH1 0xE0 SHL PUSH1 0x0 MSTORE PUSH1 0x22 PUSH1 0x4 MSTORE PUSH1 0x24 PUSH1 0x0 REVERT JUMPDEST POP SWAP2 SWAP1 POP JUMP JUMPDEST PUSH1 0x1F DUP3 GT ISZERO PUSH2 0x56D JUMPI PUSH1 0x0 DUP2 DUP2 MSTORE PUSH1 0x20 DUP2 KECCAK256 PUSH1 0x1F DUP6 ADD PUSH1 0x5 SHR DUP2 ADD PUSH1 0x20 DUP7 LT ISZERO PUSH2 0x54A JUMPI POP DUP1 JUMPDEST PUSH1 0x1F DUP6 ADD PUSH1 0x5 SHR DUP3 ADD SWAP2 POP JUMPDEST DUP2 DUP2 LT ISZERO PUSH2 0x569 JUMPI DUP3 DUP2 SSTORE PUSH1 0x1 ADD PUSH2 0x556 JUMP JUMPDEST POP POP POP JUMPDEST POP POP POP JUMP JUMPDEST DUP2 MLOAD PUSH8 0xFFFFFFFFFFFFFFFF DUP2 GT ISZERO PUSH2 0x58C JUMPI PUSH2 0x58C PUSH2 0x409 JUMP JUMPDEST PUSH2 0x5A0 DUP2 PUSH2 0x59A DUP5 SLOAD PUSH2 0x4E9 JUMP JUMPDEST DUP5 PUSH2 0x523 JUMP JUMPDEST PUSH1 0x20 DUP1 PUSH1 0x1F DUP4 GT PUSH1 0x1 DUP2 EQ PUSH2 0x5D5 JUMPI PUSH1 0x0 DUP5 ISZERO PUSH2 0x5BD JUMPI POP DUP6 DUP4 ADD MLOAD JUMPDEST PUSH1 0x0 NOT PUSH1 0x3 DUP7 SWAP1 SHL SHR NOT AND PUSH1 0x1 DUP6 SWAP1 SHL OR DUP6 SSTORE PUSH2 0x569 JUMP JUMPDEST PUSH1 0x0 DUP6 DUP2 MSTORE PUSH1 0x20 DUP2 KECCAK256 PUSH1 0x1F NOT DUP7 AND SWAP2 JUMPDEST DUP3 DUP2 LT ISZERO PUSH2 0x604 JUMPI DUP9 DUP7 ADD MLOAD DUP3 SSTORE SWAP5 DUP5 ADD SWAP5 PUSH1 0x1 SWAP1 SWAP2 ADD SWAP1 DUP5 ADD PUSH2 0x5E5 JUMP JUMPDEST POP DUP6 DUP3 LT ISZERO PUSH2 0x622 JUMPI DUP8 DUP6 ADD MLOAD PUSH1 0x0 NOT PUSH1 0x3 DUP9 SWAP1 SHL PUSH1 0xF8 AND SHR NOT AND DUP2 SSTORE JUMPDEST POP POP POP POP POP PUSH1 0x1 SWAP1 DUP2 SHL ADD SWAP1 SSTORE POP JUMP JUMPDEST PUSH4 0x4E487B71 PUSH1 0xE0 SHL PUSH1 0x0 MSTORE PUSH1 0x11 PUSH1 0x4 MSTORE PUSH1 0x24 PUSH1 0x0 REVERT JUMPDEST DUP1 DUP3 ADD DUP1 DUP3 GT ISZERO PUSH2 0x65B JUMPI PUSH2 0x65B PUSH2 0x632 JUMP JUMPDEST SWAP3 SWAP2 POP POP JUMP JUMPDEST DUP2 DUP2 SUB PUSH1 0x0 DUP4 SLT DUP1 ISZERO DUP4 DUP4 SGT AND DUP4 DUP4 SLT DUP3 AND OR ISZERO PUSH2 0x681 JUMPI PUSH2 0x681 PUSH2 0x632 JUMP JUMPDEST POP SWAP3 SWAP2 POP POP JUMP JUMPDEST DUP1 DUP3 MUL DUP2 ISZERO DUP3 DUP3 DIV DUP5 EQ OR PUSH2 0x65B JUMPI PUSH2 0x65B PUSH2 0x632 JUMP JUMPDEST PUSH1 0x0 DUP3 PUSH2 0x6BC JUMPI PUSH4 0x4E487B71 PUSH1 0xE0 SHL PUSH1 0x0 MSTORE PUSH1 0x12 PUSH1 0x4 MSTORE PUSH1 0x24 PUSH1 0x0 REVERT JUMPDEST POP DIV SWAP1 JUMP JUMPDEST PUSH1 0x0 PUSH1 0x1 PUSH1 0x1 PUSH1 0x50 SHL SUB DUP1 DUP4 AND DUP2 DUP2 SUB PUSH2 0x6DD JUMPI PUSH2 0x6DD PUSH2 0x632 JUMP JUMPDEST PUSH1 0x1 ADD SWAP4 SWAP3 POP POP POP JUMP INVALID LOG2 PUSH5 0x6970667358 0x22 SLT KECCAK256 0xC2 SHR PUSH25 0xC1F10616AEBBB0365587AFE3283DEF4846F0B79F7EA527A1F4 MLOAD 0xAA PUSH21 0x3364736F6C63430008130033000000000000000000 "},"methodIdentifiers":{"MAX_PRICE_CHANGE()":"2084bf9f","MIN_UPDATE_DELAY()":"5416c818","answeredInRound()":"c22c2499","description()":"7284e416","lastUpdate()":"c0463711","latestRoundData()":"feaf968c","price()":"a035b1fe","roundId()":"8cd221c9","setDescription(string)":"90c3f38f","setPrice(int256)":"f7a30806","timestamp()":"b80777ea"}}}}}