{"contracts/ElasticToken.sol":{"ElasticToken":{"abi":[{"inputs":[],"stateMutability":"nonpayable","type":"constructor"},{"anonymous":false,"inputs":[{"indexed":true,"internalType":"address","name":"owner","type":"address"},{"indexed":true,"internalType":"address","name":"spender","type":"address"},{"indexed":false,"internalType":"uint256","name":"value","type":"uint256"}],"name":"Approval","type":"event"},{"anonymous":false,"inputs":[{"indexed":false,"internalType":"address","name":"by","type":"address"}],"name":"ContractPaused","type":"event"},{"anonymous":false,"inputs":[{"indexed":false,"internalType":"address","name":"by","type":"address"}],"name":"ContractUnpaused","type":"event"},{"anonymous":false,"inputs":[{"indexed":false,"internalType":"address","name":"by","type":"address"}],"name":"EmergencyShutdown","type":"event"},{"anonymous":false,"inputs":[{"indexed":true,"internalType":"address","name":"staker","type":"address"},{"indexed":false,"internalType":"uint256","name":"profit","type":"uint256"}],"name":"LongPositionClosed","type":"event"},{"anonymous":false,"inputs":[{"indexed":true,"internalType":"address","name":"staker","type":"address"},{"indexed":false,"internalType":"uint256","name":"ethAmount","type":"uint256"},{"indexed":false,"internalType":"int256","name":"entryPrice","type":"int256"}],"name":"LongPositionOpened","type":"event"},{"anonymous":false,"inputs":[{"indexed":false,"internalType":"address","name":"operator","type":"address"}],"name":"OperatorAdded","type":"event"},{"anonymous":false,"inputs":[{"indexed":false,"internalType":"address","name":"operator","type":"address"}],"name":"OperatorRemoved","type":"event"},{"anonymous":false,"inputs":[{"indexed":false,"internalType":"bytes32","name":"symbolHash","type":"bytes32"},{"indexed":false,"internalType":"int256","name":"price","type":"int256"},{"indexed":false,"internalType":"uint256","name":"impact","type":"uint256"}],"name":"PriceUpdateRejected","type":"event"},{"anonymous":false,"inputs":[{"indexed":false,"internalType":"int256","name":"oldPrice","type":"int256"},{"indexed":false,"internalType":"int256","name":"newPrice","type":"int256"},{"indexed":false,"internalType":"int256","name":"priceDelta","type":"int256"}],"name":"Rebase","type":"event"},{"anonymous":false,"inputs":[{"indexed":false,"internalType":"string","name":"symbol","type":"string"},{"indexed":false,"internalType":"address","name":"priceFeed","type":"address"}],"name":"SymbolAdded","type":"event"},{"anonymous":false,"inputs":[{"indexed":false,"internalType":"string","name":"symbol","type":"string"}],"name":"SymbolDeactivated","type":"event"},{"anonymous":false,"inputs":[{"indexed":false,"internalType":"uint256","name":"amount","type":"uint256"},{"indexed":false,"internalType":"bool","name":"isBuyTax","type":"bool"}],"name":"TaxCollected","type":"event"},{"anonymous":false,"inputs":[{"indexed":true,"internalType":"address","name":"from","type":"address"},{"indexed":true,"internalType":"address","name":"to","type":"address"},{"indexed":false,"internalType":"uint256","name":"value","type":"uint256"}],"name":"Transfer","type":"event"},{"anonymous":false,"inputs":[{"indexed":false,"internalType":"uint256","name":"withdrawalId","type":"uint256"},{"indexed":false,"internalType":"uint256","name":"amount","type":"uint256"}],"name":"WithdrawalInitiated","type":"event"},{"inputs":[],"name":"BLOCKS_BETWEEN_TRADES","outputs":[{"internalType":"uint256","name":"","type":"uint256"}],"stateMutability":"view","type":"function"},{"inputs":[],"name":"BUY_TAX","outputs":[{"internalType":"uint256","name":"","type":"uint256"}],"stateMutability":"view","type":"function"},{"inputs":[],"name":"CURVE_DENOMINATOR","outputs":[{"internalType":"uint256","name":"","type":"uint256"}],"stateMutability":"view","type":"function"},{"inputs":[],"name":"MAX_OPERATORS","outputs":[{"internalType":"uint256","name":"","type":"uint256"}],"stateMutability":"view","type":"function"},{"inputs":[],"name":"MAX_PRICE_IMPACT","outputs":[{"internalType":"uint256","name":"","type":"uint256"}],"stateMutability":"view","type":"function"},{"inputs":[],"name":"MAX_RESERVE_RATIO","outputs":[{"internalType":"uint256","name":"","type":"uint256"}],"stateMutability":"view","type":"function"},{"inputs":[],"name":"MAX_SUPPLY","outputs":[{"internalType":"uint256","name":"","type":"uint256"}],"stateMutability":"view","type":"function"},{"inputs":[],"name":"MIN_PRICE_ANSWERS","outputs":[{"internalType":"uint256","name":"","type":"uint256"}],"stateMutability":"view","type":"function"},{"inputs":[],"name":"MIN_PRICE_CHANGE_INTERVAL","outputs":[{"internalType":"uint256","name":"","type":"uint256"}],"stateMutability":"view","type":"function"},{"inputs":[],"name":"MIN_PRICE_UPDATE_TIME","outputs":[{"internalType":"uint256","name":"","type":"uint256"}],"stateMutability":"view","type":"function"},{"inputs":[],"name":"MIN_SUPPLY","outputs":[{"internalType":"uint256","name":"","type":"uint256"}],"stateMutability":"view","type":"function"},{"inputs":[],"name":"PRICE_DECIMALS","outputs":[{"internalType":"uint256","name":"","type":"uint256"}],"stateMutability":"view","type":"function"},{"inputs":[],"name":"PRICE_FRESHNESS_PERIOD","outputs":[{"internalType":"uint256","name":"","type":"uint256"}],"stateMutability":"view","type":"function"},{"inputs":[],"name":"SELL_TAX","outputs":[{"internalType":"uint256","name":"","type":"uint256"}],"stateMutability":"view","type":"function"},{"inputs":[],"name":"TAX_DENOMINATOR","outputs":[{"internalType":"uint256","name":"","type":"uint256"}],"stateMutability":"view","type":"function"},{"inputs":[],"name":"TRACKED_DECIMALS","outputs":[{"internalType":"uint256","name":"","type":"uint256"}],"stateMutability":"view","type":"function"},{"inputs":[],"name":"WITHDRAWAL_DELAY","outputs":[{"internalType":"uint256","name":"","type":"uint256"}],"stateMutability":"view","type":"function"},{"inputs":[{"internalType":"address","name":"operator","type":"address"}],"name":"addOperator","outputs":[],"stateMutability":"nonpayable","type":"function"},{"inputs":[{"internalType":"address","name":"priceFeed","type":"address"}],"name":"addSymbol","outputs":[],"stateMutability":"nonpayable","type":"function"},{"inputs":[{"internalType":"address","name":"","type":"address"},{"internalType":"address","name":"","type":"address"}],"name":"allowance","outputs":[{"internalType":"uint256","name":"","type":"uint256"}],"stateMutability":"view","type":"function"},{"inputs":[{"internalType":"address","name":"_spender","type":"address"},{"internalType":"uint256","name":"_amount","type":"uint256"}],"name":"approve","outputs":[{"internalType":"bool","name":"","type":"bool"}],"stateMutability":"nonpayable","type":"function"},{"inputs":[{"internalType":"address","name":"","type":"address"}],"name":"balanceOf","outputs":[{"internalType":"uint256","name":"","type":"uint256"}],"stateMutability":"view","type":"function"},{"inputs":[],"name":"burnCurveRate","outputs":[{"internalType":"uint256","name":"","type":"uint256"}],"stateMutability":"view","type":"function"},{"inputs":[{"internalType":"string","name":"symbol_","type":"string"},{"internalType":"uint256","name":"minTokensOut_","type":"uint256"}],"name":"buyTokens","outputs":[{"internalType":"uint256","name":"","type":"uint256"}],"stateMutability":"payable","type":"function"},{"inputs":[],"name":"closeLongPosition","outputs":[],"stateMutability":"nonpayable","type":"function"},{"inputs":[],"name":"collectedTaxes","outputs":[{"internalType":"uint256","name":"","type":"uint256"}],"stateMutability":"view","type":"function"},{"inputs":[{"internalType":"uint256","name":"withdrawalId","type":"uint256"}],"name":"completeWithdrawal","outputs":[],"stateMutability":"nonpayable","type":"function"},{"inputs":[{"internalType":"string","name":"symbol_","type":"string"}],"name":"deactivateSymbol","outputs":[],"stateMutability":"nonpayable","type":"function"},{"inputs":[],"name":"decimals","outputs":[{"internalType":"uint8","name":"","type":"uint8"}],"stateMutability":"view","type":"function"},{"inputs":[],"name":"emergencyShutdown","outputs":[],"stateMutability":"nonpayable","type":"function"},{"inputs":[],"name":"emergencyWithdraw","outputs":[],"stateMutability":"nonpayable","type":"function"},{"inputs":[{"internalType":"address","name":"staker","type":"address"}],"name":"getPositionInfo","outputs":[{"internalType":"string","name":"symbol_","type":"string"},{"internalType":"uint256","name":"ethAmount","type":"uint256"},{"internalType":"int256","name":"entryPrice","type":"int256"},{"internalType":"uint256","name":"timestamp","type":"uint256"},{"internalType":"int256","name":"currentPnL","type":"int256"}],"stateMutability":"view","type":"function"},{"inputs":[],"name":"getSupportedSymbolsCount","outputs":[{"internalType":"uint256","name":"","type":"uint256"}],"stateMutability":"view","type":"function"},{"inputs":[{"internalType":"string","name":"symbol_","type":"string"}],"name":"getSymbolHash","outputs":[{"internalType":"bytes32","name":"","type":"bytes32"}],"stateMutability":"pure","type":"function"},{"inputs":[{"internalType":"string","name":"symbol_","type":"string"}],"name":"getSymbolInfo","outputs":[{"internalType":"address","name":"priceFeed","type":"address"},{"internalType":"int256","name":"lastPrice","type":"int256"},{"internalType":"uint256","name":"reserveBalance","type":"uint256"},{"internalType":"bool","name":"active","type":"bool"}],"stateMutability":"view","type":"function"},{"inputs":[{"internalType":"string","name":"symbol_","type":"string"}],"name":"getSymbolPrice","outputs":[{"internalType":"int256","name":"price","type":"int256"}],"stateMutability":"view","type":"function"},{"inputs":[],"name":"initiateWithdrawal","outputs":[],"stateMutability":"nonpayable","type":"function"},{"inputs":[{"internalType":"address","name":"","type":"address"}],"name":"lastTradeBlock","outputs":[{"internalType":"uint256","name":"","type":"uint256"}],"stateMutability":"view","type":"function"},{"inputs":[{"internalType":"address","name":"","type":"address"}],"name":"longPositions","outputs":[{"internalType":"bytes32","name":"symbolHash","type":"bytes32"},{"internalType":"uint256","name":"ethAmount","type":"uint256"},{"internalType":"int256","name":"entryPrice","type":"int256"},{"internalType":"uint256","name":"timestamp","type":"uint256"}],"stateMutability":"view","type":"function"},{"inputs":[],"name":"mintCurveRate","outputs":[{"internalType":"uint256","name":"","type":"uint256"}],"stateMutability":"view","type":"function"},{"inputs":[],"name":"name","outputs":[{"internalType":"string","name":"","type":"string"}],"stateMutability":"view","type":"function"},{"inputs":[],"name":"nextWithdrawalId","outputs":[{"internalType":"uint256","name":"","type":"uint256"}],"stateMutability":"view","type":"function"},{"inputs":[{"internalType":"string","name":"symbol_","type":"string"}],"name":"openLongPosition","outputs":[],"stateMutability":"payable","type":"function"},{"inputs":[],"name":"operatorCount","outputs":[{"internalType":"uint256","name":"","type":"uint256"}],"stateMutability":"view","type":"function"},{"inputs":[{"internalType":"address","name":"","type":"address"}],"name":"operators","outputs":[{"internalType":"bool","name":"","type":"bool"}],"stateMutability":"view","type":"function"},{"inputs":[],"name":"owner","outputs":[{"internalType":"address","name":"","type":"address"}],"stateMutability":"view","type":"function"},{"inputs":[],"name":"pause","outputs":[],"stateMutability":"nonpayable","type":"function"},{"inputs":[],"name":"paused","outputs":[{"internalType":"bool","name":"","type":"bool"}],"stateMutability":"view","type":"function"},{"inputs":[{"internalType":"uint256","name":"","type":"uint256"}],"name":"pendingWithdrawals","outputs":[{"internalType":"uint256","name":"","type":"uint256"}],"stateMutability":"view","type":"function"},{"inputs":[],"name":"rebaseFactor","outputs":[{"internalType":"uint256","name":"","type":"uint256"}],"stateMutability":"view","type":"function"},{"inputs":[],"name":"rebaseSupply","outputs":[],"stateMutability":"nonpayable","type":"function"},{"inputs":[{"internalType":"address","name":"operator","type":"address"}],"name":"removeOperator","outputs":[],"stateMutability":"nonpayable","type":"function"},{"inputs":[{"internalType":"string","name":"symbol_","type":"string"},{"internalType":"uint256","name":"tokenAmount","type":"uint256"}],"name":"sellTokens","outputs":[],"stateMutability":"nonpayable","type":"function"},{"inputs":[{"internalType":"uint256","name":"","type":"uint256"}],"name":"supportedSymbols","outputs":[{"internalType":"bytes32","name":"","type":"bytes32"}],"stateMutability":"view","type":"function"},{"inputs":[],"name":"symbol","outputs":[{"internalType":"string","name":"","type":"string"}],"stateMutability":"view","type":"function"},{"inputs":[{"internalType":"bytes32","name":"","type":"bytes32"}],"name":"symbolData","outputs":[{"internalType":"string","name":"symbol","type":"string"},{"internalType":"address","name":"priceFeed","type":"address"},{"internalType":"int256","name":"lastPrice","type":"int256"},{"internalType":"uint256","name":"reserveBalance","type":"uint256"},{"internalType":"bool","name":"active","type":"bool"}],"stateMutability":"view","type":"function"},{"inputs":[],"name":"totalStaked","outputs":[{"internalType":"uint256","name":"","type":"uint256"}],"stateMutability":"view","type":"function"},{"inputs":[],"name":"totalSupply","outputs":[{"internalType":"uint256","name":"","type":"uint256"}],"stateMutability":"view","type":"function"},{"inputs":[],"name":"trackedSymbol","outputs":[{"internalType":"string","name":"","type":"string"}],"stateMutability":"view","type":"function"},{"inputs":[{"internalType":"address","name":"_to","type":"address"},{"internalType":"uint256","name":"_amount","type":"uint256"}],"name":"transfer","outputs":[{"internalType":"bool","name":"","type":"bool"}],"stateMutability":"nonpayable","type":"function"},{"inputs":[{"internalType":"address","name":"_from","type":"address"},{"internalType":"address","name":"_to","type":"address"},{"internalType":"uint256","name":"_amount","type":"uint256"}],"name":"transferFrom","outputs":[{"internalType":"bool","name":"","type":"bool"}],"stateMutability":"nonpayable","type":"function"},{"inputs":[{"internalType":"address","name":"newOwner","type":"address"}],"name":"transferOwnership","outputs":[],"stateMutability":"nonpayable","type":"function"},{"inputs":[],"name":"unpause","outputs":[],"stateMutability":"nonpayable","type":"function"},{"inputs":[],"name":"withdrawTaxes","outputs":[],"stateMutability":"nonpayable","type":"function"},{"stateMutability":"payable","type":"receive"}],"evm":{"bytecode":{"linkReferences":{},"object":"60c0604052600c60809081526b456c617374696347726f777360a01b60a052600a906200002d908262000189565b506040805180820190915260058152644547524f5760d81b6020820152600b9062000059908262000189565b50600c805460ff19166012908117909155620f4240601055611f40601155612ee090553480156200008957600080fd5b50600680546001600160a01b031916339081179091556001600081815569021e19e0c9bab2400000600d819055928152600e60209081526040808320949094556004905291909120805460ff19168217905560055562000255565b634e487b7160e01b600052604160045260246000fd5b600181811c908216806200010f57607f821691505b6020821081036200013057634e487b7160e01b600052602260045260246000fd5b50919050565b601f8211156200018457600081815260208120601f850160051c810160208610156200015f5750805b601f850160051c820191505b8181101562000180578281556001016200016b565b5050505b505050565b81516001600160401b03811115620001a557620001a5620000e4565b620001bd81620001b68454620000fa565b8462000136565b602080601f831160018114620001f55760008415620001dc5750858301515b600019600386901b1c1916600185901b17855562000180565b600085815260208120601f198616915b82811015620002265788860151825594840194600190910190840162000205565b5085821015620002455787850151600019600388901b60f8161c191681555b5050505050600190811b01905550565b61407280620002656000396000f3fe6080604052600436106103c75760003560e01c8063683d0a0e116101f2578063a9059cbb1161010d578063cab7ac3a116100a0578063e61504001161006f578063e615040014610a89578063f1a640f8146109df578063f2fde38b14610ab6578063fbd1d25a14610ad657600080fd5b8063cab7ac3a14610a14578063dad7ae5a14610a29578063db2e21bc14610a3c578063dd62ed3e14610a5157600080fd5b8063b608bbd0116100dc578063b608bbd0146109b3578063b7297057146109c9578063bba0e722146109df578063c4d2eb2e146109f457600080fd5b8063a9059cbb146108fc578063ac511bc01461091c578063ac8a584a1461097e578063b51d1d4f1461099e57600080fd5b8063932d68a6116101855780639e18f399116101545780639e18f399146108865780639f65106c1461089b578063a51c9ace14610495578063a7ea74b7146108e757600080fd5b8063932d68a61461081157806395d89b41146108315780639870d7fe146108465780639954c2171461086657600080fd5b80637c6f3158116101c15780637c6f315814610798578063817b1cd2146107ae5780638456cb59146107c45780638da5cb5b146107d957600080fd5b8063683d0a0e14610729578063696cf8f0146106ae57806370a082311461073e57806374db9d111461076b57600080fd5b806335917c64116102e257806352c2c29411610275578063556f98fc11610244578063556f98fc146106c45780635c975abb146106d95780635f576c44146106f35780636839b5fa1461071357600080fd5b806352c2c2941461067957806353baf0ad1461069957806354ad8aee146103d35780635536487c146106ae57600080fd5b80633f4ba83a116102b15780633f4ba83a14610619578063468298311461062e5780634a9122e3146106435780634f0cb5f31461065957600080fd5b806335917c641461059857806336e1af4b146105b55780633a58c9c8146105e65780633a7adc64146105f957600080fd5b80631cdd82dc1161035a5780632f3892f5116103295780632f3892f514610522578063313ce5671461053757806332cb6b0c146105635780633403c2fc1461058157600080fd5b80631cdd82dc146104c15780631e15d1a5146104d757806323b872dd146104ed5780632b78c9f71461050d57600080fd5b80631190016c116103965780631190016c146103d357806313e7c9d81461046557806317d16bfb1461049557806318160ddd146104ab57600080fd5b806302af37bb146103d357806306fdde03146103fc578063095ea7b31461041e5780630ebb172a1461044e57600080fd5b366103ce57005b600080fd5b3480156103df57600080fd5b506103e96101f481565b6040519081526020015b60405180910390f35b34801561040857600080fd5b50610411610b07565b6040516103f3919061365d565b34801561042a57600080fd5b5061043e610439366004613693565b610b95565b60405190151581526020016103f3565b34801561045a57600080fd5b506103e96202a30081565b34801561047157600080fd5b5061043e6104803660046136bd565b60046020526000908152604090205460ff1681565b3480156104a157600080fd5b506103e961271081565b3480156104b757600080fd5b506103e9600d5481565b3480156104cd57600080fd5b506103e960105481565b3480156104e357600080fd5b506103e960125481565b3480156104f957600080fd5b5061043e6105083660046136d8565b610bfa565b34801561051957600080fd5b506103e9600581565b34801561052e57600080fd5b506103e9600f81565b34801561054357600080fd5b50600c546105519060ff1681565b60405160ff90911681526020016103f3565b34801561056f57600080fd5b506103e969d3c21bcecceda100000081565b34801561058d57600080fd5b50610596610d9b565b005b3480156105a457600080fd5b506103e9683635c9adc5dea0000081565b3480156105c157600080fd5b506105d56105d0366004613714565b610e0d565b6040516103f395949392919061372d565b6105966105f43660046137b8565b610ed1565b34801561060557600080fd5b506103e96106143660046138bf565b6111c2565b34801561062557600080fd5b506105966111f2565b34801561063a57600080fd5b5061059661129a565b34801561064f57600080fd5b506103e960175481565b34801561066557600080fd5b50610596610674366004613714565b6113b8565b34801561068557600080fd5b506105966106943660046137b8565b611553565b3480156106a557600080fd5b5061059661166e565b3480156106ba57600080fd5b506103e9610e1081565b3480156106d057600080fd5b50610596611980565b3480156106e557600080fd5b5060035461043e9060ff1681565b3480156106ff57600080fd5b5061059661070e3660046138fc565b6119f5565b34801561071f57600080fd5b506103e96103e881565b34801561073557600080fd5b506103e9606481565b34801561074a57600080fd5b506103e96107593660046136bd565b600e6020526000908152604090205481565b34801561077757600080fd5b506103e96107863660046136bd565b60026020526000908152604090205481565b3480156107a457600080fd5b506103e960055481565b3480156107ba57600080fd5b506103e960145481565b3480156107d057600080fd5b50610596611ec8565b3480156107e557600080fd5b506006546107f9906001600160a01b031681565b6040516001600160a01b0390911681526020016103f3565b34801561081d57600080fd5b506103e961082c366004613714565b611f78565b34801561083d57600080fd5b50610411611f99565b34801561085257600080fd5b506105966108613660046136bd565b611fa6565b34801561087257600080fd5b506105966108813660046136bd565b6120e8565b34801561089257600080fd5b506009546103e9565b3480156108a757600080fd5b506108bb6108b63660046137b8565b6124a4565b604080516001600160a01b039095168552602085019390935291830152151560608201526080016103f3565b3480156108f357600080fd5b506103e9600181565b34801561090857600080fd5b5061043e610917366004613693565b61252c565b34801561092857600080fd5b5061095e6109373660046136bd565b60136020526000908152604090208054600182015460028301546003909301549192909184565b6040805194855260208501939093529183015260608201526080016103f3565b34801561098a57600080fd5b506105966109993660046136bd565b6125fb565b3480156109aa57600080fd5b5061059661273c565b3480156109bf57600080fd5b506103e960115481565b3480156109d557600080fd5b506103e960075481565b3480156109eb57600080fd5b506103e9600881565b348015610a0057600080fd5b506103e9610a0f3660046137b8565b6127d8565b348015610a2057600080fd5b506104116128fa565b6103e9610a37366004613948565b612907565b348015610a4857600080fd5b50610596612e26565b348015610a5d57600080fd5b506103e9610a6c36600461398d565b600f60209081526000928352604080842090915290825290205481565b348015610a9557600080fd5b506103e9610aa4366004613714565b60166020526000908152604090205481565b348015610ac257600080fd5b50610596610ad13660046136bd565b612e98565b348015610ae257600080fd5b50610af6610af13660046136bd565b612f2c565b6040516103f39594939291906139c0565b600a8054610b14906139f7565b80601f0160208091040260200160405190810160405280929190818152602001828054610b40906139f7565b8015610b8d5780601f10610b6257610100808354040283529160200191610b8d565b820191906000526020600020905b815481529060010190602001808311610b7057829003601f168201915b505050505081565b336000818152600f602090815260408083206001600160a01b038716845282528083208590555184815291929182917f8c5be1e5ebec7d5bd14f71427d1e84f3dd0314c0f7b2291e5b200ac8c7c3b92591015b60405180910390a35060015b92915050565b6001600160a01b0383166000908152600e6020526040812054821115610c5b5760405162461bcd60e51b81526020600482015260116024820152704e6f7420656e6f75676820746f6b656e7360781b60448201526064015b60405180910390fd5b6001600160a01b0384166000908152600f60209081526040808320338452909152902054821115610cc25760405162461bcd60e51b8152602060048201526011602482015270416c6c6f77616e636520746f6f206c6f7760781b6044820152606401610c52565b6001600160a01b0384166000908152600f6020908152604080832033845290915281208054849290610cf5908490613a47565b90915550506001600160a01b0384166000908152600e602052604081208054849290610d22908490613a47565b90915550506001600160a01b0383166000908152600e602052604081208054849290610d4f908490613a5a565b92505081905550826001600160a01b0316846001600160a01b031660008051602061401d83398151915284604051610d8991815260200190565b60405180910390a35060019392505050565b3360009081526004602052604090205460ff16610dca5760405162461bcd60e51b8152600401610c5290613a6d565b6003805460ff191660011790556040513381527f1fc1e771236d2e93bb9541cdcb4654ba0fd3fb615b48d829b7b365f039985126906020015b60405180910390a1565b600860205260009081526040902080548190610e28906139f7565b80601f0160208091040260200160405190810160405280929190818152602001828054610e54906139f7565b8015610ea15780601f10610e7657610100808354040283529160200191610ea1565b820191906000526020600020905b815481529060010190602001808311610e8457829003601f168201915b5050505060018301546002840154600385015460049095015493946001600160a01b039092169390925060ff1685565b600260005403610ef35760405162461bcd60e51b8152600401610c5290613a96565b6002600081815533815260209190915260409020544390610f1690600190613a5a565b10610f335760405162461bcd60e51b8152600401610c5290613acd565b33600090815260026020526040902043905560035460ff1615610f685760405162461bcd60e51b8152600401610c5290613af6565b6000610fa983838080601f0160208091040260200160405190810160405280939291908181526020018383808284376000920191909152506111c292505050565b60008181526008602052604090206004015490915060ff16610fdd5760405162461bcd60e51b8152600401610c5290613b22565b67016345785d8a00003410156110235760405162461bcd60e51b815260206004820152600b60248201526a09ad2dc40605c62408aa8960ab1b6044820152606401610c52565b33600090815260136020526040902060010154156110755760405162461bcd60e51b815260206004820152600f60248201526e506f736974696f6e2065786973747360881b6044820152606401610c52565b600081815260086020526040808220600101548151633fabe5a360e21b815291516001600160a01b039091169163feaf968c9160048083019260a09291908290030181865afa1580156110cc573d6000803e3d6000fd5b505050506040513d601f19601f820116820180604052508101906110f09190613b67565b505050915050600081136111165760405162461bcd60e51b8152600401610c5290613bb7565b6040805160808101825283815234602080830182815283850186815242606086019081523360009081526013909452958320945185559051600185015551600284015592516003909201919091556014805491929091611177908490613a5a565b9091555050604080513481526020810183905233917ff4ba3ebcd3c40319f1834baa786a0f71b5a4b6015addb0db1fcf2b1377f64e1b910160405180910390a2505060016000555050565b6000816040516020016111d59190613bde565b604051602081830303815290604052805190602001209050919050565b3360009081526004602052604090205460ff166112215760405162461bcd60e51b8152600401610c5290613a6d565b60035460ff166112605760405162461bcd60e51b815260206004820152600a602482015269139bdd081c185d5cd95960b21b6044820152606401610c52565b6003805460ff191690556040513381527f5b65b0c1363b3003db9bcc5e1fd8805a6d6bf5bf6dc9d3431ee4494cd7d1176690602001610e03565b6006546001600160a01b031633146112c45760405162461bcd60e51b8152600401610c5290613bfa565b60006007541161130d5760405162461bcd60e51b81526020600482015260146024820152734e6f20746178657320746f20776974686472617760601b6044820152606401610c52565b600780546000918290556006546040519192916001600160a01b039091169083908381818185875af1925050503d8060008114611366576040519150601f19603f3d011682016040523d82523d6000602084013e61136b565b606091505b50509050806113b45760405162461bcd60e51b815260206004820152601560248201527415185e081dda5d1a191c985dd85b0819985a5b1959605a1b6044820152606401610c52565b5050565b6006546001600160a01b031633146113e25760405162461bcd60e51b8152600401610c5290613bfa565b6000818152601660205260409020546114325760405162461bcd60e51b8152602060048201526012602482015271125b9d985b1a59081dda5d1a191c985dd85b60721b6044820152606401610c52565b60008181526016602052604090205461144f906202a30090613a5a565b42101561149e5760405162461bcd60e51b815260206004820152601860248201527f5769746864726177616c2064656c6179206e6f74206d657400000000000000006044820152606401610c52565b600780546000918290558282526016602052604080832083905560065490519192916001600160a01b039091169083908381818185875af1925050503d8060008114611506576040519150601f19603f3d011682016040523d82523d6000602084013e61150b565b606091505b505090508061154e5760405162461bcd60e51b815260206004820152600f60248201526e151c985b9cd9995c8819985a5b1959608a1b6044820152606401610c52565b505050565b600061159483838080601f0160208091040260200160405190810160405280939291908181526020018383808284376000920191909152506111c292505050565b60008181526008602052604090206004015490915060ff166115ec5760405162461bcd60e51b815260206004820152601160248201527053796d626f6c206e6f742061637469766560781b6044820152606401610c52565b6006546001600160a01b031633146116165760405162461bcd60e51b8152600401610c5290613bfa565b60008181526008602052604090819020600401805460ff19169055517f2b06be561ee99526dc571a9cfd3ae9a218fc9ac34fc8cb888c742fcb40a7d226906116619085908590613c1e565b60405180910390a1505050565b6002600054036116905760405162461bcd60e51b8152600401610c5290613a96565b600260008181553381526013602090815260409182902082516080810184528154815260018201549281018390529381015492840192909252600390910154606083015261170e5760405162461bcd60e51b815260206004820152600b60248201526a2737903837b9b4ba34b7b760a91b6044820152606401610c52565b805160009081526008602052604080822060018101548251633fabe5a360e21b815292519193926001600160a01b039091169163feaf968c9160048082019260a0929091908290030181865afa15801561176c573d6000803e3d6000fd5b505050506040513d601f19601f820116820180604052508101906117909190613b67565b505050915050600081136117b65760405162461bcd60e51b8152600401610c5290613bb7565b60008360400151826117c89190613c4d565b905060008082131561185b5784604001518286602001516117e99190613c6d565b6117f39190613c9a565b905083600301548111156118415760405162461bcd60e51b8152602060048201526015602482015274496e73756666696369656e7420726573657276657360581b6044820152606401610c52565b808460030160008282546118559190613a47565b90915550505b8460200151601460008282546118719190613a47565b9091555050336000908152601360209081526040822082815560018101839055600281018390556003018290558601516118ac908390613a5a565b604051909150600090339083908381818185875af1925050503d80600081146118f1576040519150601f19603f3d011682016040523d82523d6000602084013e6118f6565b606091505b505090508061193d5760405162461bcd60e51b8152602060048201526013602482015272115512081d1c985b9cd9995c8819985a5b1959606a1b6044820152606401610c52565b60405183815233907fe26feab862b8dc2729bd359c56323c001ef16cd20eae9fc4e0d461a6f0f29f159060200160405180910390a2505060016000555050505050565b60005b6009548110156119f2576000600982815481106119a2576119a2613cae565b60009182526020808320909101548083526008909152604090912060048101549192509060ff166119d45750506119e0565b6119dd82613131565b50505b806119ea81613cc4565b915050611983565b50565b600260005403611a175760405162461bcd60e51b8152600401610c5290613a96565b6002600081815533815260209190915260409020544390611a3a90600190613a5a565b10611a575760405162461bcd60e51b8152600401610c5290613acd565b33600090815260026020526040902043905560035460ff1615611a8c5760405162461bcd60e51b8152600401610c5290613af6565b6000611acd84848080601f0160208091040260200160405190810160405280939291908181526020018383808284376000920191909152506111c292505050565b600081815260086020526040902090915082611b2b5760405162461bcd60e51b815260206004820152601760248201527f416d6f756e74206d75737420626520706f7369746976650000000000000000006044820152606401610c52565b336000908152600e6020526040902054831115611b815760405162461bcd60e51b8152602060048201526014602482015273496e73756666696369656e742062616c616e636560601b6044820152606401610c52565b600060086000611bab6040518060400160405280600381526020016208aa8960eb1b8152506111c2565b815260200190815260200160002060010160009054906101000a90046001600160a01b03166001600160a01b031663feaf968c6040518163ffffffff1660e01b815260040160a060405180830381865afa158015611c0d573d6000803e3d6000fd5b505050506040513d601f19601f82011682018060405250810190611c319190613b67565b50505091505060008113611c7b5760405162461bcd60e51b8152602060048201526011602482015270496e76616c69642045544820707269636560781b6044820152606401610c52565b6000611c8787876127d8565b600c54909150600090611c9e9060ff16600a613dc1565b611ca88388613c6d565b611cb29190613c9a565b9050600083611cc36008600a613dd0565b611ccd9084613c6d565b611cd79190613c9a565b90506000612710611cea6101f484613c6d565b611cf49190613c9a565b90506000611d028284613a47565b90508160076000828254611d169190613a5a565b90915550506003870154831115611d665760405162461bcd60e51b8152602060048201526014602482015273496e73756666696369656e74207265736572766560601b6044820152606401610c52565b6101f48760030154611d789190613c6d565b611d8484612710613c6d565b1115611dca5760405162461bcd60e51b8152602060048201526015602482015274151bdbc81b5d58da081c1c9a58d9481a5b5c1858dd605a1b6044820152606401610c52565b82876003016000828254611dde9190613a47565b90915550611dee9050338a6134c4565b604051600090339083908381818185875af1925050503d8060008114611e30576040519150601f19603f3d011682016040523d82523d6000602084013e611e35565b606091505b5050905080611e7c5760405162461bcd60e51b8152602060048201526013602482015272115512081d1c985b9cd9995c8819985a5b1959606a1b6044820152606401610c52565b60408051848152600060208201527f39f668d6f1b4338891dc891669079f6724a94b39e1ce3570bcfc68b2c036ff5e910160405180910390a15050600160005550505050505050505050565b3360009081526004602052604090205460ff16611ef75760405162461bcd60e51b8152600401610c5290613a6d565b60035460ff1615611f3b5760405162461bcd60e51b815260206004820152600e60248201526d105b1c9958591e481c185d5cd95960921b6044820152606401610c52565b6003805460ff191660011790556040513381527f81990fd9a5c552b8e3677917d8a03c07678f0d2cb68f88b634aca2022e9bd19f90602001610e03565b60098181548110611f8857600080fd5b600091825260209091200154905081565b600b8054610b14906139f7565b6006546001600160a01b03163314611fd05760405162461bcd60e51b8152600401610c5290613bfa565b6001600160a01b03811660009081526004602052604090205460ff161561202c5760405162461bcd60e51b815260206004820152601060248201526f20b63932b0b23c9037b832b930ba37b960811b6044820152606401610c52565b60058054106120725760405162461bcd60e51b8152602060048201526012602482015271546f6f206d616e79206f70657261746f727360701b6044820152606401610c52565b6001600160a01b0381166000908152600460205260408120805460ff1916600117905560058054916120a383613cc4565b90915550506040516001600160a01b03821681527fac6fa858e9350a46cec16539926e0fde25b7629f84b5a72bffaae4df888ae86d906020015b60405180910390a150565b60008190506000816001600160a01b0316637284e4166040518163ffffffff1660e01b8152600401600060405180830381865afa15801561212d573d6000803e3d6000fd5b505050506040513d6000823e601f3d908101601f191682016040526121559190810190613ddc565b905060008151116121975760405162461bcd60e51b815260206004820152600c60248201526b115b5c1d1e481cde5b589bdb60a21b6044820152606401610c52565b60006121a2826111c2565b60008181526008602052604090206004015490915060ff16156121ff5760405162461bcd60e51b815260206004820152601560248201527453796d626f6c20616c72656164792065786973747360581b6044820152606401610c52565b6000806000806000876001600160a01b031663feaf968c6040518163ffffffff1660e01b815260040160a060405180830381865afa158015612245573d6000803e3d6000fd5b505050506040513d601f19601f820116820180604052508101906122699190613b67565b94509450945094509450600084136122935760405162461bcd60e51b8152600401610c5290613bb7565b61229f610e1042613a47565b8210156122e35760405162461bcd60e51b8152602060048201526012602482015271141c9a58d94819995959081d1bdbc81bdb1960721b6044820152606401610c52565b846001600160501b0316816001600160501b031610156123385760405162461bcd60e51b815260206004820152601060248201526f50726963652066656564207374616c6560801b6044820152606401610c52565b6064856001600160501b031610156123875760405162461bcd60e51b81526020600482015260126024820152715072696365206665656420746f6f206e657760701b6044820152606401610c52565b6040805160a0810182528881526001600160a01b038b1660208083019190915281830187905260006060830181905260016080840152898152600890915291909120815181906123d79082613ea1565b506020820151600182810180546001600160a01b0319166001600160a01b03909316929092179091556040808401516002840155606084015160038401556080909301516004909201805460ff1916921515929092179091556009805491820181556000527f6e1540171b6c0c960b71a7020d9f60077f6af931a8bbf590da0223dacf75c7af01879055517f27da68ee2ad2c8bbe20c961595d7723244c182397720afdfeca8ee27e2294125906124919089908c90613f61565b60405180910390a1505050505050505050565b60008060008060006124eb87878080601f0160208091040260200160405190810160405280939291908181526020018383808284376000920191909152506111c292505050565b60009081526008602052604090206001810154600282015460038301546004909301546001600160a01b039092169a90995091975060ff1695509350505050565b336000908152600e602052604081205482111561257f5760405162461bcd60e51b81526020600482015260116024820152704e6f7420656e6f75676820746f6b656e7360781b6044820152606401610c52565b336000908152600e60205260408120805484929061259e908490613a47565b90915550506001600160a01b0383166000908152600e6020526040812080548492906125cb908490613a5a565b90915550506040518281526001600160a01b03841690339060008051602061401d83398151915290602001610be8565b6006546001600160a01b031633146126255760405162461bcd60e51b8152600401610c5290613bfa565b6001600160a01b03811660009081526004602052604090205460ff1661267c5760405162461bcd60e51b815260206004820152600c60248201526b2737ba1037b832b930ba37b960a11b6044820152606401610c52565b6006546001600160a01b03908116908216036126d05760405162461bcd60e51b815260206004820152601360248201527221b0b73737ba103932b6b7bb329037bbb732b960691b6044820152606401610c52565b6001600160a01b0381166000908152600460205260408120805460ff1916905560058054916126fe83613f8b565b90915550506040516001600160a01b03821681527f80c0b871b97b595b16a7741c1b06fed0c6f6f558639f18ccbce50724325dc40d906020016120dd565b6006546001600160a01b031633146127665760405162461bcd60e51b8152600401610c5290613bfa565b6000600754116127af5760405162461bcd60e51b81526020600482015260146024820152734e6f20746178657320746f20776974686472617760601b6044820152606401610c52565b60178054600091826127c083613cc4565b90915550600090815260166020526040902042905550565b60008061281a84848080601f0160208091040260200160405190810160405280939291908181526020018383808284376000920191909152506111c292505050565b60008181526008602052604090206004015490915060ff1661284e5760405162461bcd60e51b8152600401610c5290613b22565b60008181526008602052604090819020600101548151633fabe5a360e21b815291516001600160a01b039091169163feaf968c9160048083019260a09291908290030181865afa1580156128a6573d6000803e3d6000fd5b505050506040513d601f19601f820116820180604052508101906128ca9190613b67565b50919450506000841391506128f390505760405162461bcd60e51b8152600401610c5290613bb7565b5092915050565b60158054610b14906139f7565b600060026000540361292b5760405162461bcd60e51b8152600401610c5290613a96565b600260008181553381526020919091526040902054439061294e90600190613a5a565b1061296b5760405162461bcd60e51b8152600401610c5290613acd565b33600090815260026020526040902043905560035460ff16156129a05760405162461bcd60e51b8152600401610c5290613af6565b60006129ab846111c2565b60008181526008602052604090206004015490915060ff166129df5760405162461bcd60e51b8152600401610c5290613b22565b600081815260086020526040902034612a2c5760405162461bcd60e51b815260206004820152600f60248201526e53656e642045544820746f2062757960881b6044820152606401610c52565b6000612710612a3d6101f434613c6d565b612a479190613c9a565b90506000612a558234613a47565b90508160076000828254612a699190613a5a565b925050819055506000612a966040518060400160405280600381526020016208aa8960eb1b8152506111c2565b60008181526008602052604090206004015490915060ff16612afa5760405162461bcd60e51b815260206004820152601c60248201527f4d697373696e67206f7220696e616374697665204554482066656564000000006044820152606401610c52565b600081815260086020526040808220600101548151633fabe5a360e21b815291516001600160a01b039091169163feaf968c9160048083019260a09291908290030181865afa158015612b51573d6000803e3d6000fd5b505050506040513d601f19601f82011682018060405250810190612b759190613b67565b50505091505060008113612bbf5760405162461bcd60e51b8152602060048201526011602482015270496e76616c69642045544820707269636560781b6044820152606401610c52565b600185015460408051633fabe5a360e21b815290516000926001600160a01b03169163feaf968c9160048083019260a09291908290030181865afa158015612c0b573d6000803e3d6000fd5b505050506040513d601f19601f82011682018060405250810190612c2f9190613b67565b50505091505060008113612c7b5760405162461bcd60e51b8152602060048201526013602482015272496e76616c696420746f6b656e20707269636560681b6044820152606401610c52565b6000612c896008600a613dd0565b612c938487613c6d565b612c9d9190613c9a565b600c549091506000908390612cb69060ff16600a613dc1565b612cc09084613c6d565b612cca9190613c9a565b90506000600d5469d3c21bcecceda1000000612ce69190613a47565b905080821115612cf4578091505b81600003612d0f5760009a5050505050505050505050612e1b565b8b821015612d535760405162461bcd60e51b81526020600482015260116024820152700a6d8d2e0e0c2ceca40e8dede40d0d2ced607b1b6044820152606401610c52565b34896003016000828254612d679190613a5a565b90915550612d779050338361359d565b60408051898152600160208201527f39f668d6f1b4338891dc891669079f6724a94b39e1ce3570bcfc68b2c036ff5e910160405180910390a1604051600090819033906001908381818185875af1925050503d8060008114612df5576040519150601f19603f3d011682016040523d82523d6000602084013e612dfa565b606091505b509150915081612e0c57805160208201fd5b50919a50505050505050505050505b600160005592915050565b6006546001600160a01b03163314612e505760405162461bcd60e51b8152600401610c5290613bfa565b6006546007546001600160a01b03909116906108fc90612e709047613a47565b6040518115909202916000818181858888f193505050501580156119f2573d6000803e3d6000fd5b6006546001600160a01b03163314612ec25760405162461bcd60e51b8152600401610c5290613bfa565b6001600160a01b038116612f0a5760405162461bcd60e51b815260206004820152600f60248201526e496e76616c6964206164647265737360881b6044820152606401610c52565b600680546001600160a01b0319166001600160a01b0392909216919091179055565b6001600160a01b0381166000908152601360209081526040808320815160808101835281548152600182015493810184905260028201549281019290925260030154606082810191909152929182918291829190612fba5760405162461bcd60e51b815260206004820152600b60248201526a2737903837b9b4ba34b7b760a91b6044820152606401610c52565b805160009081526008602052604080822060018101548251633fabe5a360e21b815292519193926001600160a01b039091169163feaf968c9160048082019260a0929091908290030181865afa158015613018573d6000803e3d6000fd5b505050506040513d601f19601f8201168201806040525081019061303c9190613b67565b50505091505060008360400151826130549190613c4d565b90506000846040015182866020015161306d9190613fa2565b6130779190613fd2565b90508360000185602001518660400151876060015184848054613099906139f7565b80601f01602080910402602001604051908101604052809291908181526020018280546130c5906139f7565b80156131125780601f106130e757610100808354040283529160200191613112565b820191906000526020600020905b8154815290600101906020018083116130f557829003601f168201915b5050505050945099509950995099509950505050505091939590929450565b60008181526008602052604080822060018101548251633fabe5a360e21b8152925191939283928392839283926001600160a01b039092169163feaf968c9160048082019260a0929091908290030181865afa158015613195573d6000803e3d6000fd5b505050506040513d601f19601f820116820180604052508101906131b99190613b67565b94509450945094509450846001600160501b0316816001600160501b031610156132135760405162461bcd60e51b815260206004820152600b60248201526a5374616c6520707269636560a81b6044820152606401610c52565b610e106132208342613a47565b111561325e5760405162461bcd60e51b815260206004820152600d60248201526c141c9a58d9481d1bdbc81bdb19609a1b6044820152606401610c52565b6000841361327e5760405162461bcd60e51b8152600401610c5290613bb7565b60008660020154856132909190613c4d565b90506000808213156132be5760028801546132ad83612710613fa2565b6132b79190613fd2565b9050613309565b60006132c983614000565b905060008960020154826127106132e09190613c6d565b6132ea9190613c9a565b90506113888111156132fb57506113885b61330481614000565b925050505b60008113156133c85760006103e8600d5460016133269190613c6d565b6133309190613c9a565b9050600061271083600d546133459190613c6d565b61334f9190613c9a565b90508015613364576133618183613a5a565b91505b69d3c21bcecceda100000082600d5461337d9190613a5a565b111561339d57600d5461339a9069d3c21bcecceda1000000613a47565b91505b816000036133b157670de0b6b3a764000091505b81156133c1576133c1338361359d565b5050613470565b60008112156134705760006133dc82614000565b9050600061271082600d546133f19190613c6d565b6133fb9190613c9a565b9050801561346d57683635c9adc5dea0000081600d5461341b9190613a47565b101561343b57683635c9adc5dea00000600d546134389190613a47565b90505b336000908152600e60205260409020548181106134615761345c33836134c4565b61346b565b61346b33826134c4565b505b50505b6002880154604080519182526020820188905281018390527fd61dc40ef1106764e1d9eb364856a6143485951a5d6fbb5fbdff5de65a5695d69060600160405180910390a150505050600290930155505050565b6001600160a01b0382166000908152600e60205260409020548111156135235760405162461bcd60e51b8152602060048201526014602482015273496e73756666696369656e742062616c616e636560601b6044820152606401610c52565b6001600160a01b0382166000908152600e60205260408120805483929061354b908490613a47565b9250508190555080600d60008282546135649190613a47565b90915550506040518181526000906001600160a01b0384169060008051602061401d833981519152906020015b60405180910390a35050565b80600d60008282546135af9190613a5a565b90915550506001600160a01b0382166000908152600e6020526040812080548392906135dc908490613a5a565b90915550506040518181526001600160a01b0383169060009060008051602061401d83398151915290602001613591565b60005b83811015613628578181015183820152602001613610565b50506000910152565b6000815180845261364981602086016020860161360d565b601f01601f19169290920160200192915050565b6020815260006136706020830184613631565b9392505050565b80356001600160a01b038116811461368e57600080fd5b919050565b600080604083850312156136a657600080fd5b6136af83613677565b946020939093013593505050565b6000602082840312156136cf57600080fd5b61367082613677565b6000806000606084860312156136ed57600080fd5b6136f684613677565b925061370460208501613677565b9150604084013590509250925092565b60006020828403121561372657600080fd5b5035919050565b60a08152600061374060a0830188613631565b6001600160a01b0396909616602083015250604081019390935260608301919091521515608090910152919050565b60008083601f84011261378157600080fd5b50813567ffffffffffffffff81111561379957600080fd5b6020830191508360208285010111156137b157600080fd5b9250929050565b600080602083850312156137cb57600080fd5b823567ffffffffffffffff8111156137e257600080fd5b6137ee8582860161376f565b90969095509350505050565b634e487b7160e01b600052604160045260246000fd5b604051601f8201601f1916810167ffffffffffffffff81118282101715613839576138396137fa565b604052919050565b600067ffffffffffffffff82111561385b5761385b6137fa565b50601f01601f191660200190565b600082601f83011261387a57600080fd5b813561388d61388882613841565b613810565b8181528460208386010111156138a257600080fd5b816020850160208301376000918101602001919091529392505050565b6000602082840312156138d157600080fd5b813567ffffffffffffffff8111156138e857600080fd5b6138f484828501613869565b949350505050565b60008060006040848603121561391157600080fd5b833567ffffffffffffffff81111561392857600080fd5b6139348682870161376f565b909790965060209590950135949350505050565b6000806040838503121561395b57600080fd5b823567ffffffffffffffff81111561397257600080fd5b61397e85828601613869565b95602094909401359450505050565b600080604083850312156139a057600080fd5b6139a983613677565b91506139b760208401613677565b90509250929050565b60a0815260006139d360a0830188613631565b90508560208301528460408301528360608301528260808301529695505050505050565b600181811c90821680613a0b57607f821691505b602082108103613a2b57634e487b7160e01b600052602260045260246000fd5b50919050565b634e487b7160e01b600052601160045260246000fd5b81810381811115610bf457610bf4613a31565b80820180821115610bf457610bf4613a31565b6020808252600f908201526e2737ba1030b71037b832b930ba37b960891b604082015260600190565b6020808252601f908201527f5265656e7472616e637947756172643a207265656e7472616e742063616c6c00604082015260600190565b6020808252600f908201526e546f6f206d616e792074726164657360881b604082015260600190565b60208082526012908201527110dbdb9d1c9858dd081a5cc81c185d5cd95960721b604082015260600190565b60208082526014908201527314de5b589bdb081b9bdd081cdd5c1c1bdc9d195960621b604082015260600190565b80516001600160501b038116811461368e57600080fd5b600080600080600060a08688031215613b7f57600080fd5b613b8886613b50565b9450602086015193506040860151925060608601519150613bab60808701613b50565b90509295509295909350565b6020808252600d908201526c496e76616c696420707269636560981b604082015260600190565b60008251613bf081846020870161360d565b9190910192915050565b6020808252600a908201526927b7363c9037bbb732b960b11b604082015260600190565b60208152816020820152818360408301376000818301604090810191909152601f909201601f19160101919050565b81810360008312801583831316838312821617156128f3576128f3613a31565b8082028115828204841417610bf457610bf4613a31565b634e487b7160e01b600052601260045260246000fd5b600082613ca957613ca9613c84565b500490565b634e487b7160e01b600052603260045260246000fd5b600060018201613cd657613cd6613a31565b5060010190565b600181815b80851115613d18578160001904821115613cfe57613cfe613a31565b80851615613d0b57918102915b93841c9390800290613ce2565b509250929050565b600082613d2f57506001610bf4565b81613d3c57506000610bf4565b8160018114613d525760028114613d5c57613d78565b6001915050610bf4565b60ff841115613d6d57613d6d613a31565b50506001821b610bf4565b5060208310610133831016604e8410600b8410161715613d9b575081810a610bf4565b613da58383613cdd565b8060001904821115613db957613db9613a31565b029392505050565b600061367060ff841683613d20565b60006136708383613d20565b600060208284031215613dee57600080fd5b815167ffffffffffffffff811115613e0557600080fd5b8201601f81018413613e1657600080fd5b8051613e2461388882613841565b818152856020838501011115613e3957600080fd5b613e4a82602083016020860161360d565b95945050505050565b601f82111561154e57600081815260208120601f850160051c81016020861015613e7a5750805b601f850160051c820191505b81811015613e9957828155600101613e86565b505050505050565b815167ffffffffffffffff811115613ebb57613ebb6137fa565b613ecf81613ec984546139f7565b84613e53565b602080601f831160018114613f045760008415613eec5750858301515b600019600386901b1c1916600185901b178555613e99565b600085815260208120601f198616915b82811015613f3357888601518255948401946001909101908401613f14565b5085821015613f515787850151600019600388901b60f8161c191681555b5050505050600190811b01905550565b604081526000613f746040830185613631565b905060018060a01b03831660208301529392505050565b600081613f9a57613f9a613a31565b506000190190565b80820260008212600160ff1b84141615613fbe57613fbe613a31565b8181058314821517610bf457610bf4613a31565b600082613fe157613fe1613c84565b600160ff1b821460001984141615613ffb57613ffb613a31565b500590565b6000600160ff1b820161401557614015613a31565b506000039056feddf252ad1be2c89b69c2b068fc378daa952ba7f163c4a11628f55a4df523b3efa26469706673582212204aef353b29aaa7d05a9016e020d553b035ea040903d56e873ad8caeeda7d07db64736f6c63430008130033","opcodes":"PUSH1 0xC0 PUSH1 0x40 MSTORE PUSH1 0xC PUSH1 0x80 SWAP1 DUP2 MSTORE PUSH12 0x456C617374696347726F7773 PUSH1 0xA0 SHL PUSH1 0xA0 MSTORE PUSH1 0xA SWAP1 PUSH3 0x2D SWAP1 DUP3 PUSH3 0x189 JUMP JUMPDEST POP PUSH1 0x40 DUP1 MLOAD DUP1 DUP3 ADD SWAP1 SWAP2 MSTORE PUSH1 0x5 DUP2 MSTORE PUSH5 0x4547524F57 PUSH1 0xD8 SHL PUSH1 0x20 DUP3 ADD MSTORE PUSH1 0xB SWAP1 PUSH3 0x59 SWAP1 DUP3 PUSH3 0x189 JUMP JUMPDEST POP PUSH1 0xC DUP1 SLOAD PUSH1 0xFF NOT AND PUSH1 0x12 SWAP1 DUP2 OR SWAP1 SWAP2 SSTORE PUSH3 0xF4240 PUSH1 0x10 SSTORE PUSH2 0x1F40 PUSH1 0x11 SSTORE PUSH2 0x2EE0 SWAP1 SSTORE CALLVALUE DUP1 ISZERO PUSH3 0x89 JUMPI PUSH1 0x0 DUP1 REVERT JUMPDEST POP PUSH1 0x6 DUP1 SLOAD PUSH1 0x1 PUSH1 0x1 PUSH1 0xA0 SHL SUB NOT AND CALLER SWAP1 DUP2 OR SWAP1 SWAP2 SSTORE PUSH1 0x1 PUSH1 0x0 DUP2 DUP2 SSTORE PUSH10 0x21E19E0C9BAB2400000 PUSH1 0xD DUP2 SWAP1 SSTORE SWAP3 DUP2 MSTORE PUSH1 0xE PUSH1 0x20 SWAP1 DUP2 MSTORE PUSH1 0x40 DUP1 DUP4 KECCAK256 SWAP5 SWAP1 SWAP5 SSTORE PUSH1 0x4 SWAP1 MSTORE SWAP2 SWAP1 SWAP2 KECCAK256 DUP1 SLOAD PUSH1 0xFF NOT AND DUP3 OR SWAP1 SSTORE PUSH1 0x5 SSTORE PUSH3 0x255 JUMP JUMPDEST PUSH4 0x4E487B71 PUSH1 0xE0 SHL PUSH1 0x0 MSTORE PUSH1 0x41 PUSH1 0x4 MSTORE PUSH1 0x24 PUSH1 0x0 REVERT JUMPDEST PUSH1 0x1 DUP2 DUP2 SHR SWAP1 DUP3 AND DUP1 PUSH3 0x10F JUMPI PUSH1 0x7F DUP3 AND SWAP2 POP JUMPDEST PUSH1 0x20 DUP3 LT DUP2 SUB PUSH3 0x130 JUMPI PUSH4 0x4E487B71 PUSH1 0xE0 SHL PUSH1 0x0 MSTORE PUSH1 0x22 PUSH1 0x4 MSTORE PUSH1 0x24 PUSH1 0x0 REVERT JUMPDEST POP SWAP2 SWAP1 POP JUMP JUMPDEST PUSH1 0x1F DUP3 GT ISZERO PUSH3 0x184 JUMPI PUSH1 0x0 DUP2 DUP2 MSTORE PUSH1 0x20 DUP2 KECCAK256 PUSH1 0x1F DUP6 ADD PUSH1 0x5 SHR DUP2 ADD PUSH1 0x20 DUP7 LT ISZERO PUSH3 0x15F JUMPI POP DUP1 JUMPDEST PUSH1 0x1F DUP6 ADD PUSH1 0x5 SHR DUP3 ADD SWAP2 POP JUMPDEST DUP2 DUP2 LT ISZERO PUSH3 0x180 JUMPI DUP3 DUP2 SSTORE PUSH1 0x1 ADD PUSH3 0x16B JUMP JUMPDEST POP POP POP JUMPDEST POP POP POP JUMP JUMPDEST DUP2 MLOAD PUSH1 0x1 PUSH1 0x1 PUSH1 0x40 SHL SUB DUP2 GT ISZERO PUSH3 0x1A5 JUMPI PUSH3 0x1A5 PUSH3 0xE4 JUMP JUMPDEST PUSH3 0x1BD DUP2 PUSH3 0x1B6 DUP5 SLOAD PUSH3 0xFA JUMP JUMPDEST DUP5 PUSH3 0x136 JUMP JUMPDEST PUSH1 0x20 DUP1 PUSH1 0x1F DUP4 GT PUSH1 0x1 DUP2 EQ PUSH3 0x1F5 JUMPI PUSH1 0x0 DUP5 ISZERO PUSH3 0x1DC JUMPI POP DUP6 DUP4 ADD MLOAD JUMPDEST PUSH1 0x0 NOT PUSH1 0x3 DUP7 SWAP1 SHL SHR NOT AND PUSH1 0x1 DUP6 SWAP1 SHL OR DUP6 SSTORE PUSH3 0x180 JUMP JUMPDEST PUSH1 0x0 DUP6 DUP2 MSTORE PUSH1 0x20 DUP2 KECCAK256 PUSH1 0x1F NOT DUP7 AND SWAP2 JUMPDEST DUP3 DUP2 LT ISZERO PUSH3 0x226 JUMPI DUP9 DUP7 ADD MLOAD DUP3 SSTORE SWAP5 DUP5 ADD SWAP5 PUSH1 0x1 SWAP1 SWAP2 ADD SWAP1 DUP5 ADD PUSH3 0x205 JUMP JUMPDEST POP DUP6 DUP3 LT ISZERO PUSH3 0x245 JUMPI DUP8 DUP6 ADD MLOAD PUSH1 0x0 NOT PUSH1 0x3 DUP9 SWAP1 SHL PUSH1 0xF8 AND SHR NOT AND DUP2 SSTORE JUMPDEST POP POP POP POP POP PUSH1 0x1 SWAP1 DUP2 SHL ADD SWAP1 SSTORE POP JUMP JUMPDEST PUSH2 0x4072 DUP1 PUSH3 0x265 PUSH1 0x0 CODECOPY PUSH1 0x0 RETURN INVALID PUSH1 0x80 PUSH1 0x40 MSTORE PUSH1 0x4 CALLDATASIZE LT PUSH2 0x3C7 JUMPI PUSH1 0x0 CALLDATALOAD PUSH1 0xE0 SHR DUP1 PUSH4 0x683D0A0E GT PUSH2 0x1F2 JUMPI DUP1 PUSH4 0xA9059CBB GT PUSH2 0x10D JUMPI DUP1 PUSH4 0xCAB7AC3A GT PUSH2 0xA0 JUMPI DUP1 PUSH4 0xE6150400 GT PUSH2 0x6F JUMPI DUP1 PUSH4 0xE6150400 EQ PUSH2 0xA89 JUMPI DUP1 PUSH4 0xF1A640F8 EQ PUSH2 0x9DF JUMPI DUP1 PUSH4 0xF2FDE38B EQ PUSH2 0xAB6 JUMPI DUP1 PUSH4 0xFBD1D25A EQ PUSH2 0xAD6 JUMPI PUSH1 0x0 DUP1 REVERT JUMPDEST DUP1 PUSH4 0xCAB7AC3A EQ PUSH2 0xA14 JUMPI DUP1 PUSH4 0xDAD7AE5A EQ PUSH2 0xA29 JUMPI DUP1 PUSH4 0xDB2E21BC EQ PUSH2 0xA3C JUMPI DUP1 PUSH4 0xDD62ED3E EQ PUSH2 0xA51 JUMPI PUSH1 0x0 DUP1 REVERT JUMPDEST DUP1 PUSH4 0xB608BBD0 GT PUSH2 0xDC JUMPI DUP1 PUSH4 0xB608BBD0 EQ PUSH2 0x9B3 JUMPI DUP1 PUSH4 0xB7297057 EQ PUSH2 0x9C9 JUMPI DUP1 PUSH4 0xBBA0E722 EQ PUSH2 0x9DF JUMPI DUP1 PUSH4 0xC4D2EB2E EQ PUSH2 0x9F4 JUMPI PUSH1 0x0 DUP1 REVERT JUMPDEST DUP1 PUSH4 0xA9059CBB EQ PUSH2 0x8FC JUMPI DUP1 PUSH4 0xAC511BC0 EQ PUSH2 0x91C JUMPI DUP1 PUSH4 0xAC8A584A EQ PUSH2 0x97E JUMPI DUP1 PUSH4 0xB51D1D4F EQ PUSH2 0x99E JUMPI PUSH1 0x0 DUP1 REVERT JUMPDEST DUP1 PUSH4 0x932D68A6 GT PUSH2 0x185 JUMPI DUP1 PUSH4 0x9E18F399 GT PUSH2 0x154 JUMPI DUP1 PUSH4 0x9E18F399 EQ PUSH2 0x886 JUMPI DUP1 PUSH4 0x9F65106C EQ PUSH2 0x89B JUMPI DUP1 PUSH4 0xA51C9ACE EQ PUSH2 0x495 JUMPI DUP1 PUSH4 0xA7EA74B7 EQ PUSH2 0x8E7 JUMPI PUSH1 0x0 DUP1 REVERT JUMPDEST DUP1 PUSH4 0x932D68A6 EQ PUSH2 0x811 JUMPI DUP1 PUSH4 0x95D89B41 EQ PUSH2 0x831 JUMPI DUP1 PUSH4 0x9870D7FE EQ PUSH2 0x846 JUMPI DUP1 PUSH4 0x9954C217 EQ PUSH2 0x866 JUMPI PUSH1 0x0 DUP1 REVERT JUMPDEST DUP1 PUSH4 0x7C6F3158 GT PUSH2 0x1C1 JUMPI DUP1 PUSH4 0x7C6F3158 EQ PUSH2 0x798 JUMPI DUP1 PUSH4 0x817B1CD2 EQ PUSH2 0x7AE JUMPI DUP1 PUSH4 0x8456CB59 EQ PUSH2 0x7C4 JUMPI DUP1 PUSH4 0x8DA5CB5B EQ PUSH2 0x7D9 JUMPI PUSH1 0x0 DUP1 REVERT JUMPDEST DUP1 PUSH4 0x683D0A0E EQ PUSH2 0x729 JUMPI DUP1 PUSH4 0x696CF8F0 EQ PUSH2 0x6AE JUMPI DUP1 PUSH4 0x70A08231 EQ PUSH2 0x73E JUMPI DUP1 PUSH4 0x74DB9D11 EQ PUSH2 0x76B JUMPI PUSH1 0x0 DUP1 REVERT JUMPDEST DUP1 PUSH4 0x35917C64 GT PUSH2 0x2E2 JUMPI DUP1 PUSH4 0x52C2C294 GT PUSH2 0x275 JUMPI DUP1 PUSH4 0x556F98FC GT PUSH2 0x244 JUMPI DUP1 PUSH4 0x556F98FC EQ PUSH2 0x6C4 JUMPI DUP1 PUSH4 0x5C975ABB EQ PUSH2 0x6D9 JUMPI DUP1 PUSH4 0x5F576C44 EQ PUSH2 0x6F3 JUMPI DUP1 PUSH4 0x6839B5FA EQ PUSH2 0x713 JUMPI PUSH1 0x0 DUP1 REVERT JUMPDEST DUP1 PUSH4 0x52C2C294 EQ PUSH2 0x679 JUMPI DUP1 PUSH4 0x53BAF0AD EQ PUSH2 0x699 JUMPI DUP1 PUSH4 0x54AD8AEE EQ PUSH2 0x3D3 JUMPI DUP1 PUSH4 0x5536487C EQ PUSH2 0x6AE JUMPI PUSH1 0x0 DUP1 REVERT JUMPDEST DUP1 PUSH4 0x3F4BA83A GT PUSH2 0x2B1 JUMPI DUP1 PUSH4 0x3F4BA83A EQ PUSH2 0x619 JUMPI DUP1 PUSH4 0x46829831 EQ PUSH2 0x62E JUMPI DUP1 PUSH4 0x4A9122E3 EQ PUSH2 0x643 JUMPI DUP1 PUSH4 0x4F0CB5F3 EQ PUSH2 0x659 JUMPI PUSH1 0x0 DUP1 REVERT JUMPDEST DUP1 PUSH4 0x35917C64 EQ PUSH2 0x598 JUMPI DUP1 PUSH4 0x36E1AF4B EQ PUSH2 0x5B5 JUMPI DUP1 PUSH4 0x3A58C9C8 EQ PUSH2 0x5E6 JUMPI DUP1 PUSH4 0x3A7ADC64 EQ PUSH2 0x5F9 JUMPI PUSH1 0x0 DUP1 REVERT JUMPDEST DUP1 PUSH4 0x1CDD82DC GT PUSH2 0x35A JUMPI DUP1 PUSH4 0x2F3892F5 GT PUSH2 0x329 JUMPI DUP1 PUSH4 0x2F3892F5 EQ PUSH2 0x522 JUMPI DUP1 PUSH4 0x313CE567 EQ PUSH2 0x537 JUMPI DUP1 PUSH4 0x32CB6B0C EQ PUSH2 0x563 JUMPI DUP1 PUSH4 0x3403C2FC EQ PUSH2 0x581 JUMPI PUSH1 0x0 DUP1 REVERT JUMPDEST DUP1 PUSH4 0x1CDD82DC EQ PUSH2 0x4C1 JUMPI DUP1 PUSH4 0x1E15D1A5 EQ PUSH2 0x4D7 JUMPI DUP1 PUSH4 0x23B872DD EQ PUSH2 0x4ED JUMPI DUP1 PUSH4 0x2B78C9F7 EQ PUSH2 0x50D JUMPI PUSH1 0x0 DUP1 REVERT JUMPDEST DUP1 PUSH4 0x1190016C GT PUSH2 0x396 JUMPI DUP1 PUSH4 0x1190016C EQ PUSH2 0x3D3 JUMPI DUP1 PUSH4 0x13E7C9D8 EQ PUSH2 0x465 JUMPI DUP1 PUSH4 0x17D16BFB EQ PUSH2 0x495 JUMPI DUP1 PUSH4 0x18160DDD EQ PUSH2 0x4AB JUMPI PUSH1 0x0 DUP1 REVERT JUMPDEST DUP1 PUSH4 0x2AF37BB EQ PUSH2 0x3D3 JUMPI DUP1 PUSH4 0x6FDDE03 EQ PUSH2 0x3FC JUMPI DUP1 PUSH4 0x95EA7B3 EQ PUSH2 0x41E JUMPI DUP1 PUSH4 0xEBB172A EQ PUSH2 0x44E JUMPI PUSH1 0x0 DUP1 REVERT JUMPDEST CALLDATASIZE PUSH2 0x3CE JUMPI STOP JUMPDEST PUSH1 0x0 DUP1 REVERT JUMPDEST CALLVALUE DUP1 ISZERO PUSH2 0x3DF JUMPI PUSH1 0x0 DUP1 REVERT JUMPDEST POP PUSH2 0x3E9 PUSH2 0x1F4 DUP2 JUMP JUMPDEST PUSH1 0x40 MLOAD SWAP1 DUP2 MSTORE PUSH1 0x20 ADD JUMPDEST PUSH1 0x40 MLOAD DUP1 SWAP2 SUB SWAP1 RETURN JUMPDEST CALLVALUE DUP1 ISZERO PUSH2 0x408 JUMPI PUSH1 0x0 DUP1 REVERT JUMPDEST POP PUSH2 0x411 PUSH2 0xB07 JUMP JUMPDEST PUSH1 0x40 MLOAD PUSH2 0x3F3 SWAP2 SWAP1 PUSH2 0x365D JUMP JUMPDEST CALLVALUE DUP1 ISZERO PUSH2 0x42A JUMPI PUSH1 0x0 DUP1 REVERT JUMPDEST POP PUSH2 0x43E PUSH2 0x439 CALLDATASIZE PUSH1 0x4 PUSH2 0x3693 JUMP JUMPDEST PUSH2 0xB95 JUMP JUMPDEST PUSH1 0x40 MLOAD SWAP1 ISZERO ISZERO DUP2 MSTORE PUSH1 0x20 ADD PUSH2 0x3F3 JUMP JUMPDEST CALLVALUE DUP1 ISZERO PUSH2 0x45A JUMPI PUSH1 0x0 DUP1 REVERT JUMPDEST POP PUSH2 0x3E9 PUSH3 0x2A300 DUP2 JUMP JUMPDEST CALLVALUE DUP1 ISZERO PUSH2 0x471 JUMPI PUSH1 0x0 DUP1 REVERT JUMPDEST POP PUSH2 0x43E PUSH2 0x480 CALLDATASIZE PUSH1 0x4 PUSH2 0x36BD JUMP JUMPDEST PUSH1 0x4 PUSH1 0x20 MSTORE PUSH1 0x0 SWAP1 DUP2 MSTORE PUSH1 0x40 SWAP1 KECCAK256 SLOAD PUSH1 0xFF AND DUP2 JUMP JUMPDEST CALLVALUE DUP1 ISZERO PUSH2 0x4A1 JUMPI PUSH1 0x0 DUP1 REVERT JUMPDEST POP PUSH2 0x3E9 PUSH2 0x2710 DUP2 JUMP JUMPDEST CALLVALUE DUP1 ISZERO PUSH2 0x4B7 JUMPI PUSH1 0x0 DUP1 REVERT JUMPDEST POP PUSH2 0x3E9 PUSH1 0xD SLOAD DUP2 JUMP JUMPDEST CALLVALUE DUP1 ISZERO PUSH2 0x4CD JUMPI PUSH1 0x0 DUP1 REVERT JUMPDEST POP PUSH2 0x3E9 PUSH1 0x10 SLOAD DUP2 JUMP JUMPDEST CALLVALUE DUP1 ISZERO PUSH2 0x4E3 JUMPI PUSH1 0x0 DUP1 REVERT JUMPDEST POP PUSH2 0x3E9 PUSH1 0x12 SLOAD DUP2 JUMP JUMPDEST CALLVALUE DUP1 ISZERO PUSH2 0x4F9 JUMPI PUSH1 0x0 DUP1 REVERT JUMPDEST POP PUSH2 0x43E PUSH2 0x508 CALLDATASIZE PUSH1 0x4 PUSH2 0x36D8 JUMP JUMPDEST PUSH2 0xBFA JUMP JUMPDEST CALLVALUE DUP1 ISZERO PUSH2 0x519 JUMPI PUSH1 0x0 DUP1 REVERT JUMPDEST POP PUSH2 0x3E9 PUSH1 0x5 DUP2 JUMP JUMPDEST CALLVALUE DUP1 ISZERO PUSH2 0x52E JUMPI PUSH1 0x0 DUP1 REVERT JUMPDEST POP PUSH2 0x3E9 PUSH1 0xF DUP2 JUMP JUMPDEST CALLVALUE DUP1 ISZERO PUSH2 0x543 JUMPI PUSH1 0x0 DUP1 REVERT JUMPDEST POP PUSH1 0xC SLOAD PUSH2 0x551 SWAP1 PUSH1 0xFF AND DUP2 JUMP JUMPDEST PUSH1 0x40 MLOAD PUSH1 0xFF SWAP1 SWAP2 AND DUP2 MSTORE PUSH1 0x20 ADD PUSH2 0x3F3 JUMP JUMPDEST CALLVALUE DUP1 ISZERO PUSH2 0x56F JUMPI PUSH1 0x0 DUP1 REVERT JUMPDEST POP PUSH2 0x3E9 PUSH10 0xD3C21BCECCEDA1000000 DUP2 JUMP JUMPDEST CALLVALUE DUP1 ISZERO PUSH2 0x58D JUMPI PUSH1 0x0 DUP1 REVERT JUMPDEST POP PUSH2 0x596 PUSH2 0xD9B JUMP JUMPDEST STOP JUMPDEST CALLVALUE DUP1 ISZERO PUSH2 0x5A4 JUMPI PUSH1 0x0 DUP1 REVERT JUMPDEST POP PUSH2 0x3E9 PUSH9 0x3635C9ADC5DEA00000 DUP2 JUMP JUMPDEST CALLVALUE DUP1 ISZERO PUSH2 0x5C1 JUMPI PUSH1 0x0 DUP1 REVERT JUMPDEST POP PUSH2 0x5D5 PUSH2 0x5D0 CALLDATASIZE PUSH1 0x4 PUSH2 0x3714 JUMP JUMPDEST PUSH2 0xE0D JUMP JUMPDEST PUSH1 0x40 MLOAD PUSH2 0x3F3 SWAP6 SWAP5 SWAP4 SWAP3 SWAP2 SWAP1 PUSH2 0x372D JUMP JUMPDEST PUSH2 0x596 PUSH2 0x5F4 CALLDATASIZE PUSH1 0x4 PUSH2 0x37B8 JUMP JUMPDEST PUSH2 0xED1 JUMP JUMPDEST CALLVALUE DUP1 ISZERO PUSH2 0x605 JUMPI PUSH1 0x0 DUP1 REVERT JUMPDEST POP PUSH2 0x3E9 PUSH2 0x614 CALLDATASIZE PUSH1 0x4 PUSH2 0x38BF JUMP JUMPDEST PUSH2 0x11C2 JUMP JUMPDEST CALLVALUE DUP1 ISZERO PUSH2 0x625 JUMPI PUSH1 0x0 DUP1 REVERT JUMPDEST POP PUSH2 0x596 PUSH2 0x11F2 JUMP JUMPDEST CALLVALUE DUP1 ISZERO PUSH2 0x63A JUMPI PUSH1 0x0 DUP1 REVERT JUMPDEST POP PUSH2 0x596 PUSH2 0x129A JUMP JUMPDEST CALLVALUE DUP1 ISZERO PUSH2 0x64F JUMPI PUSH1 0x0 DUP1 REVERT JUMPDEST POP PUSH2 0x3E9 PUSH1 0x17 SLOAD DUP2 JUMP JUMPDEST CALLVALUE DUP1 ISZERO PUSH2 0x665 JUMPI PUSH1 0x0 DUP1 REVERT JUMPDEST POP PUSH2 0x596 PUSH2 0x674 CALLDATASIZE PUSH1 0x4 PUSH2 0x3714 JUMP JUMPDEST PUSH2 0x13B8 JUMP JUMPDEST CALLVALUE DUP1 ISZERO PUSH2 0x685 JUMPI PUSH1 0x0 DUP1 REVERT JUMPDEST POP PUSH2 0x596 PUSH2 0x694 CALLDATASIZE PUSH1 0x4 PUSH2 0x37B8 JUMP JUMPDEST PUSH2 0x1553 JUMP JUMPDEST CALLVALUE DUP1 ISZERO PUSH2 0x6A5 JUMPI PUSH1 0x0 DUP1 REVERT JUMPDEST POP PUSH2 0x596 PUSH2 0x166E JUMP JUMPDEST CALLVALUE DUP1 ISZERO PUSH2 0x6BA JUMPI PUSH1 0x0 DUP1 REVERT JUMPDEST POP PUSH2 0x3E9 PUSH2 0xE10 DUP2 JUMP JUMPDEST CALLVALUE DUP1 ISZERO PUSH2 0x6D0 JUMPI PUSH1 0x0 DUP1 REVERT JUMPDEST POP PUSH2 0x596 PUSH2 0x1980 JUMP JUMPDEST CALLVALUE DUP1 ISZERO PUSH2 0x6E5 JUMPI PUSH1 0x0 DUP1 REVERT JUMPDEST POP PUSH1 0x3 SLOAD PUSH2 0x43E SWAP1 PUSH1 0xFF AND DUP2 JUMP JUMPDEST CALLVALUE DUP1 ISZERO PUSH2 0x6FF JUMPI PUSH1 0x0 DUP1 REVERT JUMPDEST POP PUSH2 0x596 PUSH2 0x70E CALLDATASIZE PUSH1 0x4 PUSH2 0x38FC JUMP JUMPDEST PUSH2 0x19F5 JUMP JUMPDEST CALLVALUE DUP1 ISZERO PUSH2 0x71F JUMPI PUSH1 0x0 DUP1 REVERT JUMPDEST POP PUSH2 0x3E9 PUSH2 0x3E8 DUP2 JUMP JUMPDEST CALLVALUE DUP1 ISZERO PUSH2 0x735 JUMPI PUSH1 0x0 DUP1 REVERT JUMPDEST POP PUSH2 0x3E9 PUSH1 0x64 DUP2 JUMP JUMPDEST CALLVALUE DUP1 ISZERO PUSH2 0x74A JUMPI PUSH1 0x0 DUP1 REVERT JUMPDEST POP PUSH2 0x3E9 PUSH2 0x759 CALLDATASIZE PUSH1 0x4 PUSH2 0x36BD JUMP JUMPDEST PUSH1 0xE PUSH1 0x20 MSTORE PUSH1 0x0 SWAP1 DUP2 MSTORE PUSH1 0x40 SWAP1 KECCAK256 SLOAD DUP2 JUMP JUMPDEST CALLVALUE DUP1 ISZERO PUSH2 0x777 JUMPI PUSH1 0x0 DUP1 REVERT JUMPDEST POP PUSH2 0x3E9 PUSH2 0x786 CALLDATASIZE PUSH1 0x4 PUSH2 0x36BD JUMP JUMPDEST PUSH1 0x2 PUSH1 0x20 MSTORE PUSH1 0x0 SWAP1 DUP2 MSTORE PUSH1 0x40 SWAP1 KECCAK256 SLOAD DUP2 JUMP JUMPDEST CALLVALUE DUP1 ISZERO PUSH2 0x7A4 JUMPI PUSH1 0x0 DUP1 REVERT JUMPDEST POP PUSH2 0x3E9 PUSH1 0x5 SLOAD DUP2 JUMP JUMPDEST CALLVALUE DUP1 ISZERO PUSH2 0x7BA JUMPI PUSH1 0x0 DUP1 REVERT JUMPDEST POP PUSH2 0x3E9 PUSH1 0x14 SLOAD DUP2 JUMP JUMPDEST CALLVALUE DUP1 ISZERO PUSH2 0x7D0 JUMPI PUSH1 0x0 DUP1 REVERT JUMPDEST POP PUSH2 0x596 PUSH2 0x1EC8 JUMP JUMPDEST CALLVALUE DUP1 ISZERO PUSH2 0x7E5 JUMPI PUSH1 0x0 DUP1 REVERT JUMPDEST POP PUSH1 0x6 SLOAD PUSH2 0x7F9 SWAP1 PUSH1 0x1 PUSH1 0x1 PUSH1 0xA0 SHL SUB AND DUP2 JUMP JUMPDEST PUSH1 0x40 MLOAD PUSH1 0x1 PUSH1 0x1 PUSH1 0xA0 SHL SUB SWAP1 SWAP2 AND DUP2 MSTORE PUSH1 0x20 ADD PUSH2 0x3F3 JUMP JUMPDEST CALLVALUE DUP1 ISZERO PUSH2 0x81D JUMPI PUSH1 0x0 DUP1 REVERT JUMPDEST POP PUSH2 0x3E9 PUSH2 0x82C CALLDATASIZE PUSH1 0x4 PUSH2 0x3714 JUMP JUMPDEST PUSH2 0x1F78 JUMP JUMPDEST CALLVALUE DUP1 ISZERO PUSH2 0x83D JUMPI PUSH1 0x0 DUP1 REVERT JUMPDEST POP PUSH2 0x411 PUSH2 0x1F99 JUMP JUMPDEST CALLVALUE DUP1 ISZERO PUSH2 0x852 JUMPI PUSH1 0x0 DUP1 REVERT JUMPDEST POP PUSH2 0x596 PUSH2 0x861 CALLDATASIZE PUSH1 0x4 PUSH2 0x36BD JUMP JUMPDEST PUSH2 0x1FA6 JUMP JUMPDEST CALLVALUE DUP1 ISZERO PUSH2 0x872 JUMPI PUSH1 0x0 DUP1 REVERT JUMPDEST POP PUSH2 0x596 PUSH2 0x881 CALLDATASIZE PUSH1 0x4 PUSH2 0x36BD JUMP JUMPDEST PUSH2 0x20E8 JUMP JUMPDEST CALLVALUE DUP1 ISZERO PUSH2 0x892 JUMPI PUSH1 0x0 DUP1 REVERT JUMPDEST POP PUSH1 0x9 SLOAD PUSH2 0x3E9 JUMP JUMPDEST CALLVALUE DUP1 ISZERO PUSH2 0x8A7 JUMPI PUSH1 0x0 DUP1 REVERT JUMPDEST POP PUSH2 0x8BB PUSH2 0x8B6 CALLDATASIZE PUSH1 0x4 PUSH2 0x37B8 JUMP JUMPDEST PUSH2 0x24A4 JUMP JUMPDEST PUSH1 0x40 DUP1 MLOAD PUSH1 0x1 PUSH1 0x1 PUSH1 0xA0 SHL SUB SWAP1 SWAP6 AND DUP6 MSTORE PUSH1 0x20 DUP6 ADD SWAP4 SWAP1 SWAP4 MSTORE SWAP2 DUP4 ADD MSTORE ISZERO ISZERO PUSH1 0x60 DUP3 ADD MSTORE PUSH1 0x80 ADD PUSH2 0x3F3 JUMP JUMPDEST CALLVALUE DUP1 ISZERO PUSH2 0x8F3 JUMPI PUSH1 0x0 DUP1 REVERT JUMPDEST POP PUSH2 0x3E9 PUSH1 0x1 DUP2 JUMP JUMPDEST CALLVALUE DUP1 ISZERO PUSH2 0x908 JUMPI PUSH1 0x0 DUP1 REVERT JUMPDEST POP PUSH2 0x43E PUSH2 0x917 CALLDATASIZE PUSH1 0x4 PUSH2 0x3693 JUMP JUMPDEST PUSH2 0x252C JUMP JUMPDEST CALLVALUE DUP1 ISZERO PUSH2 0x928 JUMPI PUSH1 0x0 DUP1 REVERT JUMPDEST POP PUSH2 0x95E PUSH2 0x937 CALLDATASIZE PUSH1 0x4 PUSH2 0x36BD JUMP JUMPDEST PUSH1 0x13 PUSH1 0x20 MSTORE PUSH1 0x0 SWAP1 DUP2 MSTORE PUSH1 0x40 SWAP1 KECCAK256 DUP1 SLOAD PUSH1 0x1 DUP3 ADD SLOAD PUSH1 0x2 DUP4 ADD SLOAD PUSH1 0x3 SWAP1 SWAP4 ADD SLOAD SWAP2 SWAP3 SWAP1 SWAP2 DUP5 JUMP JUMPDEST PUSH1 0x40 DUP1 MLOAD SWAP5 DUP6 MSTORE PUSH1 0x20 DUP6 ADD SWAP4 SWAP1 SWAP4 MSTORE SWAP2 DUP4 ADD MSTORE PUSH1 0x60 DUP3 ADD MSTORE PUSH1 0x80 ADD PUSH2 0x3F3 JUMP JUMPDEST CALLVALUE DUP1 ISZERO PUSH2 0x98A JUMPI PUSH1 0x0 DUP1 REVERT JUMPDEST POP PUSH2 0x596 PUSH2 0x999 CALLDATASIZE PUSH1 0x4 PUSH2 0x36BD JUMP JUMPDEST PUSH2 0x25FB JUMP JUMPDEST CALLVALUE DUP1 ISZERO PUSH2 0x9AA JUMPI PUSH1 0x0 DUP1 REVERT JUMPDEST POP PUSH2 0x596 PUSH2 0x273C JUMP JUMPDEST CALLVALUE DUP1 ISZERO PUSH2 0x9BF JUMPI PUSH1 0x0 DUP1 REVERT JUMPDEST POP PUSH2 0x3E9 PUSH1 0x11 SLOAD DUP2 JUMP JUMPDEST CALLVALUE DUP1 ISZERO PUSH2 0x9D5 JUMPI PUSH1 0x0 DUP1 REVERT JUMPDEST POP PUSH2 0x3E9 PUSH1 0x7 SLOAD DUP2 JUMP JUMPDEST CALLVALUE DUP1 ISZERO PUSH2 0x9EB JUMPI PUSH1 0x0 DUP1 REVERT JUMPDEST POP PUSH2 0x3E9 PUSH1 0x8 DUP2 JUMP JUMPDEST CALLVALUE DUP1 ISZERO PUSH2 0xA00 JUMPI PUSH1 0x0 DUP1 REVERT JUMPDEST POP PUSH2 0x3E9 PUSH2 0xA0F CALLDATASIZE PUSH1 0x4 PUSH2 0x37B8 JUMP JUMPDEST PUSH2 0x27D8 JUMP JUMPDEST CALLVALUE DUP1 ISZERO PUSH2 0xA20 JUMPI PUSH1 0x0 DUP1 REVERT JUMPDEST POP PUSH2 0x411 PUSH2 0x28FA JUMP JUMPDEST PUSH2 0x3E9 PUSH2 0xA37 CALLDATASIZE PUSH1 0x4 PUSH2 0x3948 JUMP JUMPDEST PUSH2 0x2907 JUMP JUMPDEST CALLVALUE DUP1 ISZERO PUSH2 0xA48 JUMPI PUSH1 0x0 DUP1 REVERT JUMPDEST POP PUSH2 0x596 PUSH2 0x2E26 JUMP JUMPDEST CALLVALUE DUP1 ISZERO PUSH2 0xA5D JUMPI PUSH1 0x0 DUP1 REVERT JUMPDEST POP PUSH2 0x3E9 PUSH2 0xA6C CALLDATASIZE PUSH1 0x4 PUSH2 0x398D JUMP JUMPDEST PUSH1 0xF PUSH1 0x20 SWAP1 DUP2 MSTORE PUSH1 0x0 SWAP3 DUP4 MSTORE PUSH1 0x40 DUP1 DUP5 KECCAK256 SWAP1 SWAP2 MSTORE SWAP1 DUP3 MSTORE SWAP1 KECCAK256 SLOAD DUP2 JUMP JUMPDEST CALLVALUE DUP1 ISZERO PUSH2 0xA95 JUMPI PUSH1 0x0 DUP1 REVERT JUMPDEST POP PUSH2 0x3E9 PUSH2 0xAA4 CALLDATASIZE PUSH1 0x4 PUSH2 0x3714 JUMP JUMPDEST PUSH1 0x16 PUSH1 0x20 MSTORE PUSH1 0x0 SWAP1 DUP2 MSTORE PUSH1 0x40 SWAP1 KECCAK256 SLOAD DUP2 JUMP JUMPDEST CALLVALUE DUP1 ISZERO PUSH2 0xAC2 JUMPI PUSH1 0x0 DUP1 REVERT JUMPDEST POP PUSH2 0x596 PUSH2 0xAD1 CALLDATASIZE PUSH1 0x4 PUSH2 0x36BD JUMP JUMPDEST PUSH2 0x2E98 JUMP JUMPDEST CALLVALUE DUP1 ISZERO PUSH2 0xAE2 JUMPI PUSH1 0x0 DUP1 REVERT JUMPDEST POP PUSH2 0xAF6 PUSH2 0xAF1 CALLDATASIZE PUSH1 0x4 PUSH2 0x36BD JUMP JUMPDEST PUSH2 0x2F2C JUMP JUMPDEST PUSH1 0x40 MLOAD PUSH2 0x3F3 SWAP6 SWAP5 SWAP4 SWAP3 SWAP2 SWAP1 PUSH2 0x39C0 JUMP JUMPDEST PUSH1 0xA DUP1 SLOAD PUSH2 0xB14 SWAP1 PUSH2 0x39F7 JUMP JUMPDEST DUP1 PUSH1 0x1F ADD PUSH1 0x20 DUP1 SWAP2 DIV MUL PUSH1 0x20 ADD PUSH1 0x40 MLOAD SWAP1 DUP2 ADD PUSH1 0x40 MSTORE DUP1 SWAP3 SWAP2 SWAP1 DUP2 DUP2 MSTORE PUSH1 0x20 ADD DUP3 DUP1 SLOAD PUSH2 0xB40 SWAP1 PUSH2 0x39F7 JUMP JUMPDEST DUP1 ISZERO PUSH2 0xB8D JUMPI DUP1 PUSH1 0x1F LT PUSH2 0xB62 JUMPI PUSH2 0x100 DUP1 DUP4 SLOAD DIV MUL DUP4 MSTORE SWAP2 PUSH1 0x20 ADD SWAP2 PUSH2 0xB8D JUMP JUMPDEST DUP3 ADD SWAP2 SWAP1 PUSH1 0x0 MSTORE PUSH1 0x20 PUSH1 0x0 KECCAK256 SWAP1 JUMPDEST DUP2 SLOAD DUP2 MSTORE SWAP1 PUSH1 0x1 ADD SWAP1 PUSH1 0x20 ADD DUP1 DUP4 GT PUSH2 0xB70 JUMPI DUP3 SWAP1 SUB PUSH1 0x1F AND DUP3 ADD SWAP2 JUMPDEST POP POP POP POP POP DUP2 JUMP JUMPDEST CALLER PUSH1 0x0 DUP2 DUP2 MSTORE PUSH1 0xF PUSH1 0x20 SWAP1 DUP2 MSTORE PUSH1 0x40 DUP1 DUP4 KECCAK256 PUSH1 0x1 PUSH1 0x1 PUSH1 0xA0 SHL SUB DUP8 AND DUP5 MSTORE DUP3 MSTORE DUP1 DUP4 KECCAK256 DUP6 SWAP1 SSTORE MLOAD DUP5 DUP2 MSTORE SWAP2 SWAP3 SWAP2 DUP3 SWAP2 PUSH32 0x8C5BE1E5EBEC7D5BD14F71427D1E84F3DD0314C0F7B2291E5B200AC8C7C3B925 SWAP2 ADD JUMPDEST PUSH1 0x40 MLOAD DUP1 SWAP2 SUB SWAP1 LOG3 POP PUSH1 0x1 JUMPDEST SWAP3 SWAP2 POP POP JUMP JUMPDEST PUSH1 0x1 PUSH1 0x1 PUSH1 0xA0 SHL SUB DUP4 AND PUSH1 0x0 SWAP1 DUP2 MSTORE PUSH1 0xE PUSH1 0x20 MSTORE PUSH1 0x40 DUP2 KECCAK256 SLOAD DUP3 GT ISZERO PUSH2 0xC5B JUMPI PUSH1 0x40 MLOAD PUSH3 0x461BCD PUSH1 0xE5 SHL DUP2 MSTORE PUSH1 0x20 PUSH1 0x4 DUP3 ADD MSTORE PUSH1 0x11 PUSH1 0x24 DUP3 ADD MSTORE PUSH17 0x4E6F7420656E6F75676820746F6B656E73 PUSH1 0x78 SHL PUSH1 0x44 DUP3 ADD MSTORE PUSH1 0x64 ADD JUMPDEST PUSH1 0x40 MLOAD DUP1 SWAP2 SUB SWAP1 REVERT JUMPDEST PUSH1 0x1 PUSH1 0x1 PUSH1 0xA0 SHL SUB DUP5 AND PUSH1 0x0 SWAP1 DUP2 MSTORE PUSH1 0xF PUSH1 0x20 SWAP1 DUP2 MSTORE PUSH1 0x40 DUP1 DUP4 KECCAK256 CALLER DUP5 MSTORE SWAP1 SWAP2 MSTORE SWAP1 KECCAK256 SLOAD DUP3 GT ISZERO PUSH2 0xCC2 JUMPI PUSH1 0x40 MLOAD PUSH3 0x461BCD PUSH1 0xE5 SHL DUP2 MSTORE PUSH1 0x20 PUSH1 0x4 DUP3 ADD MSTORE PUSH1 0x11 PUSH1 0x24 DUP3 ADD MSTORE PUSH17 0x416C6C6F77616E636520746F6F206C6F77 PUSH1 0x78 SHL PUSH1 0x44 DUP3 ADD MSTORE PUSH1 0x64 ADD PUSH2 0xC52 JUMP JUMPDEST PUSH1 0x1 PUSH1 0x1 PUSH1 0xA0 SHL SUB DUP5 AND PUSH1 0x0 SWAP1 DUP2 MSTORE PUSH1 0xF PUSH1 0x20 SWAP1 DUP2 MSTORE PUSH1 0x40 DUP1 DUP4 KECCAK256 CALLER DUP5 MSTORE SWAP1 SWAP2 MSTORE DUP2 KECCAK256 DUP1 SLOAD DUP5 SWAP3 SWAP1 PUSH2 0xCF5 SWAP1 DUP5 SWAP1 PUSH2 0x3A47 JUMP JUMPDEST SWAP1 SWAP2 SSTORE POP POP PUSH1 0x1 PUSH1 0x1 PUSH1 0xA0 SHL SUB DUP5 AND PUSH1 0x0 SWAP1 DUP2 MSTORE PUSH1 0xE PUSH1 0x20 MSTORE PUSH1 0x40 DUP2 KECCAK256 DUP1 SLOAD DUP5 SWAP3 SWAP1 PUSH2 0xD22 SWAP1 DUP5 SWAP1 PUSH2 0x3A47 JUMP JUMPDEST SWAP1 SWAP2 SSTORE POP POP PUSH1 0x1 PUSH1 0x1 PUSH1 0xA0 SHL SUB DUP4 AND PUSH1 0x0 SWAP1 DUP2 MSTORE PUSH1 0xE PUSH1 0x20 MSTORE PUSH1 0x40 DUP2 KECCAK256 DUP1 SLOAD DUP5 SWAP3 SWAP1 PUSH2 0xD4F SWAP1 DUP5 SWAP1 PUSH2 0x3A5A JUMP JUMPDEST SWAP3 POP POP DUP2 SWAP1 SSTORE POP DUP3 PUSH1 0x1 PUSH1 0x1 PUSH1 0xA0 SHL SUB AND DUP5 PUSH1 0x1 PUSH1 0x1 PUSH1 0xA0 SHL SUB AND PUSH1 0x0 DUP1 MLOAD PUSH1 0x20 PUSH2 0x401D DUP4 CODECOPY DUP2 MLOAD SWAP2 MSTORE DUP5 PUSH1 0x40 MLOAD PUSH2 0xD89 SWAP2 DUP2 MSTORE PUSH1 0x20 ADD SWAP1 JUMP JUMPDEST PUSH1 0x40 MLOAD DUP1 SWAP2 SUB SWAP1 LOG3 POP PUSH1 0x1 SWAP4 SWAP3 POP POP POP JUMP JUMPDEST CALLER PUSH1 0x0 SWAP1 DUP2 MSTORE PUSH1 0x4 PUSH1 0x20 MSTORE PUSH1 0x40 SWAP1 KECCAK256 SLOAD PUSH1 0xFF AND PUSH2 0xDCA JUMPI PUSH1 0x40 MLOAD PUSH3 0x461BCD PUSH1 0xE5 SHL DUP2 MSTORE PUSH1 0x4 ADD PUSH2 0xC52 SWAP1 PUSH2 0x3A6D JUMP JUMPDEST PUSH1 0x3 DUP1 SLOAD PUSH1 0xFF NOT AND PUSH1 0x1 OR SWAP1 SSTORE PUSH1 0x40 MLOAD CALLER DUP2 MSTORE PUSH32 0x1FC1E771236D2E93BB9541CDCB4654BA0FD3FB615B48D829B7B365F039985126 SWAP1 PUSH1 0x20 ADD JUMPDEST PUSH1 0x40 MLOAD DUP1 SWAP2 SUB SWAP1 LOG1 JUMP JUMPDEST PUSH1 0x8 PUSH1 0x20 MSTORE PUSH1 0x0 SWAP1 DUP2 MSTORE PUSH1 0x40 SWAP1 KECCAK256 DUP1 SLOAD DUP2 SWAP1 PUSH2 0xE28 SWAP1 PUSH2 0x39F7 JUMP JUMPDEST DUP1 PUSH1 0x1F ADD PUSH1 0x20 DUP1 SWAP2 DIV MUL PUSH1 0x20 ADD PUSH1 0x40 MLOAD SWAP1 DUP2 ADD PUSH1 0x40 MSTORE DUP1 SWAP3 SWAP2 SWAP1 DUP2 DUP2 MSTORE PUSH1 0x20 ADD DUP3 DUP1 SLOAD PUSH2 0xE54 SWAP1 PUSH2 0x39F7 JUMP JUMPDEST DUP1 ISZERO PUSH2 0xEA1 JUMPI DUP1 PUSH1 0x1F LT PUSH2 0xE76 JUMPI PUSH2 0x100 DUP1 DUP4 SLOAD DIV MUL DUP4 MSTORE SWAP2 PUSH1 0x20 ADD SWAP2 PUSH2 0xEA1 JUMP JUMPDEST DUP3 ADD SWAP2 SWAP1 PUSH1 0x0 MSTORE PUSH1 0x20 PUSH1 0x0 KECCAK256 SWAP1 JUMPDEST DUP2 SLOAD DUP2 MSTORE SWAP1 PUSH1 0x1 ADD SWAP1 PUSH1 0x20 ADD DUP1 DUP4 GT PUSH2 0xE84 JUMPI DUP3 SWAP1 SUB PUSH1 0x1F AND DUP3 ADD SWAP2 JUMPDEST POP POP POP POP PUSH1 0x1 DUP4 ADD SLOAD PUSH1 0x2 DUP5 ADD SLOAD PUSH1 0x3 DUP6 ADD SLOAD PUSH1 0x4 SWAP1 SWAP6 ADD SLOAD SWAP4 SWAP5 PUSH1 0x1 PUSH1 0x1 PUSH1 0xA0 SHL SUB SWAP1 SWAP3 AND SWAP4 SWAP1 SWAP3 POP PUSH1 0xFF AND DUP6 JUMP JUMPDEST PUSH1 0x2 PUSH1 0x0 SLOAD SUB PUSH2 0xEF3 JUMPI PUSH1 0x40 MLOAD PUSH3 0x461BCD PUSH1 0xE5 SHL DUP2 MSTORE PUSH1 0x4 ADD PUSH2 0xC52 SWAP1 PUSH2 0x3A96 JUMP JUMPDEST PUSH1 0x2 PUSH1 0x0 DUP2 DUP2 SSTORE CALLER DUP2 MSTORE PUSH1 0x20 SWAP2 SWAP1 SWAP2 MSTORE PUSH1 0x40 SWAP1 KECCAK256 SLOAD NUMBER SWAP1 PUSH2 0xF16 SWAP1 PUSH1 0x1 SWAP1 PUSH2 0x3A5A JUMP JUMPDEST LT PUSH2 0xF33 JUMPI PUSH1 0x40 MLOAD PUSH3 0x461BCD PUSH1 0xE5 SHL DUP2 MSTORE PUSH1 0x4 ADD PUSH2 0xC52 SWAP1 PUSH2 0x3ACD JUMP JUMPDEST CALLER PUSH1 0x0 SWAP1 DUP2 MSTORE PUSH1 0x2 PUSH1 0x20 MSTORE PUSH1 0x40 SWAP1 KECCAK256 NUMBER SWAP1 SSTORE PUSH1 0x3 SLOAD PUSH1 0xFF AND ISZERO PUSH2 0xF68 JUMPI PUSH1 0x40 MLOAD PUSH3 0x461BCD PUSH1 0xE5 SHL DUP2 MSTORE PUSH1 0x4 ADD PUSH2 0xC52 SWAP1 PUSH2 0x3AF6 JUMP JUMPDEST PUSH1 0x0 PUSH2 0xFA9 DUP4 DUP4 DUP1 DUP1 PUSH1 0x1F ADD PUSH1 0x20 DUP1 SWAP2 DIV MUL PUSH1 0x20 ADD PUSH1 0x40 MLOAD SWAP1 DUP2 ADD PUSH1 0x40 MSTORE DUP1 SWAP4 SWAP3 SWAP2 SWAP1 DUP2 DUP2 MSTORE PUSH1 0x20 ADD DUP4 DUP4 DUP1 DUP3 DUP5 CALLDATACOPY PUSH1 0x0 SWAP3 ADD SWAP2 SWAP1 SWAP2 MSTORE POP PUSH2 0x11C2 SWAP3 POP POP POP JUMP JUMPDEST PUSH1 0x0 DUP2 DUP2 MSTORE PUSH1 0x8 PUSH1 0x20 MSTORE PUSH1 0x40 SWAP1 KECCAK256 PUSH1 0x4 ADD SLOAD SWAP1 SWAP2 POP PUSH1 0xFF AND PUSH2 0xFDD JUMPI PUSH1 0x40 MLOAD PUSH3 0x461BCD PUSH1 0xE5 SHL DUP2 MSTORE PUSH1 0x4 ADD PUSH2 0xC52 SWAP1 PUSH2 0x3B22 JUMP JUMPDEST PUSH8 0x16345785D8A0000 CALLVALUE LT ISZERO PUSH2 0x1023 JUMPI PUSH1 0x40 MLOAD PUSH3 0x461BCD PUSH1 0xE5 SHL DUP2 MSTORE PUSH1 0x20 PUSH1 0x4 DUP3 ADD MSTORE PUSH1 0xB PUSH1 0x24 DUP3 ADD MSTORE PUSH11 0x9AD2DC40605C62408AA89 PUSH1 0xAB SHL PUSH1 0x44 DUP3 ADD MSTORE PUSH1 0x64 ADD PUSH2 0xC52 JUMP JUMPDEST CALLER PUSH1 0x0 SWAP1 DUP2 MSTORE PUSH1 0x13 PUSH1 0x20 MSTORE PUSH1 0x40 SWAP1 KECCAK256 PUSH1 0x1 ADD SLOAD ISZERO PUSH2 0x1075 JUMPI PUSH1 0x40 MLOAD PUSH3 0x461BCD PUSH1 0xE5 SHL DUP2 MSTORE PUSH1 0x20 PUSH1 0x4 DUP3 ADD MSTORE PUSH1 0xF PUSH1 0x24 DUP3 ADD MSTORE PUSH15 0x506F736974696F6E20657869737473 PUSH1 0x88 SHL PUSH1 0x44 DUP3 ADD MSTORE PUSH1 0x64 ADD PUSH2 0xC52 JUMP JUMPDEST PUSH1 0x0 DUP2 DUP2 MSTORE PUSH1 0x8 PUSH1 0x20 MSTORE PUSH1 0x40 DUP1 DUP3 KECCAK256 PUSH1 0x1 ADD SLOAD DUP2 MLOAD PUSH4 0x3FABE5A3 PUSH1 0xE2 SHL DUP2 MSTORE SWAP2 MLOAD PUSH1 0x1 PUSH1 0x1 PUSH1 0xA0 SHL SUB SWAP1 SWAP2 AND SWAP2 PUSH4 0xFEAF968C SWAP2 PUSH1 0x4 DUP1 DUP4 ADD SWAP3 PUSH1 0xA0 SWAP3 SWAP2 SWAP1 DUP3 SWAP1 SUB ADD DUP2 DUP7 GAS STATICCALL ISZERO DUP1 ISZERO PUSH2 0x10CC JUMPI RETURNDATASIZE PUSH1 0x0 DUP1 RETURNDATACOPY RETURNDATASIZE PUSH1 0x0 REVERT JUMPDEST POP POP POP POP PUSH1 0x40 MLOAD RETURNDATASIZE PUSH1 0x1F NOT PUSH1 0x1F DUP3 ADD AND DUP3 ADD DUP1 PUSH1 0x40 MSTORE POP DUP2 ADD SWAP1 PUSH2 0x10F0 SWAP2 SWAP1 PUSH2 0x3B67 JUMP JUMPDEST POP POP POP SWAP2 POP POP PUSH1 0x0 DUP2 SGT PUSH2 0x1116 JUMPI PUSH1 0x40 MLOAD PUSH3 0x461BCD PUSH1 0xE5 SHL DUP2 MSTORE PUSH1 0x4 ADD PUSH2 0xC52 SWAP1 PUSH2 0x3BB7 JUMP JUMPDEST PUSH1 0x40 DUP1 MLOAD PUSH1 0x80 DUP2 ADD DUP3 MSTORE DUP4 DUP2 MSTORE CALLVALUE PUSH1 0x20 DUP1 DUP4 ADD DUP3 DUP2 MSTORE DUP4 DUP6 ADD DUP7 DUP2 MSTORE TIMESTAMP PUSH1 0x60 DUP7 ADD SWAP1 DUP2 MSTORE CALLER PUSH1 0x0 SWAP1 DUP2 MSTORE PUSH1 0x13 SWAP1 SWAP5 MSTORE SWAP6 DUP4 KECCAK256 SWAP5 MLOAD DUP6 SSTORE SWAP1 MLOAD PUSH1 0x1 DUP6 ADD SSTORE MLOAD PUSH1 0x2 DUP5 ADD SSTORE SWAP3 MLOAD PUSH1 0x3 SWAP1 SWAP3 ADD SWAP2 SWAP1 SWAP2 SSTORE PUSH1 0x14 DUP1 SLOAD SWAP2 SWAP3 SWAP1 SWAP2 PUSH2 0x1177 SWAP1 DUP5 SWAP1 PUSH2 0x3A5A JUMP JUMPDEST SWAP1 SWAP2 SSTORE POP POP PUSH1 0x40 DUP1 MLOAD CALLVALUE DUP2 MSTORE PUSH1 0x20 DUP2 ADD DUP4 SWAP1 MSTORE CALLER SWAP2 PUSH32 0xF4BA3EBCD3C40319F1834BAA786A0F71B5A4B6015ADDB0DB1FCF2B1377F64E1B SWAP2 ADD PUSH1 0x40 MLOAD DUP1 SWAP2 SUB SWAP1 LOG2 POP POP PUSH1 0x1 PUSH1 0x0 SSTORE POP POP JUMP JUMPDEST PUSH1 0x0 DUP2 PUSH1 0x40 MLOAD PUSH1 0x20 ADD PUSH2 0x11D5 SWAP2 SWAP1 PUSH2 0x3BDE JUMP JUMPDEST PUSH1 0x40 MLOAD PUSH1 0x20 DUP2 DUP4 SUB SUB DUP2 MSTORE SWAP1 PUSH1 0x40 MSTORE DUP1 MLOAD SWAP1 PUSH1 0x20 ADD KECCAK256 SWAP1 POP SWAP2 SWAP1 POP JUMP JUMPDEST CALLER PUSH1 0x0 SWAP1 DUP2 MSTORE PUSH1 0x4 PUSH1 0x20 MSTORE PUSH1 0x40 SWAP1 KECCAK256 SLOAD PUSH1 0xFF AND PUSH2 0x1221 JUMPI PUSH1 0x40 MLOAD PUSH3 0x461BCD PUSH1 0xE5 SHL DUP2 MSTORE PUSH1 0x4 ADD PUSH2 0xC52 SWAP1 PUSH2 0x3A6D JUMP JUMPDEST PUSH1 0x3 SLOAD PUSH1 0xFF AND PUSH2 0x1260 JUMPI PUSH1 0x40 MLOAD PUSH3 0x461BCD PUSH1 0xE5 SHL DUP2 MSTORE PUSH1 0x20 PUSH1 0x4 DUP3 ADD MSTORE PUSH1 0xA PUSH1 0x24 DUP3 ADD MSTORE PUSH10 0x139BDD081C185D5CD959 PUSH1 0xB2 SHL PUSH1 0x44 DUP3 ADD MSTORE PUSH1 0x64 ADD PUSH2 0xC52 JUMP JUMPDEST PUSH1 0x3 DUP1 SLOAD PUSH1 0xFF NOT AND SWAP1 SSTORE PUSH1 0x40 MLOAD CALLER DUP2 MSTORE PUSH32 0x5B65B0C1363B3003DB9BCC5E1FD8805A6D6BF5BF6DC9D3431EE4494CD7D11766 SWAP1 PUSH1 0x20 ADD PUSH2 0xE03 JUMP JUMPDEST PUSH1 0x6 SLOAD PUSH1 0x1 PUSH1 0x1 PUSH1 0xA0 SHL SUB AND CALLER EQ PUSH2 0x12C4 JUMPI PUSH1 0x40 MLOAD PUSH3 0x461BCD PUSH1 0xE5 SHL DUP2 MSTORE PUSH1 0x4 ADD PUSH2 0xC52 SWAP1 PUSH2 0x3BFA JUMP JUMPDEST PUSH1 0x0 PUSH1 0x7 SLOAD GT PUSH2 0x130D JUMPI PUSH1 0x40 MLOAD PUSH3 0x461BCD PUSH1 0xE5 SHL DUP2 MSTORE PUSH1 0x20 PUSH1 0x4 DUP3 ADD MSTORE PUSH1 0x14 PUSH1 0x24 DUP3 ADD MSTORE PUSH20 0x4E6F20746178657320746F207769746864726177 PUSH1 0x60 SHL PUSH1 0x44 DUP3 ADD MSTORE PUSH1 0x64 ADD PUSH2 0xC52 JUMP JUMPDEST PUSH1 0x7 DUP1 SLOAD PUSH1 0x0 SWAP2 DUP3 SWAP1 SSTORE PUSH1 0x6 SLOAD PUSH1 0x40 MLOAD SWAP2 SWAP3 SWAP2 PUSH1 0x1 PUSH1 0x1 PUSH1 0xA0 SHL SUB SWAP1 SWAP2 AND SWAP1 DUP4 SWAP1 DUP4 DUP2 DUP2 DUP2 DUP6 DUP8 GAS CALL SWAP3 POP POP POP RETURNDATASIZE DUP1 PUSH1 0x0 DUP2 EQ PUSH2 0x1366 JUMPI PUSH1 0x40 MLOAD SWAP2 POP PUSH1 0x1F NOT PUSH1 0x3F RETURNDATASIZE ADD AND DUP3 ADD PUSH1 0x40 MSTORE RETURNDATASIZE DUP3 MSTORE RETURNDATASIZE PUSH1 0x0 PUSH1 0x20 DUP5 ADD RETURNDATACOPY PUSH2 0x136B JUMP JUMPDEST PUSH1 0x60 SWAP2 POP JUMPDEST POP POP SWAP1 POP DUP1 PUSH2 0x13B4 JUMPI PUSH1 0x40 MLOAD PUSH3 0x461BCD PUSH1 0xE5 SHL DUP2 MSTORE PUSH1 0x20 PUSH1 0x4 DUP3 ADD MSTORE PUSH1 0x15 PUSH1 0x24 DUP3 ADD MSTORE PUSH21 0x15185E081DDA5D1A191C985DD85B0819985A5B1959 PUSH1 0x5A SHL PUSH1 0x44 DUP3 ADD MSTORE PUSH1 0x64 ADD PUSH2 0xC52 JUMP JUMPDEST POP POP JUMP JUMPDEST PUSH1 0x6 SLOAD PUSH1 0x1 PUSH1 0x1 PUSH1 0xA0 SHL SUB AND CALLER EQ PUSH2 0x13E2 JUMPI PUSH1 0x40 MLOAD PUSH3 0x461BCD PUSH1 0xE5 SHL DUP2 MSTORE PUSH1 0x4 ADD PUSH2 0xC52 SWAP1 PUSH2 0x3BFA JUMP JUMPDEST PUSH1 0x0 DUP2 DUP2 MSTORE PUSH1 0x16 PUSH1 0x20 MSTORE PUSH1 0x40 SWAP1 KECCAK256 SLOAD PUSH2 0x1432 JUMPI PUSH1 0x40 MLOAD PUSH3 0x461BCD PUSH1 0xE5 SHL DUP2 MSTORE PUSH1 0x20 PUSH1 0x4 DUP3 ADD MSTORE PUSH1 0x12 PUSH1 0x24 DUP3 ADD MSTORE PUSH18 0x125B9D985B1A59081DDA5D1A191C985DD85B PUSH1 0x72 SHL PUSH1 0x44 DUP3 ADD MSTORE PUSH1 0x64 ADD PUSH2 0xC52 JUMP JUMPDEST PUSH1 0x0 DUP2 DUP2 MSTORE PUSH1 0x16 PUSH1 0x20 MSTORE PUSH1 0x40 SWAP1 KECCAK256 SLOAD PUSH2 0x144F SWAP1 PUSH3 0x2A300 SWAP1 PUSH2 0x3A5A JUMP JUMPDEST TIMESTAMP LT ISZERO PUSH2 0x149E JUMPI PUSH1 0x40 MLOAD PUSH3 0x461BCD PUSH1 0xE5 SHL DUP2 MSTORE PUSH1 0x20 PUSH1 0x4 DUP3 ADD MSTORE PUSH1 0x18 PUSH1 0x24 DUP3 ADD MSTORE PUSH32 0x5769746864726177616C2064656C6179206E6F74206D65740000000000000000 PUSH1 0x44 DUP3 ADD MSTORE PUSH1 0x64 ADD PUSH2 0xC52 JUMP JUMPDEST PUSH1 0x7 DUP1 SLOAD PUSH1 0x0 SWAP2 DUP3 SWAP1 SSTORE DUP3 DUP3 MSTORE PUSH1 0x16 PUSH1 0x20 MSTORE PUSH1 0x40 DUP1 DUP4 KECCAK256 DUP4 SWAP1 SSTORE PUSH1 0x6 SLOAD SWAP1 MLOAD SWAP2 SWAP3 SWAP2 PUSH1 0x1 PUSH1 0x1 PUSH1 0xA0 SHL SUB SWAP1 SWAP2 AND SWAP1 DUP4 SWAP1 DUP4 DUP2 DUP2 DUP2 DUP6 DUP8 GAS CALL SWAP3 POP POP POP RETURNDATASIZE DUP1 PUSH1 0x0 DUP2 EQ PUSH2 0x1506 JUMPI PUSH1 0x40 MLOAD SWAP2 POP PUSH1 0x1F NOT PUSH1 0x3F RETURNDATASIZE ADD AND DUP3 ADD PUSH1 0x40 MSTORE RETURNDATASIZE DUP3 MSTORE RETURNDATASIZE PUSH1 0x0 PUSH1 0x20 DUP5 ADD RETURNDATACOPY PUSH2 0x150B JUMP JUMPDEST PUSH1 0x60 SWAP2 POP JUMPDEST POP POP SWAP1 POP DUP1 PUSH2 0x154E JUMPI PUSH1 0x40 MLOAD PUSH3 0x461BCD PUSH1 0xE5 SHL DUP2 MSTORE PUSH1 0x20 PUSH1 0x4 DUP3 ADD MSTORE PUSH1 0xF PUSH1 0x24 DUP3 ADD MSTORE PUSH15 0x151C985B9CD9995C8819985A5B1959 PUSH1 0x8A SHL PUSH1 0x44 DUP3 ADD MSTORE PUSH1 0x64 ADD PUSH2 0xC52 JUMP JUMPDEST POP POP POP JUMP JUMPDEST PUSH1 0x0 PUSH2 0x1594 DUP4 DUP4 DUP1 DUP1 PUSH1 0x1F ADD PUSH1 0x20 DUP1 SWAP2 DIV MUL PUSH1 0x20 ADD PUSH1 0x40 MLOAD SWAP1 DUP2 ADD PUSH1 0x40 MSTORE DUP1 SWAP4 SWAP3 SWAP2 SWAP1 DUP2 DUP2 MSTORE PUSH1 0x20 ADD DUP4 DUP4 DUP1 DUP3 DUP5 CALLDATACOPY PUSH1 0x0 SWAP3 ADD SWAP2 SWAP1 SWAP2 MSTORE POP PUSH2 0x11C2 SWAP3 POP POP POP JUMP JUMPDEST PUSH1 0x0 DUP2 DUP2 MSTORE PUSH1 0x8 PUSH1 0x20 MSTORE PUSH1 0x40 SWAP1 KECCAK256 PUSH1 0x4 ADD SLOAD SWAP1 SWAP2 POP PUSH1 0xFF AND PUSH2 0x15EC JUMPI PUSH1 0x40 MLOAD PUSH3 0x461BCD PUSH1 0xE5 SHL DUP2 MSTORE PUSH1 0x20 PUSH1 0x4 DUP3 ADD MSTORE PUSH1 0x11 PUSH1 0x24 DUP3 ADD MSTORE PUSH17 0x53796D626F6C206E6F7420616374697665 PUSH1 0x78 SHL PUSH1 0x44 DUP3 ADD MSTORE PUSH1 0x64 ADD PUSH2 0xC52 JUMP JUMPDEST PUSH1 0x6 SLOAD PUSH1 0x1 PUSH1 0x1 PUSH1 0xA0 SHL SUB AND CALLER EQ PUSH2 0x1616 JUMPI PUSH1 0x40 MLOAD PUSH3 0x461BCD PUSH1 0xE5 SHL DUP2 MSTORE PUSH1 0x4 ADD PUSH2 0xC52 SWAP1 PUSH2 0x3BFA JUMP JUMPDEST PUSH1 0x0 DUP2 DUP2 MSTORE PUSH1 0x8 PUSH1 0x20 MSTORE PUSH1 0x40 SWAP1 DUP2 SWAP1 KECCAK256 PUSH1 0x4 ADD DUP1 SLOAD PUSH1 0xFF NOT AND SWAP1 SSTORE MLOAD PUSH32 0x2B06BE561EE99526DC571A9CFD3AE9A218FC9AC34FC8CB888C742FCB40A7D226 SWAP1 PUSH2 0x1661 SWAP1 DUP6 SWAP1 DUP6 SWAP1 PUSH2 0x3C1E JUMP JUMPDEST PUSH1 0x40 MLOAD DUP1 SWAP2 SUB SWAP1 LOG1 POP POP POP JUMP JUMPDEST PUSH1 0x2 PUSH1 0x0 SLOAD SUB PUSH2 0x1690 JUMPI PUSH1 0x40 MLOAD PUSH3 0x461BCD PUSH1 0xE5 SHL DUP2 MSTORE PUSH1 0x4 ADD PUSH2 0xC52 SWAP1 PUSH2 0x3A96 JUMP JUMPDEST PUSH1 0x2 PUSH1 0x0 DUP2 DUP2 SSTORE CALLER DUP2 MSTORE PUSH1 0x13 PUSH1 0x20 SWAP1 DUP2 MSTORE PUSH1 0x40 SWAP2 DUP3 SWAP1 KECCAK256 DUP3 MLOAD PUSH1 0x80 DUP2 ADD DUP5 MSTORE DUP2 SLOAD DUP2 MSTORE PUSH1 0x1 DUP3 ADD SLOAD SWAP3 DUP2 ADD DUP4 SWAP1 MSTORE SWAP4 DUP2 ADD SLOAD SWAP3 DUP5 ADD SWAP3 SWAP1 SWAP3 MSTORE PUSH1 0x3 SWAP1 SWAP2 ADD SLOAD PUSH1 0x60 DUP4 ADD MSTORE PUSH2 0x170E JUMPI PUSH1 0x40 MLOAD PUSH3 0x461BCD PUSH1 0xE5 SHL DUP2 MSTORE PUSH1 0x20 PUSH1 0x4 DUP3 ADD MSTORE PUSH1 0xB PUSH1 0x24 DUP3 ADD MSTORE PUSH11 0x2737903837B9B4BA34B7B7 PUSH1 0xA9 SHL PUSH1 0x44 DUP3 ADD MSTORE PUSH1 0x64 ADD PUSH2 0xC52 JUMP JUMPDEST DUP1 MLOAD PUSH1 0x0 SWAP1 DUP2 MSTORE PUSH1 0x8 PUSH1 0x20 MSTORE PUSH1 0x40 DUP1 DUP3 KECCAK256 PUSH1 0x1 DUP2 ADD SLOAD DUP3 MLOAD PUSH4 0x3FABE5A3 PUSH1 0xE2 SHL DUP2 MSTORE SWAP3 MLOAD SWAP2 SWAP4 SWAP3 PUSH1 0x1 PUSH1 0x1 PUSH1 0xA0 SHL SUB SWAP1 SWAP2 AND SWAP2 PUSH4 0xFEAF968C SWAP2 PUSH1 0x4 DUP1 DUP3 ADD SWAP3 PUSH1 0xA0 SWAP3 SWAP1 SWAP2 SWAP1 DUP3 SWAP1 SUB ADD DUP2 DUP7 GAS STATICCALL ISZERO DUP1 ISZERO PUSH2 0x176C JUMPI RETURNDATASIZE PUSH1 0x0 DUP1 RETURNDATACOPY RETURNDATASIZE PUSH1 0x0 REVERT JUMPDEST POP POP POP POP PUSH1 0x40 MLOAD RETURNDATASIZE PUSH1 0x1F NOT PUSH1 0x1F DUP3 ADD AND DUP3 ADD DUP1 PUSH1 0x40 MSTORE POP DUP2 ADD SWAP1 PUSH2 0x1790 SWAP2 SWAP1 PUSH2 0x3B67 JUMP JUMPDEST POP POP POP SWAP2 POP POP PUSH1 0x0 DUP2 SGT PUSH2 0x17B6 JUMPI PUSH1 0x40 MLOAD PUSH3 0x461BCD PUSH1 0xE5 SHL DUP2 MSTORE PUSH1 0x4 ADD PUSH2 0xC52 SWAP1 PUSH2 0x3BB7 JUMP JUMPDEST PUSH1 0x0 DUP4 PUSH1 0x40 ADD MLOAD DUP3 PUSH2 0x17C8 SWAP2 SWAP1 PUSH2 0x3C4D JUMP JUMPDEST SWAP1 POP PUSH1 0x0 DUP1 DUP3 SGT ISZERO PUSH2 0x185B JUMPI DUP5 PUSH1 0x40 ADD MLOAD DUP3 DUP7 PUSH1 0x20 ADD MLOAD PUSH2 0x17E9 SWAP2 SWAP1 PUSH2 0x3C6D JUMP JUMPDEST PUSH2 0x17F3 SWAP2 SWAP1 PUSH2 0x3C9A JUMP JUMPDEST SWAP1 POP DUP4 PUSH1 0x3 ADD SLOAD DUP2 GT ISZERO PUSH2 0x1841 JUMPI PUSH1 0x40 MLOAD PUSH3 0x461BCD PUSH1 0xE5 SHL DUP2 MSTORE PUSH1 0x20 PUSH1 0x4 DUP3 ADD MSTORE PUSH1 0x15 PUSH1 0x24 DUP3 ADD MSTORE PUSH21 0x496E73756666696369656E74207265736572766573 PUSH1 0x58 SHL PUSH1 0x44 DUP3 ADD MSTORE PUSH1 0x64 ADD PUSH2 0xC52 JUMP JUMPDEST DUP1 DUP5 PUSH1 0x3 ADD PUSH1 0x0 DUP3 DUP3 SLOAD PUSH2 0x1855 SWAP2 SWAP1 PUSH2 0x3A47 JUMP JUMPDEST SWAP1 SWAP2 SSTORE POP POP JUMPDEST DUP5 PUSH1 0x20 ADD MLOAD PUSH1 0x14 PUSH1 0x0 DUP3 DUP3 SLOAD PUSH2 0x1871 SWAP2 SWAP1 PUSH2 0x3A47 JUMP JUMPDEST SWAP1 SWAP2 SSTORE POP POP CALLER PUSH1 0x0 SWAP1 DUP2 MSTORE PUSH1 0x13 PUSH1 0x20 SWAP1 DUP2 MSTORE PUSH1 0x40 DUP3 KECCAK256 DUP3 DUP2 SSTORE PUSH1 0x1 DUP2 ADD DUP4 SWAP1 SSTORE PUSH1 0x2 DUP2 ADD DUP4 SWAP1 SSTORE PUSH1 0x3 ADD DUP3 SWAP1 SSTORE DUP7 ADD MLOAD PUSH2 0x18AC SWAP1 DUP4 SWAP1 PUSH2 0x3A5A JUMP JUMPDEST PUSH1 0x40 MLOAD SWAP1 SWAP2 POP PUSH1 0x0 SWAP1 CALLER SWAP1 DUP4 SWAP1 DUP4 DUP2 DUP2 DUP2 DUP6 DUP8 GAS CALL SWAP3 POP POP POP RETURNDATASIZE DUP1 PUSH1 0x0 DUP2 EQ PUSH2 0x18F1 JUMPI PUSH1 0x40 MLOAD SWAP2 POP PUSH1 0x1F NOT PUSH1 0x3F RETURNDATASIZE ADD AND DUP3 ADD PUSH1 0x40 MSTORE RETURNDATASIZE DUP3 MSTORE RETURNDATASIZE PUSH1 0x0 PUSH1 0x20 DUP5 ADD RETURNDATACOPY PUSH2 0x18F6 JUMP JUMPDEST PUSH1 0x60 SWAP2 POP JUMPDEST POP POP SWAP1 POP DUP1 PUSH2 0x193D JUMPI PUSH1 0x40 MLOAD PUSH3 0x461BCD PUSH1 0xE5 SHL DUP2 MSTORE PUSH1 0x20 PUSH1 0x4 DUP3 ADD MSTORE PUSH1 0x13 PUSH1 0x24 DUP3 ADD MSTORE PUSH19 0x115512081D1C985B9CD9995C8819985A5B1959 PUSH1 0x6A SHL PUSH1 0x44 DUP3 ADD MSTORE PUSH1 0x64 ADD PUSH2 0xC52 JUMP JUMPDEST PUSH1 0x40 MLOAD DUP4 DUP2 MSTORE CALLER SWAP1 PUSH32 0xE26FEAB862B8DC2729BD359C56323C001EF16CD20EAE9FC4E0D461A6F0F29F15 SWAP1 PUSH1 0x20 ADD PUSH1 0x40 MLOAD DUP1 SWAP2 SUB SWAP1 LOG2 POP POP PUSH1 0x1 PUSH1 0x0 SSTORE POP POP POP POP POP JUMP JUMPDEST PUSH1 0x0 JUMPDEST PUSH1 0x9 SLOAD DUP2 LT ISZERO PUSH2 0x19F2 JUMPI PUSH1 0x0 PUSH1 0x9 DUP3 DUP2 SLOAD DUP2 LT PUSH2 0x19A2 JUMPI PUSH2 0x19A2 PUSH2 0x3CAE JUMP JUMPDEST PUSH1 0x0 SWAP2 DUP3 MSTORE PUSH1 0x20 DUP1 DUP4 KECCAK256 SWAP1 SWAP2 ADD SLOAD DUP1 DUP4 MSTORE PUSH1 0x8 SWAP1 SWAP2 MSTORE PUSH1 0x40 SWAP1 SWAP2 KECCAK256 PUSH1 0x4 DUP2 ADD SLOAD SWAP2 SWAP3 POP SWAP1 PUSH1 0xFF AND PUSH2 0x19D4 JUMPI POP POP PUSH2 0x19E0 JUMP JUMPDEST PUSH2 0x19DD DUP3 PUSH2 0x3131 JUMP JUMPDEST POP POP JUMPDEST DUP1 PUSH2 0x19EA DUP2 PUSH2 0x3CC4 JUMP JUMPDEST SWAP2 POP POP PUSH2 0x1983 JUMP JUMPDEST POP JUMP JUMPDEST PUSH1 0x2 PUSH1 0x0 SLOAD SUB PUSH2 0x1A17 JUMPI PUSH1 0x40 MLOAD PUSH3 0x461BCD PUSH1 0xE5 SHL DUP2 MSTORE PUSH1 0x4 ADD PUSH2 0xC52 SWAP1 PUSH2 0x3A96 JUMP JUMPDEST PUSH1 0x2 PUSH1 0x0 DUP2 DUP2 SSTORE CALLER DUP2 MSTORE PUSH1 0x20 SWAP2 SWAP1 SWAP2 MSTORE PUSH1 0x40 SWAP1 KECCAK256 SLOAD NUMBER SWAP1 PUSH2 0x1A3A SWAP1 PUSH1 0x1 SWAP1 PUSH2 0x3A5A JUMP JUMPDEST LT PUSH2 0x1A57 JUMPI PUSH1 0x40 MLOAD PUSH3 0x461BCD PUSH1 0xE5 SHL DUP2 MSTORE PUSH1 0x4 ADD PUSH2 0xC52 SWAP1 PUSH2 0x3ACD JUMP JUMPDEST CALLER PUSH1 0x0 SWAP1 DUP2 MSTORE PUSH1 0x2 PUSH1 0x20 MSTORE PUSH1 0x40 SWAP1 KECCAK256 NUMBER SWAP1 SSTORE PUSH1 0x3 SLOAD PUSH1 0xFF AND ISZERO PUSH2 0x1A8C JUMPI PUSH1 0x40 MLOAD PUSH3 0x461BCD PUSH1 0xE5 SHL DUP2 MSTORE PUSH1 0x4 ADD PUSH2 0xC52 SWAP1 PUSH2 0x3AF6 JUMP JUMPDEST PUSH1 0x0 PUSH2 0x1ACD DUP5 DUP5 DUP1 DUP1 PUSH1 0x1F ADD PUSH1 0x20 DUP1 SWAP2 DIV MUL PUSH1 0x20 ADD PUSH1 0x40 MLOAD SWAP1 DUP2 ADD PUSH1 0x40 MSTORE DUP1 SWAP4 SWAP3 SWAP2 SWAP1 DUP2 DUP2 MSTORE PUSH1 0x20 ADD DUP4 DUP4 DUP1 DUP3 DUP5 CALLDATACOPY PUSH1 0x0 SWAP3 ADD SWAP2 SWAP1 SWAP2 MSTORE POP PUSH2 0x11C2 SWAP3 POP POP POP JUMP JUMPDEST PUSH1 0x0 DUP2 DUP2 MSTORE PUSH1 0x8 PUSH1 0x20 MSTORE PUSH1 0x40 SWAP1 KECCAK256 SWAP1 SWAP2 POP DUP3 PUSH2 0x1B2B JUMPI PUSH1 0x40 MLOAD PUSH3 0x461BCD PUSH1 0xE5 SHL DUP2 MSTORE PUSH1 0x20 PUSH1 0x4 DUP3 ADD MSTORE PUSH1 0x17 PUSH1 0x24 DUP3 ADD MSTORE PUSH32 0x416D6F756E74206D75737420626520706F736974697665000000000000000000 PUSH1 0x44 DUP3 ADD MSTORE PUSH1 0x64 ADD PUSH2 0xC52 JUMP JUMPDEST CALLER PUSH1 0x0 SWAP1 DUP2 MSTORE PUSH1 0xE PUSH1 0x20 MSTORE PUSH1 0x40 SWAP1 KECCAK256 SLOAD DUP4 GT ISZERO PUSH2 0x1B81 JUMPI PUSH1 0x40 MLOAD PUSH3 0x461BCD PUSH1 0xE5 SHL DUP2 MSTORE PUSH1 0x20 PUSH1 0x4 DUP3 ADD MSTORE PUSH1 0x14 PUSH1 0x24 DUP3 ADD MSTORE PUSH20 0x496E73756666696369656E742062616C616E6365 PUSH1 0x60 SHL PUSH1 0x44 DUP3 ADD MSTORE PUSH1 0x64 ADD PUSH2 0xC52 JUMP JUMPDEST PUSH1 0x0 PUSH1 0x8 PUSH1 0x0 PUSH2 0x1BAB PUSH1 0x40 MLOAD DUP1 PUSH1 0x40 ADD PUSH1 0x40 MSTORE DUP1 PUSH1 0x3 DUP2 MSTORE PUSH1 0x20 ADD PUSH3 0x8AA89 PUSH1 0xEB SHL DUP2 MSTORE POP PUSH2 0x11C2 JUMP JUMPDEST DUP2 MSTORE PUSH1 0x20 ADD SWAP1 DUP2 MSTORE PUSH1 0x20 ADD PUSH1 0x0 KECCAK256 PUSH1 0x1 ADD PUSH1 0x0 SWAP1 SLOAD SWAP1 PUSH2 0x100 EXP SWAP1 DIV PUSH1 0x1 PUSH1 0x1 PUSH1 0xA0 SHL SUB AND PUSH1 0x1 PUSH1 0x1 PUSH1 0xA0 SHL SUB AND PUSH4 0xFEAF968C PUSH1 0x40 MLOAD DUP2 PUSH4 0xFFFFFFFF AND PUSH1 0xE0 SHL DUP2 MSTORE PUSH1 0x4 ADD PUSH1 0xA0 PUSH1 0x40 MLOAD DUP1 DUP4 SUB DUP2 DUP7 GAS STATICCALL ISZERO DUP1 ISZERO PUSH2 0x1C0D JUMPI RETURNDATASIZE PUSH1 0x0 DUP1 RETURNDATACOPY RETURNDATASIZE PUSH1 0x0 REVERT JUMPDEST POP POP POP POP PUSH1 0x40 MLOAD RETURNDATASIZE PUSH1 0x1F NOT PUSH1 0x1F DUP3 ADD AND DUP3 ADD DUP1 PUSH1 0x40 MSTORE POP DUP2 ADD SWAP1 PUSH2 0x1C31 SWAP2 SWAP1 PUSH2 0x3B67 JUMP JUMPDEST POP POP POP SWAP2 POP POP PUSH1 0x0 DUP2 SGT PUSH2 0x1C7B JUMPI PUSH1 0x40 MLOAD PUSH3 0x461BCD PUSH1 0xE5 SHL DUP2 MSTORE PUSH1 0x20 PUSH1 0x4 DUP3 ADD MSTORE PUSH1 0x11 PUSH1 0x24 DUP3 ADD MSTORE PUSH17 0x496E76616C696420455448207072696365 PUSH1 0x78 SHL PUSH1 0x44 DUP3 ADD MSTORE PUSH1 0x64 ADD PUSH2 0xC52 JUMP JUMPDEST PUSH1 0x0 PUSH2 0x1C87 DUP8 DUP8 PUSH2 0x27D8 JUMP JUMPDEST PUSH1 0xC SLOAD SWAP1 SWAP2 POP PUSH1 0x0 SWAP1 PUSH2 0x1C9E SWAP1 PUSH1 0xFF AND PUSH1 0xA PUSH2 0x3DC1 JUMP JUMPDEST PUSH2 0x1CA8 DUP4 DUP9 PUSH2 0x3C6D JUMP JUMPDEST PUSH2 0x1CB2 SWAP2 SWAP1 PUSH2 0x3C9A JUMP JUMPDEST SWAP1 POP PUSH1 0x0 DUP4 PUSH2 0x1CC3 PUSH1 0x8 PUSH1 0xA PUSH2 0x3DD0 JUMP JUMPDEST PUSH2 0x1CCD SWAP1 DUP5 PUSH2 0x3C6D JUMP JUMPDEST PUSH2 0x1CD7 SWAP2 SWAP1 PUSH2 0x3C9A JUMP JUMPDEST SWAP1 POP PUSH1 0x0 PUSH2 0x2710 PUSH2 0x1CEA PUSH2 0x1F4 DUP5 PUSH2 0x3C6D JUMP JUMPDEST PUSH2 0x1CF4 SWAP2 SWAP1 PUSH2 0x3C9A JUMP JUMPDEST SWAP1 POP PUSH1 0x0 PUSH2 0x1D02 DUP3 DUP5 PUSH2 0x3A47 JUMP JUMPDEST SWAP1 POP DUP2 PUSH1 0x7 PUSH1 0x0 DUP3 DUP3 SLOAD PUSH2 0x1D16 SWAP2 SWAP1 PUSH2 0x3A5A JUMP JUMPDEST SWAP1 SWAP2 SSTORE POP POP PUSH1 0x3 DUP8 ADD SLOAD DUP4 GT ISZERO PUSH2 0x1D66 JUMPI PUSH1 0x40 MLOAD PUSH3 0x461BCD PUSH1 0xE5 SHL DUP2 MSTORE PUSH1 0x20 PUSH1 0x4 DUP3 ADD MSTORE PUSH1 0x14 PUSH1 0x24 DUP3 ADD MSTORE PUSH20 0x496E73756666696369656E742072657365727665 PUSH1 0x60 SHL PUSH1 0x44 DUP3 ADD MSTORE PUSH1 0x64 ADD PUSH2 0xC52 JUMP JUMPDEST PUSH2 0x1F4 DUP8 PUSH1 0x3 ADD SLOAD PUSH2 0x1D78 SWAP2 SWAP1 PUSH2 0x3C6D JUMP JUMPDEST PUSH2 0x1D84 DUP5 PUSH2 0x2710 PUSH2 0x3C6D JUMP JUMPDEST GT ISZERO PUSH2 0x1DCA JUMPI PUSH1 0x40 MLOAD PUSH3 0x461BCD PUSH1 0xE5 SHL DUP2 MSTORE PUSH1 0x20 PUSH1 0x4 DUP3 ADD MSTORE PUSH1 0x15 PUSH1 0x24 DUP3 ADD MSTORE PUSH21 0x151BDBC81B5D58DA081C1C9A58D9481A5B5C1858DD PUSH1 0x5A SHL PUSH1 0x44 DUP3 ADD MSTORE PUSH1 0x64 ADD PUSH2 0xC52 JUMP JUMPDEST DUP3 DUP8 PUSH1 0x3 ADD PUSH1 0x0 DUP3 DUP3 SLOAD PUSH2 0x1DDE SWAP2 SWAP1 PUSH2 0x3A47 JUMP JUMPDEST SWAP1 SWAP2 SSTORE POP PUSH2 0x1DEE SWAP1 POP CALLER DUP11 PUSH2 0x34C4 JUMP JUMPDEST PUSH1 0x40 MLOAD PUSH1 0x0 SWAP1 CALLER SWAP1 DUP4 SWAP1 DUP4 DUP2 DUP2 DUP2 DUP6 DUP8 GAS CALL SWAP3 POP POP POP RETURNDATASIZE DUP1 PUSH1 0x0 DUP2 EQ PUSH2 0x1E30 JUMPI PUSH1 0x40 MLOAD SWAP2 POP PUSH1 0x1F NOT PUSH1 0x3F RETURNDATASIZE ADD AND DUP3 ADD PUSH1 0x40 MSTORE RETURNDATASIZE DUP3 MSTORE RETURNDATASIZE PUSH1 0x0 PUSH1 0x20 DUP5 ADD RETURNDATACOPY PUSH2 0x1E35 JUMP JUMPDEST PUSH1 0x60 SWAP2 POP JUMPDEST POP POP SWAP1 POP DUP1 PUSH2 0x1E7C JUMPI PUSH1 0x40 MLOAD PUSH3 0x461BCD PUSH1 0xE5 SHL DUP2 MSTORE PUSH1 0x20 PUSH1 0x4 DUP3 ADD MSTORE PUSH1 0x13 PUSH1 0x24 DUP3 ADD MSTORE PUSH19 0x115512081D1C985B9CD9995C8819985A5B1959 PUSH1 0x6A SHL PUSH1 0x44 DUP3 ADD MSTORE PUSH1 0x64 ADD PUSH2 0xC52 JUMP JUMPDEST PUSH1 0x40 DUP1 MLOAD DUP5 DUP2 MSTORE PUSH1 0x0 PUSH1 0x20 DUP3 ADD MSTORE PUSH32 0x39F668D6F1B4338891DC891669079F6724A94B39E1CE3570BCFC68B2C036FF5E SWAP2 ADD PUSH1 0x40 MLOAD DUP1 SWAP2 SUB SWAP1 LOG1 POP POP PUSH1 0x1 PUSH1 0x0 SSTORE POP POP POP POP POP POP POP POP POP POP JUMP JUMPDEST CALLER PUSH1 0x0 SWAP1 DUP2 MSTORE PUSH1 0x4 PUSH1 0x20 MSTORE PUSH1 0x40 SWAP1 KECCAK256 SLOAD PUSH1 0xFF AND PUSH2 0x1EF7 JUMPI PUSH1 0x40 MLOAD PUSH3 0x461BCD PUSH1 0xE5 SHL DUP2 MSTORE PUSH1 0x4 ADD PUSH2 0xC52 SWAP1 PUSH2 0x3A6D JUMP JUMPDEST PUSH1 0x3 SLOAD PUSH1 0xFF AND ISZERO PUSH2 0x1F3B JUMPI PUSH1 0x40 MLOAD PUSH3 0x461BCD PUSH1 0xE5 SHL DUP2 MSTORE PUSH1 0x20 PUSH1 0x4 DUP3 ADD MSTORE PUSH1 0xE PUSH1 0x24 DUP3 ADD MSTORE PUSH14 0x105B1C9958591E481C185D5CD959 PUSH1 0x92 SHL PUSH1 0x44 DUP3 ADD MSTORE PUSH1 0x64 ADD PUSH2 0xC52 JUMP JUMPDEST PUSH1 0x3 DUP1 SLOAD PUSH1 0xFF NOT AND PUSH1 0x1 OR SWAP1 SSTORE PUSH1 0x40 MLOAD CALLER DUP2 MSTORE PUSH32 0x81990FD9A5C552B8E3677917D8A03C07678F0D2CB68F88B634ACA2022E9BD19F SWAP1 PUSH1 0x20 ADD PUSH2 0xE03 JUMP JUMPDEST PUSH1 0x9 DUP2 DUP2 SLOAD DUP2 LT PUSH2 0x1F88 JUMPI PUSH1 0x0 DUP1 REVERT JUMPDEST PUSH1 0x0 SWAP2 DUP3 MSTORE PUSH1 0x20 SWAP1 SWAP2 KECCAK256 ADD SLOAD SWAP1 POP DUP2 JUMP JUMPDEST PUSH1 0xB DUP1 SLOAD PUSH2 0xB14 SWAP1 PUSH2 0x39F7 JUMP JUMPDEST PUSH1 0x6 SLOAD PUSH1 0x1 PUSH1 0x1 PUSH1 0xA0 SHL SUB AND CALLER EQ PUSH2 0x1FD0 JUMPI PUSH1 0x40 MLOAD PUSH3 0x461BCD PUSH1 0xE5 SHL DUP2 MSTORE PUSH1 0x4 ADD PUSH2 0xC52 SWAP1 PUSH2 0x3BFA JUMP JUMPDEST PUSH1 0x1 PUSH1 0x1 PUSH1 0xA0 SHL SUB DUP2 AND PUSH1 0x0 SWAP1 DUP2 MSTORE PUSH1 0x4 PUSH1 0x20 MSTORE PUSH1 0x40 SWAP1 KECCAK256 SLOAD PUSH1 0xFF AND ISZERO PUSH2 0x202C JUMPI PUSH1 0x40 MLOAD PUSH3 0x461BCD PUSH1 0xE5 SHL DUP2 MSTORE PUSH1 0x20 PUSH1 0x4 DUP3 ADD MSTORE PUSH1 0x10 PUSH1 0x24 DUP3 ADD MSTORE PUSH16 0x20B63932B0B23C9037B832B930BA37B9 PUSH1 0x81 SHL PUSH1 0x44 DUP3 ADD MSTORE PUSH1 0x64 ADD PUSH2 0xC52 JUMP JUMPDEST PUSH1 0x5 DUP1 SLOAD LT PUSH2 0x2072 JUMPI PUSH1 0x40 MLOAD PUSH3 0x461BCD PUSH1 0xE5 SHL DUP2 MSTORE PUSH1 0x20 PUSH1 0x4 DUP3 ADD MSTORE PUSH1 0x12 PUSH1 0x24 DUP3 ADD MSTORE PUSH18 0x546F6F206D616E79206F70657261746F7273 PUSH1 0x70 SHL PUSH1 0x44 DUP3 ADD MSTORE PUSH1 0x64 ADD PUSH2 0xC52 JUMP JUMPDEST PUSH1 0x1 PUSH1 0x1 PUSH1 0xA0 SHL SUB DUP2 AND PUSH1 0x0 SWAP1 DUP2 MSTORE PUSH1 0x4 PUSH1 0x20 MSTORE PUSH1 0x40 DUP2 KECCAK256 DUP1 SLOAD PUSH1 0xFF NOT AND PUSH1 0x1 OR SWAP1 SSTORE PUSH1 0x5 DUP1 SLOAD SWAP2 PUSH2 0x20A3 DUP4 PUSH2 0x3CC4 JUMP JUMPDEST SWAP1 SWAP2 SSTORE POP POP PUSH1 0x40 MLOAD PUSH1 0x1 PUSH1 0x1 PUSH1 0xA0 SHL SUB DUP3 AND DUP2 MSTORE PUSH32 0xAC6FA858E9350A46CEC16539926E0FDE25B7629F84B5A72BFFAAE4DF888AE86D SWAP1 PUSH1 0x20 ADD JUMPDEST PUSH1 0x40 MLOAD DUP1 SWAP2 SUB SWAP1 LOG1 POP JUMP JUMPDEST PUSH1 0x0 DUP2 SWAP1 POP PUSH1 0x0 DUP2 PUSH1 0x1 PUSH1 0x1 PUSH1 0xA0 SHL SUB AND PUSH4 0x7284E416 PUSH1 0x40 MLOAD DUP2 PUSH4 0xFFFFFFFF AND PUSH1 0xE0 SHL DUP2 MSTORE PUSH1 0x4 ADD PUSH1 0x0 PUSH1 0x40 MLOAD DUP1 DUP4 SUB DUP2 DUP7 GAS STATICCALL ISZERO DUP1 ISZERO PUSH2 0x212D JUMPI RETURNDATASIZE PUSH1 0x0 DUP1 RETURNDATACOPY RETURNDATASIZE PUSH1 0x0 REVERT JUMPDEST POP POP POP POP PUSH1 0x40 MLOAD RETURNDATASIZE PUSH1 0x0 DUP3 RETURNDATACOPY PUSH1 0x1F RETURNDATASIZE SWAP1 DUP2 ADD PUSH1 0x1F NOT AND DUP3 ADD PUSH1 0x40 MSTORE PUSH2 0x2155 SWAP2 SWAP1 DUP2 ADD SWAP1 PUSH2 0x3DDC JUMP JUMPDEST SWAP1 POP PUSH1 0x0 DUP2 MLOAD GT PUSH2 0x2197 JUMPI PUSH1 0x40 MLOAD PUSH3 0x461BCD PUSH1 0xE5 SHL DUP2 MSTORE PUSH1 0x20 PUSH1 0x4 DUP3 ADD MSTORE PUSH1 0xC PUSH1 0x24 DUP3 ADD MSTORE PUSH12 0x115B5C1D1E481CDE5B589BDB PUSH1 0xA2 SHL PUSH1 0x44 DUP3 ADD MSTORE PUSH1 0x64 ADD PUSH2 0xC52 JUMP JUMPDEST PUSH1 0x0 PUSH2 0x21A2 DUP3 PUSH2 0x11C2 JUMP JUMPDEST PUSH1 0x0 DUP2 DUP2 MSTORE PUSH1 0x8 PUSH1 0x20 MSTORE PUSH1 0x40 SWAP1 KECCAK256 PUSH1 0x4 ADD SLOAD SWAP1 SWAP2 POP PUSH1 0xFF AND ISZERO PUSH2 0x21FF JUMPI PUSH1 0x40 MLOAD PUSH3 0x461BCD PUSH1 0xE5 SHL DUP2 MSTORE PUSH1 0x20 PUSH1 0x4 DUP3 ADD MSTORE PUSH1 0x15 PUSH1 0x24 DUP3 ADD MSTORE PUSH21 0x53796D626F6C20616C726561647920657869737473 PUSH1 0x58 SHL PUSH1 0x44 DUP3 ADD MSTORE PUSH1 0x64 ADD PUSH2 0xC52 JUMP JUMPDEST PUSH1 0x0 DUP1 PUSH1 0x0 DUP1 PUSH1 0x0 DUP8 PUSH1 0x1 PUSH1 0x1 PUSH1 0xA0 SHL SUB AND PUSH4 0xFEAF968C PUSH1 0x40 MLOAD DUP2 PUSH4 0xFFFFFFFF AND PUSH1 0xE0 SHL DUP2 MSTORE PUSH1 0x4 ADD PUSH1 0xA0 PUSH1 0x40 MLOAD DUP1 DUP4 SUB DUP2 DUP7 GAS STATICCALL ISZERO DUP1 ISZERO PUSH2 0x2245 JUMPI RETURNDATASIZE PUSH1 0x0 DUP1 RETURNDATACOPY RETURNDATASIZE PUSH1 0x0 REVERT JUMPDEST POP POP POP POP PUSH1 0x40 MLOAD RETURNDATASIZE PUSH1 0x1F NOT PUSH1 0x1F DUP3 ADD AND DUP3 ADD DUP1 PUSH1 0x40 MSTORE POP DUP2 ADD SWAP1 PUSH2 0x2269 SWAP2 SWAP1 PUSH2 0x3B67 JUMP JUMPDEST SWAP5 POP SWAP5 POP SWAP5 POP SWAP5 POP SWAP5 POP PUSH1 0x0 DUP5 SGT PUSH2 0x2293 JUMPI PUSH1 0x40 MLOAD PUSH3 0x461BCD PUSH1 0xE5 SHL DUP2 MSTORE PUSH1 0x4 ADD PUSH2 0xC52 SWAP1 PUSH2 0x3BB7 JUMP JUMPDEST PUSH2 0x229F PUSH2 0xE10 TIMESTAMP PUSH2 0x3A47 JUMP JUMPDEST DUP3 LT ISZERO PUSH2 0x22E3 JUMPI PUSH1 0x40 MLOAD PUSH3 0x461BCD PUSH1 0xE5 SHL DUP2 MSTORE PUSH1 0x20 PUSH1 0x4 DUP3 ADD MSTORE PUSH1 0x12 PUSH1 0x24 DUP3 ADD MSTORE PUSH18 0x141C9A58D94819995959081D1BDBC81BDB19 PUSH1 0x72 SHL PUSH1 0x44 DUP3 ADD MSTORE PUSH1 0x64 ADD PUSH2 0xC52 JUMP JUMPDEST DUP5 PUSH1 0x1 PUSH1 0x1 PUSH1 0x50 SHL SUB AND DUP2 PUSH1 0x1 PUSH1 0x1 PUSH1 0x50 SHL SUB AND LT ISZERO PUSH2 0x2338 JUMPI PUSH1 0x40 MLOAD PUSH3 0x461BCD PUSH1 0xE5 SHL DUP2 MSTORE PUSH1 0x20 PUSH1 0x4 DUP3 ADD MSTORE PUSH1 0x10 PUSH1 0x24 DUP3 ADD MSTORE PUSH16 0x50726963652066656564207374616C65 PUSH1 0x80 SHL PUSH1 0x44 DUP3 ADD MSTORE PUSH1 0x64 ADD PUSH2 0xC52 JUMP JUMPDEST PUSH1 0x64 DUP6 PUSH1 0x1 PUSH1 0x1 PUSH1 0x50 SHL SUB AND LT ISZERO PUSH2 0x2387 JUMPI PUSH1 0x40 MLOAD PUSH3 0x461BCD PUSH1 0xE5 SHL DUP2 MSTORE PUSH1 0x20 PUSH1 0x4 DUP3 ADD MSTORE PUSH1 0x12 PUSH1 0x24 DUP3 ADD MSTORE PUSH18 0x5072696365206665656420746F6F206E6577 PUSH1 0x70 SHL PUSH1 0x44 DUP3 ADD MSTORE PUSH1 0x64 ADD PUSH2 0xC52 JUMP JUMPDEST PUSH1 0x40 DUP1 MLOAD PUSH1 0xA0 DUP2 ADD DUP3 MSTORE DUP9 DUP2 MSTORE PUSH1 0x1 PUSH1 0x1 PUSH1 0xA0 SHL SUB DUP12 AND PUSH1 0x20 DUP1 DUP4 ADD SWAP2 SWAP1 SWAP2 MSTORE DUP2 DUP4 ADD DUP8 SWAP1 MSTORE PUSH1 0x0 PUSH1 0x60 DUP4 ADD DUP2 SWAP1 MSTORE PUSH1 0x1 PUSH1 0x80 DUP5 ADD MSTORE DUP10 DUP2 MSTORE PUSH1 0x8 SWAP1 SWAP2 MSTORE SWAP2 SWAP1 SWAP2 KECCAK256 DUP2 MLOAD DUP2 SWAP1 PUSH2 0x23D7 SWAP1 DUP3 PUSH2 0x3EA1 JUMP JUMPDEST POP PUSH1 0x20 DUP3 ADD MLOAD PUSH1 0x1 DUP3 DUP2 ADD DUP1 SLOAD PUSH1 0x1 PUSH1 0x1 PUSH1 0xA0 SHL SUB NOT AND PUSH1 0x1 PUSH1 0x1 PUSH1 0xA0 SHL SUB SWAP1 SWAP4 AND SWAP3 SWAP1 SWAP3 OR SWAP1 SWAP2 SSTORE PUSH1 0x40 DUP1 DUP5 ADD MLOAD PUSH1 0x2 DUP5 ADD SSTORE PUSH1 0x60 DUP5 ADD MLOAD PUSH1 0x3 DUP5 ADD SSTORE PUSH1 0x80 SWAP1 SWAP4 ADD MLOAD PUSH1 0x4 SWAP1 SWAP3 ADD DUP1 SLOAD PUSH1 0xFF NOT AND SWAP3 ISZERO ISZERO SWAP3 SWAP1 SWAP3 OR SWAP1 SWAP2 SSTORE PUSH1 0x9 DUP1 SLOAD SWAP2 DUP3 ADD DUP2 SSTORE PUSH1 0x0 MSTORE PUSH32 0x6E1540171B6C0C960B71A7020D9F60077F6AF931A8BBF590DA0223DACF75C7AF ADD DUP8 SWAP1 SSTORE MLOAD PUSH32 0x27DA68EE2AD2C8BBE20C961595D7723244C182397720AFDFECA8EE27E2294125 SWAP1 PUSH2 0x2491 SWAP1 DUP10 SWAP1 DUP13 SWAP1 PUSH2 0x3F61 JUMP JUMPDEST PUSH1 0x40 MLOAD DUP1 SWAP2 SUB SWAP1 LOG1 POP POP POP POP POP POP POP POP POP JUMP JUMPDEST PUSH1 0x0 DUP1 PUSH1 0x0 DUP1 PUSH1 0x0 PUSH2 0x24EB DUP8 DUP8 DUP1 DUP1 PUSH1 0x1F ADD PUSH1 0x20 DUP1 SWAP2 DIV MUL PUSH1 0x20 ADD PUSH1 0x40 MLOAD SWAP1 DUP2 ADD PUSH1 0x40 MSTORE DUP1 SWAP4 SWAP3 SWAP2 SWAP1 DUP2 DUP2 MSTORE PUSH1 0x20 ADD DUP4 DUP4 DUP1 DUP3 DUP5 CALLDATACOPY PUSH1 0x0 SWAP3 ADD SWAP2 SWAP1 SWAP2 MSTORE POP PUSH2 0x11C2 SWAP3 POP POP POP JUMP JUMPDEST PUSH1 0x0 SWAP1 DUP2 MSTORE PUSH1 0x8 PUSH1 0x20 MSTORE PUSH1 0x40 SWAP1 KECCAK256 PUSH1 0x1 DUP2 ADD SLOAD PUSH1 0x2 DUP3 ADD SLOAD PUSH1 0x3 DUP4 ADD SLOAD PUSH1 0x4 SWAP1 SWAP4 ADD SLOAD PUSH1 0x1 PUSH1 0x1 PUSH1 0xA0 SHL SUB SWAP1 SWAP3 AND SWAP11 SWAP1 SWAP10 POP SWAP2 SWAP8 POP PUSH1 0xFF AND SWAP6 POP SWAP4 POP POP POP POP JUMP JUMPDEST CALLER PUSH1 0x0 SWAP1 DUP2 MSTORE PUSH1 0xE PUSH1 0x20 MSTORE PUSH1 0x40 DUP2 KECCAK256 SLOAD DUP3 GT ISZERO PUSH2 0x257F JUMPI PUSH1 0x40 MLOAD PUSH3 0x461BCD PUSH1 0xE5 SHL DUP2 MSTORE PUSH1 0x20 PUSH1 0x4 DUP3 ADD MSTORE PUSH1 0x11 PUSH1 0x24 DUP3 ADD MSTORE PUSH17 0x4E6F7420656E6F75676820746F6B656E73 PUSH1 0x78 SHL PUSH1 0x44 DUP3 ADD MSTORE PUSH1 0x64 ADD PUSH2 0xC52 JUMP JUMPDEST CALLER PUSH1 0x0 SWAP1 DUP2 MSTORE PUSH1 0xE PUSH1 0x20 MSTORE PUSH1 0x40 DUP2 KECCAK256 DUP1 SLOAD DUP5 SWAP3 SWAP1 PUSH2 0x259E SWAP1 DUP5 SWAP1 PUSH2 0x3A47 JUMP JUMPDEST SWAP1 SWAP2 SSTORE POP POP PUSH1 0x1 PUSH1 0x1 PUSH1 0xA0 SHL SUB DUP4 AND PUSH1 0x0 SWAP1 DUP2 MSTORE PUSH1 0xE PUSH1 0x20 MSTORE PUSH1 0x40 DUP2 KECCAK256 DUP1 SLOAD DUP5 SWAP3 SWAP1 PUSH2 0x25CB SWAP1 DUP5 SWAP1 PUSH2 0x3A5A JUMP JUMPDEST SWAP1 SWAP2 SSTORE POP POP PUSH1 0x40 MLOAD DUP3 DUP2 MSTORE PUSH1 0x1 PUSH1 0x1 PUSH1 0xA0 SHL SUB DUP5 AND SWAP1 CALLER SWAP1 PUSH1 0x0 DUP1 MLOAD PUSH1 0x20 PUSH2 0x401D DUP4 CODECOPY DUP2 MLOAD SWAP2 MSTORE SWAP1 PUSH1 0x20 ADD PUSH2 0xBE8 JUMP JUMPDEST PUSH1 0x6 SLOAD PUSH1 0x1 PUSH1 0x1 PUSH1 0xA0 SHL SUB AND CALLER EQ PUSH2 0x2625 JUMPI PUSH1 0x40 MLOAD PUSH3 0x461BCD PUSH1 0xE5 SHL DUP2 MSTORE PUSH1 0x4 ADD PUSH2 0xC52 SWAP1 PUSH2 0x3BFA JUMP JUMPDEST PUSH1 0x1 PUSH1 0x1 PUSH1 0xA0 SHL SUB DUP2 AND PUSH1 0x0 SWAP1 DUP2 MSTORE PUSH1 0x4 PUSH1 0x20 MSTORE PUSH1 0x40 SWAP1 KECCAK256 SLOAD PUSH1 0xFF AND PUSH2 0x267C JUMPI PUSH1 0x40 MLOAD PUSH3 0x461BCD PUSH1 0xE5 SHL DUP2 MSTORE PUSH1 0x20 PUSH1 0x4 DUP3 ADD MSTORE PUSH1 0xC PUSH1 0x24 DUP3 ADD MSTORE PUSH12 0x2737BA1037B832B930BA37B9 PUSH1 0xA1 SHL PUSH1 0x44 DUP3 ADD MSTORE PUSH1 0x64 ADD PUSH2 0xC52 JUMP JUMPDEST PUSH1 0x6 SLOAD PUSH1 0x1 PUSH1 0x1 PUSH1 0xA0 SHL SUB SWAP1 DUP2 AND SWAP1 DUP3 AND SUB PUSH2 0x26D0 JUMPI PUSH1 0x40 MLOAD PUSH3 0x461BCD PUSH1 0xE5 SHL DUP2 MSTORE PUSH1 0x20 PUSH1 0x4 DUP3 ADD MSTORE PUSH1 0x13 PUSH1 0x24 DUP3 ADD MSTORE PUSH19 0x21B0B73737BA103932B6B7BB329037BBB732B9 PUSH1 0x69 SHL PUSH1 0x44 DUP3 ADD MSTORE PUSH1 0x64 ADD PUSH2 0xC52 JUMP JUMPDEST PUSH1 0x1 PUSH1 0x1 PUSH1 0xA0 SHL SUB DUP2 AND PUSH1 0x0 SWAP1 DUP2 MSTORE PUSH1 0x4 PUSH1 0x20 MSTORE PUSH1 0x40 DUP2 KECCAK256 DUP1 SLOAD PUSH1 0xFF NOT AND SWAP1 SSTORE PUSH1 0x5 DUP1 SLOAD SWAP2 PUSH2 0x26FE DUP4 PUSH2 0x3F8B JUMP JUMPDEST SWAP1 SWAP2 SSTORE POP POP PUSH1 0x40 MLOAD PUSH1 0x1 PUSH1 0x1 PUSH1 0xA0 SHL SUB DUP3 AND DUP2 MSTORE PUSH32 0x80C0B871B97B595B16A7741C1B06FED0C6F6F558639F18CCBCE50724325DC40D SWAP1 PUSH1 0x20 ADD PUSH2 0x20DD JUMP JUMPDEST PUSH1 0x6 SLOAD PUSH1 0x1 PUSH1 0x1 PUSH1 0xA0 SHL SUB AND CALLER EQ PUSH2 0x2766 JUMPI PUSH1 0x40 MLOAD PUSH3 0x461BCD PUSH1 0xE5 SHL DUP2 MSTORE PUSH1 0x4 ADD PUSH2 0xC52 SWAP1 PUSH2 0x3BFA JUMP JUMPDEST PUSH1 0x0 PUSH1 0x7 SLOAD GT PUSH2 0x27AF JUMPI PUSH1 0x40 MLOAD PUSH3 0x461BCD PUSH1 0xE5 SHL DUP2 MSTORE PUSH1 0x20 PUSH1 0x4 DUP3 ADD MSTORE PUSH1 0x14 PUSH1 0x24 DUP3 ADD MSTORE PUSH20 0x4E6F20746178657320746F207769746864726177 PUSH1 0x60 SHL PUSH1 0x44 DUP3 ADD MSTORE PUSH1 0x64 ADD PUSH2 0xC52 JUMP JUMPDEST PUSH1 0x17 DUP1 SLOAD PUSH1 0x0 SWAP2 DUP3 PUSH2 0x27C0 DUP4 PUSH2 0x3CC4 JUMP JUMPDEST SWAP1 SWAP2 SSTORE POP PUSH1 0x0 SWAP1 DUP2 MSTORE PUSH1 0x16 PUSH1 0x20 MSTORE PUSH1 0x40 SWAP1 KECCAK256 TIMESTAMP SWAP1 SSTORE POP JUMP JUMPDEST PUSH1 0x0 DUP1 PUSH2 0x281A DUP5 DUP5 DUP1 DUP1 PUSH1 0x1F ADD PUSH1 0x20 DUP1 SWAP2 DIV MUL PUSH1 0x20 ADD PUSH1 0x40 MLOAD SWAP1 DUP2 ADD PUSH1 0x40 MSTORE DUP1 SWAP4 SWAP3 SWAP2 SWAP1 DUP2 DUP2 MSTORE PUSH1 0x20 ADD DUP4 DUP4 DUP1 DUP3 DUP5 CALLDATACOPY PUSH1 0x0 SWAP3 ADD SWAP2 SWAP1 SWAP2 MSTORE POP PUSH2 0x11C2 SWAP3 POP POP POP JUMP JUMPDEST PUSH1 0x0 DUP2 DUP2 MSTORE PUSH1 0x8 PUSH1 0x20 MSTORE PUSH1 0x40 SWAP1 KECCAK256 PUSH1 0x4 ADD SLOAD SWAP1 SWAP2 POP PUSH1 0xFF AND PUSH2 0x284E JUMPI PUSH1 0x40 MLOAD PUSH3 0x461BCD PUSH1 0xE5 SHL DUP2 MSTORE PUSH1 0x4 ADD PUSH2 0xC52 SWAP1 PUSH2 0x3B22 JUMP JUMPDEST PUSH1 0x0 DUP2 DUP2 MSTORE PUSH1 0x8 PUSH1 0x20 MSTORE PUSH1 0x40 SWAP1 DUP2 SWAP1 KECCAK256 PUSH1 0x1 ADD SLOAD DUP2 MLOAD PUSH4 0x3FABE5A3 PUSH1 0xE2 SHL DUP2 MSTORE SWAP2 MLOAD PUSH1 0x1 PUSH1 0x1 PUSH1 0xA0 SHL SUB SWAP1 SWAP2 AND SWAP2 PUSH4 0xFEAF968C SWAP2 PUSH1 0x4 DUP1 DUP4 ADD SWAP3 PUSH1 0xA0 SWAP3 SWAP2 SWAP1 DUP3 SWAP1 SUB ADD DUP2 DUP7 GAS STATICCALL ISZERO DUP1 ISZERO PUSH2 0x28A6 JUMPI RETURNDATASIZE PUSH1 0x0 DUP1 RETURNDATACOPY RETURNDATASIZE PUSH1 0x0 REVERT JUMPDEST POP POP POP POP PUSH1 0x40 MLOAD RETURNDATASIZE PUSH1 0x1F NOT PUSH1 0x1F DUP3 ADD AND DUP3 ADD DUP1 PUSH1 0x40 MSTORE POP DUP2 ADD SWAP1 PUSH2 0x28CA SWAP2 SWAP1 PUSH2 0x3B67 JUMP JUMPDEST POP SWAP2 SWAP5 POP POP PUSH1 0x0 DUP5 SGT SWAP2 POP PUSH2 0x28F3 SWAP1 POP JUMPI PUSH1 0x40 MLOAD PUSH3 0x461BCD PUSH1 0xE5 SHL DUP2 MSTORE PUSH1 0x4 ADD PUSH2 0xC52 SWAP1 PUSH2 0x3BB7 JUMP JUMPDEST POP SWAP3 SWAP2 POP POP JUMP JUMPDEST PUSH1 0x15 DUP1 SLOAD PUSH2 0xB14 SWAP1 PUSH2 0x39F7 JUMP JUMPDEST PUSH1 0x0 PUSH1 0x2 PUSH1 0x0 SLOAD SUB PUSH2 0x292B JUMPI PUSH1 0x40 MLOAD PUSH3 0x461BCD PUSH1 0xE5 SHL DUP2 MSTORE PUSH1 0x4 ADD PUSH2 0xC52 SWAP1 PUSH2 0x3A96 JUMP JUMPDEST PUSH1 0x2 PUSH1 0x0 DUP2 DUP2 SSTORE CALLER DUP2 MSTORE PUSH1 0x20 SWAP2 SWAP1 SWAP2 MSTORE PUSH1 0x40 SWAP1 KECCAK256 SLOAD NUMBER SWAP1 PUSH2 0x294E SWAP1 PUSH1 0x1 SWAP1 PUSH2 0x3A5A JUMP JUMPDEST LT PUSH2 0x296B JUMPI PUSH1 0x40 MLOAD PUSH3 0x461BCD PUSH1 0xE5 SHL DUP2 MSTORE PUSH1 0x4 ADD PUSH2 0xC52 SWAP1 PUSH2 0x3ACD JUMP JUMPDEST CALLER PUSH1 0x0 SWAP1 DUP2 MSTORE PUSH1 0x2 PUSH1 0x20 MSTORE PUSH1 0x40 SWAP1 KECCAK256 NUMBER SWAP1 SSTORE PUSH1 0x3 SLOAD PUSH1 0xFF AND ISZERO PUSH2 0x29A0 JUMPI PUSH1 0x40 MLOAD PUSH3 0x461BCD PUSH1 0xE5 SHL DUP2 MSTORE PUSH1 0x4 ADD PUSH2 0xC52 SWAP1 PUSH2 0x3AF6 JUMP JUMPDEST PUSH1 0x0 PUSH2 0x29AB DUP5 PUSH2 0x11C2 JUMP JUMPDEST PUSH1 0x0 DUP2 DUP2 MSTORE PUSH1 0x8 PUSH1 0x20 MSTORE PUSH1 0x40 SWAP1 KECCAK256 PUSH1 0x4 ADD SLOAD SWAP1 SWAP2 POP PUSH1 0xFF AND PUSH2 0x29DF JUMPI PUSH1 0x40 MLOAD PUSH3 0x461BCD PUSH1 0xE5 SHL DUP2 MSTORE PUSH1 0x4 ADD PUSH2 0xC52 SWAP1 PUSH2 0x3B22 JUMP JUMPDEST PUSH1 0x0 DUP2 DUP2 MSTORE PUSH1 0x8 PUSH1 0x20 MSTORE PUSH1 0x40 SWAP1 KECCAK256 CALLVALUE PUSH2 0x2A2C JUMPI PUSH1 0x40 MLOAD PUSH3 0x461BCD PUSH1 0xE5 SHL DUP2 MSTORE PUSH1 0x20 PUSH1 0x4 DUP3 ADD MSTORE PUSH1 0xF PUSH1 0x24 DUP3 ADD MSTORE PUSH15 0x53656E642045544820746F20627579 PUSH1 0x88 SHL PUSH1 0x44 DUP3 ADD MSTORE PUSH1 0x64 ADD PUSH2 0xC52 JUMP JUMPDEST PUSH1 0x0 PUSH2 0x2710 PUSH2 0x2A3D PUSH2 0x1F4 CALLVALUE PUSH2 0x3C6D JUMP JUMPDEST PUSH2 0x2A47 SWAP2 SWAP1 PUSH2 0x3C9A JUMP JUMPDEST SWAP1 POP PUSH1 0x0 PUSH2 0x2A55 DUP3 CALLVALUE PUSH2 0x3A47 JUMP JUMPDEST SWAP1 POP DUP2 PUSH1 0x7 PUSH1 0x0 DUP3 DUP3 SLOAD PUSH2 0x2A69 SWAP2 SWAP1 PUSH2 0x3A5A JUMP JUMPDEST SWAP3 POP POP DUP2 SWAP1 SSTORE POP PUSH1 0x0 PUSH2 0x2A96 PUSH1 0x40 MLOAD DUP1 PUSH1 0x40 ADD PUSH1 0x40 MSTORE DUP1 PUSH1 0x3 DUP2 MSTORE PUSH1 0x20 ADD PUSH3 0x8AA89 PUSH1 0xEB SHL DUP2 MSTORE POP PUSH2 0x11C2 JUMP JUMPDEST PUSH1 0x0 DUP2 DUP2 MSTORE PUSH1 0x8 PUSH1 0x20 MSTORE PUSH1 0x40 SWAP1 KECCAK256 PUSH1 0x4 ADD SLOAD SWAP1 SWAP2 POP PUSH1 0xFF AND PUSH2 0x2AFA JUMPI PUSH1 0x40 MLOAD PUSH3 0x461BCD PUSH1 0xE5 SHL DUP2 MSTORE PUSH1 0x20 PUSH1 0x4 DUP3 ADD MSTORE PUSH1 0x1C PUSH1 0x24 DUP3 ADD MSTORE PUSH32 0x4D697373696E67206F7220696E61637469766520455448206665656400000000 PUSH1 0x44 DUP3 ADD MSTORE PUSH1 0x64 ADD PUSH2 0xC52 JUMP JUMPDEST PUSH1 0x0 DUP2 DUP2 MSTORE PUSH1 0x8 PUSH1 0x20 MSTORE PUSH1 0x40 DUP1 DUP3 KECCAK256 PUSH1 0x1 ADD SLOAD DUP2 MLOAD PUSH4 0x3FABE5A3 PUSH1 0xE2 SHL DUP2 MSTORE SWAP2 MLOAD PUSH1 0x1 PUSH1 0x1 PUSH1 0xA0 SHL SUB SWAP1 SWAP2 AND SWAP2 PUSH4 0xFEAF968C SWAP2 PUSH1 0x4 DUP1 DUP4 ADD SWAP3 PUSH1 0xA0 SWAP3 SWAP2 SWAP1 DUP3 SWAP1 SUB ADD DUP2 DUP7 GAS STATICCALL ISZERO DUP1 ISZERO PUSH2 0x2B51 JUMPI RETURNDATASIZE PUSH1 0x0 DUP1 RETURNDATACOPY RETURNDATASIZE PUSH1 0x0 REVERT JUMPDEST POP POP POP POP PUSH1 0x40 MLOAD RETURNDATASIZE PUSH1 0x1F NOT PUSH1 0x1F DUP3 ADD AND DUP3 ADD DUP1 PUSH1 0x40 MSTORE POP DUP2 ADD SWAP1 PUSH2 0x2B75 SWAP2 SWAP1 PUSH2 0x3B67 JUMP JUMPDEST POP POP POP SWAP2 POP POP PUSH1 0x0 DUP2 SGT PUSH2 0x2BBF JUMPI PUSH1 0x40 MLOAD PUSH3 0x461BCD PUSH1 0xE5 SHL DUP2 MSTORE PUSH1 0x20 PUSH1 0x4 DUP3 ADD MSTORE PUSH1 0x11 PUSH1 0x24 DUP3 ADD MSTORE PUSH17 0x496E76616C696420455448207072696365 PUSH1 0x78 SHL PUSH1 0x44 DUP3 ADD MSTORE PUSH1 0x64 ADD PUSH2 0xC52 JUMP JUMPDEST PUSH1 0x1 DUP6 ADD SLOAD PUSH1 0x40 DUP1 MLOAD PUSH4 0x3FABE5A3 PUSH1 0xE2 SHL DUP2 MSTORE SWAP1 MLOAD PUSH1 0x0 SWAP3 PUSH1 0x1 PUSH1 0x1 PUSH1 0xA0 SHL SUB AND SWAP2 PUSH4 0xFEAF968C SWAP2 PUSH1 0x4 DUP1 DUP4 ADD SWAP3 PUSH1 0xA0 SWAP3 SWAP2 SWAP1 DUP3 SWAP1 SUB ADD DUP2 DUP7 GAS STATICCALL ISZERO DUP1 ISZERO PUSH2 0x2C0B JUMPI RETURNDATASIZE PUSH1 0x0 DUP1 RETURNDATACOPY RETURNDATASIZE PUSH1 0x0 REVERT JUMPDEST POP POP POP POP PUSH1 0x40 MLOAD RETURNDATASIZE PUSH1 0x1F NOT PUSH1 0x1F DUP3 ADD AND DUP3 ADD DUP1 PUSH1 0x40 MSTORE POP DUP2 ADD SWAP1 PUSH2 0x2C2F SWAP2 SWAP1 PUSH2 0x3B67 JUMP JUMPDEST POP POP POP SWAP2 POP POP PUSH1 0x0 DUP2 SGT PUSH2 0x2C7B JUMPI PUSH1 0x40 MLOAD PUSH3 0x461BCD PUSH1 0xE5 SHL DUP2 MSTORE PUSH1 0x20 PUSH1 0x4 DUP3 ADD MSTORE PUSH1 0x13 PUSH1 0x24 DUP3 ADD MSTORE PUSH19 0x496E76616C696420746F6B656E207072696365 PUSH1 0x68 SHL PUSH1 0x44 DUP3 ADD MSTORE PUSH1 0x64 ADD PUSH2 0xC52 JUMP JUMPDEST PUSH1 0x0 PUSH2 0x2C89 PUSH1 0x8 PUSH1 0xA PUSH2 0x3DD0 JUMP JUMPDEST PUSH2 0x2C93 DUP5 DUP8 PUSH2 0x3C6D JUMP JUMPDEST PUSH2 0x2C9D SWAP2 SWAP1 PUSH2 0x3C9A JUMP JUMPDEST PUSH1 0xC SLOAD SWAP1 SWAP2 POP PUSH1 0x0 SWAP1 DUP4 SWAP1 PUSH2 0x2CB6 SWAP1 PUSH1 0xFF AND PUSH1 0xA PUSH2 0x3DC1 JUMP JUMPDEST PUSH2 0x2CC0 SWAP1 DUP5 PUSH2 0x3C6D JUMP JUMPDEST PUSH2 0x2CCA SWAP2 SWAP1 PUSH2 0x3C9A JUMP JUMPDEST SWAP1 POP PUSH1 0x0 PUSH1 0xD SLOAD PUSH10 0xD3C21BCECCEDA1000000 PUSH2 0x2CE6 SWAP2 SWAP1 PUSH2 0x3A47 JUMP JUMPDEST SWAP1 POP DUP1 DUP3 GT ISZERO PUSH2 0x2CF4 JUMPI DUP1 SWAP2 POP JUMPDEST DUP2 PUSH1 0x0 SUB PUSH2 0x2D0F JUMPI PUSH1 0x0 SWAP11 POP POP POP POP POP POP POP POP POP POP POP PUSH2 0x2E1B JUMP JUMPDEST DUP12 DUP3 LT ISZERO PUSH2 0x2D53 JUMPI PUSH1 0x40 MLOAD PUSH3 0x461BCD PUSH1 0xE5 SHL DUP2 MSTORE PUSH1 0x20 PUSH1 0x4 DUP3 ADD MSTORE PUSH1 0x11 PUSH1 0x24 DUP3 ADD MSTORE PUSH17 0xA6D8D2E0E0C2CECA40E8DEDE40D0D2CED PUSH1 0x7B SHL PUSH1 0x44 DUP3 ADD MSTORE PUSH1 0x64 ADD PUSH2 0xC52 JUMP JUMPDEST CALLVALUE DUP10 PUSH1 0x3 ADD PUSH1 0x0 DUP3 DUP3 SLOAD PUSH2 0x2D67 SWAP2 SWAP1 PUSH2 0x3A5A JUMP JUMPDEST SWAP1 SWAP2 SSTORE POP PUSH2 0x2D77 SWAP1 POP CALLER DUP4 PUSH2 0x359D JUMP JUMPDEST PUSH1 0x40 DUP1 MLOAD DUP10 DUP2 MSTORE PUSH1 0x1 PUSH1 0x20 DUP3 ADD MSTORE PUSH32 0x39F668D6F1B4338891DC891669079F6724A94B39E1CE3570BCFC68B2C036FF5E SWAP2 ADD PUSH1 0x40 MLOAD DUP1 SWAP2 SUB SWAP1 LOG1 PUSH1 0x40 MLOAD PUSH1 0x0 SWAP1 DUP2 SWAP1 CALLER SWAP1 PUSH1 0x1 SWAP1 DUP4 DUP2 DUP2 DUP2 DUP6 DUP8 GAS CALL SWAP3 POP POP POP RETURNDATASIZE DUP1 PUSH1 0x0 DUP2 EQ PUSH2 0x2DF5 JUMPI PUSH1 0x40 MLOAD SWAP2 POP PUSH1 0x1F NOT PUSH1 0x3F RETURNDATASIZE ADD AND DUP3 ADD PUSH1 0x40 MSTORE RETURNDATASIZE DUP3 MSTORE RETURNDATASIZE PUSH1 0x0 PUSH1 0x20 DUP5 ADD RETURNDATACOPY PUSH2 0x2DFA JUMP JUMPDEST PUSH1 0x60 SWAP2 POP JUMPDEST POP SWAP2 POP SWAP2 POP DUP2 PUSH2 0x2E0C JUMPI DUP1 MLOAD PUSH1 0x20 DUP3 ADD REVERT JUMPDEST POP SWAP2 SWAP11 POP POP POP POP POP POP POP POP POP POP POP JUMPDEST PUSH1 0x1 PUSH1 0x0 SSTORE SWAP3 SWAP2 POP POP JUMP JUMPDEST PUSH1 0x6 SLOAD PUSH1 0x1 PUSH1 0x1 PUSH1 0xA0 SHL SUB AND CALLER EQ PUSH2 0x2E50 JUMPI PUSH1 0x40 MLOAD PUSH3 0x461BCD PUSH1 0xE5 SHL DUP2 MSTORE PUSH1 0x4 ADD PUSH2 0xC52 SWAP1 PUSH2 0x3BFA JUMP JUMPDEST PUSH1 0x6 SLOAD PUSH1 0x7 SLOAD PUSH1 0x1 PUSH1 0x1 PUSH1 0xA0 SHL SUB SWAP1 SWAP2 AND SWAP1 PUSH2 0x8FC SWAP1 PUSH2 0x2E70 SWAP1 SELFBALANCE PUSH2 0x3A47 JUMP JUMPDEST PUSH1 0x40 MLOAD DUP2 ISZERO SWAP1 SWAP3 MUL SWAP2 PUSH1 0x0 DUP2 DUP2 DUP2 DUP6 DUP9 DUP9 CALL SWAP4 POP POP POP POP ISZERO DUP1 ISZERO PUSH2 0x19F2 JUMPI RETURNDATASIZE PUSH1 0x0 DUP1 RETURNDATACOPY RETURNDATASIZE PUSH1 0x0 REVERT JUMPDEST PUSH1 0x6 SLOAD PUSH1 0x1 PUSH1 0x1 PUSH1 0xA0 SHL SUB AND CALLER EQ PUSH2 0x2EC2 JUMPI PUSH1 0x40 MLOAD PUSH3 0x461BCD PUSH1 0xE5 SHL DUP2 MSTORE PUSH1 0x4 ADD PUSH2 0xC52 SWAP1 PUSH2 0x3BFA JUMP JUMPDEST PUSH1 0x1 PUSH1 0x1 PUSH1 0xA0 SHL SUB DUP2 AND PUSH2 0x2F0A JUMPI PUSH1 0x40 MLOAD PUSH3 0x461BCD PUSH1 0xE5 SHL DUP2 MSTORE PUSH1 0x20 PUSH1 0x4 DUP3 ADD MSTORE PUSH1 0xF PUSH1 0x24 DUP3 ADD MSTORE PUSH15 0x496E76616C69642061646472657373 PUSH1 0x88 SHL PUSH1 0x44 DUP3 ADD MSTORE PUSH1 0x64 ADD PUSH2 0xC52 JUMP JUMPDEST PUSH1 0x6 DUP1 SLOAD PUSH1 0x1 PUSH1 0x1 PUSH1 0xA0 SHL SUB NOT AND PUSH1 0x1 PUSH1 0x1 PUSH1 0xA0 SHL SUB SWAP3 SWAP1 SWAP3 AND SWAP2 SWAP1 SWAP2 OR SWAP1 SSTORE JUMP JUMPDEST PUSH1 0x1 PUSH1 0x1 PUSH1 0xA0 SHL SUB DUP2 AND PUSH1 0x0 SWAP1 DUP2 MSTORE PUSH1 0x13 PUSH1 0x20 SWAP1 DUP2 MSTORE PUSH1 0x40 DUP1 DUP4 KECCAK256 DUP2 MLOAD PUSH1 0x80 DUP2 ADD DUP4 MSTORE DUP2 SLOAD DUP2 MSTORE PUSH1 0x1 DUP3 ADD SLOAD SWAP4 DUP2 ADD DUP5 SWAP1 MSTORE PUSH1 0x2 DUP3 ADD SLOAD SWAP3 DUP2 ADD SWAP3 SWAP1 SWAP3 MSTORE PUSH1 0x3 ADD SLOAD PUSH1 0x60 DUP3 DUP2 ADD SWAP2 SWAP1 SWAP2 MSTORE SWAP3 SWAP2 DUP3 SWAP2 DUP3 SWAP2 DUP3 SWAP2 SWAP1 PUSH2 0x2FBA JUMPI PUSH1 0x40 MLOAD PUSH3 0x461BCD PUSH1 0xE5 SHL DUP2 MSTORE PUSH1 0x20 PUSH1 0x4 DUP3 ADD MSTORE PUSH1 0xB PUSH1 0x24 DUP3 ADD MSTORE PUSH11 0x2737903837B9B4BA34B7B7 PUSH1 0xA9 SHL PUSH1 0x44 DUP3 ADD MSTORE PUSH1 0x64 ADD PUSH2 0xC52 JUMP JUMPDEST DUP1 MLOAD PUSH1 0x0 SWAP1 DUP2 MSTORE PUSH1 0x8 PUSH1 0x20 MSTORE PUSH1 0x40 DUP1 DUP3 KECCAK256 PUSH1 0x1 DUP2 ADD SLOAD DUP3 MLOAD PUSH4 0x3FABE5A3 PUSH1 0xE2 SHL DUP2 MSTORE SWAP3 MLOAD SWAP2 SWAP4 SWAP3 PUSH1 0x1 PUSH1 0x1 PUSH1 0xA0 SHL SUB SWAP1 SWAP2 AND SWAP2 PUSH4 0xFEAF968C SWAP2 PUSH1 0x4 DUP1 DUP3 ADD SWAP3 PUSH1 0xA0 SWAP3 SWAP1 SWAP2 SWAP1 DUP3 SWAP1 SUB ADD DUP2 DUP7 GAS STATICCALL ISZERO DUP1 ISZERO PUSH2 0x3018 JUMPI RETURNDATASIZE PUSH1 0x0 DUP1 RETURNDATACOPY RETURNDATASIZE PUSH1 0x0 REVERT JUMPDEST POP POP POP POP PUSH1 0x40 MLOAD RETURNDATASIZE PUSH1 0x1F NOT PUSH1 0x1F DUP3 ADD AND DUP3 ADD DUP1 PUSH1 0x40 MSTORE POP DUP2 ADD SWAP1 PUSH2 0x303C SWAP2 SWAP1 PUSH2 0x3B67 JUMP JUMPDEST POP POP POP SWAP2 POP POP PUSH1 0x0 DUP4 PUSH1 0x40 ADD MLOAD DUP3 PUSH2 0x3054 SWAP2 SWAP1 PUSH2 0x3C4D JUMP JUMPDEST SWAP1 POP PUSH1 0x0 DUP5 PUSH1 0x40 ADD MLOAD DUP3 DUP7 PUSH1 0x20 ADD MLOAD PUSH2 0x306D SWAP2 SWAP1 PUSH2 0x3FA2 JUMP JUMPDEST PUSH2 0x3077 SWAP2 SWAP1 PUSH2 0x3FD2 JUMP JUMPDEST SWAP1 POP DUP4 PUSH1 0x0 ADD DUP6 PUSH1 0x20 ADD MLOAD DUP7 PUSH1 0x40 ADD MLOAD DUP8 PUSH1 0x60 ADD MLOAD DUP5 DUP5 DUP1 SLOAD PUSH2 0x3099 SWAP1 PUSH2 0x39F7 JUMP JUMPDEST DUP1 PUSH1 0x1F ADD PUSH1 0x20 DUP1 SWAP2 DIV MUL PUSH1 0x20 ADD PUSH1 0x40 MLOAD SWAP1 DUP2 ADD PUSH1 0x40 MSTORE DUP1 SWAP3 SWAP2 SWAP1 DUP2 DUP2 MSTORE PUSH1 0x20 ADD DUP3 DUP1 SLOAD PUSH2 0x30C5 SWAP1 PUSH2 0x39F7 JUMP JUMPDEST DUP1 ISZERO PUSH2 0x3112 JUMPI DUP1 PUSH1 0x1F LT PUSH2 0x30E7 JUMPI PUSH2 0x100 DUP1 DUP4 SLOAD DIV MUL DUP4 MSTORE SWAP2 PUSH1 0x20 ADD SWAP2 PUSH2 0x3112 JUMP JUMPDEST DUP3 ADD SWAP2 SWAP1 PUSH1 0x0 MSTORE PUSH1 0x20 PUSH1 0x0 KECCAK256 SWAP1 JUMPDEST DUP2 SLOAD DUP2 MSTORE SWAP1 PUSH1 0x1 ADD SWAP1 PUSH1 0x20 ADD DUP1 DUP4 GT PUSH2 0x30F5 JUMPI DUP3 SWAP1 SUB PUSH1 0x1F AND DUP3 ADD SWAP2 JUMPDEST POP POP POP POP POP SWAP5 POP SWAP10 POP SWAP10 POP SWAP10 POP SWAP10 POP SWAP10 POP POP POP POP POP POP SWAP2 SWAP4 SWAP6 SWAP1 SWAP3 SWAP5 POP JUMP JUMPDEST PUSH1 0x0 DUP2 DUP2 MSTORE PUSH1 0x8 PUSH1 0x20 MSTORE PUSH1 0x40 DUP1 DUP3 KECCAK256 PUSH1 0x1 DUP2 ADD SLOAD DUP3 MLOAD PUSH4 0x3FABE5A3 PUSH1 0xE2 SHL DUP2 MSTORE SWAP3 MLOAD SWAP2 SWAP4 SWAP3 DUP4 SWAP3 DUP4 SWAP3 DUP4 SWAP3 DUP4 SWAP3 PUSH1 0x1 PUSH1 0x1 PUSH1 0xA0 SHL SUB SWAP1 SWAP3 AND SWAP2 PUSH4 0xFEAF968C SWAP2 PUSH1 0x4 DUP1 DUP3 ADD SWAP3 PUSH1 0xA0 SWAP3 SWAP1 SWAP2 SWAP1 DUP3 SWAP1 SUB ADD DUP2 DUP7 GAS STATICCALL ISZERO DUP1 ISZERO PUSH2 0x3195 JUMPI RETURNDATASIZE PUSH1 0x0 DUP1 RETURNDATACOPY RETURNDATASIZE PUSH1 0x0 REVERT JUMPDEST POP POP POP POP PUSH1 0x40 MLOAD RETURNDATASIZE PUSH1 0x1F NOT PUSH1 0x1F DUP3 ADD AND DUP3 ADD DUP1 PUSH1 0x40 MSTORE POP DUP2 ADD SWAP1 PUSH2 0x31B9 SWAP2 SWAP1 PUSH2 0x3B67 JUMP JUMPDEST SWAP5 POP SWAP5 POP SWAP5 POP SWAP5 POP SWAP5 POP DUP5 PUSH1 0x1 PUSH1 0x1 PUSH1 0x50 SHL SUB AND DUP2 PUSH1 0x1 PUSH1 0x1 PUSH1 0x50 SHL SUB AND LT ISZERO PUSH2 0x3213 JUMPI PUSH1 0x40 MLOAD PUSH3 0x461BCD PUSH1 0xE5 SHL DUP2 MSTORE PUSH1 0x20 PUSH1 0x4 DUP3 ADD MSTORE PUSH1 0xB PUSH1 0x24 DUP3 ADD MSTORE PUSH11 0x5374616C65207072696365 PUSH1 0xA8 SHL PUSH1 0x44 DUP3 ADD MSTORE PUSH1 0x64 ADD PUSH2 0xC52 JUMP JUMPDEST PUSH2 0xE10 PUSH2 0x3220 DUP4 TIMESTAMP PUSH2 0x3A47 JUMP JUMPDEST GT ISZERO PUSH2 0x325E JUMPI PUSH1 0x40 MLOAD PUSH3 0x461BCD PUSH1 0xE5 SHL DUP2 MSTORE PUSH1 0x20 PUSH1 0x4 DUP3 ADD MSTORE PUSH1 0xD PUSH1 0x24 DUP3 ADD MSTORE PUSH13 0x141C9A58D9481D1BDBC81BDB19 PUSH1 0x9A SHL PUSH1 0x44 DUP3 ADD MSTORE PUSH1 0x64 ADD PUSH2 0xC52 JUMP JUMPDEST PUSH1 0x0 DUP5 SGT PUSH2 0x327E JUMPI PUSH1 0x40 MLOAD PUSH3 0x461BCD PUSH1 0xE5 SHL DUP2 MSTORE PUSH1 0x4 ADD PUSH2 0xC52 SWAP1 PUSH2 0x3BB7 JUMP JUMPDEST PUSH1 0x0 DUP7 PUSH1 0x2 ADD SLOAD DUP6 PUSH2 0x3290 SWAP2 SWAP1 PUSH2 0x3C4D JUMP JUMPDEST SWAP1 POP PUSH1 0x0 DUP1 DUP3 SGT ISZERO PUSH2 0x32BE JUMPI PUSH1 0x2 DUP9 ADD SLOAD PUSH2 0x32AD DUP4 PUSH2 0x2710 PUSH2 0x3FA2 JUMP JUMPDEST PUSH2 0x32B7 SWAP2 SWAP1 PUSH2 0x3FD2 JUMP JUMPDEST SWAP1 POP PUSH2 0x3309 JUMP JUMPDEST PUSH1 0x0 PUSH2 0x32C9 DUP4 PUSH2 0x4000 JUMP JUMPDEST SWAP1 POP PUSH1 0x0 DUP10 PUSH1 0x2 ADD SLOAD DUP3 PUSH2 0x2710 PUSH2 0x32E0 SWAP2 SWAP1 PUSH2 0x3C6D JUMP JUMPDEST PUSH2 0x32EA SWAP2 SWAP1 PUSH2 0x3C9A JUMP JUMPDEST SWAP1 POP PUSH2 0x1388 DUP2 GT ISZERO PUSH2 0x32FB JUMPI POP PUSH2 0x1388 JUMPDEST PUSH2 0x3304 DUP2 PUSH2 0x4000 JUMP JUMPDEST SWAP3 POP POP POP JUMPDEST PUSH1 0x0 DUP2 SGT ISZERO PUSH2 0x33C8 JUMPI PUSH1 0x0 PUSH2 0x3E8 PUSH1 0xD SLOAD PUSH1 0x1 PUSH2 0x3326 SWAP2 SWAP1 PUSH2 0x3C6D JUMP JUMPDEST PUSH2 0x3330 SWAP2 SWAP1 PUSH2 0x3C9A JUMP JUMPDEST SWAP1 POP PUSH1 0x0 PUSH2 0x2710 DUP4 PUSH1 0xD SLOAD PUSH2 0x3345 SWAP2 SWAP1 PUSH2 0x3C6D JUMP JUMPDEST PUSH2 0x334F SWAP2 SWAP1 PUSH2 0x3C9A JUMP JUMPDEST SWAP1 POP DUP1 ISZERO PUSH2 0x3364 JUMPI PUSH2 0x3361 DUP2 DUP4 PUSH2 0x3A5A JUMP JUMPDEST SWAP2 POP JUMPDEST PUSH10 0xD3C21BCECCEDA1000000 DUP3 PUSH1 0xD SLOAD PUSH2 0x337D SWAP2 SWAP1 PUSH2 0x3A5A JUMP JUMPDEST GT ISZERO PUSH2 0x339D JUMPI PUSH1 0xD SLOAD PUSH2 0x339A SWAP1 PUSH10 0xD3C21BCECCEDA1000000 PUSH2 0x3A47 JUMP JUMPDEST SWAP2 POP JUMPDEST DUP2 PUSH1 0x0 SUB PUSH2 0x33B1 JUMPI PUSH8 0xDE0B6B3A7640000 SWAP2 POP JUMPDEST DUP2 ISZERO PUSH2 0x33C1 JUMPI PUSH2 0x33C1 CALLER DUP4 PUSH2 0x359D JUMP JUMPDEST POP POP PUSH2 0x3470 JUMP JUMPDEST PUSH1 0x0 DUP2 SLT ISZERO PUSH2 0x3470 JUMPI PUSH1 0x0 PUSH2 0x33DC DUP3 PUSH2 0x4000 JUMP JUMPDEST SWAP1 POP PUSH1 0x0 PUSH2 0x2710 DUP3 PUSH1 0xD SLOAD PUSH2 0x33F1 SWAP2 SWAP1 PUSH2 0x3C6D JUMP JUMPDEST PUSH2 0x33FB SWAP2 SWAP1 PUSH2 0x3C9A JUMP JUMPDEST SWAP1 POP DUP1 ISZERO PUSH2 0x346D JUMPI PUSH9 0x3635C9ADC5DEA00000 DUP2 PUSH1 0xD SLOAD PUSH2 0x341B SWAP2 SWAP1 PUSH2 0x3A47 JUMP JUMPDEST LT ISZERO PUSH2 0x343B JUMPI PUSH9 0x3635C9ADC5DEA00000 PUSH1 0xD SLOAD PUSH2 0x3438 SWAP2 SWAP1 PUSH2 0x3A47 JUMP JUMPDEST SWAP1 POP JUMPDEST CALLER PUSH1 0x0 SWAP1 DUP2 MSTORE PUSH1 0xE PUSH1 0x20 MSTORE PUSH1 0x40 SWAP1 KECCAK256 SLOAD DUP2 DUP2 LT PUSH2 0x3461 JUMPI PUSH2 0x345C CALLER DUP4 PUSH2 0x34C4 JUMP JUMPDEST PUSH2 0x346B JUMP JUMPDEST PUSH2 0x346B CALLER DUP3 PUSH2 0x34C4 JUMP JUMPDEST POP JUMPDEST POP POP JUMPDEST PUSH1 0x2 DUP9 ADD SLOAD PUSH1 0x40 DUP1 MLOAD SWAP2 DUP3 MSTORE PUSH1 0x20 DUP3 ADD DUP9 SWAP1 MSTORE DUP2 ADD DUP4 SWAP1 MSTORE PUSH32 0xD61DC40EF1106764E1D9EB364856A6143485951A5D6FBB5FBDFF5DE65A5695D6 SWAP1 PUSH1 0x60 ADD PUSH1 0x40 MLOAD DUP1 SWAP2 SUB SWAP1 LOG1 POP POP POP POP PUSH1 0x2 SWAP1 SWAP4 ADD SSTORE POP POP POP JUMP JUMPDEST PUSH1 0x1 PUSH1 0x1 PUSH1 0xA0 SHL SUB DUP3 AND PUSH1 0x0 SWAP1 DUP2 MSTORE PUSH1 0xE PUSH1 0x20 MSTORE PUSH1 0x40 SWAP1 KECCAK256 SLOAD DUP2 GT ISZERO PUSH2 0x3523 JUMPI PUSH1 0x40 MLOAD PUSH3 0x461BCD PUSH1 0xE5 SHL DUP2 MSTORE PUSH1 0x20 PUSH1 0x4 DUP3 ADD MSTORE PUSH1 0x14 PUSH1 0x24 DUP3 ADD MSTORE PUSH20 0x496E73756666696369656E742062616C616E6365 PUSH1 0x60 SHL PUSH1 0x44 DUP3 ADD MSTORE PUSH1 0x64 ADD PUSH2 0xC52 JUMP JUMPDEST PUSH1 0x1 PUSH1 0x1 PUSH1 0xA0 SHL SUB DUP3 AND PUSH1 0x0 SWAP1 DUP2 MSTORE PUSH1 0xE PUSH1 0x20 MSTORE PUSH1 0x40 DUP2 KECCAK256 DUP1 SLOAD DUP4 SWAP3 SWAP1 PUSH2 0x354B SWAP1 DUP5 SWAP1 PUSH2 0x3A47 JUMP JUMPDEST SWAP3 POP POP DUP2 SWAP1 SSTORE POP DUP1 PUSH1 0xD PUSH1 0x0 DUP3 DUP3 SLOAD PUSH2 0x3564 SWAP2 SWAP1 PUSH2 0x3A47 JUMP JUMPDEST SWAP1 SWAP2 SSTORE POP POP PUSH1 0x40 MLOAD DUP2 DUP2 MSTORE PUSH1 0x0 SWAP1 PUSH1 0x1 PUSH1 0x1 PUSH1 0xA0 SHL SUB DUP5 AND SWAP1 PUSH1 0x0 DUP1 MLOAD PUSH1 0x20 PUSH2 0x401D DUP4 CODECOPY DUP2 MLOAD SWAP2 MSTORE SWAP1 PUSH1 0x20 ADD JUMPDEST PUSH1 0x40 MLOAD DUP1 SWAP2 SUB SWAP1 LOG3 POP POP JUMP JUMPDEST DUP1 PUSH1 0xD PUSH1 0x0 DUP3 DUP3 SLOAD PUSH2 0x35AF SWAP2 SWAP1 PUSH2 0x3A5A JUMP JUMPDEST SWAP1 SWAP2 SSTORE POP POP PUSH1 0x1 PUSH1 0x1 PUSH1 0xA0 SHL SUB DUP3 AND PUSH1 0x0 SWAP1 DUP2 MSTORE PUSH1 0xE PUSH1 0x20 MSTORE PUSH1 0x40 DUP2 KECCAK256 DUP1 SLOAD DUP4 SWAP3 SWAP1 PUSH2 0x35DC SWAP1 DUP5 SWAP1 PUSH2 0x3A5A JUMP JUMPDEST SWAP1 SWAP2 SSTORE POP POP PUSH1 0x40 MLOAD DUP2 DUP2 MSTORE PUSH1 0x1 PUSH1 0x1 PUSH1 0xA0 SHL SUB DUP4 AND SWAP1 PUSH1 0x0 SWAP1 PUSH1 0x0 DUP1 MLOAD PUSH1 0x20 PUSH2 0x401D DUP4 CODECOPY DUP2 MLOAD SWAP2 MSTORE SWAP1 PUSH1 0x20 ADD PUSH2 0x3591 JUMP JUMPDEST PUSH1 0x0 JUMPDEST DUP4 DUP2 LT ISZERO PUSH2 0x3628 JUMPI DUP2 DUP2 ADD MLOAD DUP4 DUP3 ADD MSTORE PUSH1 0x20 ADD PUSH2 0x3610 JUMP JUMPDEST POP POP PUSH1 0x0 SWAP2 ADD MSTORE JUMP JUMPDEST PUSH1 0x0 DUP2 MLOAD DUP1 DUP5 MSTORE PUSH2 0x3649 DUP2 PUSH1 0x20 DUP7 ADD PUSH1 0x20 DUP7 ADD PUSH2 0x360D JUMP JUMPDEST PUSH1 0x1F ADD PUSH1 0x1F NOT AND SWAP3 SWAP1 SWAP3 ADD PUSH1 0x20 ADD SWAP3 SWAP2 POP POP JUMP JUMPDEST PUSH1 0x20 DUP2 MSTORE PUSH1 0x0 PUSH2 0x3670 PUSH1 0x20 DUP4 ADD DUP5 PUSH2 0x3631 JUMP JUMPDEST SWAP4 SWAP3 POP POP POP JUMP JUMPDEST DUP1 CALLDATALOAD PUSH1 0x1 PUSH1 0x1 PUSH1 0xA0 SHL SUB DUP2 AND DUP2 EQ PUSH2 0x368E JUMPI PUSH1 0x0 DUP1 REVERT JUMPDEST SWAP2 SWAP1 POP JUMP JUMPDEST PUSH1 0x0 DUP1 PUSH1 0x40 DUP4 DUP6 SUB SLT ISZERO PUSH2 0x36A6 JUMPI PUSH1 0x0 DUP1 REVERT JUMPDEST PUSH2 0x36AF DUP4 PUSH2 0x3677 JUMP JUMPDEST SWAP5 PUSH1 0x20 SWAP4 SWAP1 SWAP4 ADD CALLDATALOAD SWAP4 POP POP POP JUMP JUMPDEST PUSH1 0x0 PUSH1 0x20 DUP3 DUP5 SUB SLT ISZERO PUSH2 0x36CF JUMPI PUSH1 0x0 DUP1 REVERT JUMPDEST PUSH2 0x3670 DUP3 PUSH2 0x3677 JUMP JUMPDEST PUSH1 0x0 DUP1 PUSH1 0x0 PUSH1 0x60 DUP5 DUP7 SUB SLT ISZERO PUSH2 0x36ED JUMPI PUSH1 0x0 DUP1 REVERT JUMPDEST PUSH2 0x36F6 DUP5 PUSH2 0x3677 JUMP JUMPDEST SWAP3 POP PUSH2 0x3704 PUSH1 0x20 DUP6 ADD PUSH2 0x3677 JUMP JUMPDEST SWAP2 POP PUSH1 0x40 DUP5 ADD CALLDATALOAD SWAP1 POP SWAP3 POP SWAP3 POP SWAP3 JUMP JUMPDEST PUSH1 0x0 PUSH1 0x20 DUP3 DUP5 SUB SLT ISZERO PUSH2 0x3726 JUMPI PUSH1 0x0 DUP1 REVERT JUMPDEST POP CALLDATALOAD SWAP2 SWAP1 POP JUMP JUMPDEST PUSH1 0xA0 DUP2 MSTORE PUSH1 0x0 PUSH2 0x3740 PUSH1 0xA0 DUP4 ADD DUP9 PUSH2 0x3631 JUMP JUMPDEST PUSH1 0x1 PUSH1 0x1 PUSH1 0xA0 SHL SUB SWAP7 SWAP1 SWAP7 AND PUSH1 0x20 DUP4 ADD MSTORE POP PUSH1 0x40 DUP2 ADD SWAP4 SWAP1 SWAP4 MSTORE PUSH1 0x60 DUP4 ADD SWAP2 SWAP1 SWAP2 MSTORE ISZERO ISZERO PUSH1 0x80 SWAP1 SWAP2 ADD MSTORE SWAP2 SWAP1 POP JUMP JUMPDEST PUSH1 0x0 DUP1 DUP4 PUSH1 0x1F DUP5 ADD SLT PUSH2 0x3781 JUMPI PUSH1 0x0 DUP1 REVERT JUMPDEST POP DUP2 CALLDATALOAD PUSH8 0xFFFFFFFFFFFFFFFF DUP2 GT ISZERO PUSH2 0x3799 JUMPI PUSH1 0x0 DUP1 REVERT JUMPDEST PUSH1 0x20 DUP4 ADD SWAP2 POP DUP4 PUSH1 0x20 DUP3 DUP6 ADD ADD GT ISZERO PUSH2 0x37B1 JUMPI PUSH1 0x0 DUP1 REVERT JUMPDEST SWAP3 POP SWAP3 SWAP1 POP JUMP JUMPDEST PUSH1 0x0 DUP1 PUSH1 0x20 DUP4 DUP6 SUB SLT ISZERO PUSH2 0x37CB JUMPI PUSH1 0x0 DUP1 REVERT JUMPDEST DUP3 CALLDATALOAD PUSH8 0xFFFFFFFFFFFFFFFF DUP2 GT ISZERO PUSH2 0x37E2 JUMPI PUSH1 0x0 DUP1 REVERT JUMPDEST PUSH2 0x37EE DUP6 DUP3 DUP7 ADD PUSH2 0x376F JUMP JUMPDEST SWAP1 SWAP7 SWAP1 SWAP6 POP SWAP4 POP POP POP POP JUMP JUMPDEST PUSH4 0x4E487B71 PUSH1 0xE0 SHL PUSH1 0x0 MSTORE PUSH1 0x41 PUSH1 0x4 MSTORE PUSH1 0x24 PUSH1 0x0 REVERT JUMPDEST PUSH1 0x40 MLOAD PUSH1 0x1F DUP3 ADD PUSH1 0x1F NOT AND DUP2 ADD PUSH8 0xFFFFFFFFFFFFFFFF DUP2 GT DUP3 DUP3 LT OR ISZERO PUSH2 0x3839 JUMPI PUSH2 0x3839 PUSH2 0x37FA JUMP JUMPDEST PUSH1 0x40 MSTORE SWAP2 SWAP1 POP JUMP JUMPDEST PUSH1 0x0 PUSH8 0xFFFFFFFFFFFFFFFF DUP3 GT ISZERO PUSH2 0x385B JUMPI PUSH2 0x385B PUSH2 0x37FA JUMP JUMPDEST POP PUSH1 0x1F ADD PUSH1 0x1F NOT AND PUSH1 0x20 ADD SWAP1 JUMP JUMPDEST PUSH1 0x0 DUP3 PUSH1 0x1F DUP4 ADD SLT PUSH2 0x387A JUMPI PUSH1 0x0 DUP1 REVERT JUMPDEST DUP2 CALLDATALOAD PUSH2 0x388D PUSH2 0x3888 DUP3 PUSH2 0x3841 JUMP JUMPDEST PUSH2 0x3810 JUMP JUMPDEST DUP2 DUP2 MSTORE DUP5 PUSH1 0x20 DUP4 DUP7 ADD ADD GT ISZERO PUSH2 0x38A2 JUMPI PUSH1 0x0 DUP1 REVERT JUMPDEST DUP2 PUSH1 0x20 DUP6 ADD PUSH1 0x20 DUP4 ADD CALLDATACOPY PUSH1 0x0 SWAP2 DUP2 ADD PUSH1 0x20 ADD SWAP2 SWAP1 SWAP2 MSTORE SWAP4 SWAP3 POP POP POP JUMP JUMPDEST PUSH1 0x0 PUSH1 0x20 DUP3 DUP5 SUB SLT ISZERO PUSH2 0x38D1 JUMPI PUSH1 0x0 DUP1 REVERT JUMPDEST DUP2 CALLDATALOAD PUSH8 0xFFFFFFFFFFFFFFFF DUP2 GT ISZERO PUSH2 0x38E8 JUMPI PUSH1 0x0 DUP1 REVERT JUMPDEST PUSH2 0x38F4 DUP5 DUP3 DUP6 ADD PUSH2 0x3869 JUMP JUMPDEST SWAP5 SWAP4 POP POP POP POP JUMP JUMPDEST PUSH1 0x0 DUP1 PUSH1 0x0 PUSH1 0x40 DUP5 DUP7 SUB SLT ISZERO PUSH2 0x3911 JUMPI PUSH1 0x0 DUP1 REVERT JUMPDEST DUP4 CALLDATALOAD PUSH8 0xFFFFFFFFFFFFFFFF DUP2 GT ISZERO PUSH2 0x3928 JUMPI PUSH1 0x0 DUP1 REVERT JUMPDEST PUSH2 0x3934 DUP7 DUP3 DUP8 ADD PUSH2 0x376F JUMP JUMPDEST SWAP1 SWAP8 SWAP1 SWAP7 POP PUSH1 0x20 SWAP6 SWAP1 SWAP6 ADD CALLDATALOAD SWAP5 SWAP4 POP POP POP POP JUMP JUMPDEST PUSH1 0x0 DUP1 PUSH1 0x40 DUP4 DUP6 SUB SLT ISZERO PUSH2 0x395B JUMPI PUSH1 0x0 DUP1 REVERT JUMPDEST DUP3 CALLDATALOAD PUSH8 0xFFFFFFFFFFFFFFFF DUP2 GT ISZERO PUSH2 0x3972 JUMPI PUSH1 0x0 DUP1 REVERT JUMPDEST PUSH2 0x397E DUP6 DUP3 DUP7 ADD PUSH2 0x3869 JUMP JUMPDEST SWAP6 PUSH1 0x20 SWAP5 SWAP1 SWAP5 ADD CALLDATALOAD SWAP5 POP POP POP POP JUMP JUMPDEST PUSH1 0x0 DUP1 PUSH1 0x40 DUP4 DUP6 SUB SLT ISZERO PUSH2 0x39A0 JUMPI PUSH1 0x0 DUP1 REVERT JUMPDEST PUSH2 0x39A9 DUP4 PUSH2 0x3677 JUMP JUMPDEST SWAP2 POP PUSH2 0x39B7 PUSH1 0x20 DUP5 ADD PUSH2 0x3677 JUMP JUMPDEST SWAP1 POP SWAP3 POP SWAP3 SWAP1 POP JUMP JUMPDEST PUSH1 0xA0 DUP2 MSTORE PUSH1 0x0 PUSH2 0x39D3 PUSH1 0xA0 DUP4 ADD DUP9 PUSH2 0x3631 JUMP JUMPDEST SWAP1 POP DUP6 PUSH1 0x20 DUP4 ADD MSTORE DUP5 PUSH1 0x40 DUP4 ADD MSTORE DUP4 PUSH1 0x60 DUP4 ADD MSTORE DUP3 PUSH1 0x80 DUP4 ADD MSTORE SWAP7 SWAP6 POP POP POP POP POP POP JUMP JUMPDEST PUSH1 0x1 DUP2 DUP2 SHR SWAP1 DUP3 AND DUP1 PUSH2 0x3A0B JUMPI PUSH1 0x7F DUP3 AND SWAP2 POP JUMPDEST PUSH1 0x20 DUP3 LT DUP2 SUB PUSH2 0x3A2B JUMPI PUSH4 0x4E487B71 PUSH1 0xE0 SHL PUSH1 0x0 MSTORE PUSH1 0x22 PUSH1 0x4 MSTORE PUSH1 0x24 PUSH1 0x0 REVERT JUMPDEST POP SWAP2 SWAP1 POP JUMP JUMPDEST PUSH4 0x4E487B71 PUSH1 0xE0 SHL PUSH1 0x0 MSTORE PUSH1 0x11 PUSH1 0x4 MSTORE PUSH1 0x24 PUSH1 0x0 REVERT JUMPDEST DUP2 DUP2 SUB DUP2 DUP2 GT ISZERO PUSH2 0xBF4 JUMPI PUSH2 0xBF4 PUSH2 0x3A31 JUMP JUMPDEST DUP1 DUP3 ADD DUP1 DUP3 GT ISZERO PUSH2 0xBF4 JUMPI PUSH2 0xBF4 PUSH2 0x3A31 JUMP JUMPDEST PUSH1 0x20 DUP1 DUP3 MSTORE PUSH1 0xF SWAP1 DUP3 ADD MSTORE PUSH15 0x2737BA1030B71037B832B930BA37B9 PUSH1 0x89 SHL PUSH1 0x40 DUP3 ADD MSTORE PUSH1 0x60 ADD SWAP1 JUMP JUMPDEST PUSH1 0x20 DUP1 DUP3 MSTORE PUSH1 0x1F SWAP1 DUP3 ADD MSTORE PUSH32 0x5265656E7472616E637947756172643A207265656E7472616E742063616C6C00 PUSH1 0x40 DUP3 ADD MSTORE PUSH1 0x60 ADD SWAP1 JUMP JUMPDEST PUSH1 0x20 DUP1 DUP3 MSTORE PUSH1 0xF SWAP1 DUP3 ADD MSTORE PUSH15 0x546F6F206D616E7920747261646573 PUSH1 0x88 SHL PUSH1 0x40 DUP3 ADD MSTORE PUSH1 0x60 ADD SWAP1 JUMP JUMPDEST PUSH1 0x20 DUP1 DUP3 MSTORE PUSH1 0x12 SWAP1 DUP3 ADD MSTORE PUSH18 0x10DBDB9D1C9858DD081A5CC81C185D5CD959 PUSH1 0x72 SHL PUSH1 0x40 DUP3 ADD MSTORE PUSH1 0x60 ADD SWAP1 JUMP JUMPDEST PUSH1 0x20 DUP1 DUP3 MSTORE PUSH1 0x14 SWAP1 DUP3 ADD MSTORE PUSH20 0x14DE5B589BDB081B9BDD081CDD5C1C1BDC9D1959 PUSH1 0x62 SHL PUSH1 0x40 DUP3 ADD MSTORE PUSH1 0x60 ADD SWAP1 JUMP JUMPDEST DUP1 MLOAD PUSH1 0x1 PUSH1 0x1 PUSH1 0x50 SHL SUB DUP2 AND DUP2 EQ PUSH2 0x368E JUMPI PUSH1 0x0 DUP1 REVERT JUMPDEST PUSH1 0x0 DUP1 PUSH1 0x0 DUP1 PUSH1 0x0 PUSH1 0xA0 DUP7 DUP9 SUB SLT ISZERO PUSH2 0x3B7F JUMPI PUSH1 0x0 DUP1 REVERT JUMPDEST PUSH2 0x3B88 DUP7 PUSH2 0x3B50 JUMP JUMPDEST SWAP5 POP PUSH1 0x20 DUP7 ADD MLOAD SWAP4 POP PUSH1 0x40 DUP7 ADD MLOAD SWAP3 POP PUSH1 0x60 DUP7 ADD MLOAD SWAP2 POP PUSH2 0x3BAB PUSH1 0x80 DUP8 ADD PUSH2 0x3B50 JUMP JUMPDEST SWAP1 POP SWAP3 SWAP6 POP SWAP3 SWAP6 SWAP1 SWAP4 POP JUMP JUMPDEST PUSH1 0x20 DUP1 DUP3 MSTORE PUSH1 0xD SWAP1 DUP3 ADD MSTORE PUSH13 0x496E76616C6964207072696365 PUSH1 0x98 SHL PUSH1 0x40 DUP3 ADD MSTORE PUSH1 0x60 ADD SWAP1 JUMP JUMPDEST PUSH1 0x0 DUP3 MLOAD PUSH2 0x3BF0 DUP2 DUP5 PUSH1 0x20 DUP8 ADD PUSH2 0x360D JUMP JUMPDEST SWAP2 SWAP1 SWAP2 ADD SWAP3 SWAP2 POP POP JUMP JUMPDEST PUSH1 0x20 DUP1 DUP3 MSTORE PUSH1 0xA SWAP1 DUP3 ADD MSTORE PUSH10 0x27B7363C9037BBB732B9 PUSH1 0xB1 SHL PUSH1 0x40 DUP3 ADD MSTORE PUSH1 0x60 ADD SWAP1 JUMP JUMPDEST PUSH1 0x20 DUP2 MSTORE DUP2 PUSH1 0x20 DUP3 ADD MSTORE DUP2 DUP4 PUSH1 0x40 DUP4 ADD CALLDATACOPY PUSH1 0x0 DUP2 DUP4 ADD PUSH1 0x40 SWAP1 DUP2 ADD SWAP2 SWAP1 SWAP2 MSTORE PUSH1 0x1F SWAP1 SWAP3 ADD PUSH1 0x1F NOT AND ADD ADD SWAP2 SWAP1 POP JUMP JUMPDEST DUP2 DUP2 SUB PUSH1 0x0 DUP4 SLT DUP1 ISZERO DUP4 DUP4 SGT AND DUP4 DUP4 SLT DUP3 AND OR ISZERO PUSH2 0x28F3 JUMPI PUSH2 0x28F3 PUSH2 0x3A31 JUMP JUMPDEST DUP1 DUP3 MUL DUP2 ISZERO DUP3 DUP3 DIV DUP5 EQ OR PUSH2 0xBF4 JUMPI PUSH2 0xBF4 PUSH2 0x3A31 JUMP JUMPDEST PUSH4 0x4E487B71 PUSH1 0xE0 SHL PUSH1 0x0 MSTORE PUSH1 0x12 PUSH1 0x4 MSTORE PUSH1 0x24 PUSH1 0x0 REVERT JUMPDEST PUSH1 0x0 DUP3 PUSH2 0x3CA9 JUMPI PUSH2 0x3CA9 PUSH2 0x3C84 JUMP JUMPDEST POP DIV SWAP1 JUMP JUMPDEST PUSH4 0x4E487B71 PUSH1 0xE0 SHL PUSH1 0x0 MSTORE PUSH1 0x32 PUSH1 0x4 MSTORE PUSH1 0x24 PUSH1 0x0 REVERT JUMPDEST PUSH1 0x0 PUSH1 0x1 DUP3 ADD PUSH2 0x3CD6 JUMPI PUSH2 0x3CD6 PUSH2 0x3A31 JUMP JUMPDEST POP PUSH1 0x1 ADD SWAP1 JUMP JUMPDEST PUSH1 0x1 DUP2 DUP2 JUMPDEST DUP1 DUP6 GT ISZERO PUSH2 0x3D18 JUMPI DUP2 PUSH1 0x0 NOT DIV DUP3 GT ISZERO PUSH2 0x3CFE JUMPI PUSH2 0x3CFE PUSH2 0x3A31 JUMP JUMPDEST DUP1 DUP6 AND ISZERO PUSH2 0x3D0B JUMPI SWAP2 DUP2 MUL SWAP2 JUMPDEST SWAP4 DUP5 SHR SWAP4 SWAP1 DUP1 MUL SWAP1 PUSH2 0x3CE2 JUMP JUMPDEST POP SWAP3 POP SWAP3 SWAP1 POP JUMP JUMPDEST PUSH1 0x0 DUP3 PUSH2 0x3D2F JUMPI POP PUSH1 0x1 PUSH2 0xBF4 JUMP JUMPDEST DUP2 PUSH2 0x3D3C JUMPI POP PUSH1 0x0 PUSH2 0xBF4 JUMP JUMPDEST DUP2 PUSH1 0x1 DUP2 EQ PUSH2 0x3D52 JUMPI PUSH1 0x2 DUP2 EQ PUSH2 0x3D5C JUMPI PUSH2 0x3D78 JUMP JUMPDEST PUSH1 0x1 SWAP2 POP POP PUSH2 0xBF4 JUMP JUMPDEST PUSH1 0xFF DUP5 GT ISZERO PUSH2 0x3D6D JUMPI PUSH2 0x3D6D PUSH2 0x3A31 JUMP JUMPDEST POP POP PUSH1 0x1 DUP3 SHL PUSH2 0xBF4 JUMP JUMPDEST POP PUSH1 0x20 DUP4 LT PUSH2 0x133 DUP4 LT AND PUSH1 0x4E DUP5 LT PUSH1 0xB DUP5 LT AND OR ISZERO PUSH2 0x3D9B JUMPI POP DUP2 DUP2 EXP PUSH2 0xBF4 JUMP JUMPDEST PUSH2 0x3DA5 DUP4 DUP4 PUSH2 0x3CDD JUMP JUMPDEST DUP1 PUSH1 0x0 NOT DIV DUP3 GT ISZERO PUSH2 0x3DB9 JUMPI PUSH2 0x3DB9 PUSH2 0x3A31 JUMP JUMPDEST MUL SWAP4 SWAP3 POP POP POP JUMP JUMPDEST PUSH1 0x0 PUSH2 0x3670 PUSH1 0xFF DUP5 AND DUP4 PUSH2 0x3D20 JUMP JUMPDEST PUSH1 0x0 PUSH2 0x3670 DUP4 DUP4 PUSH2 0x3D20 JUMP JUMPDEST PUSH1 0x0 PUSH1 0x20 DUP3 DUP5 SUB SLT ISZERO PUSH2 0x3DEE JUMPI PUSH1 0x0 DUP1 REVERT JUMPDEST DUP2 MLOAD PUSH8 0xFFFFFFFFFFFFFFFF DUP2 GT ISZERO PUSH2 0x3E05 JUMPI PUSH1 0x0 DUP1 REVERT JUMPDEST DUP3 ADD PUSH1 0x1F DUP2 ADD DUP5 SGT PUSH2 0x3E16 JUMPI PUSH1 0x0 DUP1 REVERT JUMPDEST DUP1 MLOAD PUSH2 0x3E24 PUSH2 0x3888 DUP3 PUSH2 0x3841 JUMP JUMPDEST DUP2 DUP2 MSTORE DUP6 PUSH1 0x20 DUP4 DUP6 ADD ADD GT ISZERO PUSH2 0x3E39 JUMPI PUSH1 0x0 DUP1 REVERT JUMPDEST PUSH2 0x3E4A DUP3 PUSH1 0x20 DUP4 ADD PUSH1 0x20 DUP7 ADD PUSH2 0x360D JUMP JUMPDEST SWAP6 SWAP5 POP POP POP POP POP JUMP JUMPDEST PUSH1 0x1F DUP3 GT ISZERO PUSH2 0x154E JUMPI PUSH1 0x0 DUP2 DUP2 MSTORE PUSH1 0x20 DUP2 KECCAK256 PUSH1 0x1F DUP6 ADD PUSH1 0x5 SHR DUP2 ADD PUSH1 0x20 DUP7 LT ISZERO PUSH2 0x3E7A JUMPI POP DUP1 JUMPDEST PUSH1 0x1F DUP6 ADD PUSH1 0x5 SHR DUP3 ADD SWAP2 POP JUMPDEST DUP2 DUP2 LT ISZERO PUSH2 0x3E99 JUMPI DUP3 DUP2 SSTORE PUSH1 0x1 ADD PUSH2 0x3E86 JUMP JUMPDEST POP POP POP POP POP POP JUMP JUMPDEST DUP2 MLOAD PUSH8 0xFFFFFFFFFFFFFFFF DUP2 GT ISZERO PUSH2 0x3EBB JUMPI PUSH2 0x3EBB PUSH2 0x37FA JUMP JUMPDEST PUSH2 0x3ECF DUP2 PUSH2 0x3EC9 DUP5 SLOAD PUSH2 0x39F7 JUMP JUMPDEST DUP5 PUSH2 0x3E53 JUMP JUMPDEST PUSH1 0x20 DUP1 PUSH1 0x1F DUP4 GT PUSH1 0x1 DUP2 EQ PUSH2 0x3F04 JUMPI PUSH1 0x0 DUP5 ISZERO PUSH2 0x3EEC JUMPI POP DUP6 DUP4 ADD MLOAD JUMPDEST PUSH1 0x0 NOT PUSH1 0x3 DUP7 SWAP1 SHL SHR NOT AND PUSH1 0x1 DUP6 SWAP1 SHL OR DUP6 SSTORE PUSH2 0x3E99 JUMP JUMPDEST PUSH1 0x0 DUP6 DUP2 MSTORE PUSH1 0x20 DUP2 KECCAK256 PUSH1 0x1F NOT DUP7 AND SWAP2 JUMPDEST DUP3 DUP2 LT ISZERO PUSH2 0x3F33 JUMPI DUP9 DUP7 ADD MLOAD DUP3 SSTORE SWAP5 DUP5 ADD SWAP5 PUSH1 0x1 SWAP1 SWAP2 ADD SWAP1 DUP5 ADD PUSH2 0x3F14 JUMP JUMPDEST POP DUP6 DUP3 LT ISZERO PUSH2 0x3F51 JUMPI DUP8 DUP6 ADD MLOAD PUSH1 0x0 NOT PUSH1 0x3 DUP9 SWAP1 SHL PUSH1 0xF8 AND SHR NOT AND DUP2 SSTORE JUMPDEST POP POP POP POP POP PUSH1 0x1 SWAP1 DUP2 SHL ADD SWAP1 SSTORE POP JUMP JUMPDEST PUSH1 0x40 DUP2 MSTORE PUSH1 0x0 PUSH2 0x3F74 PUSH1 0x40 DUP4 ADD DUP6 PUSH2 0x3631 JUMP JUMPDEST SWAP1 POP PUSH1 0x1 DUP1 PUSH1 0xA0 SHL SUB DUP4 AND PUSH1 0x20 DUP4 ADD MSTORE SWAP4 SWAP3 POP POP POP JUMP JUMPDEST PUSH1 0x0 DUP2 PUSH2 0x3F9A JUMPI PUSH2 0x3F9A PUSH2 0x3A31 JUMP JUMPDEST POP PUSH1 0x0 NOT ADD SWAP1 JUMP JUMPDEST DUP1 DUP3 MUL PUSH1 0x0 DUP3 SLT PUSH1 0x1 PUSH1 0xFF SHL DUP5 EQ AND ISZERO PUSH2 0x3FBE JUMPI PUSH2 0x3FBE PUSH2 0x3A31 JUMP JUMPDEST DUP2 DUP2 SDIV DUP4 EQ DUP3 ISZERO OR PUSH2 0xBF4 JUMPI PUSH2 0xBF4 PUSH2 0x3A31 JUMP JUMPDEST PUSH1 0x0 DUP3 PUSH2 0x3FE1 JUMPI PUSH2 0x3FE1 PUSH2 0x3C84 JUMP JUMPDEST PUSH1 0x1 PUSH1 0xFF SHL DUP3 EQ PUSH1 0x0 NOT DUP5 EQ AND ISZERO PUSH2 0x3FFB JUMPI PUSH2 0x3FFB PUSH2 0x3A31 JUMP JUMPDEST POP SDIV SWAP1 JUMP JUMPDEST PUSH1 0x0 PUSH1 0x1 PUSH1 0xFF SHL DUP3 ADD PUSH2 0x4015 JUMPI PUSH2 0x4015 PUSH2 0x3A31 JUMP JUMPDEST POP PUSH1 0x0 SUB SWAP1 JUMP INVALID 0xDD CALLCODE MSTORE 0xAD SHL 0xE2 0xC8 SWAP12 PUSH10 0xC2B068FC378DAA952BA7 CALL PUSH4 0xC4A11628 CREATE2 GAS 0x4D CREATE2 0x23 0xB3 0xEF LOG2 PUSH5 0x6970667358 0x22 SLT KECCAK256 0x4A 0xEF CALLDATALOAD EXTCODESIZE 0x29 0xAA 0xA7 0xD0 GAS SWAP1 AND 0xE0 KECCAK256 0xD5 MSTORE8 0xB0 CALLDATALOAD 0xEA DIV MULMOD SUB 0xD5 PUSH15 0x873AD8CAEEDA7D07DB64736F6C6343 STOP ADDMOD SGT STOP CALLER "},"methodIdentifiers":{"BLOCKS_BETWEEN_TRADES()":"a7ea74b7","BUY_TAX()":"02af37bb","CURVE_DENOMINATOR()":"17d16bfb","MAX_OPERATORS()":"2b78c9f7","MAX_PRICE_IMPACT()":"6839b5fa","MAX_RESERVE_RATIO()":"1190016c","MAX_SUPPLY()":"32cb6b0c","MIN_PRICE_ANSWERS()":"683d0a0e","MIN_PRICE_CHANGE_INTERVAL()":"2f3892f5","MIN_PRICE_UPDATE_TIME()":"696cf8f0","MIN_SUPPLY()":"35917c64","PRICE_DECIMALS()":"f1a640f8","PRICE_FRESHNESS_PERIOD()":"5536487c","SELL_TAX()":"54ad8aee","TAX_DENOMINATOR()":"a51c9ace","TRACKED_DECIMALS()":"bba0e722","WITHDRAWAL_DELAY()":"0ebb172a","addOperator(address)":"9870d7fe","addSymbol(address)":"9954c217","allowance(address,address)":"dd62ed3e","approve(address,uint256)":"095ea7b3","balanceOf(address)":"70a08231","burnCurveRate()":"b608bbd0","buyTokens(string,uint256)":"dad7ae5a","closeLongPosition()":"53baf0ad","collectedTaxes()":"b7297057","completeWithdrawal(uint256)":"4f0cb5f3","deactivateSymbol(string)":"52c2c294","decimals()":"313ce567","emergencyShutdown()":"3403c2fc","emergencyWithdraw()":"db2e21bc","getPositionInfo(address)":"fbd1d25a","getSupportedSymbolsCount()":"9e18f399","getSymbolHash(string)":"3a7adc64","getSymbolInfo(string)":"9f65106c","getSymbolPrice(string)":"c4d2eb2e","initiateWithdrawal()":"b51d1d4f","lastTradeBlock(address)":"74db9d11","longPositions(address)":"ac511bc0","mintCurveRate()":"1e15d1a5","name()":"06fdde03","nextWithdrawalId()":"4a9122e3","openLongPosition(string)":"3a58c9c8","operatorCount()":"7c6f3158","operators(address)":"13e7c9d8","owner()":"8da5cb5b","pause()":"8456cb59","paused()":"5c975abb","pendingWithdrawals(uint256)":"e6150400","rebaseFactor()":"1cdd82dc","rebaseSupply()":"556f98fc","removeOperator(address)":"ac8a584a","sellTokens(string,uint256)":"5f576c44","supportedSymbols(uint256)":"932d68a6","symbol()":"95d89b41","symbolData(bytes32)":"36e1af4b","totalStaked()":"817b1cd2","totalSupply()":"18160ddd","trackedSymbol()":"cab7ac3a","transfer(address,uint256)":"a9059cbb","transferFrom(address,address,uint256)":"23b872dd","transferOwnership(address)":"f2fde38b","unpause()":"3f4ba83a","withdrawTaxes()":"46829831"}}}}}