{"contracts/ElasticToken.sol":{"ElasticToken":{"abi":[{"inputs":[],"stateMutability":"nonpayable","type":"constructor"},{"anonymous":false,"inputs":[{"indexed":true,"internalType":"address","name":"owner","type":"address"},{"indexed":true,"internalType":"address","name":"spender","type":"address"},{"indexed":false,"internalType":"uint256","name":"value","type":"uint256"}],"name":"Approval","type":"event"},{"anonymous":false,"inputs":[{"indexed":false,"internalType":"address","name":"by","type":"address"}],"name":"ContractPaused","type":"event"},{"anonymous":false,"inputs":[{"indexed":false,"internalType":"address","name":"by","type":"address"}],"name":"ContractUnpaused","type":"event"},{"anonymous":false,"inputs":[{"indexed":false,"internalType":"address","name":"by","type":"address"}],"name":"EmergencyShutdown","type":"event"},{"anonymous":false,"inputs":[{"indexed":true,"internalType":"address","name":"staker","type":"address"},{"indexed":false,"internalType":"uint256","name":"profit","type":"uint256"}],"name":"LongPositionClosed","type":"event"},{"anonymous":false,"inputs":[{"indexed":true,"internalType":"address","name":"staker","type":"address"},{"indexed":false,"internalType":"uint256","name":"ethAmount","type":"uint256"},{"indexed":false,"internalType":"int256","name":"entryPrice","type":"int256"}],"name":"LongPositionOpened","type":"event"},{"anonymous":false,"inputs":[{"indexed":false,"internalType":"address","name":"operator","type":"address"}],"name":"OperatorAdded","type":"event"},{"anonymous":false,"inputs":[{"indexed":false,"internalType":"address","name":"operator","type":"address"}],"name":"OperatorRemoved","type":"event"},{"anonymous":false,"inputs":[{"indexed":false,"internalType":"string","name":"symbol","type":"string"},{"indexed":false,"internalType":"int256","name":"price","type":"int256"},{"indexed":false,"internalType":"int256","name":"change","type":"int256"}],"name":"PriceTracked","type":"event"},{"anonymous":false,"inputs":[{"indexed":false,"internalType":"bytes32","name":"symbolHash","type":"bytes32"},{"indexed":false,"internalType":"int256","name":"price","type":"int256"},{"indexed":false,"internalType":"uint256","name":"impact","type":"uint256"}],"name":"PriceUpdateRejected","type":"event"},{"anonymous":false,"inputs":[{"indexed":false,"internalType":"int256","name":"oldPrice","type":"int256"},{"indexed":false,"internalType":"int256","name":"newPrice","type":"int256"},{"indexed":false,"internalType":"int256","name":"priceDelta","type":"int256"}],"name":"Rebase","type":"event"},{"anonymous":false,"inputs":[{"indexed":false,"internalType":"string","name":"symbol","type":"string"},{"indexed":false,"internalType":"address","name":"priceFeed","type":"address"}],"name":"SymbolAdded","type":"event"},{"anonymous":false,"inputs":[{"indexed":false,"internalType":"string","name":"symbol","type":"string"}],"name":"SymbolDeactivated","type":"event"},{"anonymous":false,"inputs":[{"indexed":false,"internalType":"uint256","name":"amount","type":"uint256"},{"indexed":false,"internalType":"bool","name":"isBuyTax","type":"bool"}],"name":"TaxCollected","type":"event"},{"anonymous":false,"inputs":[{"indexed":true,"internalType":"address","name":"from","type":"address"},{"indexed":true,"internalType":"address","name":"to","type":"address"},{"indexed":false,"internalType":"uint256","name":"value","type":"uint256"}],"name":"Transfer","type":"event"},{"anonymous":false,"inputs":[{"indexed":false,"internalType":"string","name":"symbol","type":"string"},{"indexed":false,"internalType":"address","name":"priceFeed","type":"address"},{"indexed":false,"internalType":"uint256","name":"targetPrice","type":"uint256"}],"name":"VirtualPairCreated","type":"event"},{"anonymous":false,"inputs":[{"indexed":false,"internalType":"uint256","name":"withdrawalId","type":"uint256"},{"indexed":false,"internalType":"uint256","name":"amount","type":"uint256"}],"name":"WithdrawalInitiated","type":"event"},{"inputs":[],"name":"BLOCKS_BETWEEN_TRADES","outputs":[{"internalType":"uint256","name":"","type":"uint256"}],"stateMutability":"view","type":"function"},{"inputs":[],"name":"BUY_TAX","outputs":[{"internalType":"uint256","name":"","type":"uint256"}],"stateMutability":"view","type":"function"},{"inputs":[],"name":"CURVE_DENOMINATOR","outputs":[{"internalType":"uint256","name":"","type":"uint256"}],"stateMutability":"view","type":"function"},{"inputs":[],"name":"MAX_OPERATORS","outputs":[{"internalType":"uint256","name":"","type":"uint256"}],"stateMutability":"view","type":"function"},{"inputs":[],"name":"MAX_PRICE_IMPACT","outputs":[{"internalType":"uint256","name":"","type":"uint256"}],"stateMutability":"view","type":"function"},{"inputs":[],"name":"MAX_RESERVE_RATIO","outputs":[{"internalType":"uint256","name":"","type":"uint256"}],"stateMutability":"view","type":"function"},{"inputs":[],"name":"MAX_SUPPLY","outputs":[{"internalType":"uint256","name":"","type":"uint256"}],"stateMutability":"view","type":"function"},{"inputs":[],"name":"MIN_PRICE_ANSWERS","outputs":[{"internalType":"uint256","name":"","type":"uint256"}],"stateMutability":"view","type":"function"},{"inputs":[],"name":"MIN_PRICE_CHANGE_INTERVAL","outputs":[{"internalType":"uint256","name":"","type":"uint256"}],"stateMutability":"view","type":"function"},{"inputs":[],"name":"MIN_PRICE_UPDATE_TIME","outputs":[{"internalType":"uint256","name":"","type":"uint256"}],"stateMutability":"view","type":"function"},{"inputs":[],"name":"MIN_SUPPLY","outputs":[{"internalType":"uint256","name":"","type":"uint256"}],"stateMutability":"view","type":"function"},{"inputs":[],"name":"PRICE_DECIMALS","outputs":[{"internalType":"uint256","name":"","type":"uint256"}],"stateMutability":"view","type":"function"},{"inputs":[],"name":"PRICE_FRESHNESS_PERIOD","outputs":[{"internalType":"uint256","name":"","type":"uint256"}],"stateMutability":"view","type":"function"},{"inputs":[],"name":"SELL_TAX","outputs":[{"internalType":"uint256","name":"","type":"uint256"}],"stateMutability":"view","type":"function"},{"inputs":[],"name":"TAX_DENOMINATOR","outputs":[{"internalType":"uint256","name":"","type":"uint256"}],"stateMutability":"view","type":"function"},{"inputs":[],"name":"TRACKED_DECIMALS","outputs":[{"internalType":"uint256","name":"","type":"uint256"}],"stateMutability":"view","type":"function"},{"inputs":[],"name":"VERSION","outputs":[{"internalType":"string","name":"","type":"string"}],"stateMutability":"view","type":"function"},{"inputs":[],"name":"WEBSITE","outputs":[{"internalType":"string","name":"","type":"string"}],"stateMutability":"view","type":"function"},{"inputs":[],"name":"WITHDRAWAL_DELAY","outputs":[{"internalType":"uint256","name":"","type":"uint256"}],"stateMutability":"view","type":"function"},{"inputs":[{"internalType":"address","name":"operator","type":"address"}],"name":"addOperator","outputs":[],"stateMutability":"nonpayable","type":"function"},{"inputs":[{"internalType":"address","name":"priceFeed","type":"address"}],"name":"addSymbol","outputs":[],"stateMutability":"nonpayable","type":"function"},{"inputs":[{"internalType":"address","name":"","type":"address"},{"internalType":"address","name":"","type":"address"}],"name":"allowance","outputs":[{"internalType":"uint256","name":"","type":"uint256"}],"stateMutability":"view","type":"function"},{"inputs":[{"internalType":"address","name":"_spender","type":"address"},{"internalType":"uint256","name":"_amount","type":"uint256"}],"name":"approve","outputs":[{"internalType":"bool","name":"","type":"bool"}],"stateMutability":"nonpayable","type":"function"},{"inputs":[{"internalType":"address","name":"","type":"address"}],"name":"balanceOf","outputs":[{"internalType":"uint256","name":"","type":"uint256"}],"stateMutability":"view","type":"function"},{"inputs":[],"name":"burnCurveRate","outputs":[{"internalType":"uint256","name":"","type":"uint256"}],"stateMutability":"view","type":"function"},{"inputs":[{"internalType":"string","name":"symbol_","type":"string"},{"internalType":"uint256","name":"minTokensOut_","type":"uint256"}],"name":"buyTokens","outputs":[{"internalType":"uint256","name":"","type":"uint256"}],"stateMutability":"payable","type":"function"},{"inputs":[],"name":"closeLongPosition","outputs":[],"stateMutability":"nonpayable","type":"function"},{"inputs":[],"name":"collectedTaxes","outputs":[{"internalType":"uint256","name":"","type":"uint256"}],"stateMutability":"view","type":"function"},{"inputs":[{"internalType":"uint256","name":"withdrawalId","type":"uint256"}],"name":"completeWithdrawal","outputs":[],"stateMutability":"nonpayable","type":"function"},{"inputs":[{"internalType":"string","name":"symbol_","type":"string"}],"name":"deactivateSymbol","outputs":[],"stateMutability":"nonpayable","type":"function"},{"inputs":[],"name":"decimals","outputs":[{"internalType":"uint8","name":"","type":"uint8"}],"stateMutability":"view","type":"function"},{"inputs":[],"name":"description","outputs":[{"internalType":"string","name":"","type":"string"}],"stateMutability":"view","type":"function"},{"inputs":[],"name":"emergencyShutdown","outputs":[],"stateMutability":"nonpayable","type":"function"},{"inputs":[],"name":"emergencyWithdraw","outputs":[],"stateMutability":"nonpayable","type":"function"},{"inputs":[{"internalType":"address","name":"staker","type":"address"}],"name":"getPositionInfo","outputs":[{"internalType":"string","name":"symbol_","type":"string"},{"internalType":"uint256","name":"ethAmount","type":"uint256"},{"internalType":"int256","name":"entryPrice","type":"int256"},{"internalType":"uint256","name":"timestamp","type":"uint256"},{"internalType":"int256","name":"currentPnL","type":"int256"}],"stateMutability":"view","type":"function"},{"inputs":[],"name":"getSupportedSymbolsCount","outputs":[{"internalType":"uint256","name":"","type":"uint256"}],"stateMutability":"view","type":"function"},{"inputs":[{"internalType":"string","name":"symbol_","type":"string"}],"name":"getSymbolHash","outputs":[{"internalType":"bytes32","name":"","type":"bytes32"}],"stateMutability":"pure","type":"function"},{"inputs":[{"internalType":"string","name":"symbol_","type":"string"}],"name":"getSymbolInfo","outputs":[{"internalType":"address","name":"priceFeed","type":"address"},{"internalType":"int256","name":"lastPrice","type":"int256"},{"internalType":"uint256","name":"reserveBalance","type":"uint256"},{"internalType":"bool","name":"active","type":"bool"}],"stateMutability":"view","type":"function"},{"inputs":[{"internalType":"string","name":"symbol_","type":"string"}],"name":"getSymbolPrice","outputs":[{"internalType":"int256","name":"price","type":"int256"}],"stateMutability":"view","type":"function"},{"inputs":[],"name":"getSystemInfo","outputs":[{"internalType":"string","name":"info","type":"string"}],"stateMutability":"pure","type":"function"},{"inputs":[],"name":"initiateWithdrawal","outputs":[],"stateMutability":"nonpayable","type":"function"},{"inputs":[{"internalType":"address","name":"","type":"address"},{"internalType":"string","name":"","type":"string"}],"name":"lastTradeBlock","outputs":[{"internalType":"uint256","name":"","type":"uint256"}],"stateMutability":"view","type":"function"},{"inputs":[{"internalType":"address","name":"","type":"address"}],"name":"longPositions","outputs":[{"internalType":"bytes32","name":"symbolHash","type":"bytes32"},{"internalType":"uint256","name":"ethAmount","type":"uint256"},{"internalType":"int256","name":"entryPrice","type":"int256"},{"internalType":"uint256","name":"timestamp","type":"uint256"}],"stateMutability":"view","type":"function"},{"inputs":[],"name":"mintCurveRate","outputs":[{"internalType":"uint256","name":"","type":"uint256"}],"stateMutability":"view","type":"function"},{"inputs":[],"name":"name","outputs":[{"internalType":"string","name":"","type":"string"}],"stateMutability":"view","type":"function"},{"inputs":[],"name":"nextWithdrawalId","outputs":[{"internalType":"uint256","name":"","type":"uint256"}],"stateMutability":"view","type":"function"},{"inputs":[{"internalType":"string","name":"symbol_","type":"string"}],"name":"openLongPosition","outputs":[],"stateMutability":"payable","type":"function"},{"inputs":[],"name":"operatorCount","outputs":[{"internalType":"uint256","name":"","type":"uint256"}],"stateMutability":"view","type":"function"},{"inputs":[{"internalType":"address","name":"","type":"address"}],"name":"operators","outputs":[{"internalType":"bool","name":"","type":"bool"}],"stateMutability":"view","type":"function"},{"inputs":[],"name":"owner","outputs":[{"internalType":"address","name":"","type":"address"}],"stateMutability":"view","type":"function"},{"inputs":[],"name":"pause","outputs":[],"stateMutability":"nonpayable","type":"function"},{"inputs":[],"name":"paused","outputs":[{"internalType":"bool","name":"","type":"bool"}],"stateMutability":"view","type":"function"},{"inputs":[{"internalType":"uint256","name":"","type":"uint256"}],"name":"pendingWithdrawals","outputs":[{"internalType":"uint256","name":"","type":"uint256"}],"stateMutability":"view","type":"function"},{"inputs":[],"name":"rebaseFactor","outputs":[{"internalType":"uint256","name":"","type":"uint256"}],"stateMutability":"view","type":"function"},{"inputs":[],"name":"rebaseSupply","outputs":[],"stateMutability":"nonpayable","type":"function"},{"inputs":[{"internalType":"address","name":"operator","type":"address"}],"name":"removeOperator","outputs":[],"stateMutability":"nonpayable","type":"function"},{"inputs":[{"internalType":"string","name":"symbol_","type":"string"},{"internalType":"uint256","name":"tokenAmount","type":"uint256"}],"name":"sellTokens","outputs":[],"stateMutability":"nonpayable","type":"function"},{"inputs":[{"internalType":"uint256","name":"","type":"uint256"}],"name":"supportedSymbols","outputs":[{"internalType":"bytes32","name":"","type":"bytes32"}],"stateMutability":"view","type":"function"},{"inputs":[],"name":"symbol","outputs":[{"internalType":"string","name":"","type":"string"}],"stateMutability":"view","type":"function"},{"inputs":[{"internalType":"bytes32","name":"","type":"bytes32"}],"name":"symbolData","outputs":[{"internalType":"string","name":"symbol","type":"string"},{"internalType":"address","name":"priceFeed","type":"address"},{"internalType":"int256","name":"lastPrice","type":"int256"},{"internalType":"uint256","name":"reserveBalance","type":"uint256"},{"internalType":"bool","name":"active","type":"bool"},{"internalType":"uint256","name":"lastRebase","type":"uint256"},{"internalType":"uint256","name":"targetPrice","type":"uint256"}],"stateMutability":"view","type":"function"},{"inputs":[],"name":"totalStaked","outputs":[{"internalType":"uint256","name":"","type":"uint256"}],"stateMutability":"view","type":"function"},{"inputs":[],"name":"totalSupply","outputs":[{"internalType":"uint256","name":"","type":"uint256"}],"stateMutability":"view","type":"function"},{"inputs":[],"name":"trackedSymbol","outputs":[{"internalType":"string","name":"","type":"string"}],"stateMutability":"view","type":"function"},{"inputs":[{"internalType":"address","name":"_to","type":"address"},{"internalType":"uint256","name":"_amount","type":"uint256"}],"name":"transfer","outputs":[{"internalType":"bool","name":"","type":"bool"}],"stateMutability":"nonpayable","type":"function"},{"inputs":[{"internalType":"address","name":"_from","type":"address"},{"internalType":"address","name":"_to","type":"address"},{"internalType":"uint256","name":"_amount","type":"uint256"}],"name":"transferFrom","outputs":[{"internalType":"bool","name":"","type":"bool"}],"stateMutability":"nonpayable","type":"function"},{"inputs":[{"internalType":"address","name":"newOwner","type":"address"}],"name":"transferOwnership","outputs":[],"stateMutability":"nonpayable","type":"function"},{"inputs":[],"name":"unpause","outputs":[],"stateMutability":"nonpayable","type":"function"},{"inputs":[],"name":"withdrawTaxes","outputs":[],"stateMutability":"nonpayable","type":"function"},{"stateMutability":"payable","type":"receive"}],"evm":{"bytecode":{"linkReferences":{},"object":"60c0604052601460809081527f456c61737469632047726f77746820546f6b656e00000000000000000000000060a052600a906200003e9082620001c4565b506040805180820190915260058152644547524f5760d81b6020820152600b906200006a9082620001c4565b506040518060600160405280603581526020016200476260359139600c90620000949082620001c4565b50600d805460ff19166012908117909155620f4240601155611f409055612ee0601355348015620000c457600080fd5b50600680546001600160a01b031916339081179091556001600081815569021e19e0c9bab2400000600e819055928152600f60209081526040808320949094556004905291909120805460ff19168217905560055562000290565b634e487b7160e01b600052604160045260246000fd5b600181811c908216806200014a57607f821691505b6020821081036200016b57634e487b7160e01b600052602260045260246000fd5b50919050565b601f821115620001bf57600081815260208120601f850160051c810160208610156200019a5750805b601f850160051c820191505b81811015620001bb57828155600101620001a6565b5050505b505050565b81516001600160401b03811115620001e057620001e06200011f565b620001f881620001f1845462000135565b8462000171565b602080601f831160018114620002305760008415620002175750858301515b600019600386901b1c1916600185901b178555620001bb565b600085815260208120601f198616915b82811015620002615788860151825594840194600190910190840162000240565b5085821015620002805787850151600019600388901b60f8161c191681555b5050505050600190811b01905550565b6144c280620002a06000396000f3fe6080604052600436106103f35760003560e01c8063696cf8f011610208578063a9059cbb11610118578063cab7ac3a116100ab578063e61504001161007a578063e615040014610b3c578063f1a640f814610a92578063f2fde38b14610b69578063fbd1d25a14610b89578063ffa1ad7414610bba57600080fd5b8063cab7ac3a14610ac7578063dad7ae5a14610adc578063db2e21bc14610aef578063dd62ed3e14610b0457600080fd5b8063b608bbd0116100e7578063b608bbd014610a66578063b729705714610a7c578063bba0e72214610a92578063c4d2eb2e14610aa757600080fd5b8063a9059cbb146109af578063ac511bc0146109cf578063ac8a584a14610a31578063b51d1d4f14610a5157600080fd5b8063932d68a61161019b5780639954c2171161016a5780639954c217146109195780639e18f399146109395780639f65106c1461094e578063a51c9ace146104c1578063a7ea74b71461099a57600080fd5b8063932d68a61461087b578063948afdae1461089b57806395d89b41146108e45780639870d7fe146108f957600080fd5b80637c6f3158116101d75780637c6f315814610802578063817b1cd2146108185780638456cb591461082e5780638da5cb5b1461084357600080fd5b8063696cf8f01461071b5780636cb69f42146107ab57806370a08231146107c05780637284e416146107ed57600080fd5b806335917c641161030357806352c2c29411610296578063556f98fc11610265578063556f98fc146107315780635c975abb146107465780635f576c44146107605780636839b5fa14610780578063683d0a0e1461079657600080fd5b806352c2c294146106e657806353baf0ad1461070657806354ad8aee146103ff5780635536487c1461071b57600080fd5b80633f4ba83a116102d25780633f4ba83a14610686578063468298311461069b5780634a9122e3146106b05780634f0cb5f3146106c657600080fd5b806335917c641461060357806336e1af4b146106205780633a58c9c8146106535780633a7adc641461066657600080fd5b80631cdd82dc116103865780632b78c9f7116103555780632b78c9f7146105785780632f3892f51461058d578063313ce567146105a257806332cb6b0c146105ce5780633403c2fc146105ec57600080fd5b80631cdd82dc146104ed5780631e15d1a51461050357806323b872dd14610519578063283dc96f1461053957600080fd5b80631190016c116103c25780631190016c146103ff57806313e7c9d81461049157806317d16bfb146104c157806318160ddd146104d757600080fd5b806302af37bb146103ff57806306fdde0314610428578063095ea7b31461044a5780630ebb172a1461047a57600080fd5b366103fa57005b600080fd5b34801561040b57600080fd5b506104156101f481565b6040519081526020015b60405180910390f35b34801561043457600080fd5b5061043d610beb565b60405161041f91906138e5565b34801561045657600080fd5b5061046a61046536600461391b565b610c79565b604051901515815260200161041f565b34801561048657600080fd5b506104156202a30081565b34801561049d57600080fd5b5061046a6104ac366004613945565b60046020526000908152604090205460ff1681565b3480156104cd57600080fd5b5061041561271081565b3480156104e357600080fd5b50610415600e5481565b3480156104f957600080fd5b5061041560115481565b34801561050f57600080fd5b5061041560135481565b34801561052557600080fd5b5061046a610534366004613960565b610cde565b34801561054557600080fd5b5061043d604051806040016040528060138152602001721a1d1d1c1cce8bcbd95b185cdd1a58cb9b1bdb606a1b81525081565b34801561058457600080fd5b50610415600581565b34801561059957600080fd5b50610415600f81565b3480156105ae57600080fd5b50600d546105bc9060ff1681565b60405160ff909116815260200161041f565b3480156105da57600080fd5b5061041569d3c21bcecceda100000081565b3480156105f857600080fd5b50610601610e7f565b005b34801561060f57600080fd5b50610415683635c9adc5dea0000081565b34801561062c57600080fd5b5061064061063b36600461399c565b610ef1565b60405161041f97969594939291906139b5565b610601610661366004613a4b565b610fc3565b34801561067257600080fd5b50610415610681366004613b52565b61130c565b34801561069257600080fd5b5061060161133c565b3480156106a757600080fd5b506106016113e4565b3480156106bc57600080fd5b5061041560185481565b3480156106d257600080fd5b506106016106e136600461399c565b611502565b3480156106f257600080fd5b50610601610701366004613a4b565b61169d565b34801561071257600080fd5b506106016117b8565b34801561072757600080fd5b50610415610e1081565b34801561073d57600080fd5b50610601611aca565b34801561075257600080fd5b5060035461046a9060ff1681565b34801561076c57600080fd5b5061060161077b366004613b8f565b611b3f565b34801561078c57600080fd5b506104156103e881565b3480156107a257600080fd5b50610415606481565b3480156107b757600080fd5b5061043d61206a565b3480156107cc57600080fd5b506104156107db366004613945565b600f6020526000908152604090205481565b3480156107f957600080fd5b5061043d61208d565b34801561080e57600080fd5b5061041560055481565b34801561082457600080fd5b5061041560155481565b34801561083a57600080fd5b5061060161209a565b34801561084f57600080fd5b50600654610863906001600160a01b031681565b6040516001600160a01b03909116815260200161041f565b34801561088757600080fd5b5061041561089636600461399c565b61214a565b3480156108a757600080fd5b506104156108b6366004613bdb565b6002602090815260009283526040909220815180830184018051928152908401929093019190912091525481565b3480156108f057600080fd5b5061043d61216b565b34801561090557600080fd5b50610601610914366004613945565b612178565b34801561092557600080fd5b50610601610934366004613945565b6122ba565b34801561094557600080fd5b50600954610415565b34801561095a57600080fd5b5061096e610969366004613a4b565b6126d5565b604080516001600160a01b0390951685526020850193909352918301521515606082015260800161041f565b3480156109a657600080fd5b50610415600181565b3480156109bb57600080fd5b5061046a6109ca36600461391b565b61275d565b3480156109db57600080fd5b50610a116109ea366004613945565b60146020526000908152604090208054600182015460028301546003909301549192909184565b60408051948552602085019390935291830152606082015260800161041f565b348015610a3d57600080fd5b50610601610a4c366004613945565b61282c565b348015610a5d57600080fd5b5061060161296d565b348015610a7257600080fd5b5061041560125481565b348015610a8857600080fd5b5061041560075481565b348015610a9e57600080fd5b50610415600881565b348015610ab357600080fd5b50610415610ac2366004613a4b565b612a09565b348015610ad357600080fd5b5061043d612b2b565b610415610aea366004613c29565b612b38565b348015610afb57600080fd5b506106016130ae565b348015610b1057600080fd5b50610415610b1f366004613c6e565b601060209081526000928352604080842090915290825290205481565b348015610b4857600080fd5b50610415610b5736600461399c565b60176020526000908152604090205481565b348015610b7557600080fd5b50610601610b84366004613945565b613120565b348015610b9557600080fd5b50610ba9610ba4366004613945565b6131b4565b60405161041f959493929190613ca1565b348015610bc657600080fd5b5061043d604051806040016040528060058152602001640312e302e360dc1b81525081565b600a8054610bf890613cd8565b80601f0160208091040260200160405190810160405280929190818152602001828054610c2490613cd8565b8015610c715780601f10610c4657610100808354040283529160200191610c71565b820191906000526020600020905b815481529060010190602001808311610c5457829003601f168201915b505050505081565b3360008181526010602090815260408083206001600160a01b038716845282528083208590555184815291929182917f8c5be1e5ebec7d5bd14f71427d1e84f3dd0314c0f7b2291e5b200ac8c7c3b92591015b60405180910390a35060015b92915050565b6001600160a01b0383166000908152600f6020526040812054821115610d3f5760405162461bcd60e51b81526020600482015260116024820152704e6f7420656e6f75676820746f6b656e7360781b60448201526064015b60405180910390fd5b6001600160a01b0384166000908152601060209081526040808320338452909152902054821115610da65760405162461bcd60e51b8152602060048201526011602482015270416c6c6f77616e636520746f6f206c6f7760781b6044820152606401610d36565b6001600160a01b038416600090815260106020908152604080832033845290915281208054849290610dd9908490613d28565b90915550506001600160a01b0384166000908152600f602052604081208054849290610e06908490613d28565b90915550506001600160a01b0383166000908152600f602052604081208054849290610e33908490613d3b565b92505081905550826001600160a01b0316846001600160a01b031660008051602061434a83398151915284604051610e6d91815260200190565b60405180910390a35060019392505050565b3360009081526004602052604090205460ff16610eae5760405162461bcd60e51b8152600401610d3690613d4e565b6003805460ff191660011790556040513381527f1fc1e771236d2e93bb9541cdcb4654ba0fd3fb615b48d829b7b365f039985126906020015b60405180910390a1565b600860205260009081526040902080548190610f0c90613cd8565b80601f0160208091040260200160405190810160405280929190818152602001828054610f3890613cd8565b8015610f855780601f10610f5a57610100808354040283529160200191610f85565b820191906000526020600020905b815481529060010190602001808311610f6857829003601f168201915b5050506001840154600285015460038601546004870154600588015460069098015496976001600160a01b039094169692955090935060ff16919087565b600260005403610fe55760405162461bcd60e51b8152600401610d3690613d77565b6002600081815560408051808201825260048152636c6f6e6760e01b602080830191909152338452939093529081902090514391600191611027908590613dae565b9081526020016040518091039020546110409190613d3b565b1061105d5760405162461bcd60e51b8152600401610d3690613dca565b3360009081526002602052604090819020905143919061107e908490613dae565b9081526040519081900360200190205560035460ff16156110b15760405162461bcd60e51b8152600401610d3690613e11565b60006110f284848080601f01602080910402602001604051908101604052809392919081815260200183838082843760009201919091525061130c92505050565b60008181526008602052604090206004015490915060ff166111265760405162461bcd60e51b8152600401610d3690613e3d565b67016345785d8a000034101561116c5760405162461bcd60e51b815260206004820152600b60248201526a09ad2dc40605c62408aa8960ab1b6044820152606401610d36565b33600090815260146020526040902060010154156111be5760405162461bcd60e51b815260206004820152600f60248201526e506f736974696f6e2065786973747360881b6044820152606401610d36565b600081815260086020526040808220600101548151633fabe5a360e21b815291516001600160a01b039091169163feaf968c9160048083019260a09291908290030181865afa158015611215573d6000803e3d6000fd5b505050506040513d601f19601f820116820180604052508101906112399190613e82565b5050509150506000811361125f5760405162461bcd60e51b8152600401610d3690613ed2565b60408051608081018252838152346020808301828152838501868152426060860190815233600090815260149094529583209451855590516001850155516002840155925160039092019190915560158054919290916112c0908490613d3b565b9091555050604080513481526020810183905233917ff4ba3ebcd3c40319f1834baa786a0f71b5a4b6015addb0db1fcf2b1377f64e1b910160405180910390a250506001600055505050565b60008160405160200161131f9190613dae565b604051602081830303815290604052805190602001209050919050565b3360009081526004602052604090205460ff1661136b5760405162461bcd60e51b8152600401610d3690613d4e565b60035460ff166113aa5760405162461bcd60e51b815260206004820152600a602482015269139bdd081c185d5cd95960b21b6044820152606401610d36565b6003805460ff191690556040513381527f5b65b0c1363b3003db9bcc5e1fd8805a6d6bf5bf6dc9d3431ee4494cd7d1176690602001610ee7565b6006546001600160a01b0316331461140e5760405162461bcd60e51b8152600401610d3690613ef9565b6000600754116114575760405162461bcd60e51b81526020600482015260146024820152734e6f20746178657320746f20776974686472617760601b6044820152606401610d36565b600780546000918290556006546040519192916001600160a01b039091169083908381818185875af1925050503d80600081146114b0576040519150601f19603f3d011682016040523d82523d6000602084013e6114b5565b606091505b50509050806114fe5760405162461bcd60e51b815260206004820152601560248201527415185e081dda5d1a191c985dd85b0819985a5b1959605a1b6044820152606401610d36565b5050565b6006546001600160a01b0316331461152c5760405162461bcd60e51b8152600401610d3690613ef9565b60008181526017602052604090205461157c5760405162461bcd60e51b8152602060048201526012602482015271125b9d985b1a59081dda5d1a191c985dd85b60721b6044820152606401610d36565b600081815260176020526040902054611599906202a30090613d3b565b4210156115e85760405162461bcd60e51b815260206004820152601860248201527f5769746864726177616c2064656c6179206e6f74206d657400000000000000006044820152606401610d36565b600780546000918290558282526017602052604080832083905560065490519192916001600160a01b039091169083908381818185875af1925050503d8060008114611650576040519150601f19603f3d011682016040523d82523d6000602084013e611655565b606091505b50509050806116985760405162461bcd60e51b815260206004820152600f60248201526e151c985b9cd9995c8819985a5b1959608a1b6044820152606401610d36565b505050565b60006116de83838080601f01602080910402602001604051908101604052809392919081815260200183838082843760009201919091525061130c92505050565b60008181526008602052604090206004015490915060ff166117365760405162461bcd60e51b815260206004820152601160248201527053796d626f6c206e6f742061637469766560781b6044820152606401610d36565b6006546001600160a01b031633146117605760405162461bcd60e51b8152600401610d3690613ef9565b60008181526008602052604090819020600401805460ff19169055517f2b06be561ee99526dc571a9cfd3ae9a218fc9ac34fc8cb888c742fcb40a7d226906117ab9085908590613f1d565b60405180910390a1505050565b6002600054036117da5760405162461bcd60e51b8152600401610d3690613d77565b60026000818155338152601460209081526040918290208251608081018452815481526001820154928101839052938101549284019290925260039091015460608301526118585760405162461bcd60e51b815260206004820152600b60248201526a2737903837b9b4ba34b7b760a91b6044820152606401610d36565b805160009081526008602052604080822060018101548251633fabe5a360e21b815292519193926001600160a01b039091169163feaf968c9160048082019260a0929091908290030181865afa1580156118b6573d6000803e3d6000fd5b505050506040513d601f19601f820116820180604052508101906118da9190613e82565b505050915050600081136119005760405162461bcd60e51b8152600401610d3690613ed2565b60008360400151826119129190613f4c565b90506000808213156119a55784604001518286602001516119339190613f6c565b61193d9190613f99565b9050836003015481111561198b5760405162461bcd60e51b8152602060048201526015602482015274496e73756666696369656e7420726573657276657360581b6044820152606401610d36565b8084600301600082825461199f9190613d28565b90915550505b8460200151601560008282546119bb9190613d28565b9091555050336000908152601460209081526040822082815560018101839055600281018390556003018290558601516119f6908390613d3b565b604051909150600090339083908381818185875af1925050503d8060008114611a3b576040519150601f19603f3d011682016040523d82523d6000602084013e611a40565b606091505b5050905080611a875760405162461bcd60e51b8152602060048201526013602482015272115512081d1c985b9cd9995c8819985a5b1959606a1b6044820152606401610d36565b60405183815233907fe26feab862b8dc2729bd359c56323c001ef16cd20eae9fc4e0d461a6f0f29f159060200160405180910390a2505060016000555050505050565b60005b600954811015611b3c57600060098281548110611aec57611aec613fad565b60009182526020808320909101548083526008909152604090912060048101549192509060ff16611b1e575050611b2a565b611b27826133b9565b50505b80611b3481613fc3565b915050611acd565b50565b600260005403611b615760405162461bcd60e51b8152600401610d3690613d77565b6002600081815560408051808201825260048152631cd95b1b60e21b602080830191909152338452939093529081902090514391600191611ba3908590613dae565b908152602001604051809103902054611bbc9190613d3b565b10611bd95760405162461bcd60e51b8152600401610d3690613dca565b33600090815260026020526040908190209051439190611bfa908490613dae565b9081526040519081900360200190205560035460ff1615611c2d5760405162461bcd60e51b8152600401610d3690613e11565b6000611c6e85858080601f01602080910402602001604051908101604052809392919081815260200183838082843760009201919091525061130c92505050565b600081815260086020526040902090915083611ccc5760405162461bcd60e51b815260206004820152601760248201527f416d6f756e74206d75737420626520706f7369746976650000000000000000006044820152606401610d36565b336000908152600f6020526040902054841115611d225760405162461bcd60e51b8152602060048201526014602482015273496e73756666696369656e742062616c616e636560601b6044820152606401610d36565b600060086000611d4c6040518060400160405280600381526020016208aa8960eb1b81525061130c565b815260200190815260200160002060010160009054906101000a90046001600160a01b03166001600160a01b031663feaf968c6040518163ffffffff1660e01b815260040160a060405180830381865afa158015611dae573d6000803e3d6000fd5b505050506040513d601f19601f82011682018060405250810190611dd29190613e82565b50505091505060008113611e1c5760405162461bcd60e51b8152602060048201526011602482015270496e76616c69642045544820707269636560781b6044820152606401610d36565b6000611e288888612a09565b600d54909150600090611e3f9060ff16600a6140c0565b611e498389613f6c565b611e539190613f99565b9050600083611e646008600a6140cf565b611e6e9084613f6c565b611e789190613f99565b90506000612710611e8b6101f484613f6c565b611e959190613f99565b90506000611ea38284613d28565b90508160076000828254611eb79190613d3b565b90915550506003870154831115611f075760405162461bcd60e51b8152602060048201526014602482015273496e73756666696369656e74207265736572766560601b6044820152606401610d36565b6101f48760030154611f199190613f6c565b611f2584612710613f6c565b1115611f6b5760405162461bcd60e51b8152602060048201526015602482015274151bdbc81b5d58da081c1c9a58d9481a5b5c1858dd605a1b6044820152606401610d36565b82876003016000828254611f7f9190613d28565b90915550611f8f9050338b61374c565b604051600090339083908381818185875af1925050503d8060008114611fd1576040519150601f19603f3d011682016040523d82523d6000602084013e611fd6565b606091505b505090508061201d5760405162461bcd60e51b8152602060048201526013602482015272115512081d1c985b9cd9995c8819985a5b1959606a1b6044820152606401610d36565b60408051848152600060208201527f39f668d6f1b4338891dc891669079f6724a94b39e1ce3570bcfc68b2c036ff5e910160405180910390a1505060016000555050505050505050505050565b6060604051806101600160405280610123815260200161436a6101239139905090565b600c8054610bf890613cd8565b3360009081526004602052604090205460ff166120c95760405162461bcd60e51b8152600401610d3690613d4e565b60035460ff161561210d5760405162461bcd60e51b815260206004820152600e60248201526d105b1c9958591e481c185d5cd95960921b6044820152606401610d36565b6003805460ff191660011790556040513381527f81990fd9a5c552b8e3677917d8a03c07678f0d2cb68f88b634aca2022e9bd19f90602001610ee7565b6009818154811061215a57600080fd5b600091825260209091200154905081565b600b8054610bf890613cd8565b6006546001600160a01b031633146121a25760405162461bcd60e51b8152600401610d3690613ef9565b6001600160a01b03811660009081526004602052604090205460ff16156121fe5760405162461bcd60e51b815260206004820152601060248201526f20b63932b0b23c9037b832b930ba37b960811b6044820152606401610d36565b60058054106122445760405162461bcd60e51b8152602060048201526012602482015271546f6f206d616e79206f70657261746f727360701b6044820152606401610d36565b6001600160a01b0381166000908152600460205260408120805460ff19166001179055600580549161227583613fc3565b90915550506040516001600160a01b03821681527fac6fa858e9350a46cec16539926e0fde25b7629f84b5a72bffaae4df888ae86d906020015b60405180910390a150565b60008190506000816001600160a01b0316637284e4166040518163ffffffff1660e01b8152600401600060405180830381865afa1580156122ff573d6000803e3d6000fd5b505050506040513d6000823e601f3d908101601f1916820160405261232791908101906140db565b905060008151116123695760405162461bcd60e51b815260206004820152600c60248201526b115b5c1d1e481cde5b589bdb60a21b6044820152606401610d36565b60006123748261130c565b60008181526008602052604090206004015490915060ff16156123d15760405162461bcd60e51b815260206004820152601560248201527453796d626f6c20616c72656164792065786973747360581b6044820152606401610d36565b6000806000806000876001600160a01b031663feaf968c6040518163ffffffff1660e01b815260040160a060405180830381865afa158015612417573d6000803e3d6000fd5b505050506040513d601f19601f8201168201806040525081019061243b9190613e82565b94509450945094509450600084136124655760405162461bcd60e51b8152600401610d3690613ed2565b612471610e1042613d28565b8210156124b55760405162461bcd60e51b8152602060048201526012602482015271141c9a58d94819995959081d1bdbc81bdb1960721b6044820152606401610d36565b846001600160501b0316816001600160501b0316101561250a5760405162461bcd60e51b815260206004820152601060248201526f50726963652066656564207374616c6560801b6044820152606401610d36565b6064856001600160501b031610156125595760405162461bcd60e51b81526020600482015260126024820152715072696365206665656420746f6f206e657760701b6044820152606401610d36565b6040805160e0810182528881526001600160a01b038b16602080830191909152818301879052600060608301819052600160808401524260a084015260c08301819052898152600890915291909120815181906125b690826141a0565b506020820151600182810180546001600160a01b0319166001600160a01b0390931692909217909155604080840151600284015560608401516003840155608084015160048401805460ff191691151591909117905560a0840151600584015560c0909301516006909201919091556009805491820181556000527f6e1540171b6c0c960b71a7020d9f60077f6af931a8bbf590da0223dacf75c7af01879055517f27da68ee2ad2c8bbe20c961595d7723244c182397720afdfeca8ee27e2294125906126869089908c90614260565b60405180910390a17f01599b4e126293be57d72206204c56b4a759f01362ef078da9aa157ac4120f17878a60006040516126c29392919061428a565b60405180910390a1505050505050505050565b600080600080600061271c87878080601f01602080910402602001604051908101604052809392919081815260200183838082843760009201919091525061130c92505050565b60009081526008602052604090206001810154600282015460038301546004909301546001600160a01b039092169a90995091975060ff1695509350505050565b336000908152600f60205260408120548211156127b05760405162461bcd60e51b81526020600482015260116024820152704e6f7420656e6f75676820746f6b656e7360781b6044820152606401610d36565b336000908152600f6020526040812080548492906127cf908490613d28565b90915550506001600160a01b0383166000908152600f6020526040812080548492906127fc908490613d3b565b90915550506040518281526001600160a01b03841690339060008051602061434a83398151915290602001610ccc565b6006546001600160a01b031633146128565760405162461bcd60e51b8152600401610d3690613ef9565b6001600160a01b03811660009081526004602052604090205460ff166128ad5760405162461bcd60e51b815260206004820152600c60248201526b2737ba1037b832b930ba37b960a11b6044820152606401610d36565b6006546001600160a01b03908116908216036129015760405162461bcd60e51b815260206004820152601360248201527221b0b73737ba103932b6b7bb329037bbb732b960691b6044820152606401610d36565b6001600160a01b0381166000908152600460205260408120805460ff19169055600580549161292f836142b8565b90915550506040516001600160a01b03821681527f80c0b871b97b595b16a7741c1b06fed0c6f6f558639f18ccbce50724325dc40d906020016122af565b6006546001600160a01b031633146129975760405162461bcd60e51b8152600401610d3690613ef9565b6000600754116129e05760405162461bcd60e51b81526020600482015260146024820152734e6f20746178657320746f20776974686472617760601b6044820152606401610d36565b60188054600091826129f183613fc3565b90915550600090815260176020526040902042905550565b600080612a4b84848080601f01602080910402602001604051908101604052809392919081815260200183838082843760009201919091525061130c92505050565b60008181526008602052604090206004015490915060ff16612a7f5760405162461bcd60e51b8152600401610d3690613e3d565b60008181526008602052604090819020600101548151633fabe5a360e21b815291516001600160a01b039091169163feaf968c9160048083019260a09291908290030181865afa158015612ad7573d6000803e3d6000fd5b505050506040513d601f19601f82011682018060405250810190612afb9190613e82565b5091945050600084139150612b2490505760405162461bcd60e51b8152600401610d3690613ed2565b5092915050565b60168054610bf890613cd8565b6000600260005403612b5c5760405162461bcd60e51b8152600401610d3690613d77565b60026000818155604080518082018252600381526262757960e81b602080830191909152338452939093529081902090514391600191612b9d908590613dae565b908152602001604051809103902054612bb69190613d3b565b10612bd35760405162461bcd60e51b8152600401610d3690613dca565b33600090815260026020526040908190209051439190612bf4908490613dae565b9081526040519081900360200190205560035460ff1615612c275760405162461bcd60e51b8152600401610d3690613e11565b6000612c328561130c565b60008181526008602052604090206004015490915060ff16612c665760405162461bcd60e51b8152600401610d3690613e3d565b600081815260086020526040902034612cb35760405162461bcd60e51b815260206004820152600f60248201526e53656e642045544820746f2062757960881b6044820152606401610d36565b6000612710612cc46101f434613f6c565b612cce9190613f99565b90506000612cdc8234613d28565b90508160076000828254612cf09190613d3b565b925050819055506000612d1d6040518060400160405280600381526020016208aa8960eb1b81525061130c565b60008181526008602052604090206004015490915060ff16612d815760405162461bcd60e51b815260206004820152601c60248201527f4d697373696e67206f7220696e616374697665204554482066656564000000006044820152606401610d36565b600081815260086020526040808220600101548151633fabe5a360e21b815291516001600160a01b039091169163feaf968c9160048083019260a09291908290030181865afa158015612dd8573d6000803e3d6000fd5b505050506040513d601f19601f82011682018060405250810190612dfc9190613e82565b50505091505060008113612e465760405162461bcd60e51b8152602060048201526011602482015270496e76616c69642045544820707269636560781b6044820152606401610d36565b600185015460408051633fabe5a360e21b815290516000926001600160a01b03169163feaf968c9160048083019260a09291908290030181865afa158015612e92573d6000803e3d6000fd5b505050506040513d601f19601f82011682018060405250810190612eb69190613e82565b50505091505060008113612f025760405162461bcd60e51b8152602060048201526013602482015272496e76616c696420746f6b656e20707269636560681b6044820152606401610d36565b6000612f106008600a6140cf565b612f1a8487613f6c565b612f249190613f99565b600d549091506000908390612f3d9060ff16600a6140c0565b612f479084613f6c565b612f519190613f99565b90506000600e5469d3c21bcecceda1000000612f6d9190613d28565b905080821115612f7b578091505b81600003612f965760009b50505050505050505050506130a2565b8c821015612fda5760405162461bcd60e51b81526020600482015260116024820152700a6d8d2e0e0c2ceca40e8dede40d0d2ced607b1b6044820152606401610d36565b34896003016000828254612fee9190613d3b565b90915550612ffe90503383613825565b60408051898152600160208201527f39f668d6f1b4338891dc891669079f6724a94b39e1ce3570bcfc68b2c036ff5e910160405180910390a1604051600090819033906001908381818185875af1925050503d806000811461307c576040519150601f19603f3d011682016040523d82523d6000602084013e613081565b606091505b50915091508161309357805160208201fd5b50919b50505050505050505050505b50600160005592915050565b6006546001600160a01b031633146130d85760405162461bcd60e51b8152600401610d3690613ef9565b6006546007546001600160a01b03909116906108fc906130f89047613d28565b6040518115909202916000818181858888f19350505050158015611b3c573d6000803e3d6000fd5b6006546001600160a01b0316331461314a5760405162461bcd60e51b8152600401610d3690613ef9565b6001600160a01b0381166131925760405162461bcd60e51b815260206004820152600f60248201526e496e76616c6964206164647265737360881b6044820152606401610d36565b600680546001600160a01b0319166001600160a01b0392909216919091179055565b6001600160a01b03811660009081526014602090815260408083208151608081018352815481526001820154938101849052600282015492810192909252600301546060828101919091529291829182918291906132425760405162461bcd60e51b815260206004820152600b60248201526a2737903837b9b4ba34b7b760a91b6044820152606401610d36565b805160009081526008602052604080822060018101548251633fabe5a360e21b815292519193926001600160a01b039091169163feaf968c9160048082019260a0929091908290030181865afa1580156132a0573d6000803e3d6000fd5b505050506040513d601f19601f820116820180604052508101906132c49190613e82565b50505091505060008360400151826132dc9190613f4c565b9050600084604001518286602001516132f591906142cf565b6132ff91906142ff565b9050836000018560200151866040015187606001518484805461332190613cd8565b80601f016020809104026020016040519081016040528092919081815260200182805461334d90613cd8565b801561339a5780601f1061336f5761010080835404028352916020019161339a565b820191906000526020600020905b81548152906001019060200180831161337d57829003601f168201915b5050505050945099509950995099509950505050505091939590929450565b60008181526008602052604080822060018101548251633fabe5a360e21b8152925191939283928392839283926001600160a01b039092169163feaf968c9160048082019260a0929091908290030181865afa15801561341d573d6000803e3d6000fd5b505050506040513d601f19601f820116820180604052508101906134419190613e82565b94509450945094509450846001600160501b0316816001600160501b0316101561349b5760405162461bcd60e51b815260206004820152600b60248201526a5374616c6520707269636560a81b6044820152606401610d36565b610e106134a88342613d28565b11156134e65760405162461bcd60e51b815260206004820152600d60248201526c141c9a58d9481d1bdbc81bdb19609a1b6044820152606401610d36565b600084136135065760405162461bcd60e51b8152600401610d3690613ed2565b60008660020154856135189190613f4c565b9050600080821315613546576002880154613535836127106142cf565b61353f91906142ff565b9050613591565b60006135518361432d565b905060008960020154826127106135689190613f6c565b6135729190613f99565b905061138881111561358357506113885b61358c8161432d565b925050505b60008113156136505760006103e8600e5460016135ae9190613f6c565b6135b89190613f99565b9050600061271083600e546135cd9190613f6c565b6135d79190613f99565b905080156135ec576135e98183613d3b565b91505b69d3c21bcecceda100000082600e546136059190613d3b565b111561362557600e546136229069d3c21bcecceda1000000613d28565b91505b8160000361363957670de0b6b3a764000091505b8115613649576136493383613825565b50506136f8565b60008112156136f85760006136648261432d565b9050600061271082600e546136799190613f6c565b6136839190613f99565b905080156136f557683635c9adc5dea0000081600e546136a39190613d28565b10156136c357683635c9adc5dea00000600e546136c09190613d28565b90505b336000908152600f60205260409020548181106136e9576136e4338361374c565b6136f3565b6136f3338261374c565b505b50505b6002880154604080519182526020820188905281018390527fd61dc40ef1106764e1d9eb364856a6143485951a5d6fbb5fbdff5de65a5695d69060600160405180910390a150505050600290930155505050565b6001600160a01b0382166000908152600f60205260409020548111156137ab5760405162461bcd60e51b8152602060048201526014602482015273496e73756666696369656e742062616c616e636560601b6044820152606401610d36565b6001600160a01b0382166000908152600f6020526040812080548392906137d3908490613d28565b9250508190555080600e60008282546137ec9190613d28565b90915550506040518181526000906001600160a01b0384169060008051602061434a833981519152906020015b60405180910390a35050565b80600e60008282546138379190613d3b565b90915550506001600160a01b0382166000908152600f602052604081208054839290613864908490613d3b565b90915550506040518181526001600160a01b0383169060009060008051602061434a83398151915290602001613819565b60005b838110156138b0578181015183820152602001613898565b50506000910152565b600081518084526138d1816020860160208601613895565b601f01601f19169290920160200192915050565b6020815260006138f860208301846138b9565b9392505050565b80356001600160a01b038116811461391657600080fd5b919050565b6000806040838503121561392e57600080fd5b613937836138ff565b946020939093013593505050565b60006020828403121561395757600080fd5b6138f8826138ff565b60008060006060848603121561397557600080fd5b61397e846138ff565b925061398c602085016138ff565b9150604084013590509250925092565b6000602082840312156139ae57600080fd5b5035919050565b60e0815260006139c860e083018a6138b9565b6001600160a01b039890981660208301525060408101959095526060850193909352901515608084015260a083015260c090910152919050565b60008083601f840112613a1457600080fd5b50813567ffffffffffffffff811115613a2c57600080fd5b602083019150836020828501011115613a4457600080fd5b9250929050565b60008060208385031215613a5e57600080fd5b823567ffffffffffffffff811115613a7557600080fd5b613a8185828601613a02565b90969095509350505050565b634e487b7160e01b600052604160045260246000fd5b604051601f8201601f1916810167ffffffffffffffff81118282101715613acc57613acc613a8d565b604052919050565b600067ffffffffffffffff821115613aee57613aee613a8d565b50601f01601f191660200190565b600082601f830112613b0d57600080fd5b8135613b20613b1b82613ad4565b613aa3565b818152846020838601011115613b3557600080fd5b816020850160208301376000918101602001919091529392505050565b600060208284031215613b6457600080fd5b813567ffffffffffffffff811115613b7b57600080fd5b613b8784828501613afc565b949350505050565b600080600060408486031215613ba457600080fd5b833567ffffffffffffffff811115613bbb57600080fd5b613bc786828701613a02565b909790965060209590950135949350505050565b60008060408385031215613bee57600080fd5b613bf7836138ff565b9150602083013567ffffffffffffffff811115613c1357600080fd5b613c1f85828601613afc565b9150509250929050565b60008060408385031215613c3c57600080fd5b823567ffffffffffffffff811115613c5357600080fd5b613c5f85828601613afc565b95602094909401359450505050565b60008060408385031215613c8157600080fd5b613c8a836138ff565b9150613c98602084016138ff565b90509250929050565b60a081526000613cb460a08301886138b9565b90508560208301528460408301528360608301528260808301529695505050505050565b600181811c90821680613cec57607f821691505b602082108103613d0c57634e487b7160e01b600052602260045260246000fd5b50919050565b634e487b7160e01b600052601160045260246000fd5b81810381811115610cd857610cd8613d12565b80820180821115610cd857610cd8613d12565b6020808252600f908201526e2737ba1030b71037b832b930ba37b960891b604082015260600190565b6020808252601f908201527f5265656e7472616e637947756172643a207265656e7472616e742063616c6c00604082015260600190565b60008251613dc0818460208701613895565b9190910192915050565b60208082526027908201527f506c65617365207761697420612066657720626c6f636b73206265747765656e6040820152662074726164657360c81b606082015260800190565b60208082526012908201527110dbdb9d1c9858dd081a5cc81c185d5cd95960721b604082015260600190565b60208082526014908201527314de5b589bdb081b9bdd081cdd5c1c1bdc9d195960621b604082015260600190565b80516001600160501b038116811461391657600080fd5b600080600080600060a08688031215613e9a57600080fd5b613ea386613e6b565b9450602086015193506040860151925060608601519150613ec660808701613e6b565b90509295509295909350565b6020808252600d908201526c496e76616c696420707269636560981b604082015260600190565b6020808252600a908201526927b7363c9037bbb732b960b11b604082015260600190565b60208152816020820152818360408301376000818301604090810191909152601f909201601f19160101919050565b8181036000831280158383131683831282161715612b2457612b24613d12565b8082028115828204841417610cd857610cd8613d12565b634e487b7160e01b600052601260045260246000fd5b600082613fa857613fa8613f83565b500490565b634e487b7160e01b600052603260045260246000fd5b600060018201613fd557613fd5613d12565b5060010190565b600181815b80851115614017578160001904821115613ffd57613ffd613d12565b8085161561400a57918102915b93841c9390800290613fe1565b509250929050565b60008261402e57506001610cd8565b8161403b57506000610cd8565b8160018114614051576002811461405b57614077565b6001915050610cd8565b60ff84111561406c5761406c613d12565b50506001821b610cd8565b5060208310610133831016604e8410600b841016171561409a575081810a610cd8565b6140a48383613fdc565b80600019048211156140b8576140b8613d12565b029392505050565b60006138f860ff84168361401f565b60006138f8838361401f565b6000602082840312156140ed57600080fd5b815167ffffffffffffffff81111561410457600080fd5b8201601f8101841361411557600080fd5b8051614123613b1b82613ad4565b81815285602083850101111561413857600080fd5b614149826020830160208601613895565b95945050505050565b601f82111561169857600081815260208120601f850160051c810160208610156141795750805b601f850160051c820191505b8181101561419857828155600101614185565b505050505050565b815167ffffffffffffffff8111156141ba576141ba613a8d565b6141ce816141c88454613cd8565b84614152565b602080601f83116001811461420357600084156141eb5750858301515b600019600386901b1c1916600185901b178555614198565b600085815260208120601f198616915b8281101561423257888601518255948401946001909101908401614213565b50858210156142505787850151600019600388901b60f8161c191681555b5050505050600190811b01905550565b60408152600061427360408301856138b9565b905060018060a01b03831660208301529392505050565b60608152600061429d60608301866138b9565b6001600160a01b039490941660208301525060400152919050565b6000816142c7576142c7613d12565b506000190190565b80820260008212600160ff1b841416156142eb576142eb613d12565b8181058314821517610cd857610cd8613d12565b60008261430e5761430e613f83565b600160ff1b82146000198414161561432857614328613d12565b500590565b6000600160ff1b820161434257614342613d12565b506000039056feddf252ad1be2c89b69c2b068fc378daa952ba7f163c4a11628f55a4df523b3ef4547524f572069732061206d756c74692d617373657420656c617374696320737570706c7920746f6b656e2073797374656d2e20566973697420656c61737469632e6c6f6c20666f722064657461696c656420646f63756d656e746174696f6e2e204561636820737570706f727465642073796d626f6c20637265617465732061207669727475616c2074726164696e67207061697220616761696e737420455448207573696e6720436861696e6c696e6b2070726963652066656564732e205468652073797374656d206d61696e7461696e732070726963652d6177617265206c697175696469747920706f6f6c7320616e642061646a7573747320746f6b656e20737570706c79206261736564206f6e207072696365206d6f76656d656e74732ea26469706673582212205c9db50481e269b42918feddd8fe720a14fd3620437387fc79bfc9a0366f71b264736f6c634300081300334d756c74692d617373657420656c617374696320737570706c7920746f6b656e2073797374656d202d20656c61737469632e6c6f6c","opcodes":"PUSH1 0xC0 PUSH1 0x40 MSTORE PUSH1 0x14 PUSH1 0x80 SWAP1 DUP2 MSTORE PUSH32 0x456C61737469632047726F77746820546F6B656E000000000000000000000000 PUSH1 0xA0 MSTORE PUSH1 0xA SWAP1 PUSH3 0x3E SWAP1 DUP3 PUSH3 0x1C4 JUMP JUMPDEST POP PUSH1 0x40 DUP1 MLOAD DUP1 DUP3 ADD SWAP1 SWAP2 MSTORE PUSH1 0x5 DUP2 MSTORE PUSH5 0x4547524F57 PUSH1 0xD8 SHL PUSH1 0x20 DUP3 ADD MSTORE PUSH1 0xB SWAP1 PUSH3 0x6A SWAP1 DUP3 PUSH3 0x1C4 JUMP JUMPDEST POP PUSH1 0x40 MLOAD DUP1 PUSH1 0x60 ADD PUSH1 0x40 MSTORE DUP1 PUSH1 0x35 DUP2 MSTORE PUSH1 0x20 ADD PUSH3 0x4762 PUSH1 0x35 SWAP2 CODECOPY PUSH1 0xC SWAP1 PUSH3 0x94 SWAP1 DUP3 PUSH3 0x1C4 JUMP JUMPDEST POP PUSH1 0xD DUP1 SLOAD PUSH1 0xFF NOT AND PUSH1 0x12 SWAP1 DUP2 OR SWAP1 SWAP2 SSTORE PUSH3 0xF4240 PUSH1 0x11 SSTORE PUSH2 0x1F40 SWAP1 SSTORE PUSH2 0x2EE0 PUSH1 0x13 SSTORE CALLVALUE DUP1 ISZERO PUSH3 0xC4 JUMPI PUSH1 0x0 DUP1 REVERT JUMPDEST POP PUSH1 0x6 DUP1 SLOAD PUSH1 0x1 PUSH1 0x1 PUSH1 0xA0 SHL SUB NOT AND CALLER SWAP1 DUP2 OR SWAP1 SWAP2 SSTORE PUSH1 0x1 PUSH1 0x0 DUP2 DUP2 SSTORE PUSH10 0x21E19E0C9BAB2400000 PUSH1 0xE DUP2 SWAP1 SSTORE SWAP3 DUP2 MSTORE PUSH1 0xF PUSH1 0x20 SWAP1 DUP2 MSTORE PUSH1 0x40 DUP1 DUP4 KECCAK256 SWAP5 SWAP1 SWAP5 SSTORE PUSH1 0x4 SWAP1 MSTORE SWAP2 SWAP1 SWAP2 KECCAK256 DUP1 SLOAD PUSH1 0xFF NOT AND DUP3 OR SWAP1 SSTORE PUSH1 0x5 SSTORE PUSH3 0x290 JUMP JUMPDEST PUSH4 0x4E487B71 PUSH1 0xE0 SHL PUSH1 0x0 MSTORE PUSH1 0x41 PUSH1 0x4 MSTORE PUSH1 0x24 PUSH1 0x0 REVERT JUMPDEST PUSH1 0x1 DUP2 DUP2 SHR SWAP1 DUP3 AND DUP1 PUSH3 0x14A JUMPI PUSH1 0x7F DUP3 AND SWAP2 POP JUMPDEST PUSH1 0x20 DUP3 LT DUP2 SUB PUSH3 0x16B JUMPI PUSH4 0x4E487B71 PUSH1 0xE0 SHL PUSH1 0x0 MSTORE PUSH1 0x22 PUSH1 0x4 MSTORE PUSH1 0x24 PUSH1 0x0 REVERT JUMPDEST POP SWAP2 SWAP1 POP JUMP JUMPDEST PUSH1 0x1F DUP3 GT ISZERO PUSH3 0x1BF JUMPI PUSH1 0x0 DUP2 DUP2 MSTORE PUSH1 0x20 DUP2 KECCAK256 PUSH1 0x1F DUP6 ADD PUSH1 0x5 SHR DUP2 ADD PUSH1 0x20 DUP7 LT ISZERO PUSH3 0x19A JUMPI POP DUP1 JUMPDEST PUSH1 0x1F DUP6 ADD PUSH1 0x5 SHR DUP3 ADD SWAP2 POP JUMPDEST DUP2 DUP2 LT ISZERO PUSH3 0x1BB JUMPI DUP3 DUP2 SSTORE PUSH1 0x1 ADD PUSH3 0x1A6 JUMP JUMPDEST POP POP POP JUMPDEST POP POP POP JUMP JUMPDEST DUP2 MLOAD PUSH1 0x1 PUSH1 0x1 PUSH1 0x40 SHL SUB DUP2 GT ISZERO PUSH3 0x1E0 JUMPI PUSH3 0x1E0 PUSH3 0x11F JUMP JUMPDEST PUSH3 0x1F8 DUP2 PUSH3 0x1F1 DUP5 SLOAD PUSH3 0x135 JUMP JUMPDEST DUP5 PUSH3 0x171 JUMP JUMPDEST PUSH1 0x20 DUP1 PUSH1 0x1F DUP4 GT PUSH1 0x1 DUP2 EQ PUSH3 0x230 JUMPI PUSH1 0x0 DUP5 ISZERO PUSH3 0x217 JUMPI POP DUP6 DUP4 ADD MLOAD JUMPDEST PUSH1 0x0 NOT PUSH1 0x3 DUP7 SWAP1 SHL SHR NOT AND PUSH1 0x1 DUP6 SWAP1 SHL OR DUP6 SSTORE PUSH3 0x1BB JUMP JUMPDEST PUSH1 0x0 DUP6 DUP2 MSTORE PUSH1 0x20 DUP2 KECCAK256 PUSH1 0x1F NOT DUP7 AND SWAP2 JUMPDEST DUP3 DUP2 LT ISZERO PUSH3 0x261 JUMPI DUP9 DUP7 ADD MLOAD DUP3 SSTORE SWAP5 DUP5 ADD SWAP5 PUSH1 0x1 SWAP1 SWAP2 ADD SWAP1 DUP5 ADD PUSH3 0x240 JUMP JUMPDEST POP DUP6 DUP3 LT ISZERO PUSH3 0x280 JUMPI DUP8 DUP6 ADD MLOAD PUSH1 0x0 NOT PUSH1 0x3 DUP9 SWAP1 SHL PUSH1 0xF8 AND SHR NOT AND DUP2 SSTORE JUMPDEST POP POP POP POP POP PUSH1 0x1 SWAP1 DUP2 SHL ADD SWAP1 SSTORE POP JUMP JUMPDEST PUSH2 0x44C2 DUP1 PUSH3 0x2A0 PUSH1 0x0 CODECOPY PUSH1 0x0 RETURN INVALID PUSH1 0x80 PUSH1 0x40 MSTORE PUSH1 0x4 CALLDATASIZE LT PUSH2 0x3F3 JUMPI PUSH1 0x0 CALLDATALOAD PUSH1 0xE0 SHR DUP1 PUSH4 0x696CF8F0 GT PUSH2 0x208 JUMPI DUP1 PUSH4 0xA9059CBB GT PUSH2 0x118 JUMPI DUP1 PUSH4 0xCAB7AC3A GT PUSH2 0xAB JUMPI DUP1 PUSH4 0xE6150400 GT PUSH2 0x7A JUMPI DUP1 PUSH4 0xE6150400 EQ PUSH2 0xB3C JUMPI DUP1 PUSH4 0xF1A640F8 EQ PUSH2 0xA92 JUMPI DUP1 PUSH4 0xF2FDE38B EQ PUSH2 0xB69 JUMPI DUP1 PUSH4 0xFBD1D25A EQ PUSH2 0xB89 JUMPI DUP1 PUSH4 0xFFA1AD74 EQ PUSH2 0xBBA JUMPI PUSH1 0x0 DUP1 REVERT JUMPDEST DUP1 PUSH4 0xCAB7AC3A EQ PUSH2 0xAC7 JUMPI DUP1 PUSH4 0xDAD7AE5A EQ PUSH2 0xADC JUMPI DUP1 PUSH4 0xDB2E21BC EQ PUSH2 0xAEF JUMPI DUP1 PUSH4 0xDD62ED3E EQ PUSH2 0xB04 JUMPI PUSH1 0x0 DUP1 REVERT JUMPDEST DUP1 PUSH4 0xB608BBD0 GT PUSH2 0xE7 JUMPI DUP1 PUSH4 0xB608BBD0 EQ PUSH2 0xA66 JUMPI DUP1 PUSH4 0xB7297057 EQ PUSH2 0xA7C JUMPI DUP1 PUSH4 0xBBA0E722 EQ PUSH2 0xA92 JUMPI DUP1 PUSH4 0xC4D2EB2E EQ PUSH2 0xAA7 JUMPI PUSH1 0x0 DUP1 REVERT JUMPDEST DUP1 PUSH4 0xA9059CBB EQ PUSH2 0x9AF JUMPI DUP1 PUSH4 0xAC511BC0 EQ PUSH2 0x9CF JUMPI DUP1 PUSH4 0xAC8A584A EQ PUSH2 0xA31 JUMPI DUP1 PUSH4 0xB51D1D4F EQ PUSH2 0xA51 JUMPI PUSH1 0x0 DUP1 REVERT JUMPDEST DUP1 PUSH4 0x932D68A6 GT PUSH2 0x19B JUMPI DUP1 PUSH4 0x9954C217 GT PUSH2 0x16A JUMPI DUP1 PUSH4 0x9954C217 EQ PUSH2 0x919 JUMPI DUP1 PUSH4 0x9E18F399 EQ PUSH2 0x939 JUMPI DUP1 PUSH4 0x9F65106C EQ PUSH2 0x94E JUMPI DUP1 PUSH4 0xA51C9ACE EQ PUSH2 0x4C1 JUMPI DUP1 PUSH4 0xA7EA74B7 EQ PUSH2 0x99A JUMPI PUSH1 0x0 DUP1 REVERT JUMPDEST DUP1 PUSH4 0x932D68A6 EQ PUSH2 0x87B JUMPI DUP1 PUSH4 0x948AFDAE EQ PUSH2 0x89B JUMPI DUP1 PUSH4 0x95D89B41 EQ PUSH2 0x8E4 JUMPI DUP1 PUSH4 0x9870D7FE EQ PUSH2 0x8F9 JUMPI PUSH1 0x0 DUP1 REVERT JUMPDEST DUP1 PUSH4 0x7C6F3158 GT PUSH2 0x1D7 JUMPI DUP1 PUSH4 0x7C6F3158 EQ PUSH2 0x802 JUMPI DUP1 PUSH4 0x817B1CD2 EQ PUSH2 0x818 JUMPI DUP1 PUSH4 0x8456CB59 EQ PUSH2 0x82E JUMPI DUP1 PUSH4 0x8DA5CB5B EQ PUSH2 0x843 JUMPI PUSH1 0x0 DUP1 REVERT JUMPDEST DUP1 PUSH4 0x696CF8F0 EQ PUSH2 0x71B JUMPI DUP1 PUSH4 0x6CB69F42 EQ PUSH2 0x7AB JUMPI DUP1 PUSH4 0x70A08231 EQ PUSH2 0x7C0 JUMPI DUP1 PUSH4 0x7284E416 EQ PUSH2 0x7ED JUMPI PUSH1 0x0 DUP1 REVERT JUMPDEST DUP1 PUSH4 0x35917C64 GT PUSH2 0x303 JUMPI DUP1 PUSH4 0x52C2C294 GT PUSH2 0x296 JUMPI DUP1 PUSH4 0x556F98FC GT PUSH2 0x265 JUMPI DUP1 PUSH4 0x556F98FC EQ PUSH2 0x731 JUMPI DUP1 PUSH4 0x5C975ABB EQ PUSH2 0x746 JUMPI DUP1 PUSH4 0x5F576C44 EQ PUSH2 0x760 JUMPI DUP1 PUSH4 0x6839B5FA EQ PUSH2 0x780 JUMPI DUP1 PUSH4 0x683D0A0E EQ PUSH2 0x796 JUMPI PUSH1 0x0 DUP1 REVERT JUMPDEST DUP1 PUSH4 0x52C2C294 EQ PUSH2 0x6E6 JUMPI DUP1 PUSH4 0x53BAF0AD EQ PUSH2 0x706 JUMPI DUP1 PUSH4 0x54AD8AEE EQ PUSH2 0x3FF JUMPI DUP1 PUSH4 0x5536487C EQ PUSH2 0x71B JUMPI PUSH1 0x0 DUP1 REVERT JUMPDEST DUP1 PUSH4 0x3F4BA83A GT PUSH2 0x2D2 JUMPI DUP1 PUSH4 0x3F4BA83A EQ PUSH2 0x686 JUMPI DUP1 PUSH4 0x46829831 EQ PUSH2 0x69B JUMPI DUP1 PUSH4 0x4A9122E3 EQ PUSH2 0x6B0 JUMPI DUP1 PUSH4 0x4F0CB5F3 EQ PUSH2 0x6C6 JUMPI PUSH1 0x0 DUP1 REVERT JUMPDEST DUP1 PUSH4 0x35917C64 EQ PUSH2 0x603 JUMPI DUP1 PUSH4 0x36E1AF4B EQ PUSH2 0x620 JUMPI DUP1 PUSH4 0x3A58C9C8 EQ PUSH2 0x653 JUMPI DUP1 PUSH4 0x3A7ADC64 EQ PUSH2 0x666 JUMPI PUSH1 0x0 DUP1 REVERT JUMPDEST DUP1 PUSH4 0x1CDD82DC GT PUSH2 0x386 JUMPI DUP1 PUSH4 0x2B78C9F7 GT PUSH2 0x355 JUMPI DUP1 PUSH4 0x2B78C9F7 EQ PUSH2 0x578 JUMPI DUP1 PUSH4 0x2F3892F5 EQ PUSH2 0x58D JUMPI DUP1 PUSH4 0x313CE567 EQ PUSH2 0x5A2 JUMPI DUP1 PUSH4 0x32CB6B0C EQ PUSH2 0x5CE JUMPI DUP1 PUSH4 0x3403C2FC EQ PUSH2 0x5EC JUMPI PUSH1 0x0 DUP1 REVERT JUMPDEST DUP1 PUSH4 0x1CDD82DC EQ PUSH2 0x4ED JUMPI DUP1 PUSH4 0x1E15D1A5 EQ PUSH2 0x503 JUMPI DUP1 PUSH4 0x23B872DD EQ PUSH2 0x519 JUMPI DUP1 PUSH4 0x283DC96F EQ PUSH2 0x539 JUMPI PUSH1 0x0 DUP1 REVERT JUMPDEST DUP1 PUSH4 0x1190016C GT PUSH2 0x3C2 JUMPI DUP1 PUSH4 0x1190016C EQ PUSH2 0x3FF JUMPI DUP1 PUSH4 0x13E7C9D8 EQ PUSH2 0x491 JUMPI DUP1 PUSH4 0x17D16BFB EQ PUSH2 0x4C1 JUMPI DUP1 PUSH4 0x18160DDD EQ PUSH2 0x4D7 JUMPI PUSH1 0x0 DUP1 REVERT JUMPDEST DUP1 PUSH4 0x2AF37BB EQ PUSH2 0x3FF JUMPI DUP1 PUSH4 0x6FDDE03 EQ PUSH2 0x428 JUMPI DUP1 PUSH4 0x95EA7B3 EQ PUSH2 0x44A JUMPI DUP1 PUSH4 0xEBB172A EQ PUSH2 0x47A JUMPI PUSH1 0x0 DUP1 REVERT JUMPDEST CALLDATASIZE PUSH2 0x3FA JUMPI STOP JUMPDEST PUSH1 0x0 DUP1 REVERT JUMPDEST CALLVALUE DUP1 ISZERO PUSH2 0x40B JUMPI PUSH1 0x0 DUP1 REVERT JUMPDEST POP PUSH2 0x415 PUSH2 0x1F4 DUP2 JUMP JUMPDEST PUSH1 0x40 MLOAD SWAP1 DUP2 MSTORE PUSH1 0x20 ADD JUMPDEST PUSH1 0x40 MLOAD DUP1 SWAP2 SUB SWAP1 RETURN JUMPDEST CALLVALUE DUP1 ISZERO PUSH2 0x434 JUMPI PUSH1 0x0 DUP1 REVERT JUMPDEST POP PUSH2 0x43D PUSH2 0xBEB JUMP JUMPDEST PUSH1 0x40 MLOAD PUSH2 0x41F SWAP2 SWAP1 PUSH2 0x38E5 JUMP JUMPDEST CALLVALUE DUP1 ISZERO PUSH2 0x456 JUMPI PUSH1 0x0 DUP1 REVERT JUMPDEST POP PUSH2 0x46A PUSH2 0x465 CALLDATASIZE PUSH1 0x4 PUSH2 0x391B JUMP JUMPDEST PUSH2 0xC79 JUMP JUMPDEST PUSH1 0x40 MLOAD SWAP1 ISZERO ISZERO DUP2 MSTORE PUSH1 0x20 ADD PUSH2 0x41F JUMP JUMPDEST CALLVALUE DUP1 ISZERO PUSH2 0x486 JUMPI PUSH1 0x0 DUP1 REVERT JUMPDEST POP PUSH2 0x415 PUSH3 0x2A300 DUP2 JUMP JUMPDEST CALLVALUE DUP1 ISZERO PUSH2 0x49D JUMPI PUSH1 0x0 DUP1 REVERT JUMPDEST POP PUSH2 0x46A PUSH2 0x4AC CALLDATASIZE PUSH1 0x4 PUSH2 0x3945 JUMP JUMPDEST PUSH1 0x4 PUSH1 0x20 MSTORE PUSH1 0x0 SWAP1 DUP2 MSTORE PUSH1 0x40 SWAP1 KECCAK256 SLOAD PUSH1 0xFF AND DUP2 JUMP JUMPDEST CALLVALUE DUP1 ISZERO PUSH2 0x4CD JUMPI PUSH1 0x0 DUP1 REVERT JUMPDEST POP PUSH2 0x415 PUSH2 0x2710 DUP2 JUMP JUMPDEST CALLVALUE DUP1 ISZERO PUSH2 0x4E3 JUMPI PUSH1 0x0 DUP1 REVERT JUMPDEST POP PUSH2 0x415 PUSH1 0xE SLOAD DUP2 JUMP JUMPDEST CALLVALUE DUP1 ISZERO PUSH2 0x4F9 JUMPI PUSH1 0x0 DUP1 REVERT JUMPDEST POP PUSH2 0x415 PUSH1 0x11 SLOAD DUP2 JUMP JUMPDEST CALLVALUE DUP1 ISZERO PUSH2 0x50F JUMPI PUSH1 0x0 DUP1 REVERT JUMPDEST POP PUSH2 0x415 PUSH1 0x13 SLOAD DUP2 JUMP JUMPDEST CALLVALUE DUP1 ISZERO PUSH2 0x525 JUMPI PUSH1 0x0 DUP1 REVERT JUMPDEST POP PUSH2 0x46A PUSH2 0x534 CALLDATASIZE PUSH1 0x4 PUSH2 0x3960 JUMP JUMPDEST PUSH2 0xCDE JUMP JUMPDEST CALLVALUE DUP1 ISZERO PUSH2 0x545 JUMPI PUSH1 0x0 DUP1 REVERT JUMPDEST POP PUSH2 0x43D PUSH1 0x40 MLOAD DUP1 PUSH1 0x40 ADD PUSH1 0x40 MSTORE DUP1 PUSH1 0x13 DUP2 MSTORE PUSH1 0x20 ADD PUSH19 0x1A1D1D1C1CCE8BCBD95B185CDD1A58CB9B1BDB PUSH1 0x6A SHL DUP2 MSTORE POP DUP2 JUMP JUMPDEST CALLVALUE DUP1 ISZERO PUSH2 0x584 JUMPI PUSH1 0x0 DUP1 REVERT JUMPDEST POP PUSH2 0x415 PUSH1 0x5 DUP2 JUMP JUMPDEST CALLVALUE DUP1 ISZERO PUSH2 0x599 JUMPI PUSH1 0x0 DUP1 REVERT JUMPDEST POP PUSH2 0x415 PUSH1 0xF DUP2 JUMP JUMPDEST CALLVALUE DUP1 ISZERO PUSH2 0x5AE JUMPI PUSH1 0x0 DUP1 REVERT JUMPDEST POP PUSH1 0xD SLOAD PUSH2 0x5BC SWAP1 PUSH1 0xFF AND DUP2 JUMP JUMPDEST PUSH1 0x40 MLOAD PUSH1 0xFF SWAP1 SWAP2 AND DUP2 MSTORE PUSH1 0x20 ADD PUSH2 0x41F JUMP JUMPDEST CALLVALUE DUP1 ISZERO PUSH2 0x5DA JUMPI PUSH1 0x0 DUP1 REVERT JUMPDEST POP PUSH2 0x415 PUSH10 0xD3C21BCECCEDA1000000 DUP2 JUMP JUMPDEST CALLVALUE DUP1 ISZERO PUSH2 0x5F8 JUMPI PUSH1 0x0 DUP1 REVERT JUMPDEST POP PUSH2 0x601 PUSH2 0xE7F JUMP JUMPDEST STOP JUMPDEST CALLVALUE DUP1 ISZERO PUSH2 0x60F JUMPI PUSH1 0x0 DUP1 REVERT JUMPDEST POP PUSH2 0x415 PUSH9 0x3635C9ADC5DEA00000 DUP2 JUMP JUMPDEST CALLVALUE DUP1 ISZERO PUSH2 0x62C JUMPI PUSH1 0x0 DUP1 REVERT JUMPDEST POP PUSH2 0x640 PUSH2 0x63B CALLDATASIZE PUSH1 0x4 PUSH2 0x399C JUMP JUMPDEST PUSH2 0xEF1 JUMP JUMPDEST PUSH1 0x40 MLOAD PUSH2 0x41F SWAP8 SWAP7 SWAP6 SWAP5 SWAP4 SWAP3 SWAP2 SWAP1 PUSH2 0x39B5 JUMP JUMPDEST PUSH2 0x601 PUSH2 0x661 CALLDATASIZE PUSH1 0x4 PUSH2 0x3A4B JUMP JUMPDEST PUSH2 0xFC3 JUMP JUMPDEST CALLVALUE DUP1 ISZERO PUSH2 0x672 JUMPI PUSH1 0x0 DUP1 REVERT JUMPDEST POP PUSH2 0x415 PUSH2 0x681 CALLDATASIZE PUSH1 0x4 PUSH2 0x3B52 JUMP JUMPDEST PUSH2 0x130C JUMP JUMPDEST CALLVALUE DUP1 ISZERO PUSH2 0x692 JUMPI PUSH1 0x0 DUP1 REVERT JUMPDEST POP PUSH2 0x601 PUSH2 0x133C JUMP JUMPDEST CALLVALUE DUP1 ISZERO PUSH2 0x6A7 JUMPI PUSH1 0x0 DUP1 REVERT JUMPDEST POP PUSH2 0x601 PUSH2 0x13E4 JUMP JUMPDEST CALLVALUE DUP1 ISZERO PUSH2 0x6BC JUMPI PUSH1 0x0 DUP1 REVERT JUMPDEST POP PUSH2 0x415 PUSH1 0x18 SLOAD DUP2 JUMP JUMPDEST CALLVALUE DUP1 ISZERO PUSH2 0x6D2 JUMPI PUSH1 0x0 DUP1 REVERT JUMPDEST POP PUSH2 0x601 PUSH2 0x6E1 CALLDATASIZE PUSH1 0x4 PUSH2 0x399C JUMP JUMPDEST PUSH2 0x1502 JUMP JUMPDEST CALLVALUE DUP1 ISZERO PUSH2 0x6F2 JUMPI PUSH1 0x0 DUP1 REVERT JUMPDEST POP PUSH2 0x601 PUSH2 0x701 CALLDATASIZE PUSH1 0x4 PUSH2 0x3A4B JUMP JUMPDEST PUSH2 0x169D JUMP JUMPDEST CALLVALUE DUP1 ISZERO PUSH2 0x712 JUMPI PUSH1 0x0 DUP1 REVERT JUMPDEST POP PUSH2 0x601 PUSH2 0x17B8 JUMP JUMPDEST CALLVALUE DUP1 ISZERO PUSH2 0x727 JUMPI PUSH1 0x0 DUP1 REVERT JUMPDEST POP PUSH2 0x415 PUSH2 0xE10 DUP2 JUMP JUMPDEST CALLVALUE DUP1 ISZERO PUSH2 0x73D JUMPI PUSH1 0x0 DUP1 REVERT JUMPDEST POP PUSH2 0x601 PUSH2 0x1ACA JUMP JUMPDEST CALLVALUE DUP1 ISZERO PUSH2 0x752 JUMPI PUSH1 0x0 DUP1 REVERT JUMPDEST POP PUSH1 0x3 SLOAD PUSH2 0x46A SWAP1 PUSH1 0xFF AND DUP2 JUMP JUMPDEST CALLVALUE DUP1 ISZERO PUSH2 0x76C JUMPI PUSH1 0x0 DUP1 REVERT JUMPDEST POP PUSH2 0x601 PUSH2 0x77B CALLDATASIZE PUSH1 0x4 PUSH2 0x3B8F JUMP JUMPDEST PUSH2 0x1B3F JUMP JUMPDEST CALLVALUE DUP1 ISZERO PUSH2 0x78C JUMPI PUSH1 0x0 DUP1 REVERT JUMPDEST POP PUSH2 0x415 PUSH2 0x3E8 DUP2 JUMP JUMPDEST CALLVALUE DUP1 ISZERO PUSH2 0x7A2 JUMPI PUSH1 0x0 DUP1 REVERT JUMPDEST POP PUSH2 0x415 PUSH1 0x64 DUP2 JUMP JUMPDEST CALLVALUE DUP1 ISZERO PUSH2 0x7B7 JUMPI PUSH1 0x0 DUP1 REVERT JUMPDEST POP PUSH2 0x43D PUSH2 0x206A JUMP JUMPDEST CALLVALUE DUP1 ISZERO PUSH2 0x7CC JUMPI PUSH1 0x0 DUP1 REVERT JUMPDEST POP PUSH2 0x415 PUSH2 0x7DB CALLDATASIZE PUSH1 0x4 PUSH2 0x3945 JUMP JUMPDEST PUSH1 0xF PUSH1 0x20 MSTORE PUSH1 0x0 SWAP1 DUP2 MSTORE PUSH1 0x40 SWAP1 KECCAK256 SLOAD DUP2 JUMP JUMPDEST CALLVALUE DUP1 ISZERO PUSH2 0x7F9 JUMPI PUSH1 0x0 DUP1 REVERT JUMPDEST POP PUSH2 0x43D PUSH2 0x208D JUMP JUMPDEST CALLVALUE DUP1 ISZERO PUSH2 0x80E JUMPI PUSH1 0x0 DUP1 REVERT JUMPDEST POP PUSH2 0x415 PUSH1 0x5 SLOAD DUP2 JUMP JUMPDEST CALLVALUE DUP1 ISZERO PUSH2 0x824 JUMPI PUSH1 0x0 DUP1 REVERT JUMPDEST POP PUSH2 0x415 PUSH1 0x15 SLOAD DUP2 JUMP JUMPDEST CALLVALUE DUP1 ISZERO PUSH2 0x83A JUMPI PUSH1 0x0 DUP1 REVERT JUMPDEST POP PUSH2 0x601 PUSH2 0x209A JUMP JUMPDEST CALLVALUE DUP1 ISZERO PUSH2 0x84F JUMPI PUSH1 0x0 DUP1 REVERT JUMPDEST POP PUSH1 0x6 SLOAD PUSH2 0x863 SWAP1 PUSH1 0x1 PUSH1 0x1 PUSH1 0xA0 SHL SUB AND DUP2 JUMP JUMPDEST PUSH1 0x40 MLOAD PUSH1 0x1 PUSH1 0x1 PUSH1 0xA0 SHL SUB SWAP1 SWAP2 AND DUP2 MSTORE PUSH1 0x20 ADD PUSH2 0x41F JUMP JUMPDEST CALLVALUE DUP1 ISZERO PUSH2 0x887 JUMPI PUSH1 0x0 DUP1 REVERT JUMPDEST POP PUSH2 0x415 PUSH2 0x896 CALLDATASIZE PUSH1 0x4 PUSH2 0x399C JUMP JUMPDEST PUSH2 0x214A JUMP JUMPDEST CALLVALUE DUP1 ISZERO PUSH2 0x8A7 JUMPI PUSH1 0x0 DUP1 REVERT JUMPDEST POP PUSH2 0x415 PUSH2 0x8B6 CALLDATASIZE PUSH1 0x4 PUSH2 0x3BDB JUMP JUMPDEST PUSH1 0x2 PUSH1 0x20 SWAP1 DUP2 MSTORE PUSH1 0x0 SWAP3 DUP4 MSTORE PUSH1 0x40 SWAP1 SWAP3 KECCAK256 DUP2 MLOAD DUP1 DUP4 ADD DUP5 ADD DUP1 MLOAD SWAP3 DUP2 MSTORE SWAP1 DUP5 ADD SWAP3 SWAP1 SWAP4 ADD SWAP2 SWAP1 SWAP2 KECCAK256 SWAP2 MSTORE SLOAD DUP2 JUMP JUMPDEST CALLVALUE DUP1 ISZERO PUSH2 0x8F0 JUMPI PUSH1 0x0 DUP1 REVERT JUMPDEST POP PUSH2 0x43D PUSH2 0x216B JUMP JUMPDEST CALLVALUE DUP1 ISZERO PUSH2 0x905 JUMPI PUSH1 0x0 DUP1 REVERT JUMPDEST POP PUSH2 0x601 PUSH2 0x914 CALLDATASIZE PUSH1 0x4 PUSH2 0x3945 JUMP JUMPDEST PUSH2 0x2178 JUMP JUMPDEST CALLVALUE DUP1 ISZERO PUSH2 0x925 JUMPI PUSH1 0x0 DUP1 REVERT JUMPDEST POP PUSH2 0x601 PUSH2 0x934 CALLDATASIZE PUSH1 0x4 PUSH2 0x3945 JUMP JUMPDEST PUSH2 0x22BA JUMP JUMPDEST CALLVALUE DUP1 ISZERO PUSH2 0x945 JUMPI PUSH1 0x0 DUP1 REVERT JUMPDEST POP PUSH1 0x9 SLOAD PUSH2 0x415 JUMP JUMPDEST CALLVALUE DUP1 ISZERO PUSH2 0x95A JUMPI PUSH1 0x0 DUP1 REVERT JUMPDEST POP PUSH2 0x96E PUSH2 0x969 CALLDATASIZE PUSH1 0x4 PUSH2 0x3A4B JUMP JUMPDEST PUSH2 0x26D5 JUMP JUMPDEST PUSH1 0x40 DUP1 MLOAD PUSH1 0x1 PUSH1 0x1 PUSH1 0xA0 SHL SUB SWAP1 SWAP6 AND DUP6 MSTORE PUSH1 0x20 DUP6 ADD SWAP4 SWAP1 SWAP4 MSTORE SWAP2 DUP4 ADD MSTORE ISZERO ISZERO PUSH1 0x60 DUP3 ADD MSTORE PUSH1 0x80 ADD PUSH2 0x41F JUMP JUMPDEST CALLVALUE DUP1 ISZERO PUSH2 0x9A6 JUMPI PUSH1 0x0 DUP1 REVERT JUMPDEST POP PUSH2 0x415 PUSH1 0x1 DUP2 JUMP JUMPDEST CALLVALUE DUP1 ISZERO PUSH2 0x9BB JUMPI PUSH1 0x0 DUP1 REVERT JUMPDEST POP PUSH2 0x46A PUSH2 0x9CA CALLDATASIZE PUSH1 0x4 PUSH2 0x391B JUMP JUMPDEST PUSH2 0x275D JUMP JUMPDEST CALLVALUE DUP1 ISZERO PUSH2 0x9DB JUMPI PUSH1 0x0 DUP1 REVERT JUMPDEST POP PUSH2 0xA11 PUSH2 0x9EA CALLDATASIZE PUSH1 0x4 PUSH2 0x3945 JUMP JUMPDEST PUSH1 0x14 PUSH1 0x20 MSTORE PUSH1 0x0 SWAP1 DUP2 MSTORE PUSH1 0x40 SWAP1 KECCAK256 DUP1 SLOAD PUSH1 0x1 DUP3 ADD SLOAD PUSH1 0x2 DUP4 ADD SLOAD PUSH1 0x3 SWAP1 SWAP4 ADD SLOAD SWAP2 SWAP3 SWAP1 SWAP2 DUP5 JUMP JUMPDEST PUSH1 0x40 DUP1 MLOAD SWAP5 DUP6 MSTORE PUSH1 0x20 DUP6 ADD SWAP4 SWAP1 SWAP4 MSTORE SWAP2 DUP4 ADD MSTORE PUSH1 0x60 DUP3 ADD MSTORE PUSH1 0x80 ADD PUSH2 0x41F JUMP JUMPDEST CALLVALUE DUP1 ISZERO PUSH2 0xA3D JUMPI PUSH1 0x0 DUP1 REVERT JUMPDEST POP PUSH2 0x601 PUSH2 0xA4C CALLDATASIZE PUSH1 0x4 PUSH2 0x3945 JUMP JUMPDEST PUSH2 0x282C JUMP JUMPDEST CALLVALUE DUP1 ISZERO PUSH2 0xA5D JUMPI PUSH1 0x0 DUP1 REVERT JUMPDEST POP PUSH2 0x601 PUSH2 0x296D JUMP JUMPDEST CALLVALUE DUP1 ISZERO PUSH2 0xA72 JUMPI PUSH1 0x0 DUP1 REVERT JUMPDEST POP PUSH2 0x415 PUSH1 0x12 SLOAD DUP2 JUMP JUMPDEST CALLVALUE DUP1 ISZERO PUSH2 0xA88 JUMPI PUSH1 0x0 DUP1 REVERT JUMPDEST POP PUSH2 0x415 PUSH1 0x7 SLOAD DUP2 JUMP JUMPDEST CALLVALUE DUP1 ISZERO PUSH2 0xA9E JUMPI PUSH1 0x0 DUP1 REVERT JUMPDEST POP PUSH2 0x415 PUSH1 0x8 DUP2 JUMP JUMPDEST CALLVALUE DUP1 ISZERO PUSH2 0xAB3 JUMPI PUSH1 0x0 DUP1 REVERT JUMPDEST POP PUSH2 0x415 PUSH2 0xAC2 CALLDATASIZE PUSH1 0x4 PUSH2 0x3A4B JUMP JUMPDEST PUSH2 0x2A09 JUMP JUMPDEST CALLVALUE DUP1 ISZERO PUSH2 0xAD3 JUMPI PUSH1 0x0 DUP1 REVERT JUMPDEST POP PUSH2 0x43D PUSH2 0x2B2B JUMP JUMPDEST PUSH2 0x415 PUSH2 0xAEA CALLDATASIZE PUSH1 0x4 PUSH2 0x3C29 JUMP JUMPDEST PUSH2 0x2B38 JUMP JUMPDEST CALLVALUE DUP1 ISZERO PUSH2 0xAFB JUMPI PUSH1 0x0 DUP1 REVERT JUMPDEST POP PUSH2 0x601 PUSH2 0x30AE JUMP JUMPDEST CALLVALUE DUP1 ISZERO PUSH2 0xB10 JUMPI PUSH1 0x0 DUP1 REVERT JUMPDEST POP PUSH2 0x415 PUSH2 0xB1F CALLDATASIZE PUSH1 0x4 PUSH2 0x3C6E JUMP JUMPDEST PUSH1 0x10 PUSH1 0x20 SWAP1 DUP2 MSTORE PUSH1 0x0 SWAP3 DUP4 MSTORE PUSH1 0x40 DUP1 DUP5 KECCAK256 SWAP1 SWAP2 MSTORE SWAP1 DUP3 MSTORE SWAP1 KECCAK256 SLOAD DUP2 JUMP JUMPDEST CALLVALUE DUP1 ISZERO PUSH2 0xB48 JUMPI PUSH1 0x0 DUP1 REVERT JUMPDEST POP PUSH2 0x415 PUSH2 0xB57 CALLDATASIZE PUSH1 0x4 PUSH2 0x399C JUMP JUMPDEST PUSH1 0x17 PUSH1 0x20 MSTORE PUSH1 0x0 SWAP1 DUP2 MSTORE PUSH1 0x40 SWAP1 KECCAK256 SLOAD DUP2 JUMP JUMPDEST CALLVALUE DUP1 ISZERO PUSH2 0xB75 JUMPI PUSH1 0x0 DUP1 REVERT JUMPDEST POP PUSH2 0x601 PUSH2 0xB84 CALLDATASIZE PUSH1 0x4 PUSH2 0x3945 JUMP JUMPDEST PUSH2 0x3120 JUMP JUMPDEST CALLVALUE DUP1 ISZERO PUSH2 0xB95 JUMPI PUSH1 0x0 DUP1 REVERT JUMPDEST POP PUSH2 0xBA9 PUSH2 0xBA4 CALLDATASIZE PUSH1 0x4 PUSH2 0x3945 JUMP JUMPDEST PUSH2 0x31B4 JUMP JUMPDEST PUSH1 0x40 MLOAD PUSH2 0x41F SWAP6 SWAP5 SWAP4 SWAP3 SWAP2 SWAP1 PUSH2 0x3CA1 JUMP JUMPDEST CALLVALUE DUP1 ISZERO PUSH2 0xBC6 JUMPI PUSH1 0x0 DUP1 REVERT JUMPDEST POP PUSH2 0x43D PUSH1 0x40 MLOAD DUP1 PUSH1 0x40 ADD PUSH1 0x40 MSTORE DUP1 PUSH1 0x5 DUP2 MSTORE PUSH1 0x20 ADD PUSH5 0x312E302E3 PUSH1 0xDC SHL DUP2 MSTORE POP DUP2 JUMP JUMPDEST PUSH1 0xA DUP1 SLOAD PUSH2 0xBF8 SWAP1 PUSH2 0x3CD8 JUMP JUMPDEST DUP1 PUSH1 0x1F ADD PUSH1 0x20 DUP1 SWAP2 DIV MUL PUSH1 0x20 ADD PUSH1 0x40 MLOAD SWAP1 DUP2 ADD PUSH1 0x40 MSTORE DUP1 SWAP3 SWAP2 SWAP1 DUP2 DUP2 MSTORE PUSH1 0x20 ADD DUP3 DUP1 SLOAD PUSH2 0xC24 SWAP1 PUSH2 0x3CD8 JUMP JUMPDEST DUP1 ISZERO PUSH2 0xC71 JUMPI DUP1 PUSH1 0x1F LT PUSH2 0xC46 JUMPI PUSH2 0x100 DUP1 DUP4 SLOAD DIV MUL DUP4 MSTORE SWAP2 PUSH1 0x20 ADD SWAP2 PUSH2 0xC71 JUMP JUMPDEST DUP3 ADD SWAP2 SWAP1 PUSH1 0x0 MSTORE PUSH1 0x20 PUSH1 0x0 KECCAK256 SWAP1 JUMPDEST DUP2 SLOAD DUP2 MSTORE SWAP1 PUSH1 0x1 ADD SWAP1 PUSH1 0x20 ADD DUP1 DUP4 GT PUSH2 0xC54 JUMPI DUP3 SWAP1 SUB PUSH1 0x1F AND DUP3 ADD SWAP2 JUMPDEST POP POP POP POP POP DUP2 JUMP JUMPDEST CALLER PUSH1 0x0 DUP2 DUP2 MSTORE PUSH1 0x10 PUSH1 0x20 SWAP1 DUP2 MSTORE PUSH1 0x40 DUP1 DUP4 KECCAK256 PUSH1 0x1 PUSH1 0x1 PUSH1 0xA0 SHL SUB DUP8 AND DUP5 MSTORE DUP3 MSTORE DUP1 DUP4 KECCAK256 DUP6 SWAP1 SSTORE MLOAD DUP5 DUP2 MSTORE SWAP2 SWAP3 SWAP2 DUP3 SWAP2 PUSH32 0x8C5BE1E5EBEC7D5BD14F71427D1E84F3DD0314C0F7B2291E5B200AC8C7C3B925 SWAP2 ADD JUMPDEST PUSH1 0x40 MLOAD DUP1 SWAP2 SUB SWAP1 LOG3 POP PUSH1 0x1 JUMPDEST SWAP3 SWAP2 POP POP JUMP JUMPDEST PUSH1 0x1 PUSH1 0x1 PUSH1 0xA0 SHL SUB DUP4 AND PUSH1 0x0 SWAP1 DUP2 MSTORE PUSH1 0xF PUSH1 0x20 MSTORE PUSH1 0x40 DUP2 KECCAK256 SLOAD DUP3 GT ISZERO PUSH2 0xD3F JUMPI PUSH1 0x40 MLOAD PUSH3 0x461BCD PUSH1 0xE5 SHL DUP2 MSTORE PUSH1 0x20 PUSH1 0x4 DUP3 ADD MSTORE PUSH1 0x11 PUSH1 0x24 DUP3 ADD MSTORE PUSH17 0x4E6F7420656E6F75676820746F6B656E73 PUSH1 0x78 SHL PUSH1 0x44 DUP3 ADD MSTORE PUSH1 0x64 ADD JUMPDEST PUSH1 0x40 MLOAD DUP1 SWAP2 SUB SWAP1 REVERT JUMPDEST PUSH1 0x1 PUSH1 0x1 PUSH1 0xA0 SHL SUB DUP5 AND PUSH1 0x0 SWAP1 DUP2 MSTORE PUSH1 0x10 PUSH1 0x20 SWAP1 DUP2 MSTORE PUSH1 0x40 DUP1 DUP4 KECCAK256 CALLER DUP5 MSTORE SWAP1 SWAP2 MSTORE SWAP1 KECCAK256 SLOAD DUP3 GT ISZERO PUSH2 0xDA6 JUMPI PUSH1 0x40 MLOAD PUSH3 0x461BCD PUSH1 0xE5 SHL DUP2 MSTORE PUSH1 0x20 PUSH1 0x4 DUP3 ADD MSTORE PUSH1 0x11 PUSH1 0x24 DUP3 ADD MSTORE PUSH17 0x416C6C6F77616E636520746F6F206C6F77 PUSH1 0x78 SHL PUSH1 0x44 DUP3 ADD MSTORE PUSH1 0x64 ADD PUSH2 0xD36 JUMP JUMPDEST PUSH1 0x1 PUSH1 0x1 PUSH1 0xA0 SHL SUB DUP5 AND PUSH1 0x0 SWAP1 DUP2 MSTORE PUSH1 0x10 PUSH1 0x20 SWAP1 DUP2 MSTORE PUSH1 0x40 DUP1 DUP4 KECCAK256 CALLER DUP5 MSTORE SWAP1 SWAP2 MSTORE DUP2 KECCAK256 DUP1 SLOAD DUP5 SWAP3 SWAP1 PUSH2 0xDD9 SWAP1 DUP5 SWAP1 PUSH2 0x3D28 JUMP JUMPDEST SWAP1 SWAP2 SSTORE POP POP PUSH1 0x1 PUSH1 0x1 PUSH1 0xA0 SHL SUB DUP5 AND PUSH1 0x0 SWAP1 DUP2 MSTORE PUSH1 0xF PUSH1 0x20 MSTORE PUSH1 0x40 DUP2 KECCAK256 DUP1 SLOAD DUP5 SWAP3 SWAP1 PUSH2 0xE06 SWAP1 DUP5 SWAP1 PUSH2 0x3D28 JUMP JUMPDEST SWAP1 SWAP2 SSTORE POP POP PUSH1 0x1 PUSH1 0x1 PUSH1 0xA0 SHL SUB DUP4 AND PUSH1 0x0 SWAP1 DUP2 MSTORE PUSH1 0xF PUSH1 0x20 MSTORE PUSH1 0x40 DUP2 KECCAK256 DUP1 SLOAD DUP5 SWAP3 SWAP1 PUSH2 0xE33 SWAP1 DUP5 SWAP1 PUSH2 0x3D3B JUMP JUMPDEST SWAP3 POP POP DUP2 SWAP1 SSTORE POP DUP3 PUSH1 0x1 PUSH1 0x1 PUSH1 0xA0 SHL SUB AND DUP5 PUSH1 0x1 PUSH1 0x1 PUSH1 0xA0 SHL SUB AND PUSH1 0x0 DUP1 MLOAD PUSH1 0x20 PUSH2 0x434A DUP4 CODECOPY DUP2 MLOAD SWAP2 MSTORE DUP5 PUSH1 0x40 MLOAD PUSH2 0xE6D SWAP2 DUP2 MSTORE PUSH1 0x20 ADD SWAP1 JUMP JUMPDEST PUSH1 0x40 MLOAD DUP1 SWAP2 SUB SWAP1 LOG3 POP PUSH1 0x1 SWAP4 SWAP3 POP POP POP JUMP JUMPDEST CALLER PUSH1 0x0 SWAP1 DUP2 MSTORE PUSH1 0x4 PUSH1 0x20 MSTORE PUSH1 0x40 SWAP1 KECCAK256 SLOAD PUSH1 0xFF AND PUSH2 0xEAE JUMPI PUSH1 0x40 MLOAD PUSH3 0x461BCD PUSH1 0xE5 SHL DUP2 MSTORE PUSH1 0x4 ADD PUSH2 0xD36 SWAP1 PUSH2 0x3D4E JUMP JUMPDEST PUSH1 0x3 DUP1 SLOAD PUSH1 0xFF NOT AND PUSH1 0x1 OR SWAP1 SSTORE PUSH1 0x40 MLOAD CALLER DUP2 MSTORE PUSH32 0x1FC1E771236D2E93BB9541CDCB4654BA0FD3FB615B48D829B7B365F039985126 SWAP1 PUSH1 0x20 ADD JUMPDEST PUSH1 0x40 MLOAD DUP1 SWAP2 SUB SWAP1 LOG1 JUMP JUMPDEST PUSH1 0x8 PUSH1 0x20 MSTORE PUSH1 0x0 SWAP1 DUP2 MSTORE PUSH1 0x40 SWAP1 KECCAK256 DUP1 SLOAD DUP2 SWAP1 PUSH2 0xF0C SWAP1 PUSH2 0x3CD8 JUMP JUMPDEST DUP1 PUSH1 0x1F ADD PUSH1 0x20 DUP1 SWAP2 DIV MUL PUSH1 0x20 ADD PUSH1 0x40 MLOAD SWAP1 DUP2 ADD PUSH1 0x40 MSTORE DUP1 SWAP3 SWAP2 SWAP1 DUP2 DUP2 MSTORE PUSH1 0x20 ADD DUP3 DUP1 SLOAD PUSH2 0xF38 SWAP1 PUSH2 0x3CD8 JUMP JUMPDEST DUP1 ISZERO PUSH2 0xF85 JUMPI DUP1 PUSH1 0x1F LT PUSH2 0xF5A JUMPI PUSH2 0x100 DUP1 DUP4 SLOAD DIV MUL DUP4 MSTORE SWAP2 PUSH1 0x20 ADD SWAP2 PUSH2 0xF85 JUMP JUMPDEST DUP3 ADD SWAP2 SWAP1 PUSH1 0x0 MSTORE PUSH1 0x20 PUSH1 0x0 KECCAK256 SWAP1 JUMPDEST DUP2 SLOAD DUP2 MSTORE SWAP1 PUSH1 0x1 ADD SWAP1 PUSH1 0x20 ADD DUP1 DUP4 GT PUSH2 0xF68 JUMPI DUP3 SWAP1 SUB PUSH1 0x1F AND DUP3 ADD SWAP2 JUMPDEST POP POP POP PUSH1 0x1 DUP5 ADD SLOAD PUSH1 0x2 DUP6 ADD SLOAD PUSH1 0x3 DUP7 ADD SLOAD PUSH1 0x4 DUP8 ADD SLOAD PUSH1 0x5 DUP9 ADD SLOAD PUSH1 0x6 SWAP1 SWAP9 ADD SLOAD SWAP7 SWAP8 PUSH1 0x1 PUSH1 0x1 PUSH1 0xA0 SHL SUB SWAP1 SWAP5 AND SWAP7 SWAP3 SWAP6 POP SWAP1 SWAP4 POP PUSH1 0xFF AND SWAP2 SWAP1 DUP8 JUMP JUMPDEST PUSH1 0x2 PUSH1 0x0 SLOAD SUB PUSH2 0xFE5 JUMPI PUSH1 0x40 MLOAD PUSH3 0x461BCD PUSH1 0xE5 SHL DUP2 MSTORE PUSH1 0x4 ADD PUSH2 0xD36 SWAP1 PUSH2 0x3D77 JUMP JUMPDEST PUSH1 0x2 PUSH1 0x0 DUP2 DUP2 SSTORE PUSH1 0x40 DUP1 MLOAD DUP1 DUP3 ADD DUP3 MSTORE PUSH1 0x4 DUP2 MSTORE PUSH4 0x6C6F6E67 PUSH1 0xE0 SHL PUSH1 0x20 DUP1 DUP4 ADD SWAP2 SWAP1 SWAP2 MSTORE CALLER DUP5 MSTORE SWAP4 SWAP1 SWAP4 MSTORE SWAP1 DUP2 SWAP1 KECCAK256 SWAP1 MLOAD NUMBER SWAP2 PUSH1 0x1 SWAP2 PUSH2 0x1027 SWAP1 DUP6 SWAP1 PUSH2 0x3DAE JUMP JUMPDEST SWAP1 DUP2 MSTORE PUSH1 0x20 ADD PUSH1 0x40 MLOAD DUP1 SWAP2 SUB SWAP1 KECCAK256 SLOAD PUSH2 0x1040 SWAP2 SWAP1 PUSH2 0x3D3B JUMP JUMPDEST LT PUSH2 0x105D JUMPI PUSH1 0x40 MLOAD PUSH3 0x461BCD PUSH1 0xE5 SHL DUP2 MSTORE PUSH1 0x4 ADD PUSH2 0xD36 SWAP1 PUSH2 0x3DCA JUMP JUMPDEST CALLER PUSH1 0x0 SWAP1 DUP2 MSTORE PUSH1 0x2 PUSH1 0x20 MSTORE PUSH1 0x40 SWAP1 DUP2 SWAP1 KECCAK256 SWAP1 MLOAD NUMBER SWAP2 SWAP1 PUSH2 0x107E SWAP1 DUP5 SWAP1 PUSH2 0x3DAE JUMP JUMPDEST SWAP1 DUP2 MSTORE PUSH1 0x40 MLOAD SWAP1 DUP2 SWAP1 SUB PUSH1 0x20 ADD SWAP1 KECCAK256 SSTORE PUSH1 0x3 SLOAD PUSH1 0xFF AND ISZERO PUSH2 0x10B1 JUMPI PUSH1 0x40 MLOAD PUSH3 0x461BCD PUSH1 0xE5 SHL DUP2 MSTORE PUSH1 0x4 ADD PUSH2 0xD36 SWAP1 PUSH2 0x3E11 JUMP JUMPDEST PUSH1 0x0 PUSH2 0x10F2 DUP5 DUP5 DUP1 DUP1 PUSH1 0x1F ADD PUSH1 0x20 DUP1 SWAP2 DIV MUL PUSH1 0x20 ADD PUSH1 0x40 MLOAD SWAP1 DUP2 ADD PUSH1 0x40 MSTORE DUP1 SWAP4 SWAP3 SWAP2 SWAP1 DUP2 DUP2 MSTORE PUSH1 0x20 ADD DUP4 DUP4 DUP1 DUP3 DUP5 CALLDATACOPY PUSH1 0x0 SWAP3 ADD SWAP2 SWAP1 SWAP2 MSTORE POP PUSH2 0x130C SWAP3 POP POP POP JUMP JUMPDEST PUSH1 0x0 DUP2 DUP2 MSTORE PUSH1 0x8 PUSH1 0x20 MSTORE PUSH1 0x40 SWAP1 KECCAK256 PUSH1 0x4 ADD SLOAD SWAP1 SWAP2 POP PUSH1 0xFF AND PUSH2 0x1126 JUMPI PUSH1 0x40 MLOAD PUSH3 0x461BCD PUSH1 0xE5 SHL DUP2 MSTORE PUSH1 0x4 ADD PUSH2 0xD36 SWAP1 PUSH2 0x3E3D JUMP JUMPDEST PUSH8 0x16345785D8A0000 CALLVALUE LT ISZERO PUSH2 0x116C JUMPI PUSH1 0x40 MLOAD PUSH3 0x461BCD PUSH1 0xE5 SHL DUP2 MSTORE PUSH1 0x20 PUSH1 0x4 DUP3 ADD MSTORE PUSH1 0xB PUSH1 0x24 DUP3 ADD MSTORE PUSH11 0x9AD2DC40605C62408AA89 PUSH1 0xAB SHL PUSH1 0x44 DUP3 ADD MSTORE PUSH1 0x64 ADD PUSH2 0xD36 JUMP JUMPDEST CALLER PUSH1 0x0 SWAP1 DUP2 MSTORE PUSH1 0x14 PUSH1 0x20 MSTORE PUSH1 0x40 SWAP1 KECCAK256 PUSH1 0x1 ADD SLOAD ISZERO PUSH2 0x11BE JUMPI PUSH1 0x40 MLOAD PUSH3 0x461BCD PUSH1 0xE5 SHL DUP2 MSTORE PUSH1 0x20 PUSH1 0x4 DUP3 ADD MSTORE PUSH1 0xF PUSH1 0x24 DUP3 ADD MSTORE PUSH15 0x506F736974696F6E20657869737473 PUSH1 0x88 SHL PUSH1 0x44 DUP3 ADD MSTORE PUSH1 0x64 ADD PUSH2 0xD36 JUMP JUMPDEST PUSH1 0x0 DUP2 DUP2 MSTORE PUSH1 0x8 PUSH1 0x20 MSTORE PUSH1 0x40 DUP1 DUP3 KECCAK256 PUSH1 0x1 ADD SLOAD DUP2 MLOAD PUSH4 0x3FABE5A3 PUSH1 0xE2 SHL DUP2 MSTORE SWAP2 MLOAD PUSH1 0x1 PUSH1 0x1 PUSH1 0xA0 SHL SUB SWAP1 SWAP2 AND SWAP2 PUSH4 0xFEAF968C SWAP2 PUSH1 0x4 DUP1 DUP4 ADD SWAP3 PUSH1 0xA0 SWAP3 SWAP2 SWAP1 DUP3 SWAP1 SUB ADD DUP2 DUP7 GAS STATICCALL ISZERO DUP1 ISZERO PUSH2 0x1215 JUMPI RETURNDATASIZE PUSH1 0x0 DUP1 RETURNDATACOPY RETURNDATASIZE PUSH1 0x0 REVERT JUMPDEST POP POP POP POP PUSH1 0x40 MLOAD RETURNDATASIZE PUSH1 0x1F NOT PUSH1 0x1F DUP3 ADD AND DUP3 ADD DUP1 PUSH1 0x40 MSTORE POP DUP2 ADD SWAP1 PUSH2 0x1239 SWAP2 SWAP1 PUSH2 0x3E82 JUMP JUMPDEST POP POP POP SWAP2 POP POP PUSH1 0x0 DUP2 SGT PUSH2 0x125F JUMPI PUSH1 0x40 MLOAD PUSH3 0x461BCD PUSH1 0xE5 SHL DUP2 MSTORE PUSH1 0x4 ADD PUSH2 0xD36 SWAP1 PUSH2 0x3ED2 JUMP JUMPDEST PUSH1 0x40 DUP1 MLOAD PUSH1 0x80 DUP2 ADD DUP3 MSTORE DUP4 DUP2 MSTORE CALLVALUE PUSH1 0x20 DUP1 DUP4 ADD DUP3 DUP2 MSTORE DUP4 DUP6 ADD DUP7 DUP2 MSTORE TIMESTAMP PUSH1 0x60 DUP7 ADD SWAP1 DUP2 MSTORE CALLER PUSH1 0x0 SWAP1 DUP2 MSTORE PUSH1 0x14 SWAP1 SWAP5 MSTORE SWAP6 DUP4 KECCAK256 SWAP5 MLOAD DUP6 SSTORE SWAP1 MLOAD PUSH1 0x1 DUP6 ADD SSTORE MLOAD PUSH1 0x2 DUP5 ADD SSTORE SWAP3 MLOAD PUSH1 0x3 SWAP1 SWAP3 ADD SWAP2 SWAP1 SWAP2 SSTORE PUSH1 0x15 DUP1 SLOAD SWAP2 SWAP3 SWAP1 SWAP2 PUSH2 0x12C0 SWAP1 DUP5 SWAP1 PUSH2 0x3D3B JUMP JUMPDEST SWAP1 SWAP2 SSTORE POP POP PUSH1 0x40 DUP1 MLOAD CALLVALUE DUP2 MSTORE PUSH1 0x20 DUP2 ADD DUP4 SWAP1 MSTORE CALLER SWAP2 PUSH32 0xF4BA3EBCD3C40319F1834BAA786A0F71B5A4B6015ADDB0DB1FCF2B1377F64E1B SWAP2 ADD PUSH1 0x40 MLOAD DUP1 SWAP2 SUB SWAP1 LOG2 POP POP PUSH1 0x1 PUSH1 0x0 SSTORE POP POP POP JUMP JUMPDEST PUSH1 0x0 DUP2 PUSH1 0x40 MLOAD PUSH1 0x20 ADD PUSH2 0x131F SWAP2 SWAP1 PUSH2 0x3DAE JUMP JUMPDEST PUSH1 0x40 MLOAD PUSH1 0x20 DUP2 DUP4 SUB SUB DUP2 MSTORE SWAP1 PUSH1 0x40 MSTORE DUP1 MLOAD SWAP1 PUSH1 0x20 ADD KECCAK256 SWAP1 POP SWAP2 SWAP1 POP JUMP JUMPDEST CALLER PUSH1 0x0 SWAP1 DUP2 MSTORE PUSH1 0x4 PUSH1 0x20 MSTORE PUSH1 0x40 SWAP1 KECCAK256 SLOAD PUSH1 0xFF AND PUSH2 0x136B JUMPI PUSH1 0x40 MLOAD PUSH3 0x461BCD PUSH1 0xE5 SHL DUP2 MSTORE PUSH1 0x4 ADD PUSH2 0xD36 SWAP1 PUSH2 0x3D4E JUMP JUMPDEST PUSH1 0x3 SLOAD PUSH1 0xFF AND PUSH2 0x13AA JUMPI PUSH1 0x40 MLOAD PUSH3 0x461BCD PUSH1 0xE5 SHL DUP2 MSTORE PUSH1 0x20 PUSH1 0x4 DUP3 ADD MSTORE PUSH1 0xA PUSH1 0x24 DUP3 ADD MSTORE PUSH10 0x139BDD081C185D5CD959 PUSH1 0xB2 SHL PUSH1 0x44 DUP3 ADD MSTORE PUSH1 0x64 ADD PUSH2 0xD36 JUMP JUMPDEST PUSH1 0x3 DUP1 SLOAD PUSH1 0xFF NOT AND SWAP1 SSTORE PUSH1 0x40 MLOAD CALLER DUP2 MSTORE PUSH32 0x5B65B0C1363B3003DB9BCC5E1FD8805A6D6BF5BF6DC9D3431EE4494CD7D11766 SWAP1 PUSH1 0x20 ADD PUSH2 0xEE7 JUMP JUMPDEST PUSH1 0x6 SLOAD PUSH1 0x1 PUSH1 0x1 PUSH1 0xA0 SHL SUB AND CALLER EQ PUSH2 0x140E JUMPI PUSH1 0x40 MLOAD PUSH3 0x461BCD PUSH1 0xE5 SHL DUP2 MSTORE PUSH1 0x4 ADD PUSH2 0xD36 SWAP1 PUSH2 0x3EF9 JUMP JUMPDEST PUSH1 0x0 PUSH1 0x7 SLOAD GT PUSH2 0x1457 JUMPI PUSH1 0x40 MLOAD PUSH3 0x461BCD PUSH1 0xE5 SHL DUP2 MSTORE PUSH1 0x20 PUSH1 0x4 DUP3 ADD MSTORE PUSH1 0x14 PUSH1 0x24 DUP3 ADD MSTORE PUSH20 0x4E6F20746178657320746F207769746864726177 PUSH1 0x60 SHL PUSH1 0x44 DUP3 ADD MSTORE PUSH1 0x64 ADD PUSH2 0xD36 JUMP JUMPDEST PUSH1 0x7 DUP1 SLOAD PUSH1 0x0 SWAP2 DUP3 SWAP1 SSTORE PUSH1 0x6 SLOAD PUSH1 0x40 MLOAD SWAP2 SWAP3 SWAP2 PUSH1 0x1 PUSH1 0x1 PUSH1 0xA0 SHL SUB SWAP1 SWAP2 AND SWAP1 DUP4 SWAP1 DUP4 DUP2 DUP2 DUP2 DUP6 DUP8 GAS CALL SWAP3 POP POP POP RETURNDATASIZE DUP1 PUSH1 0x0 DUP2 EQ PUSH2 0x14B0 JUMPI PUSH1 0x40 MLOAD SWAP2 POP PUSH1 0x1F NOT PUSH1 0x3F RETURNDATASIZE ADD AND DUP3 ADD PUSH1 0x40 MSTORE RETURNDATASIZE DUP3 MSTORE RETURNDATASIZE PUSH1 0x0 PUSH1 0x20 DUP5 ADD RETURNDATACOPY PUSH2 0x14B5 JUMP JUMPDEST PUSH1 0x60 SWAP2 POP JUMPDEST POP POP SWAP1 POP DUP1 PUSH2 0x14FE JUMPI PUSH1 0x40 MLOAD PUSH3 0x461BCD PUSH1 0xE5 SHL DUP2 MSTORE PUSH1 0x20 PUSH1 0x4 DUP3 ADD MSTORE PUSH1 0x15 PUSH1 0x24 DUP3 ADD MSTORE PUSH21 0x15185E081DDA5D1A191C985DD85B0819985A5B1959 PUSH1 0x5A SHL PUSH1 0x44 DUP3 ADD MSTORE PUSH1 0x64 ADD PUSH2 0xD36 JUMP JUMPDEST POP POP JUMP JUMPDEST PUSH1 0x6 SLOAD PUSH1 0x1 PUSH1 0x1 PUSH1 0xA0 SHL SUB AND CALLER EQ PUSH2 0x152C JUMPI PUSH1 0x40 MLOAD PUSH3 0x461BCD PUSH1 0xE5 SHL DUP2 MSTORE PUSH1 0x4 ADD PUSH2 0xD36 SWAP1 PUSH2 0x3EF9 JUMP JUMPDEST PUSH1 0x0 DUP2 DUP2 MSTORE PUSH1 0x17 PUSH1 0x20 MSTORE PUSH1 0x40 SWAP1 KECCAK256 SLOAD PUSH2 0x157C JUMPI PUSH1 0x40 MLOAD PUSH3 0x461BCD PUSH1 0xE5 SHL DUP2 MSTORE PUSH1 0x20 PUSH1 0x4 DUP3 ADD MSTORE PUSH1 0x12 PUSH1 0x24 DUP3 ADD MSTORE PUSH18 0x125B9D985B1A59081DDA5D1A191C985DD85B PUSH1 0x72 SHL PUSH1 0x44 DUP3 ADD MSTORE PUSH1 0x64 ADD PUSH2 0xD36 JUMP JUMPDEST PUSH1 0x0 DUP2 DUP2 MSTORE PUSH1 0x17 PUSH1 0x20 MSTORE PUSH1 0x40 SWAP1 KECCAK256 SLOAD PUSH2 0x1599 SWAP1 PUSH3 0x2A300 SWAP1 PUSH2 0x3D3B JUMP JUMPDEST TIMESTAMP LT ISZERO PUSH2 0x15E8 JUMPI PUSH1 0x40 MLOAD PUSH3 0x461BCD PUSH1 0xE5 SHL DUP2 MSTORE PUSH1 0x20 PUSH1 0x4 DUP3 ADD MSTORE PUSH1 0x18 PUSH1 0x24 DUP3 ADD MSTORE PUSH32 0x5769746864726177616C2064656C6179206E6F74206D65740000000000000000 PUSH1 0x44 DUP3 ADD MSTORE PUSH1 0x64 ADD PUSH2 0xD36 JUMP JUMPDEST PUSH1 0x7 DUP1 SLOAD PUSH1 0x0 SWAP2 DUP3 SWAP1 SSTORE DUP3 DUP3 MSTORE PUSH1 0x17 PUSH1 0x20 MSTORE PUSH1 0x40 DUP1 DUP4 KECCAK256 DUP4 SWAP1 SSTORE PUSH1 0x6 SLOAD SWAP1 MLOAD SWAP2 SWAP3 SWAP2 PUSH1 0x1 PUSH1 0x1 PUSH1 0xA0 SHL SUB SWAP1 SWAP2 AND SWAP1 DUP4 SWAP1 DUP4 DUP2 DUP2 DUP2 DUP6 DUP8 GAS CALL SWAP3 POP POP POP RETURNDATASIZE DUP1 PUSH1 0x0 DUP2 EQ PUSH2 0x1650 JUMPI PUSH1 0x40 MLOAD SWAP2 POP PUSH1 0x1F NOT PUSH1 0x3F RETURNDATASIZE ADD AND DUP3 ADD PUSH1 0x40 MSTORE RETURNDATASIZE DUP3 MSTORE RETURNDATASIZE PUSH1 0x0 PUSH1 0x20 DUP5 ADD RETURNDATACOPY PUSH2 0x1655 JUMP JUMPDEST PUSH1 0x60 SWAP2 POP JUMPDEST POP POP SWAP1 POP DUP1 PUSH2 0x1698 JUMPI PUSH1 0x40 MLOAD PUSH3 0x461BCD PUSH1 0xE5 SHL DUP2 MSTORE PUSH1 0x20 PUSH1 0x4 DUP3 ADD MSTORE PUSH1 0xF PUSH1 0x24 DUP3 ADD MSTORE PUSH15 0x151C985B9CD9995C8819985A5B1959 PUSH1 0x8A SHL PUSH1 0x44 DUP3 ADD MSTORE PUSH1 0x64 ADD PUSH2 0xD36 JUMP JUMPDEST POP POP POP JUMP JUMPDEST PUSH1 0x0 PUSH2 0x16DE DUP4 DUP4 DUP1 DUP1 PUSH1 0x1F ADD PUSH1 0x20 DUP1 SWAP2 DIV MUL PUSH1 0x20 ADD PUSH1 0x40 MLOAD SWAP1 DUP2 ADD PUSH1 0x40 MSTORE DUP1 SWAP4 SWAP3 SWAP2 SWAP1 DUP2 DUP2 MSTORE PUSH1 0x20 ADD DUP4 DUP4 DUP1 DUP3 DUP5 CALLDATACOPY PUSH1 0x0 SWAP3 ADD SWAP2 SWAP1 SWAP2 MSTORE POP PUSH2 0x130C SWAP3 POP POP POP JUMP JUMPDEST PUSH1 0x0 DUP2 DUP2 MSTORE PUSH1 0x8 PUSH1 0x20 MSTORE PUSH1 0x40 SWAP1 KECCAK256 PUSH1 0x4 ADD SLOAD SWAP1 SWAP2 POP PUSH1 0xFF AND PUSH2 0x1736 JUMPI PUSH1 0x40 MLOAD PUSH3 0x461BCD PUSH1 0xE5 SHL DUP2 MSTORE PUSH1 0x20 PUSH1 0x4 DUP3 ADD MSTORE PUSH1 0x11 PUSH1 0x24 DUP3 ADD MSTORE PUSH17 0x53796D626F6C206E6F7420616374697665 PUSH1 0x78 SHL PUSH1 0x44 DUP3 ADD MSTORE PUSH1 0x64 ADD PUSH2 0xD36 JUMP JUMPDEST PUSH1 0x6 SLOAD PUSH1 0x1 PUSH1 0x1 PUSH1 0xA0 SHL SUB AND CALLER EQ PUSH2 0x1760 JUMPI PUSH1 0x40 MLOAD PUSH3 0x461BCD PUSH1 0xE5 SHL DUP2 MSTORE PUSH1 0x4 ADD PUSH2 0xD36 SWAP1 PUSH2 0x3EF9 JUMP JUMPDEST PUSH1 0x0 DUP2 DUP2 MSTORE PUSH1 0x8 PUSH1 0x20 MSTORE PUSH1 0x40 SWAP1 DUP2 SWAP1 KECCAK256 PUSH1 0x4 ADD DUP1 SLOAD PUSH1 0xFF NOT AND SWAP1 SSTORE MLOAD PUSH32 0x2B06BE561EE99526DC571A9CFD3AE9A218FC9AC34FC8CB888C742FCB40A7D226 SWAP1 PUSH2 0x17AB SWAP1 DUP6 SWAP1 DUP6 SWAP1 PUSH2 0x3F1D JUMP JUMPDEST PUSH1 0x40 MLOAD DUP1 SWAP2 SUB SWAP1 LOG1 POP POP POP JUMP JUMPDEST PUSH1 0x2 PUSH1 0x0 SLOAD SUB PUSH2 0x17DA JUMPI PUSH1 0x40 MLOAD PUSH3 0x461BCD PUSH1 0xE5 SHL DUP2 MSTORE PUSH1 0x4 ADD PUSH2 0xD36 SWAP1 PUSH2 0x3D77 JUMP JUMPDEST PUSH1 0x2 PUSH1 0x0 DUP2 DUP2 SSTORE CALLER DUP2 MSTORE PUSH1 0x14 PUSH1 0x20 SWAP1 DUP2 MSTORE PUSH1 0x40 SWAP2 DUP3 SWAP1 KECCAK256 DUP3 MLOAD PUSH1 0x80 DUP2 ADD DUP5 MSTORE DUP2 SLOAD DUP2 MSTORE PUSH1 0x1 DUP3 ADD SLOAD SWAP3 DUP2 ADD DUP4 SWAP1 MSTORE SWAP4 DUP2 ADD SLOAD SWAP3 DUP5 ADD SWAP3 SWAP1 SWAP3 MSTORE PUSH1 0x3 SWAP1 SWAP2 ADD SLOAD PUSH1 0x60 DUP4 ADD MSTORE PUSH2 0x1858 JUMPI PUSH1 0x40 MLOAD PUSH3 0x461BCD PUSH1 0xE5 SHL DUP2 MSTORE PUSH1 0x20 PUSH1 0x4 DUP3 ADD MSTORE PUSH1 0xB PUSH1 0x24 DUP3 ADD MSTORE PUSH11 0x2737903837B9B4BA34B7B7 PUSH1 0xA9 SHL PUSH1 0x44 DUP3 ADD MSTORE PUSH1 0x64 ADD PUSH2 0xD36 JUMP JUMPDEST DUP1 MLOAD PUSH1 0x0 SWAP1 DUP2 MSTORE PUSH1 0x8 PUSH1 0x20 MSTORE PUSH1 0x40 DUP1 DUP3 KECCAK256 PUSH1 0x1 DUP2 ADD SLOAD DUP3 MLOAD PUSH4 0x3FABE5A3 PUSH1 0xE2 SHL DUP2 MSTORE SWAP3 MLOAD SWAP2 SWAP4 SWAP3 PUSH1 0x1 PUSH1 0x1 PUSH1 0xA0 SHL SUB SWAP1 SWAP2 AND SWAP2 PUSH4 0xFEAF968C SWAP2 PUSH1 0x4 DUP1 DUP3 ADD SWAP3 PUSH1 0xA0 SWAP3 SWAP1 SWAP2 SWAP1 DUP3 SWAP1 SUB ADD DUP2 DUP7 GAS STATICCALL ISZERO DUP1 ISZERO PUSH2 0x18B6 JUMPI RETURNDATASIZE PUSH1 0x0 DUP1 RETURNDATACOPY RETURNDATASIZE PUSH1 0x0 REVERT JUMPDEST POP POP POP POP PUSH1 0x40 MLOAD RETURNDATASIZE PUSH1 0x1F NOT PUSH1 0x1F DUP3 ADD AND DUP3 ADD DUP1 PUSH1 0x40 MSTORE POP DUP2 ADD SWAP1 PUSH2 0x18DA SWAP2 SWAP1 PUSH2 0x3E82 JUMP JUMPDEST POP POP POP SWAP2 POP POP PUSH1 0x0 DUP2 SGT PUSH2 0x1900 JUMPI PUSH1 0x40 MLOAD PUSH3 0x461BCD PUSH1 0xE5 SHL DUP2 MSTORE PUSH1 0x4 ADD PUSH2 0xD36 SWAP1 PUSH2 0x3ED2 JUMP JUMPDEST PUSH1 0x0 DUP4 PUSH1 0x40 ADD MLOAD DUP3 PUSH2 0x1912 SWAP2 SWAP1 PUSH2 0x3F4C JUMP JUMPDEST SWAP1 POP PUSH1 0x0 DUP1 DUP3 SGT ISZERO PUSH2 0x19A5 JUMPI DUP5 PUSH1 0x40 ADD MLOAD DUP3 DUP7 PUSH1 0x20 ADD MLOAD PUSH2 0x1933 SWAP2 SWAP1 PUSH2 0x3F6C JUMP JUMPDEST PUSH2 0x193D SWAP2 SWAP1 PUSH2 0x3F99 JUMP JUMPDEST SWAP1 POP DUP4 PUSH1 0x3 ADD SLOAD DUP2 GT ISZERO PUSH2 0x198B JUMPI PUSH1 0x40 MLOAD PUSH3 0x461BCD PUSH1 0xE5 SHL DUP2 MSTORE PUSH1 0x20 PUSH1 0x4 DUP3 ADD MSTORE PUSH1 0x15 PUSH1 0x24 DUP3 ADD MSTORE PUSH21 0x496E73756666696369656E74207265736572766573 PUSH1 0x58 SHL PUSH1 0x44 DUP3 ADD MSTORE PUSH1 0x64 ADD PUSH2 0xD36 JUMP JUMPDEST DUP1 DUP5 PUSH1 0x3 ADD PUSH1 0x0 DUP3 DUP3 SLOAD PUSH2 0x199F SWAP2 SWAP1 PUSH2 0x3D28 JUMP JUMPDEST SWAP1 SWAP2 SSTORE POP POP JUMPDEST DUP5 PUSH1 0x20 ADD MLOAD PUSH1 0x15 PUSH1 0x0 DUP3 DUP3 SLOAD PUSH2 0x19BB SWAP2 SWAP1 PUSH2 0x3D28 JUMP JUMPDEST SWAP1 SWAP2 SSTORE POP POP CALLER PUSH1 0x0 SWAP1 DUP2 MSTORE PUSH1 0x14 PUSH1 0x20 SWAP1 DUP2 MSTORE PUSH1 0x40 DUP3 KECCAK256 DUP3 DUP2 SSTORE PUSH1 0x1 DUP2 ADD DUP4 SWAP1 SSTORE PUSH1 0x2 DUP2 ADD DUP4 SWAP1 SSTORE PUSH1 0x3 ADD DUP3 SWAP1 SSTORE DUP7 ADD MLOAD PUSH2 0x19F6 SWAP1 DUP4 SWAP1 PUSH2 0x3D3B JUMP JUMPDEST PUSH1 0x40 MLOAD SWAP1 SWAP2 POP PUSH1 0x0 SWAP1 CALLER SWAP1 DUP4 SWAP1 DUP4 DUP2 DUP2 DUP2 DUP6 DUP8 GAS CALL SWAP3 POP POP POP RETURNDATASIZE DUP1 PUSH1 0x0 DUP2 EQ PUSH2 0x1A3B JUMPI PUSH1 0x40 MLOAD SWAP2 POP PUSH1 0x1F NOT PUSH1 0x3F RETURNDATASIZE ADD AND DUP3 ADD PUSH1 0x40 MSTORE RETURNDATASIZE DUP3 MSTORE RETURNDATASIZE PUSH1 0x0 PUSH1 0x20 DUP5 ADD RETURNDATACOPY PUSH2 0x1A40 JUMP JUMPDEST PUSH1 0x60 SWAP2 POP JUMPDEST POP POP SWAP1 POP DUP1 PUSH2 0x1A87 JUMPI PUSH1 0x40 MLOAD PUSH3 0x461BCD PUSH1 0xE5 SHL DUP2 MSTORE PUSH1 0x20 PUSH1 0x4 DUP3 ADD MSTORE PUSH1 0x13 PUSH1 0x24 DUP3 ADD MSTORE PUSH19 0x115512081D1C985B9CD9995C8819985A5B1959 PUSH1 0x6A SHL PUSH1 0x44 DUP3 ADD MSTORE PUSH1 0x64 ADD PUSH2 0xD36 JUMP JUMPDEST PUSH1 0x40 MLOAD DUP4 DUP2 MSTORE CALLER SWAP1 PUSH32 0xE26FEAB862B8DC2729BD359C56323C001EF16CD20EAE9FC4E0D461A6F0F29F15 SWAP1 PUSH1 0x20 ADD PUSH1 0x40 MLOAD DUP1 SWAP2 SUB SWAP1 LOG2 POP POP PUSH1 0x1 PUSH1 0x0 SSTORE POP POP POP POP POP JUMP JUMPDEST PUSH1 0x0 JUMPDEST PUSH1 0x9 SLOAD DUP2 LT ISZERO PUSH2 0x1B3C JUMPI PUSH1 0x0 PUSH1 0x9 DUP3 DUP2 SLOAD DUP2 LT PUSH2 0x1AEC JUMPI PUSH2 0x1AEC PUSH2 0x3FAD JUMP JUMPDEST PUSH1 0x0 SWAP2 DUP3 MSTORE PUSH1 0x20 DUP1 DUP4 KECCAK256 SWAP1 SWAP2 ADD SLOAD DUP1 DUP4 MSTORE PUSH1 0x8 SWAP1 SWAP2 MSTORE PUSH1 0x40 SWAP1 SWAP2 KECCAK256 PUSH1 0x4 DUP2 ADD SLOAD SWAP2 SWAP3 POP SWAP1 PUSH1 0xFF AND PUSH2 0x1B1E JUMPI POP POP PUSH2 0x1B2A JUMP JUMPDEST PUSH2 0x1B27 DUP3 PUSH2 0x33B9 JUMP JUMPDEST POP POP JUMPDEST DUP1 PUSH2 0x1B34 DUP2 PUSH2 0x3FC3 JUMP JUMPDEST SWAP2 POP POP PUSH2 0x1ACD JUMP JUMPDEST POP JUMP JUMPDEST PUSH1 0x2 PUSH1 0x0 SLOAD SUB PUSH2 0x1B61 JUMPI PUSH1 0x40 MLOAD PUSH3 0x461BCD PUSH1 0xE5 SHL DUP2 MSTORE PUSH1 0x4 ADD PUSH2 0xD36 SWAP1 PUSH2 0x3D77 JUMP JUMPDEST PUSH1 0x2 PUSH1 0x0 DUP2 DUP2 SSTORE PUSH1 0x40 DUP1 MLOAD DUP1 DUP3 ADD DUP3 MSTORE PUSH1 0x4 DUP2 MSTORE PUSH4 0x1CD95B1B PUSH1 0xE2 SHL PUSH1 0x20 DUP1 DUP4 ADD SWAP2 SWAP1 SWAP2 MSTORE CALLER DUP5 MSTORE SWAP4 SWAP1 SWAP4 MSTORE SWAP1 DUP2 SWAP1 KECCAK256 SWAP1 MLOAD NUMBER SWAP2 PUSH1 0x1 SWAP2 PUSH2 0x1BA3 SWAP1 DUP6 SWAP1 PUSH2 0x3DAE JUMP JUMPDEST SWAP1 DUP2 MSTORE PUSH1 0x20 ADD PUSH1 0x40 MLOAD DUP1 SWAP2 SUB SWAP1 KECCAK256 SLOAD PUSH2 0x1BBC SWAP2 SWAP1 PUSH2 0x3D3B JUMP JUMPDEST LT PUSH2 0x1BD9 JUMPI PUSH1 0x40 MLOAD PUSH3 0x461BCD PUSH1 0xE5 SHL DUP2 MSTORE PUSH1 0x4 ADD PUSH2 0xD36 SWAP1 PUSH2 0x3DCA JUMP JUMPDEST CALLER PUSH1 0x0 SWAP1 DUP2 MSTORE PUSH1 0x2 PUSH1 0x20 MSTORE PUSH1 0x40 SWAP1 DUP2 SWAP1 KECCAK256 SWAP1 MLOAD NUMBER SWAP2 SWAP1 PUSH2 0x1BFA SWAP1 DUP5 SWAP1 PUSH2 0x3DAE JUMP JUMPDEST SWAP1 DUP2 MSTORE PUSH1 0x40 MLOAD SWAP1 DUP2 SWAP1 SUB PUSH1 0x20 ADD SWAP1 KECCAK256 SSTORE PUSH1 0x3 SLOAD PUSH1 0xFF AND ISZERO PUSH2 0x1C2D JUMPI PUSH1 0x40 MLOAD PUSH3 0x461BCD PUSH1 0xE5 SHL DUP2 MSTORE PUSH1 0x4 ADD PUSH2 0xD36 SWAP1 PUSH2 0x3E11 JUMP JUMPDEST PUSH1 0x0 PUSH2 0x1C6E DUP6 DUP6 DUP1 DUP1 PUSH1 0x1F ADD PUSH1 0x20 DUP1 SWAP2 DIV MUL PUSH1 0x20 ADD PUSH1 0x40 MLOAD SWAP1 DUP2 ADD PUSH1 0x40 MSTORE DUP1 SWAP4 SWAP3 SWAP2 SWAP1 DUP2 DUP2 MSTORE PUSH1 0x20 ADD DUP4 DUP4 DUP1 DUP3 DUP5 CALLDATACOPY PUSH1 0x0 SWAP3 ADD SWAP2 SWAP1 SWAP2 MSTORE POP PUSH2 0x130C SWAP3 POP POP POP JUMP JUMPDEST PUSH1 0x0 DUP2 DUP2 MSTORE PUSH1 0x8 PUSH1 0x20 MSTORE PUSH1 0x40 SWAP1 KECCAK256 SWAP1 SWAP2 POP DUP4 PUSH2 0x1CCC JUMPI PUSH1 0x40 MLOAD PUSH3 0x461BCD PUSH1 0xE5 SHL DUP2 MSTORE PUSH1 0x20 PUSH1 0x4 DUP3 ADD MSTORE PUSH1 0x17 PUSH1 0x24 DUP3 ADD MSTORE PUSH32 0x416D6F756E74206D75737420626520706F736974697665000000000000000000 PUSH1 0x44 DUP3 ADD MSTORE PUSH1 0x64 ADD PUSH2 0xD36 JUMP JUMPDEST CALLER PUSH1 0x0 SWAP1 DUP2 MSTORE PUSH1 0xF PUSH1 0x20 MSTORE PUSH1 0x40 SWAP1 KECCAK256 SLOAD DUP5 GT ISZERO PUSH2 0x1D22 JUMPI PUSH1 0x40 MLOAD PUSH3 0x461BCD PUSH1 0xE5 SHL DUP2 MSTORE PUSH1 0x20 PUSH1 0x4 DUP3 ADD MSTORE PUSH1 0x14 PUSH1 0x24 DUP3 ADD MSTORE PUSH20 0x496E73756666696369656E742062616C616E6365 PUSH1 0x60 SHL PUSH1 0x44 DUP3 ADD MSTORE PUSH1 0x64 ADD PUSH2 0xD36 JUMP JUMPDEST PUSH1 0x0 PUSH1 0x8 PUSH1 0x0 PUSH2 0x1D4C PUSH1 0x40 MLOAD DUP1 PUSH1 0x40 ADD PUSH1 0x40 MSTORE DUP1 PUSH1 0x3 DUP2 MSTORE PUSH1 0x20 ADD PUSH3 0x8AA89 PUSH1 0xEB SHL DUP2 MSTORE POP PUSH2 0x130C JUMP JUMPDEST DUP2 MSTORE PUSH1 0x20 ADD SWAP1 DUP2 MSTORE PUSH1 0x20 ADD PUSH1 0x0 KECCAK256 PUSH1 0x1 ADD PUSH1 0x0 SWAP1 SLOAD SWAP1 PUSH2 0x100 EXP SWAP1 DIV PUSH1 0x1 PUSH1 0x1 PUSH1 0xA0 SHL SUB AND PUSH1 0x1 PUSH1 0x1 PUSH1 0xA0 SHL SUB AND PUSH4 0xFEAF968C PUSH1 0x40 MLOAD DUP2 PUSH4 0xFFFFFFFF AND PUSH1 0xE0 SHL DUP2 MSTORE PUSH1 0x4 ADD PUSH1 0xA0 PUSH1 0x40 MLOAD DUP1 DUP4 SUB DUP2 DUP7 GAS STATICCALL ISZERO DUP1 ISZERO PUSH2 0x1DAE JUMPI RETURNDATASIZE PUSH1 0x0 DUP1 RETURNDATACOPY RETURNDATASIZE PUSH1 0x0 REVERT JUMPDEST POP POP POP POP PUSH1 0x40 MLOAD RETURNDATASIZE PUSH1 0x1F NOT PUSH1 0x1F DUP3 ADD AND DUP3 ADD DUP1 PUSH1 0x40 MSTORE POP DUP2 ADD SWAP1 PUSH2 0x1DD2 SWAP2 SWAP1 PUSH2 0x3E82 JUMP JUMPDEST POP POP POP SWAP2 POP POP PUSH1 0x0 DUP2 SGT PUSH2 0x1E1C JUMPI PUSH1 0x40 MLOAD PUSH3 0x461BCD PUSH1 0xE5 SHL DUP2 MSTORE PUSH1 0x20 PUSH1 0x4 DUP3 ADD MSTORE PUSH1 0x11 PUSH1 0x24 DUP3 ADD MSTORE PUSH17 0x496E76616C696420455448207072696365 PUSH1 0x78 SHL PUSH1 0x44 DUP3 ADD MSTORE PUSH1 0x64 ADD PUSH2 0xD36 JUMP JUMPDEST PUSH1 0x0 PUSH2 0x1E28 DUP9 DUP9 PUSH2 0x2A09 JUMP JUMPDEST PUSH1 0xD SLOAD SWAP1 SWAP2 POP PUSH1 0x0 SWAP1 PUSH2 0x1E3F SWAP1 PUSH1 0xFF AND PUSH1 0xA PUSH2 0x40C0 JUMP JUMPDEST PUSH2 0x1E49 DUP4 DUP10 PUSH2 0x3F6C JUMP JUMPDEST PUSH2 0x1E53 SWAP2 SWAP1 PUSH2 0x3F99 JUMP JUMPDEST SWAP1 POP PUSH1 0x0 DUP4 PUSH2 0x1E64 PUSH1 0x8 PUSH1 0xA PUSH2 0x40CF JUMP JUMPDEST PUSH2 0x1E6E SWAP1 DUP5 PUSH2 0x3F6C JUMP JUMPDEST PUSH2 0x1E78 SWAP2 SWAP1 PUSH2 0x3F99 JUMP JUMPDEST SWAP1 POP PUSH1 0x0 PUSH2 0x2710 PUSH2 0x1E8B PUSH2 0x1F4 DUP5 PUSH2 0x3F6C JUMP JUMPDEST PUSH2 0x1E95 SWAP2 SWAP1 PUSH2 0x3F99 JUMP JUMPDEST SWAP1 POP PUSH1 0x0 PUSH2 0x1EA3 DUP3 DUP5 PUSH2 0x3D28 JUMP JUMPDEST SWAP1 POP DUP2 PUSH1 0x7 PUSH1 0x0 DUP3 DUP3 SLOAD PUSH2 0x1EB7 SWAP2 SWAP1 PUSH2 0x3D3B JUMP JUMPDEST SWAP1 SWAP2 SSTORE POP POP PUSH1 0x3 DUP8 ADD SLOAD DUP4 GT ISZERO PUSH2 0x1F07 JUMPI PUSH1 0x40 MLOAD PUSH3 0x461BCD PUSH1 0xE5 SHL DUP2 MSTORE PUSH1 0x20 PUSH1 0x4 DUP3 ADD MSTORE PUSH1 0x14 PUSH1 0x24 DUP3 ADD MSTORE PUSH20 0x496E73756666696369656E742072657365727665 PUSH1 0x60 SHL PUSH1 0x44 DUP3 ADD MSTORE PUSH1 0x64 ADD PUSH2 0xD36 JUMP JUMPDEST PUSH2 0x1F4 DUP8 PUSH1 0x3 ADD SLOAD PUSH2 0x1F19 SWAP2 SWAP1 PUSH2 0x3F6C JUMP JUMPDEST PUSH2 0x1F25 DUP5 PUSH2 0x2710 PUSH2 0x3F6C JUMP JUMPDEST GT ISZERO PUSH2 0x1F6B JUMPI PUSH1 0x40 MLOAD PUSH3 0x461BCD PUSH1 0xE5 SHL DUP2 MSTORE PUSH1 0x20 PUSH1 0x4 DUP3 ADD MSTORE PUSH1 0x15 PUSH1 0x24 DUP3 ADD MSTORE PUSH21 0x151BDBC81B5D58DA081C1C9A58D9481A5B5C1858DD PUSH1 0x5A SHL PUSH1 0x44 DUP3 ADD MSTORE PUSH1 0x64 ADD PUSH2 0xD36 JUMP JUMPDEST DUP3 DUP8 PUSH1 0x3 ADD PUSH1 0x0 DUP3 DUP3 SLOAD PUSH2 0x1F7F SWAP2 SWAP1 PUSH2 0x3D28 JUMP JUMPDEST SWAP1 SWAP2 SSTORE POP PUSH2 0x1F8F SWAP1 POP CALLER DUP12 PUSH2 0x374C JUMP JUMPDEST PUSH1 0x40 MLOAD PUSH1 0x0 SWAP1 CALLER SWAP1 DUP4 SWAP1 DUP4 DUP2 DUP2 DUP2 DUP6 DUP8 GAS CALL SWAP3 POP POP POP RETURNDATASIZE DUP1 PUSH1 0x0 DUP2 EQ PUSH2 0x1FD1 JUMPI PUSH1 0x40 MLOAD SWAP2 POP PUSH1 0x1F NOT PUSH1 0x3F RETURNDATASIZE ADD AND DUP3 ADD PUSH1 0x40 MSTORE RETURNDATASIZE DUP3 MSTORE RETURNDATASIZE PUSH1 0x0 PUSH1 0x20 DUP5 ADD RETURNDATACOPY PUSH2 0x1FD6 JUMP JUMPDEST PUSH1 0x60 SWAP2 POP JUMPDEST POP POP SWAP1 POP DUP1 PUSH2 0x201D JUMPI PUSH1 0x40 MLOAD PUSH3 0x461BCD PUSH1 0xE5 SHL DUP2 MSTORE PUSH1 0x20 PUSH1 0x4 DUP3 ADD MSTORE PUSH1 0x13 PUSH1 0x24 DUP3 ADD MSTORE PUSH19 0x115512081D1C985B9CD9995C8819985A5B1959 PUSH1 0x6A SHL PUSH1 0x44 DUP3 ADD MSTORE PUSH1 0x64 ADD PUSH2 0xD36 JUMP JUMPDEST PUSH1 0x40 DUP1 MLOAD DUP5 DUP2 MSTORE PUSH1 0x0 PUSH1 0x20 DUP3 ADD MSTORE PUSH32 0x39F668D6F1B4338891DC891669079F6724A94B39E1CE3570BCFC68B2C036FF5E SWAP2 ADD PUSH1 0x40 MLOAD DUP1 SWAP2 SUB SWAP1 LOG1 POP POP PUSH1 0x1 PUSH1 0x0 SSTORE POP POP POP POP POP POP POP POP POP POP POP JUMP JUMPDEST PUSH1 0x60 PUSH1 0x40 MLOAD DUP1 PUSH2 0x160 ADD PUSH1 0x40 MSTORE DUP1 PUSH2 0x123 DUP2 MSTORE PUSH1 0x20 ADD PUSH2 0x436A PUSH2 0x123 SWAP2 CODECOPY SWAP1 POP SWAP1 JUMP JUMPDEST PUSH1 0xC DUP1 SLOAD PUSH2 0xBF8 SWAP1 PUSH2 0x3CD8 JUMP JUMPDEST CALLER PUSH1 0x0 SWAP1 DUP2 MSTORE PUSH1 0x4 PUSH1 0x20 MSTORE PUSH1 0x40 SWAP1 KECCAK256 SLOAD PUSH1 0xFF AND PUSH2 0x20C9 JUMPI PUSH1 0x40 MLOAD PUSH3 0x461BCD PUSH1 0xE5 SHL DUP2 MSTORE PUSH1 0x4 ADD PUSH2 0xD36 SWAP1 PUSH2 0x3D4E JUMP JUMPDEST PUSH1 0x3 SLOAD PUSH1 0xFF AND ISZERO PUSH2 0x210D JUMPI PUSH1 0x40 MLOAD PUSH3 0x461BCD PUSH1 0xE5 SHL DUP2 MSTORE PUSH1 0x20 PUSH1 0x4 DUP3 ADD MSTORE PUSH1 0xE PUSH1 0x24 DUP3 ADD MSTORE PUSH14 0x105B1C9958591E481C185D5CD959 PUSH1 0x92 SHL PUSH1 0x44 DUP3 ADD MSTORE PUSH1 0x64 ADD PUSH2 0xD36 JUMP JUMPDEST PUSH1 0x3 DUP1 SLOAD PUSH1 0xFF NOT AND PUSH1 0x1 OR SWAP1 SSTORE PUSH1 0x40 MLOAD CALLER DUP2 MSTORE PUSH32 0x81990FD9A5C552B8E3677917D8A03C07678F0D2CB68F88B634ACA2022E9BD19F SWAP1 PUSH1 0x20 ADD PUSH2 0xEE7 JUMP JUMPDEST PUSH1 0x9 DUP2 DUP2 SLOAD DUP2 LT PUSH2 0x215A JUMPI PUSH1 0x0 DUP1 REVERT JUMPDEST PUSH1 0x0 SWAP2 DUP3 MSTORE PUSH1 0x20 SWAP1 SWAP2 KECCAK256 ADD SLOAD SWAP1 POP DUP2 JUMP JUMPDEST PUSH1 0xB DUP1 SLOAD PUSH2 0xBF8 SWAP1 PUSH2 0x3CD8 JUMP JUMPDEST PUSH1 0x6 SLOAD PUSH1 0x1 PUSH1 0x1 PUSH1 0xA0 SHL SUB AND CALLER EQ PUSH2 0x21A2 JUMPI PUSH1 0x40 MLOAD PUSH3 0x461BCD PUSH1 0xE5 SHL DUP2 MSTORE PUSH1 0x4 ADD PUSH2 0xD36 SWAP1 PUSH2 0x3EF9 JUMP JUMPDEST PUSH1 0x1 PUSH1 0x1 PUSH1 0xA0 SHL SUB DUP2 AND PUSH1 0x0 SWAP1 DUP2 MSTORE PUSH1 0x4 PUSH1 0x20 MSTORE PUSH1 0x40 SWAP1 KECCAK256 SLOAD PUSH1 0xFF AND ISZERO PUSH2 0x21FE JUMPI PUSH1 0x40 MLOAD PUSH3 0x461BCD PUSH1 0xE5 SHL DUP2 MSTORE PUSH1 0x20 PUSH1 0x4 DUP3 ADD MSTORE PUSH1 0x10 PUSH1 0x24 DUP3 ADD MSTORE PUSH16 0x20B63932B0B23C9037B832B930BA37B9 PUSH1 0x81 SHL PUSH1 0x44 DUP3 ADD MSTORE PUSH1 0x64 ADD PUSH2 0xD36 JUMP JUMPDEST PUSH1 0x5 DUP1 SLOAD LT PUSH2 0x2244 JUMPI PUSH1 0x40 MLOAD PUSH3 0x461BCD PUSH1 0xE5 SHL DUP2 MSTORE PUSH1 0x20 PUSH1 0x4 DUP3 ADD MSTORE PUSH1 0x12 PUSH1 0x24 DUP3 ADD MSTORE PUSH18 0x546F6F206D616E79206F70657261746F7273 PUSH1 0x70 SHL PUSH1 0x44 DUP3 ADD MSTORE PUSH1 0x64 ADD PUSH2 0xD36 JUMP JUMPDEST PUSH1 0x1 PUSH1 0x1 PUSH1 0xA0 SHL SUB DUP2 AND PUSH1 0x0 SWAP1 DUP2 MSTORE PUSH1 0x4 PUSH1 0x20 MSTORE PUSH1 0x40 DUP2 KECCAK256 DUP1 SLOAD PUSH1 0xFF NOT AND PUSH1 0x1 OR SWAP1 SSTORE PUSH1 0x5 DUP1 SLOAD SWAP2 PUSH2 0x2275 DUP4 PUSH2 0x3FC3 JUMP JUMPDEST SWAP1 SWAP2 SSTORE POP POP PUSH1 0x40 MLOAD PUSH1 0x1 PUSH1 0x1 PUSH1 0xA0 SHL SUB DUP3 AND DUP2 MSTORE PUSH32 0xAC6FA858E9350A46CEC16539926E0FDE25B7629F84B5A72BFFAAE4DF888AE86D SWAP1 PUSH1 0x20 ADD JUMPDEST PUSH1 0x40 MLOAD DUP1 SWAP2 SUB SWAP1 LOG1 POP JUMP JUMPDEST PUSH1 0x0 DUP2 SWAP1 POP PUSH1 0x0 DUP2 PUSH1 0x1 PUSH1 0x1 PUSH1 0xA0 SHL SUB AND PUSH4 0x7284E416 PUSH1 0x40 MLOAD DUP2 PUSH4 0xFFFFFFFF AND PUSH1 0xE0 SHL DUP2 MSTORE PUSH1 0x4 ADD PUSH1 0x0 PUSH1 0x40 MLOAD DUP1 DUP4 SUB DUP2 DUP7 GAS STATICCALL ISZERO DUP1 ISZERO PUSH2 0x22FF JUMPI RETURNDATASIZE PUSH1 0x0 DUP1 RETURNDATACOPY RETURNDATASIZE PUSH1 0x0 REVERT JUMPDEST POP POP POP POP PUSH1 0x40 MLOAD RETURNDATASIZE PUSH1 0x0 DUP3 RETURNDATACOPY PUSH1 0x1F RETURNDATASIZE SWAP1 DUP2 ADD PUSH1 0x1F NOT AND DUP3 ADD PUSH1 0x40 MSTORE PUSH2 0x2327 SWAP2 SWAP1 DUP2 ADD SWAP1 PUSH2 0x40DB JUMP JUMPDEST SWAP1 POP PUSH1 0x0 DUP2 MLOAD GT PUSH2 0x2369 JUMPI PUSH1 0x40 MLOAD PUSH3 0x461BCD PUSH1 0xE5 SHL DUP2 MSTORE PUSH1 0x20 PUSH1 0x4 DUP3 ADD MSTORE PUSH1 0xC PUSH1 0x24 DUP3 ADD MSTORE PUSH12 0x115B5C1D1E481CDE5B589BDB PUSH1 0xA2 SHL PUSH1 0x44 DUP3 ADD MSTORE PUSH1 0x64 ADD PUSH2 0xD36 JUMP JUMPDEST PUSH1 0x0 PUSH2 0x2374 DUP3 PUSH2 0x130C JUMP JUMPDEST PUSH1 0x0 DUP2 DUP2 MSTORE PUSH1 0x8 PUSH1 0x20 MSTORE PUSH1 0x40 SWAP1 KECCAK256 PUSH1 0x4 ADD SLOAD SWAP1 SWAP2 POP PUSH1 0xFF AND ISZERO PUSH2 0x23D1 JUMPI PUSH1 0x40 MLOAD PUSH3 0x461BCD PUSH1 0xE5 SHL DUP2 MSTORE PUSH1 0x20 PUSH1 0x4 DUP3 ADD MSTORE PUSH1 0x15 PUSH1 0x24 DUP3 ADD MSTORE PUSH21 0x53796D626F6C20616C726561647920657869737473 PUSH1 0x58 SHL PUSH1 0x44 DUP3 ADD MSTORE PUSH1 0x64 ADD PUSH2 0xD36 JUMP JUMPDEST PUSH1 0x0 DUP1 PUSH1 0x0 DUP1 PUSH1 0x0 DUP8 PUSH1 0x1 PUSH1 0x1 PUSH1 0xA0 SHL SUB AND PUSH4 0xFEAF968C PUSH1 0x40 MLOAD DUP2 PUSH4 0xFFFFFFFF AND PUSH1 0xE0 SHL DUP2 MSTORE PUSH1 0x4 ADD PUSH1 0xA0 PUSH1 0x40 MLOAD DUP1 DUP4 SUB DUP2 DUP7 GAS STATICCALL ISZERO DUP1 ISZERO PUSH2 0x2417 JUMPI RETURNDATASIZE PUSH1 0x0 DUP1 RETURNDATACOPY RETURNDATASIZE PUSH1 0x0 REVERT JUMPDEST POP POP POP POP PUSH1 0x40 MLOAD RETURNDATASIZE PUSH1 0x1F NOT PUSH1 0x1F DUP3 ADD AND DUP3 ADD DUP1 PUSH1 0x40 MSTORE POP DUP2 ADD SWAP1 PUSH2 0x243B SWAP2 SWAP1 PUSH2 0x3E82 JUMP JUMPDEST SWAP5 POP SWAP5 POP SWAP5 POP SWAP5 POP SWAP5 POP PUSH1 0x0 DUP5 SGT PUSH2 0x2465 JUMPI PUSH1 0x40 MLOAD PUSH3 0x461BCD PUSH1 0xE5 SHL DUP2 MSTORE PUSH1 0x4 ADD PUSH2 0xD36 SWAP1 PUSH2 0x3ED2 JUMP JUMPDEST PUSH2 0x2471 PUSH2 0xE10 TIMESTAMP PUSH2 0x3D28 JUMP JUMPDEST DUP3 LT ISZERO PUSH2 0x24B5 JUMPI PUSH1 0x40 MLOAD PUSH3 0x461BCD PUSH1 0xE5 SHL DUP2 MSTORE PUSH1 0x20 PUSH1 0x4 DUP3 ADD MSTORE PUSH1 0x12 PUSH1 0x24 DUP3 ADD MSTORE PUSH18 0x141C9A58D94819995959081D1BDBC81BDB19 PUSH1 0x72 SHL PUSH1 0x44 DUP3 ADD MSTORE PUSH1 0x64 ADD PUSH2 0xD36 JUMP JUMPDEST DUP5 PUSH1 0x1 PUSH1 0x1 PUSH1 0x50 SHL SUB AND DUP2 PUSH1 0x1 PUSH1 0x1 PUSH1 0x50 SHL SUB AND LT ISZERO PUSH2 0x250A JUMPI PUSH1 0x40 MLOAD PUSH3 0x461BCD PUSH1 0xE5 SHL DUP2 MSTORE PUSH1 0x20 PUSH1 0x4 DUP3 ADD MSTORE PUSH1 0x10 PUSH1 0x24 DUP3 ADD MSTORE PUSH16 0x50726963652066656564207374616C65 PUSH1 0x80 SHL PUSH1 0x44 DUP3 ADD MSTORE PUSH1 0x64 ADD PUSH2 0xD36 JUMP JUMPDEST PUSH1 0x64 DUP6 PUSH1 0x1 PUSH1 0x1 PUSH1 0x50 SHL SUB AND LT ISZERO PUSH2 0x2559 JUMPI PUSH1 0x40 MLOAD PUSH3 0x461BCD PUSH1 0xE5 SHL DUP2 MSTORE PUSH1 0x20 PUSH1 0x4 DUP3 ADD MSTORE PUSH1 0x12 PUSH1 0x24 DUP3 ADD MSTORE PUSH18 0x5072696365206665656420746F6F206E6577 PUSH1 0x70 SHL PUSH1 0x44 DUP3 ADD MSTORE PUSH1 0x64 ADD PUSH2 0xD36 JUMP JUMPDEST PUSH1 0x40 DUP1 MLOAD PUSH1 0xE0 DUP2 ADD DUP3 MSTORE DUP9 DUP2 MSTORE PUSH1 0x1 PUSH1 0x1 PUSH1 0xA0 SHL SUB DUP12 AND PUSH1 0x20 DUP1 DUP4 ADD SWAP2 SWAP1 SWAP2 MSTORE DUP2 DUP4 ADD DUP8 SWAP1 MSTORE PUSH1 0x0 PUSH1 0x60 DUP4 ADD DUP2 SWAP1 MSTORE PUSH1 0x1 PUSH1 0x80 DUP5 ADD MSTORE TIMESTAMP PUSH1 0xA0 DUP5 ADD MSTORE PUSH1 0xC0 DUP4 ADD DUP2 SWAP1 MSTORE DUP10 DUP2 MSTORE PUSH1 0x8 SWAP1 SWAP2 MSTORE SWAP2 SWAP1 SWAP2 KECCAK256 DUP2 MLOAD DUP2 SWAP1 PUSH2 0x25B6 SWAP1 DUP3 PUSH2 0x41A0 JUMP JUMPDEST POP PUSH1 0x20 DUP3 ADD MLOAD PUSH1 0x1 DUP3 DUP2 ADD DUP1 SLOAD PUSH1 0x1 PUSH1 0x1 PUSH1 0xA0 SHL SUB NOT AND PUSH1 0x1 PUSH1 0x1 PUSH1 0xA0 SHL SUB SWAP1 SWAP4 AND SWAP3 SWAP1 SWAP3 OR SWAP1 SWAP2 SSTORE PUSH1 0x40 DUP1 DUP5 ADD MLOAD PUSH1 0x2 DUP5 ADD SSTORE PUSH1 0x60 DUP5 ADD MLOAD PUSH1 0x3 DUP5 ADD SSTORE PUSH1 0x80 DUP5 ADD MLOAD PUSH1 0x4 DUP5 ADD DUP1 SLOAD PUSH1 0xFF NOT AND SWAP2 ISZERO ISZERO SWAP2 SWAP1 SWAP2 OR SWAP1 SSTORE PUSH1 0xA0 DUP5 ADD MLOAD PUSH1 0x5 DUP5 ADD SSTORE PUSH1 0xC0 SWAP1 SWAP4 ADD MLOAD PUSH1 0x6 SWAP1 SWAP3 ADD SWAP2 SWAP1 SWAP2 SSTORE PUSH1 0x9 DUP1 SLOAD SWAP2 DUP3 ADD DUP2 SSTORE PUSH1 0x0 MSTORE PUSH32 0x6E1540171B6C0C960B71A7020D9F60077F6AF931A8BBF590DA0223DACF75C7AF ADD DUP8 SWAP1 SSTORE MLOAD PUSH32 0x27DA68EE2AD2C8BBE20C961595D7723244C182397720AFDFECA8EE27E2294125 SWAP1 PUSH2 0x2686 SWAP1 DUP10 SWAP1 DUP13 SWAP1 PUSH2 0x4260 JUMP JUMPDEST PUSH1 0x40 MLOAD DUP1 SWAP2 SUB SWAP1 LOG1 PUSH32 0x1599B4E126293BE57D72206204C56B4A759F01362EF078DA9AA157AC4120F17 DUP8 DUP11 PUSH1 0x0 PUSH1 0x40 MLOAD PUSH2 0x26C2 SWAP4 SWAP3 SWAP2 SWAP1 PUSH2 0x428A JUMP JUMPDEST PUSH1 0x40 MLOAD DUP1 SWAP2 SUB SWAP1 LOG1 POP POP POP POP POP POP POP POP POP JUMP JUMPDEST PUSH1 0x0 DUP1 PUSH1 0x0 DUP1 PUSH1 0x0 PUSH2 0x271C DUP8 DUP8 DUP1 DUP1 PUSH1 0x1F ADD PUSH1 0x20 DUP1 SWAP2 DIV MUL PUSH1 0x20 ADD PUSH1 0x40 MLOAD SWAP1 DUP2 ADD PUSH1 0x40 MSTORE DUP1 SWAP4 SWAP3 SWAP2 SWAP1 DUP2 DUP2 MSTORE PUSH1 0x20 ADD DUP4 DUP4 DUP1 DUP3 DUP5 CALLDATACOPY PUSH1 0x0 SWAP3 ADD SWAP2 SWAP1 SWAP2 MSTORE POP PUSH2 0x130C SWAP3 POP POP POP JUMP JUMPDEST PUSH1 0x0 SWAP1 DUP2 MSTORE PUSH1 0x8 PUSH1 0x20 MSTORE PUSH1 0x40 SWAP1 KECCAK256 PUSH1 0x1 DUP2 ADD SLOAD PUSH1 0x2 DUP3 ADD SLOAD PUSH1 0x3 DUP4 ADD SLOAD PUSH1 0x4 SWAP1 SWAP4 ADD SLOAD PUSH1 0x1 PUSH1 0x1 PUSH1 0xA0 SHL SUB SWAP1 SWAP3 AND SWAP11 SWAP1 SWAP10 POP SWAP2 SWAP8 POP PUSH1 0xFF AND SWAP6 POP SWAP4 POP POP POP POP JUMP JUMPDEST CALLER PUSH1 0x0 SWAP1 DUP2 MSTORE PUSH1 0xF PUSH1 0x20 MSTORE PUSH1 0x40 DUP2 KECCAK256 SLOAD DUP3 GT ISZERO PUSH2 0x27B0 JUMPI PUSH1 0x40 MLOAD PUSH3 0x461BCD PUSH1 0xE5 SHL DUP2 MSTORE PUSH1 0x20 PUSH1 0x4 DUP3 ADD MSTORE PUSH1 0x11 PUSH1 0x24 DUP3 ADD MSTORE PUSH17 0x4E6F7420656E6F75676820746F6B656E73 PUSH1 0x78 SHL PUSH1 0x44 DUP3 ADD MSTORE PUSH1 0x64 ADD PUSH2 0xD36 JUMP JUMPDEST CALLER PUSH1 0x0 SWAP1 DUP2 MSTORE PUSH1 0xF PUSH1 0x20 MSTORE PUSH1 0x40 DUP2 KECCAK256 DUP1 SLOAD DUP5 SWAP3 SWAP1 PUSH2 0x27CF SWAP1 DUP5 SWAP1 PUSH2 0x3D28 JUMP JUMPDEST SWAP1 SWAP2 SSTORE POP POP PUSH1 0x1 PUSH1 0x1 PUSH1 0xA0 SHL SUB DUP4 AND PUSH1 0x0 SWAP1 DUP2 MSTORE PUSH1 0xF PUSH1 0x20 MSTORE PUSH1 0x40 DUP2 KECCAK256 DUP1 SLOAD DUP5 SWAP3 SWAP1 PUSH2 0x27FC SWAP1 DUP5 SWAP1 PUSH2 0x3D3B JUMP JUMPDEST SWAP1 SWAP2 SSTORE POP POP PUSH1 0x40 MLOAD DUP3 DUP2 MSTORE PUSH1 0x1 PUSH1 0x1 PUSH1 0xA0 SHL SUB DUP5 AND SWAP1 CALLER SWAP1 PUSH1 0x0 DUP1 MLOAD PUSH1 0x20 PUSH2 0x434A DUP4 CODECOPY DUP2 MLOAD SWAP2 MSTORE SWAP1 PUSH1 0x20 ADD PUSH2 0xCCC JUMP JUMPDEST PUSH1 0x6 SLOAD PUSH1 0x1 PUSH1 0x1 PUSH1 0xA0 SHL SUB AND CALLER EQ PUSH2 0x2856 JUMPI PUSH1 0x40 MLOAD PUSH3 0x461BCD PUSH1 0xE5 SHL DUP2 MSTORE PUSH1 0x4 ADD PUSH2 0xD36 SWAP1 PUSH2 0x3EF9 JUMP JUMPDEST PUSH1 0x1 PUSH1 0x1 PUSH1 0xA0 SHL SUB DUP2 AND PUSH1 0x0 SWAP1 DUP2 MSTORE PUSH1 0x4 PUSH1 0x20 MSTORE PUSH1 0x40 SWAP1 KECCAK256 SLOAD PUSH1 0xFF AND PUSH2 0x28AD JUMPI PUSH1 0x40 MLOAD PUSH3 0x461BCD PUSH1 0xE5 SHL DUP2 MSTORE PUSH1 0x20 PUSH1 0x4 DUP3 ADD MSTORE PUSH1 0xC PUSH1 0x24 DUP3 ADD MSTORE PUSH12 0x2737BA1037B832B930BA37B9 PUSH1 0xA1 SHL PUSH1 0x44 DUP3 ADD MSTORE PUSH1 0x64 ADD PUSH2 0xD36 JUMP JUMPDEST PUSH1 0x6 SLOAD PUSH1 0x1 PUSH1 0x1 PUSH1 0xA0 SHL SUB SWAP1 DUP2 AND SWAP1 DUP3 AND SUB PUSH2 0x2901 JUMPI PUSH1 0x40 MLOAD PUSH3 0x461BCD PUSH1 0xE5 SHL DUP2 MSTORE PUSH1 0x20 PUSH1 0x4 DUP3 ADD MSTORE PUSH1 0x13 PUSH1 0x24 DUP3 ADD MSTORE PUSH19 0x21B0B73737BA103932B6B7BB329037BBB732B9 PUSH1 0x69 SHL PUSH1 0x44 DUP3 ADD MSTORE PUSH1 0x64 ADD PUSH2 0xD36 JUMP JUMPDEST PUSH1 0x1 PUSH1 0x1 PUSH1 0xA0 SHL SUB DUP2 AND PUSH1 0x0 SWAP1 DUP2 MSTORE PUSH1 0x4 PUSH1 0x20 MSTORE PUSH1 0x40 DUP2 KECCAK256 DUP1 SLOAD PUSH1 0xFF NOT AND SWAP1 SSTORE PUSH1 0x5 DUP1 SLOAD SWAP2 PUSH2 0x292F DUP4 PUSH2 0x42B8 JUMP JUMPDEST SWAP1 SWAP2 SSTORE POP POP PUSH1 0x40 MLOAD PUSH1 0x1 PUSH1 0x1 PUSH1 0xA0 SHL SUB DUP3 AND DUP2 MSTORE PUSH32 0x80C0B871B97B595B16A7741C1B06FED0C6F6F558639F18CCBCE50724325DC40D SWAP1 PUSH1 0x20 ADD PUSH2 0x22AF JUMP JUMPDEST PUSH1 0x6 SLOAD PUSH1 0x1 PUSH1 0x1 PUSH1 0xA0 SHL SUB AND CALLER EQ PUSH2 0x2997 JUMPI PUSH1 0x40 MLOAD PUSH3 0x461BCD PUSH1 0xE5 SHL DUP2 MSTORE PUSH1 0x4 ADD PUSH2 0xD36 SWAP1 PUSH2 0x3EF9 JUMP JUMPDEST PUSH1 0x0 PUSH1 0x7 SLOAD GT PUSH2 0x29E0 JUMPI PUSH1 0x40 MLOAD PUSH3 0x461BCD PUSH1 0xE5 SHL DUP2 MSTORE PUSH1 0x20 PUSH1 0x4 DUP3 ADD MSTORE PUSH1 0x14 PUSH1 0x24 DUP3 ADD MSTORE PUSH20 0x4E6F20746178657320746F207769746864726177 PUSH1 0x60 SHL PUSH1 0x44 DUP3 ADD MSTORE PUSH1 0x64 ADD PUSH2 0xD36 JUMP JUMPDEST PUSH1 0x18 DUP1 SLOAD PUSH1 0x0 SWAP2 DUP3 PUSH2 0x29F1 DUP4 PUSH2 0x3FC3 JUMP JUMPDEST SWAP1 SWAP2 SSTORE POP PUSH1 0x0 SWAP1 DUP2 MSTORE PUSH1 0x17 PUSH1 0x20 MSTORE PUSH1 0x40 SWAP1 KECCAK256 TIMESTAMP SWAP1 SSTORE POP JUMP JUMPDEST PUSH1 0x0 DUP1 PUSH2 0x2A4B DUP5 DUP5 DUP1 DUP1 PUSH1 0x1F ADD PUSH1 0x20 DUP1 SWAP2 DIV MUL PUSH1 0x20 ADD PUSH1 0x40 MLOAD SWAP1 DUP2 ADD PUSH1 0x40 MSTORE DUP1 SWAP4 SWAP3 SWAP2 SWAP1 DUP2 DUP2 MSTORE PUSH1 0x20 ADD DUP4 DUP4 DUP1 DUP3 DUP5 CALLDATACOPY PUSH1 0x0 SWAP3 ADD SWAP2 SWAP1 SWAP2 MSTORE POP PUSH2 0x130C SWAP3 POP POP POP JUMP JUMPDEST PUSH1 0x0 DUP2 DUP2 MSTORE PUSH1 0x8 PUSH1 0x20 MSTORE PUSH1 0x40 SWAP1 KECCAK256 PUSH1 0x4 ADD SLOAD SWAP1 SWAP2 POP PUSH1 0xFF AND PUSH2 0x2A7F JUMPI PUSH1 0x40 MLOAD PUSH3 0x461BCD PUSH1 0xE5 SHL DUP2 MSTORE PUSH1 0x4 ADD PUSH2 0xD36 SWAP1 PUSH2 0x3E3D JUMP JUMPDEST PUSH1 0x0 DUP2 DUP2 MSTORE PUSH1 0x8 PUSH1 0x20 MSTORE PUSH1 0x40 SWAP1 DUP2 SWAP1 KECCAK256 PUSH1 0x1 ADD SLOAD DUP2 MLOAD PUSH4 0x3FABE5A3 PUSH1 0xE2 SHL DUP2 MSTORE SWAP2 MLOAD PUSH1 0x1 PUSH1 0x1 PUSH1 0xA0 SHL SUB SWAP1 SWAP2 AND SWAP2 PUSH4 0xFEAF968C SWAP2 PUSH1 0x4 DUP1 DUP4 ADD SWAP3 PUSH1 0xA0 SWAP3 SWAP2 SWAP1 DUP3 SWAP1 SUB ADD DUP2 DUP7 GAS STATICCALL ISZERO DUP1 ISZERO PUSH2 0x2AD7 JUMPI RETURNDATASIZE PUSH1 0x0 DUP1 RETURNDATACOPY RETURNDATASIZE PUSH1 0x0 REVERT JUMPDEST POP POP POP POP PUSH1 0x40 MLOAD RETURNDATASIZE PUSH1 0x1F NOT PUSH1 0x1F DUP3 ADD AND DUP3 ADD DUP1 PUSH1 0x40 MSTORE POP DUP2 ADD SWAP1 PUSH2 0x2AFB SWAP2 SWAP1 PUSH2 0x3E82 JUMP JUMPDEST POP SWAP2 SWAP5 POP POP PUSH1 0x0 DUP5 SGT SWAP2 POP PUSH2 0x2B24 SWAP1 POP JUMPI PUSH1 0x40 MLOAD PUSH3 0x461BCD PUSH1 0xE5 SHL DUP2 MSTORE PUSH1 0x4 ADD PUSH2 0xD36 SWAP1 PUSH2 0x3ED2 JUMP JUMPDEST POP SWAP3 SWAP2 POP POP JUMP JUMPDEST PUSH1 0x16 DUP1 SLOAD PUSH2 0xBF8 SWAP1 PUSH2 0x3CD8 JUMP JUMPDEST PUSH1 0x0 PUSH1 0x2 PUSH1 0x0 SLOAD SUB PUSH2 0x2B5C JUMPI PUSH1 0x40 MLOAD PUSH3 0x461BCD PUSH1 0xE5 SHL DUP2 MSTORE PUSH1 0x4 ADD PUSH2 0xD36 SWAP1 PUSH2 0x3D77 JUMP JUMPDEST PUSH1 0x2 PUSH1 0x0 DUP2 DUP2 SSTORE PUSH1 0x40 DUP1 MLOAD DUP1 DUP3 ADD DUP3 MSTORE PUSH1 0x3 DUP2 MSTORE PUSH3 0x627579 PUSH1 0xE8 SHL PUSH1 0x20 DUP1 DUP4 ADD SWAP2 SWAP1 SWAP2 MSTORE CALLER DUP5 MSTORE SWAP4 SWAP1 SWAP4 MSTORE SWAP1 DUP2 SWAP1 KECCAK256 SWAP1 MLOAD NUMBER SWAP2 PUSH1 0x1 SWAP2 PUSH2 0x2B9D SWAP1 DUP6 SWAP1 PUSH2 0x3DAE JUMP JUMPDEST SWAP1 DUP2 MSTORE PUSH1 0x20 ADD PUSH1 0x40 MLOAD DUP1 SWAP2 SUB SWAP1 KECCAK256 SLOAD PUSH2 0x2BB6 SWAP2 SWAP1 PUSH2 0x3D3B JUMP JUMPDEST LT PUSH2 0x2BD3 JUMPI PUSH1 0x40 MLOAD PUSH3 0x461BCD PUSH1 0xE5 SHL DUP2 MSTORE PUSH1 0x4 ADD PUSH2 0xD36 SWAP1 PUSH2 0x3DCA JUMP JUMPDEST CALLER PUSH1 0x0 SWAP1 DUP2 MSTORE PUSH1 0x2 PUSH1 0x20 MSTORE PUSH1 0x40 SWAP1 DUP2 SWAP1 KECCAK256 SWAP1 MLOAD NUMBER SWAP2 SWAP1 PUSH2 0x2BF4 SWAP1 DUP5 SWAP1 PUSH2 0x3DAE JUMP JUMPDEST SWAP1 DUP2 MSTORE PUSH1 0x40 MLOAD SWAP1 DUP2 SWAP1 SUB PUSH1 0x20 ADD SWAP1 KECCAK256 SSTORE PUSH1 0x3 SLOAD PUSH1 0xFF AND ISZERO PUSH2 0x2C27 JUMPI PUSH1 0x40 MLOAD PUSH3 0x461BCD PUSH1 0xE5 SHL DUP2 MSTORE PUSH1 0x4 ADD PUSH2 0xD36 SWAP1 PUSH2 0x3E11 JUMP JUMPDEST PUSH1 0x0 PUSH2 0x2C32 DUP6 PUSH2 0x130C JUMP JUMPDEST PUSH1 0x0 DUP2 DUP2 MSTORE PUSH1 0x8 PUSH1 0x20 MSTORE PUSH1 0x40 SWAP1 KECCAK256 PUSH1 0x4 ADD SLOAD SWAP1 SWAP2 POP PUSH1 0xFF AND PUSH2 0x2C66 JUMPI PUSH1 0x40 MLOAD PUSH3 0x461BCD PUSH1 0xE5 SHL DUP2 MSTORE PUSH1 0x4 ADD PUSH2 0xD36 SWAP1 PUSH2 0x3E3D JUMP JUMPDEST PUSH1 0x0 DUP2 DUP2 MSTORE PUSH1 0x8 PUSH1 0x20 MSTORE PUSH1 0x40 SWAP1 KECCAK256 CALLVALUE PUSH2 0x2CB3 JUMPI PUSH1 0x40 MLOAD PUSH3 0x461BCD PUSH1 0xE5 SHL DUP2 MSTORE PUSH1 0x20 PUSH1 0x4 DUP3 ADD MSTORE PUSH1 0xF PUSH1 0x24 DUP3 ADD MSTORE PUSH15 0x53656E642045544820746F20627579 PUSH1 0x88 SHL PUSH1 0x44 DUP3 ADD MSTORE PUSH1 0x64 ADD PUSH2 0xD36 JUMP JUMPDEST PUSH1 0x0 PUSH2 0x2710 PUSH2 0x2CC4 PUSH2 0x1F4 CALLVALUE PUSH2 0x3F6C JUMP JUMPDEST PUSH2 0x2CCE SWAP2 SWAP1 PUSH2 0x3F99 JUMP JUMPDEST SWAP1 POP PUSH1 0x0 PUSH2 0x2CDC DUP3 CALLVALUE PUSH2 0x3D28 JUMP JUMPDEST SWAP1 POP DUP2 PUSH1 0x7 PUSH1 0x0 DUP3 DUP3 SLOAD PUSH2 0x2CF0 SWAP2 SWAP1 PUSH2 0x3D3B JUMP JUMPDEST SWAP3 POP POP DUP2 SWAP1 SSTORE POP PUSH1 0x0 PUSH2 0x2D1D PUSH1 0x40 MLOAD DUP1 PUSH1 0x40 ADD PUSH1 0x40 MSTORE DUP1 PUSH1 0x3 DUP2 MSTORE PUSH1 0x20 ADD PUSH3 0x8AA89 PUSH1 0xEB SHL DUP2 MSTORE POP PUSH2 0x130C JUMP JUMPDEST PUSH1 0x0 DUP2 DUP2 MSTORE PUSH1 0x8 PUSH1 0x20 MSTORE PUSH1 0x40 SWAP1 KECCAK256 PUSH1 0x4 ADD SLOAD SWAP1 SWAP2 POP PUSH1 0xFF AND PUSH2 0x2D81 JUMPI PUSH1 0x40 MLOAD PUSH3 0x461BCD PUSH1 0xE5 SHL DUP2 MSTORE PUSH1 0x20 PUSH1 0x4 DUP3 ADD MSTORE PUSH1 0x1C PUSH1 0x24 DUP3 ADD MSTORE PUSH32 0x4D697373696E67206F7220696E61637469766520455448206665656400000000 PUSH1 0x44 DUP3 ADD MSTORE PUSH1 0x64 ADD PUSH2 0xD36 JUMP JUMPDEST PUSH1 0x0 DUP2 DUP2 MSTORE PUSH1 0x8 PUSH1 0x20 MSTORE PUSH1 0x40 DUP1 DUP3 KECCAK256 PUSH1 0x1 ADD SLOAD DUP2 MLOAD PUSH4 0x3FABE5A3 PUSH1 0xE2 SHL DUP2 MSTORE SWAP2 MLOAD PUSH1 0x1 PUSH1 0x1 PUSH1 0xA0 SHL SUB SWAP1 SWAP2 AND SWAP2 PUSH4 0xFEAF968C SWAP2 PUSH1 0x4 DUP1 DUP4 ADD SWAP3 PUSH1 0xA0 SWAP3 SWAP2 SWAP1 DUP3 SWAP1 SUB ADD DUP2 DUP7 GAS STATICCALL ISZERO DUP1 ISZERO PUSH2 0x2DD8 JUMPI RETURNDATASIZE PUSH1 0x0 DUP1 RETURNDATACOPY RETURNDATASIZE PUSH1 0x0 REVERT JUMPDEST POP POP POP POP PUSH1 0x40 MLOAD RETURNDATASIZE PUSH1 0x1F NOT PUSH1 0x1F DUP3 ADD AND DUP3 ADD DUP1 PUSH1 0x40 MSTORE POP DUP2 ADD SWAP1 PUSH2 0x2DFC SWAP2 SWAP1 PUSH2 0x3E82 JUMP JUMPDEST POP POP POP SWAP2 POP POP PUSH1 0x0 DUP2 SGT PUSH2 0x2E46 JUMPI PUSH1 0x40 MLOAD PUSH3 0x461BCD PUSH1 0xE5 SHL DUP2 MSTORE PUSH1 0x20 PUSH1 0x4 DUP3 ADD MSTORE PUSH1 0x11 PUSH1 0x24 DUP3 ADD MSTORE PUSH17 0x496E76616C696420455448207072696365 PUSH1 0x78 SHL PUSH1 0x44 DUP3 ADD MSTORE PUSH1 0x64 ADD PUSH2 0xD36 JUMP JUMPDEST PUSH1 0x1 DUP6 ADD SLOAD PUSH1 0x40 DUP1 MLOAD PUSH4 0x3FABE5A3 PUSH1 0xE2 SHL DUP2 MSTORE SWAP1 MLOAD PUSH1 0x0 SWAP3 PUSH1 0x1 PUSH1 0x1 PUSH1 0xA0 SHL SUB AND SWAP2 PUSH4 0xFEAF968C SWAP2 PUSH1 0x4 DUP1 DUP4 ADD SWAP3 PUSH1 0xA0 SWAP3 SWAP2 SWAP1 DUP3 SWAP1 SUB ADD DUP2 DUP7 GAS STATICCALL ISZERO DUP1 ISZERO PUSH2 0x2E92 JUMPI RETURNDATASIZE PUSH1 0x0 DUP1 RETURNDATACOPY RETURNDATASIZE PUSH1 0x0 REVERT JUMPDEST POP POP POP POP PUSH1 0x40 MLOAD RETURNDATASIZE PUSH1 0x1F NOT PUSH1 0x1F DUP3 ADD AND DUP3 ADD DUP1 PUSH1 0x40 MSTORE POP DUP2 ADD SWAP1 PUSH2 0x2EB6 SWAP2 SWAP1 PUSH2 0x3E82 JUMP JUMPDEST POP POP POP SWAP2 POP POP PUSH1 0x0 DUP2 SGT PUSH2 0x2F02 JUMPI PUSH1 0x40 MLOAD PUSH3 0x461BCD PUSH1 0xE5 SHL DUP2 MSTORE PUSH1 0x20 PUSH1 0x4 DUP3 ADD MSTORE PUSH1 0x13 PUSH1 0x24 DUP3 ADD MSTORE PUSH19 0x496E76616C696420746F6B656E207072696365 PUSH1 0x68 SHL PUSH1 0x44 DUP3 ADD MSTORE PUSH1 0x64 ADD PUSH2 0xD36 JUMP JUMPDEST PUSH1 0x0 PUSH2 0x2F10 PUSH1 0x8 PUSH1 0xA PUSH2 0x40CF JUMP JUMPDEST PUSH2 0x2F1A DUP5 DUP8 PUSH2 0x3F6C JUMP JUMPDEST PUSH2 0x2F24 SWAP2 SWAP1 PUSH2 0x3F99 JUMP JUMPDEST PUSH1 0xD SLOAD SWAP1 SWAP2 POP PUSH1 0x0 SWAP1 DUP4 SWAP1 PUSH2 0x2F3D SWAP1 PUSH1 0xFF AND PUSH1 0xA PUSH2 0x40C0 JUMP JUMPDEST PUSH2 0x2F47 SWAP1 DUP5 PUSH2 0x3F6C JUMP JUMPDEST PUSH2 0x2F51 SWAP2 SWAP1 PUSH2 0x3F99 JUMP JUMPDEST SWAP1 POP PUSH1 0x0 PUSH1 0xE SLOAD PUSH10 0xD3C21BCECCEDA1000000 PUSH2 0x2F6D SWAP2 SWAP1 PUSH2 0x3D28 JUMP JUMPDEST SWAP1 POP DUP1 DUP3 GT ISZERO PUSH2 0x2F7B JUMPI DUP1 SWAP2 POP JUMPDEST DUP2 PUSH1 0x0 SUB PUSH2 0x2F96 JUMPI PUSH1 0x0 SWAP12 POP POP POP POP POP POP POP POP POP POP POP PUSH2 0x30A2 JUMP JUMPDEST DUP13 DUP3 LT ISZERO PUSH2 0x2FDA JUMPI PUSH1 0x40 MLOAD PUSH3 0x461BCD PUSH1 0xE5 SHL DUP2 MSTORE PUSH1 0x20 PUSH1 0x4 DUP3 ADD MSTORE PUSH1 0x11 PUSH1 0x24 DUP3 ADD MSTORE PUSH17 0xA6D8D2E0E0C2CECA40E8DEDE40D0D2CED PUSH1 0x7B SHL PUSH1 0x44 DUP3 ADD MSTORE PUSH1 0x64 ADD PUSH2 0xD36 JUMP JUMPDEST CALLVALUE DUP10 PUSH1 0x3 ADD PUSH1 0x0 DUP3 DUP3 SLOAD PUSH2 0x2FEE SWAP2 SWAP1 PUSH2 0x3D3B JUMP JUMPDEST SWAP1 SWAP2 SSTORE POP PUSH2 0x2FFE SWAP1 POP CALLER DUP4 PUSH2 0x3825 JUMP JUMPDEST PUSH1 0x40 DUP1 MLOAD DUP10 DUP2 MSTORE PUSH1 0x1 PUSH1 0x20 DUP3 ADD MSTORE PUSH32 0x39F668D6F1B4338891DC891669079F6724A94B39E1CE3570BCFC68B2C036FF5E SWAP2 ADD PUSH1 0x40 MLOAD DUP1 SWAP2 SUB SWAP1 LOG1 PUSH1 0x40 MLOAD PUSH1 0x0 SWAP1 DUP2 SWAP1 CALLER SWAP1 PUSH1 0x1 SWAP1 DUP4 DUP2 DUP2 DUP2 DUP6 DUP8 GAS CALL SWAP3 POP POP POP RETURNDATASIZE DUP1 PUSH1 0x0 DUP2 EQ PUSH2 0x307C JUMPI PUSH1 0x40 MLOAD SWAP2 POP PUSH1 0x1F NOT PUSH1 0x3F RETURNDATASIZE ADD AND DUP3 ADD PUSH1 0x40 MSTORE RETURNDATASIZE DUP3 MSTORE RETURNDATASIZE PUSH1 0x0 PUSH1 0x20 DUP5 ADD RETURNDATACOPY PUSH2 0x3081 JUMP JUMPDEST PUSH1 0x60 SWAP2 POP JUMPDEST POP SWAP2 POP SWAP2 POP DUP2 PUSH2 0x3093 JUMPI DUP1 MLOAD PUSH1 0x20 DUP3 ADD REVERT JUMPDEST POP SWAP2 SWAP12 POP POP POP POP POP POP POP POP POP POP POP JUMPDEST POP PUSH1 0x1 PUSH1 0x0 SSTORE SWAP3 SWAP2 POP POP JUMP JUMPDEST PUSH1 0x6 SLOAD PUSH1 0x1 PUSH1 0x1 PUSH1 0xA0 SHL SUB AND CALLER EQ PUSH2 0x30D8 JUMPI PUSH1 0x40 MLOAD PUSH3 0x461BCD PUSH1 0xE5 SHL DUP2 MSTORE PUSH1 0x4 ADD PUSH2 0xD36 SWAP1 PUSH2 0x3EF9 JUMP JUMPDEST PUSH1 0x6 SLOAD PUSH1 0x7 SLOAD PUSH1 0x1 PUSH1 0x1 PUSH1 0xA0 SHL SUB SWAP1 SWAP2 AND SWAP1 PUSH2 0x8FC SWAP1 PUSH2 0x30F8 SWAP1 SELFBALANCE PUSH2 0x3D28 JUMP JUMPDEST PUSH1 0x40 MLOAD DUP2 ISZERO SWAP1 SWAP3 MUL SWAP2 PUSH1 0x0 DUP2 DUP2 DUP2 DUP6 DUP9 DUP9 CALL SWAP4 POP POP POP POP ISZERO DUP1 ISZERO PUSH2 0x1B3C JUMPI RETURNDATASIZE PUSH1 0x0 DUP1 RETURNDATACOPY RETURNDATASIZE PUSH1 0x0 REVERT JUMPDEST PUSH1 0x6 SLOAD PUSH1 0x1 PUSH1 0x1 PUSH1 0xA0 SHL SUB AND CALLER EQ PUSH2 0x314A JUMPI PUSH1 0x40 MLOAD PUSH3 0x461BCD PUSH1 0xE5 SHL DUP2 MSTORE PUSH1 0x4 ADD PUSH2 0xD36 SWAP1 PUSH2 0x3EF9 JUMP JUMPDEST PUSH1 0x1 PUSH1 0x1 PUSH1 0xA0 SHL SUB DUP2 AND PUSH2 0x3192 JUMPI PUSH1 0x40 MLOAD PUSH3 0x461BCD PUSH1 0xE5 SHL DUP2 MSTORE PUSH1 0x20 PUSH1 0x4 DUP3 ADD MSTORE PUSH1 0xF PUSH1 0x24 DUP3 ADD MSTORE PUSH15 0x496E76616C69642061646472657373 PUSH1 0x88 SHL PUSH1 0x44 DUP3 ADD MSTORE PUSH1 0x64 ADD PUSH2 0xD36 JUMP JUMPDEST PUSH1 0x6 DUP1 SLOAD PUSH1 0x1 PUSH1 0x1 PUSH1 0xA0 SHL SUB NOT AND PUSH1 0x1 PUSH1 0x1 PUSH1 0xA0 SHL SUB SWAP3 SWAP1 SWAP3 AND SWAP2 SWAP1 SWAP2 OR SWAP1 SSTORE JUMP JUMPDEST PUSH1 0x1 PUSH1 0x1 PUSH1 0xA0 SHL SUB DUP2 AND PUSH1 0x0 SWAP1 DUP2 MSTORE PUSH1 0x14 PUSH1 0x20 SWAP1 DUP2 MSTORE PUSH1 0x40 DUP1 DUP4 KECCAK256 DUP2 MLOAD PUSH1 0x80 DUP2 ADD DUP4 MSTORE DUP2 SLOAD DUP2 MSTORE PUSH1 0x1 DUP3 ADD SLOAD SWAP4 DUP2 ADD DUP5 SWAP1 MSTORE PUSH1 0x2 DUP3 ADD SLOAD SWAP3 DUP2 ADD SWAP3 SWAP1 SWAP3 MSTORE PUSH1 0x3 ADD SLOAD PUSH1 0x60 DUP3 DUP2 ADD SWAP2 SWAP1 SWAP2 MSTORE SWAP3 SWAP2 DUP3 SWAP2 DUP3 SWAP2 DUP3 SWAP2 SWAP1 PUSH2 0x3242 JUMPI PUSH1 0x40 MLOAD PUSH3 0x461BCD PUSH1 0xE5 SHL DUP2 MSTORE PUSH1 0x20 PUSH1 0x4 DUP3 ADD MSTORE PUSH1 0xB PUSH1 0x24 DUP3 ADD MSTORE PUSH11 0x2737903837B9B4BA34B7B7 PUSH1 0xA9 SHL PUSH1 0x44 DUP3 ADD MSTORE PUSH1 0x64 ADD PUSH2 0xD36 JUMP JUMPDEST DUP1 MLOAD PUSH1 0x0 SWAP1 DUP2 MSTORE PUSH1 0x8 PUSH1 0x20 MSTORE PUSH1 0x40 DUP1 DUP3 KECCAK256 PUSH1 0x1 DUP2 ADD SLOAD DUP3 MLOAD PUSH4 0x3FABE5A3 PUSH1 0xE2 SHL DUP2 MSTORE SWAP3 MLOAD SWAP2 SWAP4 SWAP3 PUSH1 0x1 PUSH1 0x1 PUSH1 0xA0 SHL SUB SWAP1 SWAP2 AND SWAP2 PUSH4 0xFEAF968C SWAP2 PUSH1 0x4 DUP1 DUP3 ADD SWAP3 PUSH1 0xA0 SWAP3 SWAP1 SWAP2 SWAP1 DUP3 SWAP1 SUB ADD DUP2 DUP7 GAS STATICCALL ISZERO DUP1 ISZERO PUSH2 0x32A0 JUMPI RETURNDATASIZE PUSH1 0x0 DUP1 RETURNDATACOPY RETURNDATASIZE PUSH1 0x0 REVERT JUMPDEST POP POP POP POP PUSH1 0x40 MLOAD RETURNDATASIZE PUSH1 0x1F NOT PUSH1 0x1F DUP3 ADD AND DUP3 ADD DUP1 PUSH1 0x40 MSTORE POP DUP2 ADD SWAP1 PUSH2 0x32C4 SWAP2 SWAP1 PUSH2 0x3E82 JUMP JUMPDEST POP POP POP SWAP2 POP POP PUSH1 0x0 DUP4 PUSH1 0x40 ADD MLOAD DUP3 PUSH2 0x32DC SWAP2 SWAP1 PUSH2 0x3F4C JUMP JUMPDEST SWAP1 POP PUSH1 0x0 DUP5 PUSH1 0x40 ADD MLOAD DUP3 DUP7 PUSH1 0x20 ADD MLOAD PUSH2 0x32F5 SWAP2 SWAP1 PUSH2 0x42CF JUMP JUMPDEST PUSH2 0x32FF SWAP2 SWAP1 PUSH2 0x42FF JUMP JUMPDEST SWAP1 POP DUP4 PUSH1 0x0 ADD DUP6 PUSH1 0x20 ADD MLOAD DUP7 PUSH1 0x40 ADD MLOAD DUP8 PUSH1 0x60 ADD MLOAD DUP5 DUP5 DUP1 SLOAD PUSH2 0x3321 SWAP1 PUSH2 0x3CD8 JUMP JUMPDEST DUP1 PUSH1 0x1F ADD PUSH1 0x20 DUP1 SWAP2 DIV MUL PUSH1 0x20 ADD PUSH1 0x40 MLOAD SWAP1 DUP2 ADD PUSH1 0x40 MSTORE DUP1 SWAP3 SWAP2 SWAP1 DUP2 DUP2 MSTORE PUSH1 0x20 ADD DUP3 DUP1 SLOAD PUSH2 0x334D SWAP1 PUSH2 0x3CD8 JUMP JUMPDEST DUP1 ISZERO PUSH2 0x339A JUMPI DUP1 PUSH1 0x1F LT PUSH2 0x336F JUMPI PUSH2 0x100 DUP1 DUP4 SLOAD DIV MUL DUP4 MSTORE SWAP2 PUSH1 0x20 ADD SWAP2 PUSH2 0x339A JUMP JUMPDEST DUP3 ADD SWAP2 SWAP1 PUSH1 0x0 MSTORE PUSH1 0x20 PUSH1 0x0 KECCAK256 SWAP1 JUMPDEST DUP2 SLOAD DUP2 MSTORE SWAP1 PUSH1 0x1 ADD SWAP1 PUSH1 0x20 ADD DUP1 DUP4 GT PUSH2 0x337D JUMPI DUP3 SWAP1 SUB PUSH1 0x1F AND DUP3 ADD SWAP2 JUMPDEST POP POP POP POP POP SWAP5 POP SWAP10 POP SWAP10 POP SWAP10 POP SWAP10 POP SWAP10 POP POP POP POP POP POP SWAP2 SWAP4 SWAP6 SWAP1 SWAP3 SWAP5 POP JUMP JUMPDEST PUSH1 0x0 DUP2 DUP2 MSTORE PUSH1 0x8 PUSH1 0x20 MSTORE PUSH1 0x40 DUP1 DUP3 KECCAK256 PUSH1 0x1 DUP2 ADD SLOAD DUP3 MLOAD PUSH4 0x3FABE5A3 PUSH1 0xE2 SHL DUP2 MSTORE SWAP3 MLOAD SWAP2 SWAP4 SWAP3 DUP4 SWAP3 DUP4 SWAP3 DUP4 SWAP3 DUP4 SWAP3 PUSH1 0x1 PUSH1 0x1 PUSH1 0xA0 SHL SUB SWAP1 SWAP3 AND SWAP2 PUSH4 0xFEAF968C SWAP2 PUSH1 0x4 DUP1 DUP3 ADD SWAP3 PUSH1 0xA0 SWAP3 SWAP1 SWAP2 SWAP1 DUP3 SWAP1 SUB ADD DUP2 DUP7 GAS STATICCALL ISZERO DUP1 ISZERO PUSH2 0x341D JUMPI RETURNDATASIZE PUSH1 0x0 DUP1 RETURNDATACOPY RETURNDATASIZE PUSH1 0x0 REVERT JUMPDEST POP POP POP POP PUSH1 0x40 MLOAD RETURNDATASIZE PUSH1 0x1F NOT PUSH1 0x1F DUP3 ADD AND DUP3 ADD DUP1 PUSH1 0x40 MSTORE POP DUP2 ADD SWAP1 PUSH2 0x3441 SWAP2 SWAP1 PUSH2 0x3E82 JUMP JUMPDEST SWAP5 POP SWAP5 POP SWAP5 POP SWAP5 POP SWAP5 POP DUP5 PUSH1 0x1 PUSH1 0x1 PUSH1 0x50 SHL SUB AND DUP2 PUSH1 0x1 PUSH1 0x1 PUSH1 0x50 SHL SUB AND LT ISZERO PUSH2 0x349B JUMPI PUSH1 0x40 MLOAD PUSH3 0x461BCD PUSH1 0xE5 SHL DUP2 MSTORE PUSH1 0x20 PUSH1 0x4 DUP3 ADD MSTORE PUSH1 0xB PUSH1 0x24 DUP3 ADD MSTORE PUSH11 0x5374616C65207072696365 PUSH1 0xA8 SHL PUSH1 0x44 DUP3 ADD MSTORE PUSH1 0x64 ADD PUSH2 0xD36 JUMP JUMPDEST PUSH2 0xE10 PUSH2 0x34A8 DUP4 TIMESTAMP PUSH2 0x3D28 JUMP JUMPDEST GT ISZERO PUSH2 0x34E6 JUMPI PUSH1 0x40 MLOAD PUSH3 0x461BCD PUSH1 0xE5 SHL DUP2 MSTORE PUSH1 0x20 PUSH1 0x4 DUP3 ADD MSTORE PUSH1 0xD PUSH1 0x24 DUP3 ADD MSTORE PUSH13 0x141C9A58D9481D1BDBC81BDB19 PUSH1 0x9A SHL PUSH1 0x44 DUP3 ADD MSTORE PUSH1 0x64 ADD PUSH2 0xD36 JUMP JUMPDEST PUSH1 0x0 DUP5 SGT PUSH2 0x3506 JUMPI PUSH1 0x40 MLOAD PUSH3 0x461BCD PUSH1 0xE5 SHL DUP2 MSTORE PUSH1 0x4 ADD PUSH2 0xD36 SWAP1 PUSH2 0x3ED2 JUMP JUMPDEST PUSH1 0x0 DUP7 PUSH1 0x2 ADD SLOAD DUP6 PUSH2 0x3518 SWAP2 SWAP1 PUSH2 0x3F4C JUMP JUMPDEST SWAP1 POP PUSH1 0x0 DUP1 DUP3 SGT ISZERO PUSH2 0x3546 JUMPI PUSH1 0x2 DUP9 ADD SLOAD PUSH2 0x3535 DUP4 PUSH2 0x2710 PUSH2 0x42CF JUMP JUMPDEST PUSH2 0x353F SWAP2 SWAP1 PUSH2 0x42FF JUMP JUMPDEST SWAP1 POP PUSH2 0x3591 JUMP JUMPDEST PUSH1 0x0 PUSH2 0x3551 DUP4 PUSH2 0x432D JUMP JUMPDEST SWAP1 POP PUSH1 0x0 DUP10 PUSH1 0x2 ADD SLOAD DUP3 PUSH2 0x2710 PUSH2 0x3568 SWAP2 SWAP1 PUSH2 0x3F6C JUMP JUMPDEST PUSH2 0x3572 SWAP2 SWAP1 PUSH2 0x3F99 JUMP JUMPDEST SWAP1 POP PUSH2 0x1388 DUP2 GT ISZERO PUSH2 0x3583 JUMPI POP PUSH2 0x1388 JUMPDEST PUSH2 0x358C DUP2 PUSH2 0x432D JUMP JUMPDEST SWAP3 POP POP POP JUMPDEST PUSH1 0x0 DUP2 SGT ISZERO PUSH2 0x3650 JUMPI PUSH1 0x0 PUSH2 0x3E8 PUSH1 0xE SLOAD PUSH1 0x1 PUSH2 0x35AE SWAP2 SWAP1 PUSH2 0x3F6C JUMP JUMPDEST PUSH2 0x35B8 SWAP2 SWAP1 PUSH2 0x3F99 JUMP JUMPDEST SWAP1 POP PUSH1 0x0 PUSH2 0x2710 DUP4 PUSH1 0xE SLOAD PUSH2 0x35CD SWAP2 SWAP1 PUSH2 0x3F6C JUMP JUMPDEST PUSH2 0x35D7 SWAP2 SWAP1 PUSH2 0x3F99 JUMP JUMPDEST SWAP1 POP DUP1 ISZERO PUSH2 0x35EC JUMPI PUSH2 0x35E9 DUP2 DUP4 PUSH2 0x3D3B JUMP JUMPDEST SWAP2 POP JUMPDEST PUSH10 0xD3C21BCECCEDA1000000 DUP3 PUSH1 0xE SLOAD PUSH2 0x3605 SWAP2 SWAP1 PUSH2 0x3D3B JUMP JUMPDEST GT ISZERO PUSH2 0x3625 JUMPI PUSH1 0xE SLOAD PUSH2 0x3622 SWAP1 PUSH10 0xD3C21BCECCEDA1000000 PUSH2 0x3D28 JUMP JUMPDEST SWAP2 POP JUMPDEST DUP2 PUSH1 0x0 SUB PUSH2 0x3639 JUMPI PUSH8 0xDE0B6B3A7640000 SWAP2 POP JUMPDEST DUP2 ISZERO PUSH2 0x3649 JUMPI PUSH2 0x3649 CALLER DUP4 PUSH2 0x3825 JUMP JUMPDEST POP POP PUSH2 0x36F8 JUMP JUMPDEST PUSH1 0x0 DUP2 SLT ISZERO PUSH2 0x36F8 JUMPI PUSH1 0x0 PUSH2 0x3664 DUP3 PUSH2 0x432D JUMP JUMPDEST SWAP1 POP PUSH1 0x0 PUSH2 0x2710 DUP3 PUSH1 0xE SLOAD PUSH2 0x3679 SWAP2 SWAP1 PUSH2 0x3F6C JUMP JUMPDEST PUSH2 0x3683 SWAP2 SWAP1 PUSH2 0x3F99 JUMP JUMPDEST SWAP1 POP DUP1 ISZERO PUSH2 0x36F5 JUMPI PUSH9 0x3635C9ADC5DEA00000 DUP2 PUSH1 0xE SLOAD PUSH2 0x36A3 SWAP2 SWAP1 PUSH2 0x3D28 JUMP JUMPDEST LT ISZERO PUSH2 0x36C3 JUMPI PUSH9 0x3635C9ADC5DEA00000 PUSH1 0xE SLOAD PUSH2 0x36C0 SWAP2 SWAP1 PUSH2 0x3D28 JUMP JUMPDEST SWAP1 POP JUMPDEST CALLER PUSH1 0x0 SWAP1 DUP2 MSTORE PUSH1 0xF PUSH1 0x20 MSTORE PUSH1 0x40 SWAP1 KECCAK256 SLOAD DUP2 DUP2 LT PUSH2 0x36E9 JUMPI PUSH2 0x36E4 CALLER DUP4 PUSH2 0x374C JUMP JUMPDEST PUSH2 0x36F3 JUMP JUMPDEST PUSH2 0x36F3 CALLER DUP3 PUSH2 0x374C JUMP JUMPDEST POP JUMPDEST POP POP JUMPDEST PUSH1 0x2 DUP9 ADD SLOAD PUSH1 0x40 DUP1 MLOAD SWAP2 DUP3 MSTORE PUSH1 0x20 DUP3 ADD DUP9 SWAP1 MSTORE DUP2 ADD DUP4 SWAP1 MSTORE PUSH32 0xD61DC40EF1106764E1D9EB364856A6143485951A5D6FBB5FBDFF5DE65A5695D6 SWAP1 PUSH1 0x60 ADD PUSH1 0x40 MLOAD DUP1 SWAP2 SUB SWAP1 LOG1 POP POP POP POP PUSH1 0x2 SWAP1 SWAP4 ADD SSTORE POP POP POP JUMP JUMPDEST PUSH1 0x1 PUSH1 0x1 PUSH1 0xA0 SHL SUB DUP3 AND PUSH1 0x0 SWAP1 DUP2 MSTORE PUSH1 0xF PUSH1 0x20 MSTORE PUSH1 0x40 SWAP1 KECCAK256 SLOAD DUP2 GT ISZERO PUSH2 0x37AB JUMPI PUSH1 0x40 MLOAD PUSH3 0x461BCD PUSH1 0xE5 SHL DUP2 MSTORE PUSH1 0x20 PUSH1 0x4 DUP3 ADD MSTORE PUSH1 0x14 PUSH1 0x24 DUP3 ADD MSTORE PUSH20 0x496E73756666696369656E742062616C616E6365 PUSH1 0x60 SHL PUSH1 0x44 DUP3 ADD MSTORE PUSH1 0x64 ADD PUSH2 0xD36 JUMP JUMPDEST PUSH1 0x1 PUSH1 0x1 PUSH1 0xA0 SHL SUB DUP3 AND PUSH1 0x0 SWAP1 DUP2 MSTORE PUSH1 0xF PUSH1 0x20 MSTORE PUSH1 0x40 DUP2 KECCAK256 DUP1 SLOAD DUP4 SWAP3 SWAP1 PUSH2 0x37D3 SWAP1 DUP5 SWAP1 PUSH2 0x3D28 JUMP JUMPDEST SWAP3 POP POP DUP2 SWAP1 SSTORE POP DUP1 PUSH1 0xE PUSH1 0x0 DUP3 DUP3 SLOAD PUSH2 0x37EC SWAP2 SWAP1 PUSH2 0x3D28 JUMP JUMPDEST SWAP1 SWAP2 SSTORE POP POP PUSH1 0x40 MLOAD DUP2 DUP2 MSTORE PUSH1 0x0 SWAP1 PUSH1 0x1 PUSH1 0x1 PUSH1 0xA0 SHL SUB DUP5 AND SWAP1 PUSH1 0x0 DUP1 MLOAD PUSH1 0x20 PUSH2 0x434A DUP4 CODECOPY DUP2 MLOAD SWAP2 MSTORE SWAP1 PUSH1 0x20 ADD JUMPDEST PUSH1 0x40 MLOAD DUP1 SWAP2 SUB SWAP1 LOG3 POP POP JUMP JUMPDEST DUP1 PUSH1 0xE PUSH1 0x0 DUP3 DUP3 SLOAD PUSH2 0x3837 SWAP2 SWAP1 PUSH2 0x3D3B JUMP JUMPDEST SWAP1 SWAP2 SSTORE POP POP PUSH1 0x1 PUSH1 0x1 PUSH1 0xA0 SHL SUB DUP3 AND PUSH1 0x0 SWAP1 DUP2 MSTORE PUSH1 0xF PUSH1 0x20 MSTORE PUSH1 0x40 DUP2 KECCAK256 DUP1 SLOAD DUP4 SWAP3 SWAP1 PUSH2 0x3864 SWAP1 DUP5 SWAP1 PUSH2 0x3D3B JUMP JUMPDEST SWAP1 SWAP2 SSTORE POP POP PUSH1 0x40 MLOAD DUP2 DUP2 MSTORE PUSH1 0x1 PUSH1 0x1 PUSH1 0xA0 SHL SUB DUP4 AND SWAP1 PUSH1 0x0 SWAP1 PUSH1 0x0 DUP1 MLOAD PUSH1 0x20 PUSH2 0x434A DUP4 CODECOPY DUP2 MLOAD SWAP2 MSTORE SWAP1 PUSH1 0x20 ADD PUSH2 0x3819 JUMP JUMPDEST PUSH1 0x0 JUMPDEST DUP4 DUP2 LT ISZERO PUSH2 0x38B0 JUMPI DUP2 DUP2 ADD MLOAD DUP4 DUP3 ADD MSTORE PUSH1 0x20 ADD PUSH2 0x3898 JUMP JUMPDEST POP POP PUSH1 0x0 SWAP2 ADD MSTORE JUMP JUMPDEST PUSH1 0x0 DUP2 MLOAD DUP1 DUP5 MSTORE PUSH2 0x38D1 DUP2 PUSH1 0x20 DUP7 ADD PUSH1 0x20 DUP7 ADD PUSH2 0x3895 JUMP JUMPDEST PUSH1 0x1F ADD PUSH1 0x1F NOT AND SWAP3 SWAP1 SWAP3 ADD PUSH1 0x20 ADD SWAP3 SWAP2 POP POP JUMP JUMPDEST PUSH1 0x20 DUP2 MSTORE PUSH1 0x0 PUSH2 0x38F8 PUSH1 0x20 DUP4 ADD DUP5 PUSH2 0x38B9 JUMP JUMPDEST SWAP4 SWAP3 POP POP POP JUMP JUMPDEST DUP1 CALLDATALOAD PUSH1 0x1 PUSH1 0x1 PUSH1 0xA0 SHL SUB DUP2 AND DUP2 EQ PUSH2 0x3916 JUMPI PUSH1 0x0 DUP1 REVERT JUMPDEST SWAP2 SWAP1 POP JUMP JUMPDEST PUSH1 0x0 DUP1 PUSH1 0x40 DUP4 DUP6 SUB SLT ISZERO PUSH2 0x392E JUMPI PUSH1 0x0 DUP1 REVERT JUMPDEST PUSH2 0x3937 DUP4 PUSH2 0x38FF JUMP JUMPDEST SWAP5 PUSH1 0x20 SWAP4 SWAP1 SWAP4 ADD CALLDATALOAD SWAP4 POP POP POP JUMP JUMPDEST PUSH1 0x0 PUSH1 0x20 DUP3 DUP5 SUB SLT ISZERO PUSH2 0x3957 JUMPI PUSH1 0x0 DUP1 REVERT JUMPDEST PUSH2 0x38F8 DUP3 PUSH2 0x38FF JUMP JUMPDEST PUSH1 0x0 DUP1 PUSH1 0x0 PUSH1 0x60 DUP5 DUP7 SUB SLT ISZERO PUSH2 0x3975 JUMPI PUSH1 0x0 DUP1 REVERT JUMPDEST PUSH2 0x397E DUP5 PUSH2 0x38FF JUMP JUMPDEST SWAP3 POP PUSH2 0x398C PUSH1 0x20 DUP6 ADD PUSH2 0x38FF JUMP JUMPDEST SWAP2 POP PUSH1 0x40 DUP5 ADD CALLDATALOAD SWAP1 POP SWAP3 POP SWAP3 POP SWAP3 JUMP JUMPDEST PUSH1 0x0 PUSH1 0x20 DUP3 DUP5 SUB SLT ISZERO PUSH2 0x39AE JUMPI PUSH1 0x0 DUP1 REVERT JUMPDEST POP CALLDATALOAD SWAP2 SWAP1 POP JUMP JUMPDEST PUSH1 0xE0 DUP2 MSTORE PUSH1 0x0 PUSH2 0x39C8 PUSH1 0xE0 DUP4 ADD DUP11 PUSH2 0x38B9 JUMP JUMPDEST PUSH1 0x1 PUSH1 0x1 PUSH1 0xA0 SHL SUB SWAP9 SWAP1 SWAP9 AND PUSH1 0x20 DUP4 ADD MSTORE POP PUSH1 0x40 DUP2 ADD SWAP6 SWAP1 SWAP6 MSTORE PUSH1 0x60 DUP6 ADD SWAP4 SWAP1 SWAP4 MSTORE SWAP1 ISZERO ISZERO PUSH1 0x80 DUP5 ADD MSTORE PUSH1 0xA0 DUP4 ADD MSTORE PUSH1 0xC0 SWAP1 SWAP2 ADD MSTORE SWAP2 SWAP1 POP JUMP JUMPDEST PUSH1 0x0 DUP1 DUP4 PUSH1 0x1F DUP5 ADD SLT PUSH2 0x3A14 JUMPI PUSH1 0x0 DUP1 REVERT JUMPDEST POP DUP2 CALLDATALOAD PUSH8 0xFFFFFFFFFFFFFFFF DUP2 GT ISZERO PUSH2 0x3A2C JUMPI PUSH1 0x0 DUP1 REVERT JUMPDEST PUSH1 0x20 DUP4 ADD SWAP2 POP DUP4 PUSH1 0x20 DUP3 DUP6 ADD ADD GT ISZERO PUSH2 0x3A44 JUMPI PUSH1 0x0 DUP1 REVERT JUMPDEST SWAP3 POP SWAP3 SWAP1 POP JUMP JUMPDEST PUSH1 0x0 DUP1 PUSH1 0x20 DUP4 DUP6 SUB SLT ISZERO PUSH2 0x3A5E JUMPI PUSH1 0x0 DUP1 REVERT JUMPDEST DUP3 CALLDATALOAD PUSH8 0xFFFFFFFFFFFFFFFF DUP2 GT ISZERO PUSH2 0x3A75 JUMPI PUSH1 0x0 DUP1 REVERT JUMPDEST PUSH2 0x3A81 DUP6 DUP3 DUP7 ADD PUSH2 0x3A02 JUMP JUMPDEST SWAP1 SWAP7 SWAP1 SWAP6 POP SWAP4 POP POP POP POP JUMP JUMPDEST PUSH4 0x4E487B71 PUSH1 0xE0 SHL PUSH1 0x0 MSTORE PUSH1 0x41 PUSH1 0x4 MSTORE PUSH1 0x24 PUSH1 0x0 REVERT JUMPDEST PUSH1 0x40 MLOAD PUSH1 0x1F DUP3 ADD PUSH1 0x1F NOT AND DUP2 ADD PUSH8 0xFFFFFFFFFFFFFFFF DUP2 GT DUP3 DUP3 LT OR ISZERO PUSH2 0x3ACC JUMPI PUSH2 0x3ACC PUSH2 0x3A8D JUMP JUMPDEST PUSH1 0x40 MSTORE SWAP2 SWAP1 POP JUMP JUMPDEST PUSH1 0x0 PUSH8 0xFFFFFFFFFFFFFFFF DUP3 GT ISZERO PUSH2 0x3AEE JUMPI PUSH2 0x3AEE PUSH2 0x3A8D JUMP JUMPDEST POP PUSH1 0x1F ADD PUSH1 0x1F NOT AND PUSH1 0x20 ADD SWAP1 JUMP JUMPDEST PUSH1 0x0 DUP3 PUSH1 0x1F DUP4 ADD SLT PUSH2 0x3B0D JUMPI PUSH1 0x0 DUP1 REVERT JUMPDEST DUP2 CALLDATALOAD PUSH2 0x3B20 PUSH2 0x3B1B DUP3 PUSH2 0x3AD4 JUMP JUMPDEST PUSH2 0x3AA3 JUMP JUMPDEST DUP2 DUP2 MSTORE DUP5 PUSH1 0x20 DUP4 DUP7 ADD ADD GT ISZERO PUSH2 0x3B35 JUMPI PUSH1 0x0 DUP1 REVERT JUMPDEST DUP2 PUSH1 0x20 DUP6 ADD PUSH1 0x20 DUP4 ADD CALLDATACOPY PUSH1 0x0 SWAP2 DUP2 ADD PUSH1 0x20 ADD SWAP2 SWAP1 SWAP2 MSTORE SWAP4 SWAP3 POP POP POP JUMP JUMPDEST PUSH1 0x0 PUSH1 0x20 DUP3 DUP5 SUB SLT ISZERO PUSH2 0x3B64 JUMPI PUSH1 0x0 DUP1 REVERT JUMPDEST DUP2 CALLDATALOAD PUSH8 0xFFFFFFFFFFFFFFFF DUP2 GT ISZERO PUSH2 0x3B7B JUMPI PUSH1 0x0 DUP1 REVERT JUMPDEST PUSH2 0x3B87 DUP5 DUP3 DUP6 ADD PUSH2 0x3AFC JUMP JUMPDEST SWAP5 SWAP4 POP POP POP POP JUMP JUMPDEST PUSH1 0x0 DUP1 PUSH1 0x0 PUSH1 0x40 DUP5 DUP7 SUB SLT ISZERO PUSH2 0x3BA4 JUMPI PUSH1 0x0 DUP1 REVERT JUMPDEST DUP4 CALLDATALOAD PUSH8 0xFFFFFFFFFFFFFFFF DUP2 GT ISZERO PUSH2 0x3BBB JUMPI PUSH1 0x0 DUP1 REVERT JUMPDEST PUSH2 0x3BC7 DUP7 DUP3 DUP8 ADD PUSH2 0x3A02 JUMP JUMPDEST SWAP1 SWAP8 SWAP1 SWAP7 POP PUSH1 0x20 SWAP6 SWAP1 SWAP6 ADD CALLDATALOAD SWAP5 SWAP4 POP POP POP POP JUMP JUMPDEST PUSH1 0x0 DUP1 PUSH1 0x40 DUP4 DUP6 SUB SLT ISZERO PUSH2 0x3BEE JUMPI PUSH1 0x0 DUP1 REVERT JUMPDEST PUSH2 0x3BF7 DUP4 PUSH2 0x38FF JUMP JUMPDEST SWAP2 POP PUSH1 0x20 DUP4 ADD CALLDATALOAD PUSH8 0xFFFFFFFFFFFFFFFF DUP2 GT ISZERO PUSH2 0x3C13 JUMPI PUSH1 0x0 DUP1 REVERT JUMPDEST PUSH2 0x3C1F DUP6 DUP3 DUP7 ADD PUSH2 0x3AFC JUMP JUMPDEST SWAP2 POP POP SWAP3 POP SWAP3 SWAP1 POP JUMP JUMPDEST PUSH1 0x0 DUP1 PUSH1 0x40 DUP4 DUP6 SUB SLT ISZERO PUSH2 0x3C3C JUMPI PUSH1 0x0 DUP1 REVERT JUMPDEST DUP3 CALLDATALOAD PUSH8 0xFFFFFFFFFFFFFFFF DUP2 GT ISZERO PUSH2 0x3C53 JUMPI PUSH1 0x0 DUP1 REVERT JUMPDEST PUSH2 0x3C5F DUP6 DUP3 DUP7 ADD PUSH2 0x3AFC JUMP JUMPDEST SWAP6 PUSH1 0x20 SWAP5 SWAP1 SWAP5 ADD CALLDATALOAD SWAP5 POP POP POP POP JUMP JUMPDEST PUSH1 0x0 DUP1 PUSH1 0x40 DUP4 DUP6 SUB SLT ISZERO PUSH2 0x3C81 JUMPI PUSH1 0x0 DUP1 REVERT JUMPDEST PUSH2 0x3C8A DUP4 PUSH2 0x38FF JUMP JUMPDEST SWAP2 POP PUSH2 0x3C98 PUSH1 0x20 DUP5 ADD PUSH2 0x38FF JUMP JUMPDEST SWAP1 POP SWAP3 POP SWAP3 SWAP1 POP JUMP JUMPDEST PUSH1 0xA0 DUP2 MSTORE PUSH1 0x0 PUSH2 0x3CB4 PUSH1 0xA0 DUP4 ADD DUP9 PUSH2 0x38B9 JUMP JUMPDEST SWAP1 POP DUP6 PUSH1 0x20 DUP4 ADD MSTORE DUP5 PUSH1 0x40 DUP4 ADD MSTORE DUP4 PUSH1 0x60 DUP4 ADD MSTORE DUP3 PUSH1 0x80 DUP4 ADD MSTORE SWAP7 SWAP6 POP POP POP POP POP POP JUMP JUMPDEST PUSH1 0x1 DUP2 DUP2 SHR SWAP1 DUP3 AND DUP1 PUSH2 0x3CEC JUMPI PUSH1 0x7F DUP3 AND SWAP2 POP JUMPDEST PUSH1 0x20 DUP3 LT DUP2 SUB PUSH2 0x3D0C JUMPI PUSH4 0x4E487B71 PUSH1 0xE0 SHL PUSH1 0x0 MSTORE PUSH1 0x22 PUSH1 0x4 MSTORE PUSH1 0x24 PUSH1 0x0 REVERT JUMPDEST POP SWAP2 SWAP1 POP JUMP JUMPDEST PUSH4 0x4E487B71 PUSH1 0xE0 SHL PUSH1 0x0 MSTORE PUSH1 0x11 PUSH1 0x4 MSTORE PUSH1 0x24 PUSH1 0x0 REVERT JUMPDEST DUP2 DUP2 SUB DUP2 DUP2 GT ISZERO PUSH2 0xCD8 JUMPI PUSH2 0xCD8 PUSH2 0x3D12 JUMP JUMPDEST DUP1 DUP3 ADD DUP1 DUP3 GT ISZERO PUSH2 0xCD8 JUMPI PUSH2 0xCD8 PUSH2 0x3D12 JUMP JUMPDEST PUSH1 0x20 DUP1 DUP3 MSTORE PUSH1 0xF SWAP1 DUP3 ADD MSTORE PUSH15 0x2737BA1030B71037B832B930BA37B9 PUSH1 0x89 SHL PUSH1 0x40 DUP3 ADD MSTORE PUSH1 0x60 ADD SWAP1 JUMP JUMPDEST PUSH1 0x20 DUP1 DUP3 MSTORE PUSH1 0x1F SWAP1 DUP3 ADD MSTORE PUSH32 0x5265656E7472616E637947756172643A207265656E7472616E742063616C6C00 PUSH1 0x40 DUP3 ADD MSTORE PUSH1 0x60 ADD SWAP1 JUMP JUMPDEST PUSH1 0x0 DUP3 MLOAD PUSH2 0x3DC0 DUP2 DUP5 PUSH1 0x20 DUP8 ADD PUSH2 0x3895 JUMP JUMPDEST SWAP2 SWAP1 SWAP2 ADD SWAP3 SWAP2 POP POP JUMP JUMPDEST PUSH1 0x20 DUP1 DUP3 MSTORE PUSH1 0x27 SWAP1 DUP3 ADD MSTORE PUSH32 0x506C65617365207761697420612066657720626C6F636B73206265747765656E PUSH1 0x40 DUP3 ADD MSTORE PUSH7 0x20747261646573 PUSH1 0xC8 SHL PUSH1 0x60 DUP3 ADD MSTORE PUSH1 0x80 ADD SWAP1 JUMP JUMPDEST PUSH1 0x20 DUP1 DUP3 MSTORE PUSH1 0x12 SWAP1 DUP3 ADD MSTORE PUSH18 0x10DBDB9D1C9858DD081A5CC81C185D5CD959 PUSH1 0x72 SHL PUSH1 0x40 DUP3 ADD MSTORE PUSH1 0x60 ADD SWAP1 JUMP JUMPDEST PUSH1 0x20 DUP1 DUP3 MSTORE PUSH1 0x14 SWAP1 DUP3 ADD MSTORE PUSH20 0x14DE5B589BDB081B9BDD081CDD5C1C1BDC9D1959 PUSH1 0x62 SHL PUSH1 0x40 DUP3 ADD MSTORE PUSH1 0x60 ADD SWAP1 JUMP JUMPDEST DUP1 MLOAD PUSH1 0x1 PUSH1 0x1 PUSH1 0x50 SHL SUB DUP2 AND DUP2 EQ PUSH2 0x3916 JUMPI PUSH1 0x0 DUP1 REVERT JUMPDEST PUSH1 0x0 DUP1 PUSH1 0x0 DUP1 PUSH1 0x0 PUSH1 0xA0 DUP7 DUP9 SUB SLT ISZERO PUSH2 0x3E9A JUMPI PUSH1 0x0 DUP1 REVERT JUMPDEST PUSH2 0x3EA3 DUP7 PUSH2 0x3E6B JUMP JUMPDEST SWAP5 POP PUSH1 0x20 DUP7 ADD MLOAD SWAP4 POP PUSH1 0x40 DUP7 ADD MLOAD SWAP3 POP PUSH1 0x60 DUP7 ADD MLOAD SWAP2 POP PUSH2 0x3EC6 PUSH1 0x80 DUP8 ADD PUSH2 0x3E6B JUMP JUMPDEST SWAP1 POP SWAP3 SWAP6 POP SWAP3 SWAP6 SWAP1 SWAP4 POP JUMP JUMPDEST PUSH1 0x20 DUP1 DUP3 MSTORE PUSH1 0xD SWAP1 DUP3 ADD MSTORE PUSH13 0x496E76616C6964207072696365 PUSH1 0x98 SHL PUSH1 0x40 DUP3 ADD MSTORE PUSH1 0x60 ADD SWAP1 JUMP JUMPDEST PUSH1 0x20 DUP1 DUP3 MSTORE PUSH1 0xA SWAP1 DUP3 ADD MSTORE PUSH10 0x27B7363C9037BBB732B9 PUSH1 0xB1 SHL PUSH1 0x40 DUP3 ADD MSTORE PUSH1 0x60 ADD SWAP1 JUMP JUMPDEST PUSH1 0x20 DUP2 MSTORE DUP2 PUSH1 0x20 DUP3 ADD MSTORE DUP2 DUP4 PUSH1 0x40 DUP4 ADD CALLDATACOPY PUSH1 0x0 DUP2 DUP4 ADD PUSH1 0x40 SWAP1 DUP2 ADD SWAP2 SWAP1 SWAP2 MSTORE PUSH1 0x1F SWAP1 SWAP3 ADD PUSH1 0x1F NOT AND ADD ADD SWAP2 SWAP1 POP JUMP JUMPDEST DUP2 DUP2 SUB PUSH1 0x0 DUP4 SLT DUP1 ISZERO DUP4 DUP4 SGT AND DUP4 DUP4 SLT DUP3 AND OR ISZERO PUSH2 0x2B24 JUMPI PUSH2 0x2B24 PUSH2 0x3D12 JUMP JUMPDEST DUP1 DUP3 MUL DUP2 ISZERO DUP3 DUP3 DIV DUP5 EQ OR PUSH2 0xCD8 JUMPI PUSH2 0xCD8 PUSH2 0x3D12 JUMP JUMPDEST PUSH4 0x4E487B71 PUSH1 0xE0 SHL PUSH1 0x0 MSTORE PUSH1 0x12 PUSH1 0x4 MSTORE PUSH1 0x24 PUSH1 0x0 REVERT JUMPDEST PUSH1 0x0 DUP3 PUSH2 0x3FA8 JUMPI PUSH2 0x3FA8 PUSH2 0x3F83 JUMP JUMPDEST POP DIV SWAP1 JUMP JUMPDEST PUSH4 0x4E487B71 PUSH1 0xE0 SHL PUSH1 0x0 MSTORE PUSH1 0x32 PUSH1 0x4 MSTORE PUSH1 0x24 PUSH1 0x0 REVERT JUMPDEST PUSH1 0x0 PUSH1 0x1 DUP3 ADD PUSH2 0x3FD5 JUMPI PUSH2 0x3FD5 PUSH2 0x3D12 JUMP JUMPDEST POP PUSH1 0x1 ADD SWAP1 JUMP JUMPDEST PUSH1 0x1 DUP2 DUP2 JUMPDEST DUP1 DUP6 GT ISZERO PUSH2 0x4017 JUMPI DUP2 PUSH1 0x0 NOT DIV DUP3 GT ISZERO PUSH2 0x3FFD JUMPI PUSH2 0x3FFD PUSH2 0x3D12 JUMP JUMPDEST DUP1 DUP6 AND ISZERO PUSH2 0x400A JUMPI SWAP2 DUP2 MUL SWAP2 JUMPDEST SWAP4 DUP5 SHR SWAP4 SWAP1 DUP1 MUL SWAP1 PUSH2 0x3FE1 JUMP JUMPDEST POP SWAP3 POP SWAP3 SWAP1 POP JUMP JUMPDEST PUSH1 0x0 DUP3 PUSH2 0x402E JUMPI POP PUSH1 0x1 PUSH2 0xCD8 JUMP JUMPDEST DUP2 PUSH2 0x403B JUMPI POP PUSH1 0x0 PUSH2 0xCD8 JUMP JUMPDEST DUP2 PUSH1 0x1 DUP2 EQ PUSH2 0x4051 JUMPI PUSH1 0x2 DUP2 EQ PUSH2 0x405B JUMPI PUSH2 0x4077 JUMP JUMPDEST PUSH1 0x1 SWAP2 POP POP PUSH2 0xCD8 JUMP JUMPDEST PUSH1 0xFF DUP5 GT ISZERO PUSH2 0x406C JUMPI PUSH2 0x406C PUSH2 0x3D12 JUMP JUMPDEST POP POP PUSH1 0x1 DUP3 SHL PUSH2 0xCD8 JUMP JUMPDEST POP PUSH1 0x20 DUP4 LT PUSH2 0x133 DUP4 LT AND PUSH1 0x4E DUP5 LT PUSH1 0xB DUP5 LT AND OR ISZERO PUSH2 0x409A JUMPI POP DUP2 DUP2 EXP PUSH2 0xCD8 JUMP JUMPDEST PUSH2 0x40A4 DUP4 DUP4 PUSH2 0x3FDC JUMP JUMPDEST DUP1 PUSH1 0x0 NOT DIV DUP3 GT ISZERO PUSH2 0x40B8 JUMPI PUSH2 0x40B8 PUSH2 0x3D12 JUMP JUMPDEST MUL SWAP4 SWAP3 POP POP POP JUMP JUMPDEST PUSH1 0x0 PUSH2 0x38F8 PUSH1 0xFF DUP5 AND DUP4 PUSH2 0x401F JUMP JUMPDEST PUSH1 0x0 PUSH2 0x38F8 DUP4 DUP4 PUSH2 0x401F JUMP JUMPDEST PUSH1 0x0 PUSH1 0x20 DUP3 DUP5 SUB SLT ISZERO PUSH2 0x40ED JUMPI PUSH1 0x0 DUP1 REVERT JUMPDEST DUP2 MLOAD PUSH8 0xFFFFFFFFFFFFFFFF DUP2 GT ISZERO PUSH2 0x4104 JUMPI PUSH1 0x0 DUP1 REVERT JUMPDEST DUP3 ADD PUSH1 0x1F DUP2 ADD DUP5 SGT PUSH2 0x4115 JUMPI PUSH1 0x0 DUP1 REVERT JUMPDEST DUP1 MLOAD PUSH2 0x4123 PUSH2 0x3B1B DUP3 PUSH2 0x3AD4 JUMP JUMPDEST DUP2 DUP2 MSTORE DUP6 PUSH1 0x20 DUP4 DUP6 ADD ADD GT ISZERO PUSH2 0x4138 JUMPI PUSH1 0x0 DUP1 REVERT JUMPDEST PUSH2 0x4149 DUP3 PUSH1 0x20 DUP4 ADD PUSH1 0x20 DUP7 ADD PUSH2 0x3895 JUMP JUMPDEST SWAP6 SWAP5 POP POP POP POP POP JUMP JUMPDEST PUSH1 0x1F DUP3 GT ISZERO PUSH2 0x1698 JUMPI PUSH1 0x0 DUP2 DUP2 MSTORE PUSH1 0x20 DUP2 KECCAK256 PUSH1 0x1F DUP6 ADD PUSH1 0x5 SHR DUP2 ADD PUSH1 0x20 DUP7 LT ISZERO PUSH2 0x4179 JUMPI POP DUP1 JUMPDEST PUSH1 0x1F DUP6 ADD PUSH1 0x5 SHR DUP3 ADD SWAP2 POP JUMPDEST DUP2 DUP2 LT ISZERO PUSH2 0x4198 JUMPI DUP3 DUP2 SSTORE PUSH1 0x1 ADD PUSH2 0x4185 JUMP JUMPDEST POP POP POP POP POP POP JUMP JUMPDEST DUP2 MLOAD PUSH8 0xFFFFFFFFFFFFFFFF DUP2 GT ISZERO PUSH2 0x41BA JUMPI PUSH2 0x41BA PUSH2 0x3A8D JUMP JUMPDEST PUSH2 0x41CE DUP2 PUSH2 0x41C8 DUP5 SLOAD PUSH2 0x3CD8 JUMP JUMPDEST DUP5 PUSH2 0x4152 JUMP JUMPDEST PUSH1 0x20 DUP1 PUSH1 0x1F DUP4 GT PUSH1 0x1 DUP2 EQ PUSH2 0x4203 JUMPI PUSH1 0x0 DUP5 ISZERO PUSH2 0x41EB JUMPI POP DUP6 DUP4 ADD MLOAD JUMPDEST PUSH1 0x0 NOT PUSH1 0x3 DUP7 SWAP1 SHL SHR NOT AND PUSH1 0x1 DUP6 SWAP1 SHL OR DUP6 SSTORE PUSH2 0x4198 JUMP JUMPDEST PUSH1 0x0 DUP6 DUP2 MSTORE PUSH1 0x20 DUP2 KECCAK256 PUSH1 0x1F NOT DUP7 AND SWAP2 JUMPDEST DUP3 DUP2 LT ISZERO PUSH2 0x4232 JUMPI DUP9 DUP7 ADD MLOAD DUP3 SSTORE SWAP5 DUP5 ADD SWAP5 PUSH1 0x1 SWAP1 SWAP2 ADD SWAP1 DUP5 ADD PUSH2 0x4213 JUMP JUMPDEST POP DUP6 DUP3 LT ISZERO PUSH2 0x4250 JUMPI DUP8 DUP6 ADD MLOAD PUSH1 0x0 NOT PUSH1 0x3 DUP9 SWAP1 SHL PUSH1 0xF8 AND SHR NOT AND DUP2 SSTORE JUMPDEST POP POP POP POP POP PUSH1 0x1 SWAP1 DUP2 SHL ADD SWAP1 SSTORE POP JUMP JUMPDEST PUSH1 0x40 DUP2 MSTORE PUSH1 0x0 PUSH2 0x4273 PUSH1 0x40 DUP4 ADD DUP6 PUSH2 0x38B9 JUMP JUMPDEST SWAP1 POP PUSH1 0x1 DUP1 PUSH1 0xA0 SHL SUB DUP4 AND PUSH1 0x20 DUP4 ADD MSTORE SWAP4 SWAP3 POP POP POP JUMP JUMPDEST PUSH1 0x60 DUP2 MSTORE PUSH1 0x0 PUSH2 0x429D PUSH1 0x60 DUP4 ADD DUP7 PUSH2 0x38B9 JUMP JUMPDEST PUSH1 0x1 PUSH1 0x1 PUSH1 0xA0 SHL SUB SWAP5 SWAP1 SWAP5 AND PUSH1 0x20 DUP4 ADD MSTORE POP PUSH1 0x40 ADD MSTORE SWAP2 SWAP1 POP JUMP JUMPDEST PUSH1 0x0 DUP2 PUSH2 0x42C7 JUMPI PUSH2 0x42C7 PUSH2 0x3D12 JUMP JUMPDEST POP PUSH1 0x0 NOT ADD SWAP1 JUMP JUMPDEST DUP1 DUP3 MUL PUSH1 0x0 DUP3 SLT PUSH1 0x1 PUSH1 0xFF SHL DUP5 EQ AND ISZERO PUSH2 0x42EB JUMPI PUSH2 0x42EB PUSH2 0x3D12 JUMP JUMPDEST DUP2 DUP2 SDIV DUP4 EQ DUP3 ISZERO OR PUSH2 0xCD8 JUMPI PUSH2 0xCD8 PUSH2 0x3D12 JUMP JUMPDEST PUSH1 0x0 DUP3 PUSH2 0x430E JUMPI PUSH2 0x430E PUSH2 0x3F83 JUMP JUMPDEST PUSH1 0x1 PUSH1 0xFF SHL DUP3 EQ PUSH1 0x0 NOT DUP5 EQ AND ISZERO PUSH2 0x4328 JUMPI PUSH2 0x4328 PUSH2 0x3D12 JUMP JUMPDEST POP SDIV SWAP1 JUMP JUMPDEST PUSH1 0x0 PUSH1 0x1 PUSH1 0xFF SHL DUP3 ADD PUSH2 0x4342 JUMPI PUSH2 0x4342 PUSH2 0x3D12 JUMP JUMPDEST POP PUSH1 0x0 SUB SWAP1 JUMP INVALID 0xDD CALLCODE MSTORE 0xAD SHL 0xE2 0xC8 SWAP12 PUSH10 0xC2B068FC378DAA952BA7 CALL PUSH4 0xC4A11628 CREATE2 GAS 0x4D CREATE2 0x23 0xB3 0xEF GASLIMIT SELFBALANCE MSTORE 0x4F JUMPI KECCAK256 PUSH10 0x732061206D756C74692D PUSH2 0x7373 PUSH6 0x7420656C6173 PUSH21 0x696320737570706C7920746F6B656E207379737465 PUSH14 0x2E20566973697420656C61737469 PUSH4 0x2E6C6F6C KECCAK256 PUSH7 0x6F722064657461 PUSH10 0x6C656420646F63756D65 PUSH15 0x746174696F6E2E2045616368207375 PUSH17 0x706F727465642073796D626F6C20637265 PUSH2 0x7465 PUSH20 0x2061207669727475616C2074726164696E672070 PUSH2 0x6972 KECCAK256 PUSH2 0x6761 PUSH10 0x6E737420455448207573 PUSH10 0x6E6720436861696E6C69 PUSH15 0x6B2070726963652066656564732E20 SLOAD PUSH9 0x652073797374656D20 PUSH14 0x61696E7461696E73207072696365 0x2D PUSH2 0x7761 PUSH19 0x65206C697175696469747920706F6F6C732061 PUSH15 0x642061646A7573747320746F6B656E KECCAK256 PUSH20 0x7570706C79206261736564206F6E207072696365 KECCAK256 PUSH14 0x6F76656D656E74732EA264697066 PUSH20 0x582212205C9DB50481E269B42918FEDDD8FE720A EQ REVERT CALLDATASIZE KECCAK256 NUMBER PUSH20 0x87FC79BFC9A0366F71B264736F6C634300081300 CALLER 0x4D PUSH22 0x6C74692D617373657420656C61737469632073757070 PUSH13 0x7920746F6B656E207379737465 PUSH14 0x202D20656C61737469632E6C6F6C "},"methodIdentifiers":{"BLOCKS_BETWEEN_TRADES()":"a7ea74b7","BUY_TAX()":"02af37bb","CURVE_DENOMINATOR()":"17d16bfb","MAX_OPERATORS()":"2b78c9f7","MAX_PRICE_IMPACT()":"6839b5fa","MAX_RESERVE_RATIO()":"1190016c","MAX_SUPPLY()":"32cb6b0c","MIN_PRICE_ANSWERS()":"683d0a0e","MIN_PRICE_CHANGE_INTERVAL()":"2f3892f5","MIN_PRICE_UPDATE_TIME()":"696cf8f0","MIN_SUPPLY()":"35917c64","PRICE_DECIMALS()":"f1a640f8","PRICE_FRESHNESS_PERIOD()":"5536487c","SELL_TAX()":"54ad8aee","TAX_DENOMINATOR()":"a51c9ace","TRACKED_DECIMALS()":"bba0e722","VERSION()":"ffa1ad74","WEBSITE()":"283dc96f","WITHDRAWAL_DELAY()":"0ebb172a","addOperator(address)":"9870d7fe","addSymbol(address)":"9954c217","allowance(address,address)":"dd62ed3e","approve(address,uint256)":"095ea7b3","balanceOf(address)":"70a08231","burnCurveRate()":"b608bbd0","buyTokens(string,uint256)":"dad7ae5a","closeLongPosition()":"53baf0ad","collectedTaxes()":"b7297057","completeWithdrawal(uint256)":"4f0cb5f3","deactivateSymbol(string)":"52c2c294","decimals()":"313ce567","description()":"7284e416","emergencyShutdown()":"3403c2fc","emergencyWithdraw()":"db2e21bc","getPositionInfo(address)":"fbd1d25a","getSupportedSymbolsCount()":"9e18f399","getSymbolHash(string)":"3a7adc64","getSymbolInfo(string)":"9f65106c","getSymbolPrice(string)":"c4d2eb2e","getSystemInfo()":"6cb69f42","initiateWithdrawal()":"b51d1d4f","lastTradeBlock(address,string)":"948afdae","longPositions(address)":"ac511bc0","mintCurveRate()":"1e15d1a5","name()":"06fdde03","nextWithdrawalId()":"4a9122e3","openLongPosition(string)":"3a58c9c8","operatorCount()":"7c6f3158","operators(address)":"13e7c9d8","owner()":"8da5cb5b","pause()":"8456cb59","paused()":"5c975abb","pendingWithdrawals(uint256)":"e6150400","rebaseFactor()":"1cdd82dc","rebaseSupply()":"556f98fc","removeOperator(address)":"ac8a584a","sellTokens(string,uint256)":"5f576c44","supportedSymbols(uint256)":"932d68a6","symbol()":"95d89b41","symbolData(bytes32)":"36e1af4b","totalStaked()":"817b1cd2","totalSupply()":"18160ddd","trackedSymbol()":"cab7ac3a","transfer(address,uint256)":"a9059cbb","transferFrom(address,address,uint256)":"23b872dd","transferOwnership(address)":"f2fde38b","unpause()":"3f4ba83a","withdrawTaxes()":"46829831"}}}}}