{"contracts/mocks/MockPriceFeed.sol":{"MockPriceFeed":{"abi":[{"inputs":[{"internalType":"int256","name":"_price","type":"int256"}],"stateMutability":"nonpayable","type":"constructor"},{"inputs":[],"name":"MAX_PRICE_CHANGE","outputs":[{"internalType":"uint256","name":"","type":"uint256"}],"stateMutability":"view","type":"function"},{"inputs":[],"name":"MIN_UPDATE_DELAY","outputs":[{"internalType":"uint256","name":"","type":"uint256"}],"stateMutability":"view","type":"function"},{"inputs":[],"name":"answeredInRound","outputs":[{"internalType":"uint80","name":"","type":"uint80"}],"stateMutability":"view","type":"function"},{"inputs":[],"name":"lastUpdate","outputs":[{"internalType":"uint256","name":"","type":"uint256"}],"stateMutability":"view","type":"function"},{"inputs":[],"name":"latestRoundData","outputs":[{"internalType":"uint80","name":"","type":"uint80"},{"internalType":"int256","name":"","type":"int256"},{"internalType":"uint256","name":"","type":"uint256"},{"internalType":"uint256","name":"","type":"uint256"},{"internalType":"uint80","name":"","type":"uint80"}],"stateMutability":"view","type":"function"},{"inputs":[],"name":"price","outputs":[{"internalType":"int256","name":"","type":"int256"}],"stateMutability":"view","type":"function"},{"inputs":[],"name":"roundId","outputs":[{"internalType":"uint80","name":"","type":"uint80"}],"stateMutability":"view","type":"function"},{"inputs":[{"internalType":"int256","name":"_price","type":"int256"}],"name":"setPrice","outputs":[],"stateMutability":"nonpayable","type":"function"},{"inputs":[],"name":"timestamp","outputs":[{"internalType":"uint256","name":"","type":"uint256"}],"stateMutability":"view","type":"function"}],"evm":{"bytecode":{"linkReferences":{},"object":"60806040526000805460646001600160501b0319918216811790925560038054909116909117905534801561003357600080fd5b5060405161046a38038061046a83398101604081905261005291610063565b60015542600281905560045561007c565b60006020828403121561007557600080fd5b5051919050565b6103df8061008b6000396000f3fe608060405234801561001057600080fd5b50600436106100935760003560e01c8063b80777ea11610066578063b80777ea146100f0578063c0463711146100f9578063c22c249914610102578063f7a3080614610115578063feaf968c1461012a57600080fd5b80632084bf9f146100985780635416c818146100b45780638cd221c9146100bc578063a035b1fe146100e7575b600080fd5b6100a16103e881565b6040519081526020015b60405180910390f35b6100a1600381565b6000546100cf906001600160501b031681565b6040516001600160501b0390911681526020016100ab565b6100a160015481565b6100a160025481565b6100a160045481565b6003546100cf906001600160501b031681565b6101286101233660046102db565b61016d565b005b600054600154600254600354604080516001600160501b03958616815260208101949094528301829052606083019190915291909116608082015260a0016100ab565b600360045461017c919061030a565b4210156101d05760405162461bcd60e51b815260206004820152601a60248201527f5072696365207570646174656420746f6f20726563656e746c7900000000000060448201526064015b60405180910390fd5b6000600154131561027457600081600154136101f8576001546101f39083610323565b610206565b816001546102069190610323565b905060006001548261271061021b919061034a565b6102259190610361565b90506103e88111156102715760405162461bcd60e51b81526020600482015260156024820152740a0e4d2c6ca40d2dae0c2c6e840e8dede40d0d2ced605b1b60448201526064016101c7565b50505b6001819055426002819055600455600080546001600160501b0316908061029a83610383565b82546101009290920a6001600160501b03818102199093169183160217909155600054600380549190921669ffffffffffffffffffff199091161790555050565b6000602082840312156102ed57600080fd5b5035919050565b634e487b7160e01b600052601160045260246000fd5b8082018082111561031d5761031d6102f4565b92915050565b8181036000831280158383131683831282161715610343576103436102f4565b5092915050565b808202811582820484141761031d5761031d6102f4565b60008261037e57634e487b7160e01b600052601260045260246000fd5b500490565b60006001600160501b0380831681810361039f5761039f6102f4565b600101939250505056fea264697066735822122007e29e5203c84bfc1d206ddb311df2d9cb0c9fd1d20d669f5e010314841d999564736f6c63430008130033","opcodes":"PUSH1 0x80 PUSH1 0x40 MSTORE PUSH1 0x0 DUP1 SLOAD PUSH1 0x64 PUSH1 0x1 PUSH1 0x1 PUSH1 0x50 SHL SUB NOT SWAP2 DUP3 AND DUP2 OR SWAP1 SWAP3 SSTORE PUSH1 0x3 DUP1 SLOAD SWAP1 SWAP2 AND SWAP1 SWAP2 OR SWAP1 SSTORE CALLVALUE DUP1 ISZERO PUSH2 0x33 JUMPI PUSH1 0x0 DUP1 REVERT JUMPDEST POP PUSH1 0x40 MLOAD PUSH2 0x46A CODESIZE SUB DUP1 PUSH2 0x46A DUP4 CODECOPY DUP2 ADD PUSH1 0x40 DUP2 SWAP1 MSTORE PUSH2 0x52 SWAP2 PUSH2 0x63 JUMP JUMPDEST PUSH1 0x1 SSTORE TIMESTAMP PUSH1 0x2 DUP2 SWAP1 SSTORE PUSH1 0x4 SSTORE PUSH2 0x7C JUMP JUMPDEST PUSH1 0x0 PUSH1 0x20 DUP3 DUP5 SUB SLT ISZERO PUSH2 0x75 JUMPI PUSH1 0x0 DUP1 REVERT JUMPDEST POP MLOAD SWAP2 SWAP1 POP JUMP JUMPDEST PUSH2 0x3DF DUP1 PUSH2 0x8B PUSH1 0x0 CODECOPY PUSH1 0x0 RETURN INVALID PUSH1 0x80 PUSH1 0x40 MSTORE CALLVALUE DUP1 ISZERO PUSH2 0x10 JUMPI PUSH1 0x0 DUP1 REVERT JUMPDEST POP PUSH1 0x4 CALLDATASIZE LT PUSH2 0x93 JUMPI PUSH1 0x0 CALLDATALOAD PUSH1 0xE0 SHR DUP1 PUSH4 0xB80777EA GT PUSH2 0x66 JUMPI DUP1 PUSH4 0xB80777EA EQ PUSH2 0xF0 JUMPI DUP1 PUSH4 0xC0463711 EQ PUSH2 0xF9 JUMPI DUP1 PUSH4 0xC22C2499 EQ PUSH2 0x102 JUMPI DUP1 PUSH4 0xF7A30806 EQ PUSH2 0x115 JUMPI DUP1 PUSH4 0xFEAF968C EQ PUSH2 0x12A JUMPI PUSH1 0x0 DUP1 REVERT JUMPDEST DUP1 PUSH4 0x2084BF9F EQ PUSH2 0x98 JUMPI DUP1 PUSH4 0x5416C818 EQ PUSH2 0xB4 JUMPI DUP1 PUSH4 0x8CD221C9 EQ PUSH2 0xBC JUMPI DUP1 PUSH4 0xA035B1FE EQ PUSH2 0xE7 JUMPI JUMPDEST PUSH1 0x0 DUP1 REVERT JUMPDEST PUSH2 0xA1 PUSH2 0x3E8 DUP2 JUMP JUMPDEST PUSH1 0x40 MLOAD SWAP1 DUP2 MSTORE PUSH1 0x20 ADD JUMPDEST PUSH1 0x40 MLOAD DUP1 SWAP2 SUB SWAP1 RETURN JUMPDEST PUSH2 0xA1 PUSH1 0x3 DUP2 JUMP JUMPDEST PUSH1 0x0 SLOAD PUSH2 0xCF SWAP1 PUSH1 0x1 PUSH1 0x1 PUSH1 0x50 SHL SUB AND DUP2 JUMP JUMPDEST PUSH1 0x40 MLOAD PUSH1 0x1 PUSH1 0x1 PUSH1 0x50 SHL SUB SWAP1 SWAP2 AND DUP2 MSTORE PUSH1 0x20 ADD PUSH2 0xAB JUMP JUMPDEST PUSH2 0xA1 PUSH1 0x1 SLOAD DUP2 JUMP JUMPDEST PUSH2 0xA1 PUSH1 0x2 SLOAD DUP2 JUMP JUMPDEST PUSH2 0xA1 PUSH1 0x4 SLOAD DUP2 JUMP JUMPDEST PUSH1 0x3 SLOAD PUSH2 0xCF SWAP1 PUSH1 0x1 PUSH1 0x1 PUSH1 0x50 SHL SUB AND DUP2 JUMP JUMPDEST PUSH2 0x128 PUSH2 0x123 CALLDATASIZE PUSH1 0x4 PUSH2 0x2DB JUMP JUMPDEST PUSH2 0x16D JUMP JUMPDEST STOP JUMPDEST PUSH1 0x0 SLOAD PUSH1 0x1 SLOAD PUSH1 0x2 SLOAD PUSH1 0x3 SLOAD PUSH1 0x40 DUP1 MLOAD PUSH1 0x1 PUSH1 0x1 PUSH1 0x50 SHL SUB SWAP6 DUP7 AND DUP2 MSTORE PUSH1 0x20 DUP2 ADD SWAP5 SWAP1 SWAP5 MSTORE DUP4 ADD DUP3 SWAP1 MSTORE PUSH1 0x60 DUP4 ADD SWAP2 SWAP1 SWAP2 MSTORE SWAP2 SWAP1 SWAP2 AND PUSH1 0x80 DUP3 ADD MSTORE PUSH1 0xA0 ADD PUSH2 0xAB JUMP JUMPDEST PUSH1 0x3 PUSH1 0x4 SLOAD PUSH2 0x17C SWAP2 SWAP1 PUSH2 0x30A JUMP JUMPDEST TIMESTAMP LT ISZERO PUSH2 0x1D0 JUMPI PUSH1 0x40 MLOAD PUSH3 0x461BCD PUSH1 0xE5 SHL DUP2 MSTORE PUSH1 0x20 PUSH1 0x4 DUP3 ADD MSTORE PUSH1 0x1A PUSH1 0x24 DUP3 ADD MSTORE PUSH32 0x5072696365207570646174656420746F6F20726563656E746C79000000000000 PUSH1 0x44 DUP3 ADD MSTORE PUSH1 0x64 ADD JUMPDEST PUSH1 0x40 MLOAD DUP1 SWAP2 SUB SWAP1 REVERT JUMPDEST PUSH1 0x0 PUSH1 0x1 SLOAD SGT ISZERO PUSH2 0x274 JUMPI PUSH1 0x0 DUP2 PUSH1 0x1 SLOAD SGT PUSH2 0x1F8 JUMPI PUSH1 0x1 SLOAD PUSH2 0x1F3 SWAP1 DUP4 PUSH2 0x323 JUMP JUMPDEST PUSH2 0x206 JUMP JUMPDEST DUP2 PUSH1 0x1 SLOAD PUSH2 0x206 SWAP2 SWAP1 PUSH2 0x323 JUMP JUMPDEST SWAP1 POP PUSH1 0x0 PUSH1 0x1 SLOAD DUP3 PUSH2 0x2710 PUSH2 0x21B SWAP2 SWAP1 PUSH2 0x34A JUMP JUMPDEST PUSH2 0x225 SWAP2 SWAP1 PUSH2 0x361 JUMP JUMPDEST SWAP1 POP PUSH2 0x3E8 DUP2 GT ISZERO PUSH2 0x271 JUMPI PUSH1 0x40 MLOAD PUSH3 0x461BCD PUSH1 0xE5 SHL DUP2 MSTORE PUSH1 0x20 PUSH1 0x4 DUP3 ADD MSTORE PUSH1 0x15 PUSH1 0x24 DUP3 ADD MSTORE PUSH21 0xA0E4D2C6CA40D2DAE0C2C6E840E8DEDE40D0D2CED PUSH1 0x5B SHL PUSH1 0x44 DUP3 ADD MSTORE PUSH1 0x64 ADD PUSH2 0x1C7 JUMP JUMPDEST POP POP JUMPDEST PUSH1 0x1 DUP2 SWAP1 SSTORE TIMESTAMP PUSH1 0x2 DUP2 SWAP1 SSTORE PUSH1 0x4 SSTORE PUSH1 0x0 DUP1 SLOAD PUSH1 0x1 PUSH1 0x1 PUSH1 0x50 SHL SUB AND SWAP1 DUP1 PUSH2 0x29A DUP4 PUSH2 0x383 JUMP JUMPDEST DUP3 SLOAD PUSH2 0x100 SWAP3 SWAP1 SWAP3 EXP PUSH1 0x1 PUSH1 0x1 PUSH1 0x50 SHL SUB DUP2 DUP2 MUL NOT SWAP1 SWAP4 AND SWAP2 DUP4 AND MUL OR SWAP1 SWAP2 SSTORE PUSH1 0x0 SLOAD PUSH1 0x3 DUP1 SLOAD SWAP2 SWAP1 SWAP3 AND PUSH10 0xFFFFFFFFFFFFFFFFFFFF NOT SWAP1 SWAP2 AND OR SWAP1 SSTORE POP POP JUMP JUMPDEST PUSH1 0x0 PUSH1 0x20 DUP3 DUP5 SUB SLT ISZERO PUSH2 0x2ED JUMPI PUSH1 0x0 DUP1 REVERT JUMPDEST POP CALLDATALOAD SWAP2 SWAP1 POP JUMP JUMPDEST PUSH4 0x4E487B71 PUSH1 0xE0 SHL PUSH1 0x0 MSTORE PUSH1 0x11 PUSH1 0x4 MSTORE PUSH1 0x24 PUSH1 0x0 REVERT JUMPDEST DUP1 DUP3 ADD DUP1 DUP3 GT ISZERO PUSH2 0x31D JUMPI PUSH2 0x31D PUSH2 0x2F4 JUMP JUMPDEST SWAP3 SWAP2 POP POP JUMP JUMPDEST DUP2 DUP2 SUB PUSH1 0x0 DUP4 SLT DUP1 ISZERO DUP4 DUP4 SGT AND DUP4 DUP4 SLT DUP3 AND OR ISZERO PUSH2 0x343 JUMPI PUSH2 0x343 PUSH2 0x2F4 JUMP JUMPDEST POP SWAP3 SWAP2 POP POP JUMP JUMPDEST DUP1 DUP3 MUL DUP2 ISZERO DUP3 DUP3 DIV DUP5 EQ OR PUSH2 0x31D JUMPI PUSH2 0x31D PUSH2 0x2F4 JUMP JUMPDEST PUSH1 0x0 DUP3 PUSH2 0x37E JUMPI PUSH4 0x4E487B71 PUSH1 0xE0 SHL PUSH1 0x0 MSTORE PUSH1 0x12 PUSH1 0x4 MSTORE PUSH1 0x24 PUSH1 0x0 REVERT JUMPDEST POP DIV SWAP1 JUMP JUMPDEST PUSH1 0x0 PUSH1 0x1 PUSH1 0x1 PUSH1 0x50 SHL SUB DUP1 DUP4 AND DUP2 DUP2 SUB PUSH2 0x39F JUMPI PUSH2 0x39F PUSH2 0x2F4 JUMP JUMPDEST PUSH1 0x1 ADD SWAP4 SWAP3 POP POP POP JUMP INVALID LOG2 PUSH5 0x6970667358 0x22 SLT KECCAK256 SMOD 0xE2 SWAP15 MSTORE SUB 0xC8 0x4B 0xFC SAR KECCAK256 PUSH14 0xDB311DF2D9CB0C9FD1D20D669F5E ADD SUB EQ DUP5 SAR SWAP10 SWAP6 PUSH5 0x736F6C6343 STOP ADDMOD SGT STOP CALLER "},"methodIdentifiers":{"MAX_PRICE_CHANGE()":"2084bf9f","MIN_UPDATE_DELAY()":"5416c818","answeredInRound()":"c22c2499","lastUpdate()":"c0463711","latestRoundData()":"feaf968c","price()":"a035b1fe","roundId()":"8cd221c9","setPrice(int256)":"f7a30806","timestamp()":"b80777ea"}}}}}