{"contracts/mocks/MockPriceFeed.sol":{"MockPriceFeed":{"abi":[{"inputs":[{"internalType":"int256","name":"_price","type":"int256"}],"stateMutability":"nonpayable","type":"constructor"},{"inputs":[],"name":"MAX_PRICE_CHANGE","outputs":[{"internalType":"uint256","name":"","type":"uint256"}],"stateMutability":"view","type":"function"},{"inputs":[],"name":"MIN_ROUNDS","outputs":[{"internalType":"uint256","name":"","type":"uint256"}],"stateMutability":"view","type":"function"},{"inputs":[],"name":"MIN_UPDATE_DELAY","outputs":[{"internalType":"uint256","name":"","type":"uint256"}],"stateMutability":"view","type":"function"},{"inputs":[],"name":"answeredInRound","outputs":[{"internalType":"uint80","name":"","type":"uint80"}],"stateMutability":"view","type":"function"},{"inputs":[],"name":"description","outputs":[{"internalType":"string","name":"","type":"string"}],"stateMutability":"view","type":"function"},{"inputs":[],"name":"isStale","outputs":[{"internalType":"bool","name":"","type":"bool"}],"stateMutability":"view","type":"function"},{"inputs":[],"name":"lastUpdate","outputs":[{"internalType":"uint256","name":"","type":"uint256"}],"stateMutability":"view","type":"function"},{"inputs":[],"name":"latestRoundData","outputs":[{"internalType":"uint80","name":"","type":"uint80"},{"internalType":"int256","name":"","type":"int256"},{"internalType":"uint256","name":"","type":"uint256"},{"internalType":"uint256","name":"","type":"uint256"},{"internalType":"uint80","name":"","type":"uint80"}],"stateMutability":"view","type":"function"},{"inputs":[],"name":"price","outputs":[{"internalType":"int256","name":"","type":"int256"}],"stateMutability":"view","type":"function"},{"inputs":[],"name":"roundId","outputs":[{"internalType":"uint80","name":"","type":"uint80"}],"stateMutability":"view","type":"function"},{"inputs":[{"internalType":"string","name":"newDescription","type":"string"}],"name":"setDescription","outputs":[],"stateMutability":"nonpayable","type":"function"},{"inputs":[{"internalType":"int256","name":"_price","type":"int256"}],"name":"setPrice","outputs":[],"stateMutability":"nonpayable","type":"function"},{"inputs":[{"internalType":"bool","name":"stale","type":"bool"}],"name":"setStale","outputs":[],"stateMutability":"nonpayable","type":"function"},{"inputs":[],"name":"timestamp","outputs":[{"internalType":"uint256","name":"","type":"uint256"}],"stateMutability":"view","type":"function"}],"evm":{"bytecode":{"linkReferences":{},"object":"608060405234801561001057600080fd5b50604051610a85380380610a8583398101604081905261002f9161008e565b600181905542600281905560045560408051808201909152600381526242544360e81b60208201526005906100649082610146565b50506000805460646001600160501b03199182168117909255600380549091169091179055610205565b6000602082840312156100a057600080fd5b5051919050565b634e487b7160e01b600052604160045260246000fd5b600181811c908216806100d157607f821691505b6020821081036100f157634e487b7160e01b600052602260045260246000fd5b50919050565b601f82111561014157600081815260208120601f850160051c8101602086101561011e5750805b601f850160051c820191505b8181101561013d5782815560010161012a565b5050505b505050565b81516001600160401b0381111561015f5761015f6100a7565b6101738161016d84546100bd565b846100f7565b602080601f8311600181146101a857600084156101905750858301515b600019600386901b1c1916600185901b17855561013d565b600085815260208120601f198616915b828110156101d7578886015182559484019460019091019084016101b8565b50858210156101f55787850151600019600388901b60f8161c191681555b5050505050600190811b01905550565b610871806102146000396000f3fe608060405234801561001057600080fd5b50600436106100ea5760003560e01c8063a035b1fe1161008c578063c22c249911610066578063c22c2499146101a8578063e1312147146101bb578063f7a30806146101ce578063feaf968c146101e157600080fd5b8063a035b1fe1461018d578063b80777ea14610196578063c04637111461019f57600080fd5b80637284e416116100c85780637284e41614610130578063843cbbc6146101455780638cd221c91461014d57806390c3f38f1461017857600080fd5b80631a26f447146100ef5780632084bf9f146101115780635416c81814610128575b600080fd5b6006546100fc9060ff1681565b60405190151581526020015b60405180910390f35b61011a6103e881565b604051908152602001610108565b61011a600381565b610138610224565b60405161010891906104c6565b61011a606481565b600054610160906001600160501b031681565b6040516001600160501b039091168152602001610108565b61018b61018636600461052a565b6102b6565b005b61011a60015481565b61011a60025481565b61011a60045481565b600354610160906001600160501b031681565b61018b6101c93660046105db565b6102c6565b61018b6101dc366004610604565b610344565b600054600154600254600354604080516001600160501b03958616815260208101949094528301829052606083019190915291909116608082015260a001610108565b6060600580546102339061061d565b80601f016020809104026020016040519081016040528092919081815260200182805461025f9061061d565b80156102ac5780601f10610281576101008083540402835291602001916102ac565b820191906000526020600020905b81548152906001019060200180831161028f57829003601f168201915b5050505050905090565b60056102c282826106a6565b5050565b6006805460ff1916821580159190911790915561031b576000546102f5906001906001600160501b031661077c565b6003805469ffffffffffffffffffff19166001600160501b039290921691909117905550565b6000546003805469ffffffffffffffffffff19166001600160501b039092169190911790555b50565b600360045461035391906107a3565b4210156103a75760405162461bcd60e51b815260206004820152601a60248201527f5072696365207570646174656420746f6f20726563656e746c7900000000000060448201526064015b60405180910390fd5b6000600154131561044b57600081600154136103cf576001546103ca90836107bc565b6103dd565b816001546103dd91906107bc565b90506000600154826127106103f291906107dc565b6103fc91906107f3565b90506103e88111156104485760405162461bcd60e51b81526020600482015260156024820152740a0e4d2c6ca40d2dae0c2c6e840e8dede40d0d2ced605b1b604482015260640161039e565b50505b6001819055426002819055600455600080546001600160501b0316908061047183610815565b82546001600160501b039182166101009390930a92830291909202199091161790555060065460ff16610341576000546003805469ffffffffffffffffffff19166001600160501b0390921691909117905550565b600060208083528351808285015260005b818110156104f3578581018301518582016040015282016104d7565b506000604082860101526040601f19601f8301168501019250505092915050565b634e487b7160e01b600052604160045260246000fd5b60006020828403121561053c57600080fd5b813567ffffffffffffffff8082111561055457600080fd5b818401915084601f83011261056857600080fd5b81358181111561057a5761057a610514565b604051601f8201601f19908116603f011681019083821181831017156105a2576105a2610514565b816040528281528760208487010111156105bb57600080fd5b826020860160208301376000928101602001929092525095945050505050565b6000602082840312156105ed57600080fd5b813580151581146105fd57600080fd5b9392505050565b60006020828403121561061657600080fd5b5035919050565b600181811c9082168061063157607f821691505b60208210810361065157634e487b7160e01b600052602260045260246000fd5b50919050565b601f8211156106a157600081815260208120601f850160051c8101602086101561067e5750805b601f850160051c820191505b8181101561069d5782815560010161068a565b5050505b505050565b815167ffffffffffffffff8111156106c0576106c0610514565b6106d4816106ce845461061d565b84610657565b602080601f83116001811461070957600084156106f15750858301515b600019600386901b1c1916600185901b17855561069d565b600085815260208120601f198616915b8281101561073857888601518255948401946001909101908401610719565b50858210156107565787850151600019600388901b60f8161c191681555b5050505050600190811b01905550565b634e487b7160e01b600052601160045260246000fd5b6001600160501b0382811682821603908082111561079c5761079c610766565b5092915050565b808201808211156107b6576107b6610766565b92915050565b818103600083128015838313168383128216171561079c5761079c610766565b80820281158282048414176107b6576107b6610766565b60008261081057634e487b7160e01b600052601260045260246000fd5b500490565b60006001600160501b0380831681810361083157610831610766565b600101939250505056fea264697066735822122063d42694c1ebd1e4434a982f9e2be817c44dd5958dc234d02dffc0d613c9bbb064736f6c63430008140033","opcodes":"PUSH1 0x80 PUSH1 0x40 MSTORE CALLVALUE DUP1 ISZERO PUSH2 0x10 JUMPI PUSH1 0x0 DUP1 REVERT JUMPDEST POP PUSH1 0x40 MLOAD PUSH2 0xA85 CODESIZE SUB DUP1 PUSH2 0xA85 DUP4 CODECOPY DUP2 ADD PUSH1 0x40 DUP2 SWAP1 MSTORE PUSH2 0x2F SWAP2 PUSH2 0x8E JUMP JUMPDEST PUSH1 0x1 DUP2 SWAP1 SSTORE TIMESTAMP PUSH1 0x2 DUP2 SWAP1 SSTORE PUSH1 0x4 SSTORE PUSH1 0x40 DUP1 MLOAD DUP1 DUP3 ADD SWAP1 SWAP2 MSTORE PUSH1 0x3 DUP2 MSTORE PUSH3 0x425443 PUSH1 0xE8 SHL PUSH1 0x20 DUP3 ADD MSTORE PUSH1 0x5 SWAP1 PUSH2 0x64 SWAP1 DUP3 PUSH2 0x146 JUMP JUMPDEST POP POP PUSH1 0x0 DUP1 SLOAD PUSH1 0x64 PUSH1 0x1 PUSH1 0x1 PUSH1 0x50 SHL SUB NOT SWAP2 DUP3 AND DUP2 OR SWAP1 SWAP3 SSTORE PUSH1 0x3 DUP1 SLOAD SWAP1 SWAP2 AND SWAP1 SWAP2 OR SWAP1 SSTORE PUSH2 0x205 JUMP JUMPDEST PUSH1 0x0 PUSH1 0x20 DUP3 DUP5 SUB SLT ISZERO PUSH2 0xA0 JUMPI PUSH1 0x0 DUP1 REVERT JUMPDEST POP MLOAD SWAP2 SWAP1 POP JUMP JUMPDEST PUSH4 0x4E487B71 PUSH1 0xE0 SHL PUSH1 0x0 MSTORE PUSH1 0x41 PUSH1 0x4 MSTORE PUSH1 0x24 PUSH1 0x0 REVERT JUMPDEST PUSH1 0x1 DUP2 DUP2 SHR SWAP1 DUP3 AND DUP1 PUSH2 0xD1 JUMPI PUSH1 0x7F DUP3 AND SWAP2 POP JUMPDEST PUSH1 0x20 DUP3 LT DUP2 SUB PUSH2 0xF1 JUMPI PUSH4 0x4E487B71 PUSH1 0xE0 SHL PUSH1 0x0 MSTORE PUSH1 0x22 PUSH1 0x4 MSTORE PUSH1 0x24 PUSH1 0x0 REVERT JUMPDEST POP SWAP2 SWAP1 POP JUMP JUMPDEST PUSH1 0x1F DUP3 GT ISZERO PUSH2 0x141 JUMPI PUSH1 0x0 DUP2 DUP2 MSTORE PUSH1 0x20 DUP2 KECCAK256 PUSH1 0x1F DUP6 ADD PUSH1 0x5 SHR DUP2 ADD PUSH1 0x20 DUP7 LT ISZERO PUSH2 0x11E JUMPI POP DUP1 JUMPDEST PUSH1 0x1F DUP6 ADD PUSH1 0x5 SHR DUP3 ADD SWAP2 POP JUMPDEST DUP2 DUP2 LT ISZERO PUSH2 0x13D JUMPI DUP3 DUP2 SSTORE PUSH1 0x1 ADD PUSH2 0x12A JUMP JUMPDEST POP POP POP JUMPDEST POP POP POP JUMP JUMPDEST DUP2 MLOAD PUSH1 0x1 PUSH1 0x1 PUSH1 0x40 SHL SUB DUP2 GT ISZERO PUSH2 0x15F JUMPI PUSH2 0x15F PUSH2 0xA7 JUMP JUMPDEST PUSH2 0x173 DUP2 PUSH2 0x16D DUP5 SLOAD PUSH2 0xBD JUMP JUMPDEST DUP5 PUSH2 0xF7 JUMP JUMPDEST PUSH1 0x20 DUP1 PUSH1 0x1F DUP4 GT PUSH1 0x1 DUP2 EQ PUSH2 0x1A8 JUMPI PUSH1 0x0 DUP5 ISZERO PUSH2 0x190 JUMPI POP DUP6 DUP4 ADD MLOAD JUMPDEST PUSH1 0x0 NOT PUSH1 0x3 DUP7 SWAP1 SHL SHR NOT AND PUSH1 0x1 DUP6 SWAP1 SHL OR DUP6 SSTORE PUSH2 0x13D JUMP JUMPDEST PUSH1 0x0 DUP6 DUP2 MSTORE PUSH1 0x20 DUP2 KECCAK256 PUSH1 0x1F NOT DUP7 AND SWAP2 JUMPDEST DUP3 DUP2 LT ISZERO PUSH2 0x1D7 JUMPI DUP9 DUP7 ADD MLOAD DUP3 SSTORE SWAP5 DUP5 ADD SWAP5 PUSH1 0x1 SWAP1 SWAP2 ADD SWAP1 DUP5 ADD PUSH2 0x1B8 JUMP JUMPDEST POP DUP6 DUP3 LT ISZERO PUSH2 0x1F5 JUMPI DUP8 DUP6 ADD MLOAD PUSH1 0x0 NOT PUSH1 0x3 DUP9 SWAP1 SHL PUSH1 0xF8 AND SHR NOT AND DUP2 SSTORE JUMPDEST POP POP POP POP POP PUSH1 0x1 SWAP1 DUP2 SHL ADD SWAP1 SSTORE POP JUMP JUMPDEST PUSH2 0x871 DUP1 PUSH2 0x214 PUSH1 0x0 CODECOPY PUSH1 0x0 RETURN INVALID PUSH1 0x80 PUSH1 0x40 MSTORE CALLVALUE DUP1 ISZERO PUSH2 0x10 JUMPI PUSH1 0x0 DUP1 REVERT JUMPDEST POP PUSH1 0x4 CALLDATASIZE LT PUSH2 0xEA JUMPI PUSH1 0x0 CALLDATALOAD PUSH1 0xE0 SHR DUP1 PUSH4 0xA035B1FE GT PUSH2 0x8C JUMPI DUP1 PUSH4 0xC22C2499 GT PUSH2 0x66 JUMPI DUP1 PUSH4 0xC22C2499 EQ PUSH2 0x1A8 JUMPI DUP1 PUSH4 0xE1312147 EQ PUSH2 0x1BB JUMPI DUP1 PUSH4 0xF7A30806 EQ PUSH2 0x1CE JUMPI DUP1 PUSH4 0xFEAF968C EQ PUSH2 0x1E1 JUMPI PUSH1 0x0 DUP1 REVERT JUMPDEST DUP1 PUSH4 0xA035B1FE EQ PUSH2 0x18D JUMPI DUP1 PUSH4 0xB80777EA EQ PUSH2 0x196 JUMPI DUP1 PUSH4 0xC0463711 EQ PUSH2 0x19F JUMPI PUSH1 0x0 DUP1 REVERT JUMPDEST DUP1 PUSH4 0x7284E416 GT PUSH2 0xC8 JUMPI DUP1 PUSH4 0x7284E416 EQ PUSH2 0x130 JUMPI DUP1 PUSH4 0x843CBBC6 EQ PUSH2 0x145 JUMPI DUP1 PUSH4 0x8CD221C9 EQ PUSH2 0x14D JUMPI DUP1 PUSH4 0x90C3F38F EQ PUSH2 0x178 JUMPI PUSH1 0x0 DUP1 REVERT JUMPDEST DUP1 PUSH4 0x1A26F447 EQ PUSH2 0xEF JUMPI DUP1 PUSH4 0x2084BF9F EQ PUSH2 0x111 JUMPI DUP1 PUSH4 0x5416C818 EQ PUSH2 0x128 JUMPI JUMPDEST PUSH1 0x0 DUP1 REVERT JUMPDEST PUSH1 0x6 SLOAD PUSH2 0xFC SWAP1 PUSH1 0xFF AND DUP2 JUMP JUMPDEST PUSH1 0x40 MLOAD SWAP1 ISZERO ISZERO DUP2 MSTORE PUSH1 0x20 ADD JUMPDEST PUSH1 0x40 MLOAD DUP1 SWAP2 SUB SWAP1 RETURN JUMPDEST PUSH2 0x11A PUSH2 0x3E8 DUP2 JUMP JUMPDEST PUSH1 0x40 MLOAD SWAP1 DUP2 MSTORE PUSH1 0x20 ADD PUSH2 0x108 JUMP JUMPDEST PUSH2 0x11A PUSH1 0x3 DUP2 JUMP JUMPDEST PUSH2 0x138 PUSH2 0x224 JUMP JUMPDEST PUSH1 0x40 MLOAD PUSH2 0x108 SWAP2 SWAP1 PUSH2 0x4C6 JUMP JUMPDEST PUSH2 0x11A PUSH1 0x64 DUP2 JUMP JUMPDEST PUSH1 0x0 SLOAD PUSH2 0x160 SWAP1 PUSH1 0x1 PUSH1 0x1 PUSH1 0x50 SHL SUB AND DUP2 JUMP JUMPDEST PUSH1 0x40 MLOAD PUSH1 0x1 PUSH1 0x1 PUSH1 0x50 SHL SUB SWAP1 SWAP2 AND DUP2 MSTORE PUSH1 0x20 ADD PUSH2 0x108 JUMP JUMPDEST PUSH2 0x18B PUSH2 0x186 CALLDATASIZE PUSH1 0x4 PUSH2 0x52A JUMP JUMPDEST PUSH2 0x2B6 JUMP JUMPDEST STOP JUMPDEST PUSH2 0x11A PUSH1 0x1 SLOAD DUP2 JUMP JUMPDEST PUSH2 0x11A PUSH1 0x2 SLOAD DUP2 JUMP JUMPDEST PUSH2 0x11A PUSH1 0x4 SLOAD DUP2 JUMP JUMPDEST PUSH1 0x3 SLOAD PUSH2 0x160 SWAP1 PUSH1 0x1 PUSH1 0x1 PUSH1 0x50 SHL SUB AND DUP2 JUMP JUMPDEST PUSH2 0x18B PUSH2 0x1C9 CALLDATASIZE PUSH1 0x4 PUSH2 0x5DB JUMP JUMPDEST PUSH2 0x2C6 JUMP JUMPDEST PUSH2 0x18B PUSH2 0x1DC CALLDATASIZE PUSH1 0x4 PUSH2 0x604 JUMP JUMPDEST PUSH2 0x344 JUMP JUMPDEST PUSH1 0x0 SLOAD PUSH1 0x1 SLOAD PUSH1 0x2 SLOAD PUSH1 0x3 SLOAD PUSH1 0x40 DUP1 MLOAD PUSH1 0x1 PUSH1 0x1 PUSH1 0x50 SHL SUB SWAP6 DUP7 AND DUP2 MSTORE PUSH1 0x20 DUP2 ADD SWAP5 SWAP1 SWAP5 MSTORE DUP4 ADD DUP3 SWAP1 MSTORE PUSH1 0x60 DUP4 ADD SWAP2 SWAP1 SWAP2 MSTORE SWAP2 SWAP1 SWAP2 AND PUSH1 0x80 DUP3 ADD MSTORE PUSH1 0xA0 ADD PUSH2 0x108 JUMP JUMPDEST PUSH1 0x60 PUSH1 0x5 DUP1 SLOAD PUSH2 0x233 SWAP1 PUSH2 0x61D JUMP JUMPDEST DUP1 PUSH1 0x1F ADD PUSH1 0x20 DUP1 SWAP2 DIV MUL PUSH1 0x20 ADD PUSH1 0x40 MLOAD SWAP1 DUP2 ADD PUSH1 0x40 MSTORE DUP1 SWAP3 SWAP2 SWAP1 DUP2 DUP2 MSTORE PUSH1 0x20 ADD DUP3 DUP1 SLOAD PUSH2 0x25F SWAP1 PUSH2 0x61D JUMP JUMPDEST DUP1 ISZERO PUSH2 0x2AC JUMPI DUP1 PUSH1 0x1F LT PUSH2 0x281 JUMPI PUSH2 0x100 DUP1 DUP4 SLOAD DIV MUL DUP4 MSTORE SWAP2 PUSH1 0x20 ADD SWAP2 PUSH2 0x2AC JUMP JUMPDEST DUP3 ADD SWAP2 SWAP1 PUSH1 0x0 MSTORE PUSH1 0x20 PUSH1 0x0 KECCAK256 SWAP1 JUMPDEST DUP2 SLOAD DUP2 MSTORE SWAP1 PUSH1 0x1 ADD SWAP1 PUSH1 0x20 ADD DUP1 DUP4 GT PUSH2 0x28F JUMPI DUP3 SWAP1 SUB PUSH1 0x1F AND DUP3 ADD SWAP2 JUMPDEST POP POP POP POP POP SWAP1 POP SWAP1 JUMP JUMPDEST PUSH1 0x5 PUSH2 0x2C2 DUP3 DUP3 PUSH2 0x6A6 JUMP JUMPDEST POP POP JUMP JUMPDEST PUSH1 0x6 DUP1 SLOAD PUSH1 0xFF NOT AND DUP3 ISZERO DUP1 ISZERO SWAP2 SWAP1 SWAP2 OR SWAP1 SWAP2 SSTORE PUSH2 0x31B JUMPI PUSH1 0x0 SLOAD PUSH2 0x2F5 SWAP1 PUSH1 0x1 SWAP1 PUSH1 0x1 PUSH1 0x1 PUSH1 0x50 SHL SUB AND PUSH2 0x77C JUMP JUMPDEST PUSH1 0x3 DUP1 SLOAD PUSH10 0xFFFFFFFFFFFFFFFFFFFF NOT AND PUSH1 0x1 PUSH1 0x1 PUSH1 0x50 SHL SUB SWAP3 SWAP1 SWAP3 AND SWAP2 SWAP1 SWAP2 OR SWAP1 SSTORE POP JUMP JUMPDEST PUSH1 0x0 SLOAD PUSH1 0x3 DUP1 SLOAD PUSH10 0xFFFFFFFFFFFFFFFFFFFF NOT AND PUSH1 0x1 PUSH1 0x1 PUSH1 0x50 SHL SUB SWAP1 SWAP3 AND SWAP2 SWAP1 SWAP2 OR SWAP1 SSTORE JUMPDEST POP JUMP JUMPDEST PUSH1 0x3 PUSH1 0x4 SLOAD PUSH2 0x353 SWAP2 SWAP1 PUSH2 0x7A3 JUMP JUMPDEST TIMESTAMP LT ISZERO PUSH2 0x3A7 JUMPI PUSH1 0x40 MLOAD PUSH3 0x461BCD PUSH1 0xE5 SHL DUP2 MSTORE PUSH1 0x20 PUSH1 0x4 DUP3 ADD MSTORE PUSH1 0x1A PUSH1 0x24 DUP3 ADD MSTORE PUSH32 0x5072696365207570646174656420746F6F20726563656E746C79000000000000 PUSH1 0x44 DUP3 ADD MSTORE PUSH1 0x64 ADD JUMPDEST PUSH1 0x40 MLOAD DUP1 SWAP2 SUB SWAP1 REVERT JUMPDEST PUSH1 0x0 PUSH1 0x1 SLOAD SGT ISZERO PUSH2 0x44B JUMPI PUSH1 0x0 DUP2 PUSH1 0x1 SLOAD SGT PUSH2 0x3CF JUMPI PUSH1 0x1 SLOAD PUSH2 0x3CA SWAP1 DUP4 PUSH2 0x7BC JUMP JUMPDEST PUSH2 0x3DD JUMP JUMPDEST DUP2 PUSH1 0x1 SLOAD PUSH2 0x3DD SWAP2 SWAP1 PUSH2 0x7BC JUMP JUMPDEST SWAP1 POP PUSH1 0x0 PUSH1 0x1 SLOAD DUP3 PUSH2 0x2710 PUSH2 0x3F2 SWAP2 SWAP1 PUSH2 0x7DC JUMP JUMPDEST PUSH2 0x3FC SWAP2 SWAP1 PUSH2 0x7F3 JUMP JUMPDEST SWAP1 POP PUSH2 0x3E8 DUP2 GT ISZERO PUSH2 0x448 JUMPI PUSH1 0x40 MLOAD PUSH3 0x461BCD PUSH1 0xE5 SHL DUP2 MSTORE PUSH1 0x20 PUSH1 0x4 DUP3 ADD MSTORE PUSH1 0x15 PUSH1 0x24 DUP3 ADD MSTORE PUSH21 0xA0E4D2C6CA40D2DAE0C2C6E840E8DEDE40D0D2CED PUSH1 0x5B SHL PUSH1 0x44 DUP3 ADD MSTORE PUSH1 0x64 ADD PUSH2 0x39E JUMP JUMPDEST POP POP JUMPDEST PUSH1 0x1 DUP2 SWAP1 SSTORE TIMESTAMP PUSH1 0x2 DUP2 SWAP1 SSTORE PUSH1 0x4 SSTORE PUSH1 0x0 DUP1 SLOAD PUSH1 0x1 PUSH1 0x1 PUSH1 0x50 SHL SUB AND SWAP1 DUP1 PUSH2 0x471 DUP4 PUSH2 0x815 JUMP JUMPDEST DUP3 SLOAD PUSH1 0x1 PUSH1 0x1 PUSH1 0x50 SHL SUB SWAP2 DUP3 AND PUSH2 0x100 SWAP4 SWAP1 SWAP4 EXP SWAP3 DUP4 MUL SWAP2 SWAP1 SWAP3 MUL NOT SWAP1 SWAP2 AND OR SWAP1 SSTORE POP PUSH1 0x6 SLOAD PUSH1 0xFF AND PUSH2 0x341 JUMPI PUSH1 0x0 SLOAD PUSH1 0x3 DUP1 SLOAD PUSH10 0xFFFFFFFFFFFFFFFFFFFF NOT AND PUSH1 0x1 PUSH1 0x1 PUSH1 0x50 SHL SUB SWAP1 SWAP3 AND SWAP2 SWAP1 SWAP2 OR SWAP1 SSTORE POP JUMP JUMPDEST PUSH1 0x0 PUSH1 0x20 DUP1 DUP4 MSTORE DUP4 MLOAD DUP1 DUP3 DUP6 ADD MSTORE PUSH1 0x0 JUMPDEST DUP2 DUP2 LT ISZERO PUSH2 0x4F3 JUMPI DUP6 DUP2 ADD DUP4 ADD MLOAD DUP6 DUP3 ADD PUSH1 0x40 ADD MSTORE DUP3 ADD PUSH2 0x4D7 JUMP JUMPDEST POP PUSH1 0x0 PUSH1 0x40 DUP3 DUP7 ADD ADD MSTORE PUSH1 0x40 PUSH1 0x1F NOT PUSH1 0x1F DUP4 ADD AND DUP6 ADD ADD SWAP3 POP POP POP SWAP3 SWAP2 POP POP JUMP JUMPDEST PUSH4 0x4E487B71 PUSH1 0xE0 SHL PUSH1 0x0 MSTORE PUSH1 0x41 PUSH1 0x4 MSTORE PUSH1 0x24 PUSH1 0x0 REVERT JUMPDEST PUSH1 0x0 PUSH1 0x20 DUP3 DUP5 SUB SLT ISZERO PUSH2 0x53C JUMPI PUSH1 0x0 DUP1 REVERT JUMPDEST DUP2 CALLDATALOAD PUSH8 0xFFFFFFFFFFFFFFFF DUP1 DUP3 GT ISZERO PUSH2 0x554 JUMPI PUSH1 0x0 DUP1 REVERT JUMPDEST DUP2 DUP5 ADD SWAP2 POP DUP5 PUSH1 0x1F DUP4 ADD SLT PUSH2 0x568 JUMPI PUSH1 0x0 DUP1 REVERT JUMPDEST DUP2 CALLDATALOAD DUP2 DUP2 GT ISZERO PUSH2 0x57A JUMPI PUSH2 0x57A PUSH2 0x514 JUMP JUMPDEST PUSH1 0x40 MLOAD PUSH1 0x1F DUP3 ADD PUSH1 0x1F NOT SWAP1 DUP2 AND PUSH1 0x3F ADD AND DUP2 ADD SWAP1 DUP4 DUP3 GT DUP2 DUP4 LT OR ISZERO PUSH2 0x5A2 JUMPI PUSH2 0x5A2 PUSH2 0x514 JUMP JUMPDEST DUP2 PUSH1 0x40 MSTORE DUP3 DUP2 MSTORE DUP8 PUSH1 0x20 DUP5 DUP8 ADD ADD GT ISZERO PUSH2 0x5BB JUMPI PUSH1 0x0 DUP1 REVERT JUMPDEST DUP3 PUSH1 0x20 DUP7 ADD PUSH1 0x20 DUP4 ADD CALLDATACOPY PUSH1 0x0 SWAP3 DUP2 ADD PUSH1 0x20 ADD SWAP3 SWAP1 SWAP3 MSTORE POP SWAP6 SWAP5 POP POP POP POP POP JUMP JUMPDEST PUSH1 0x0 PUSH1 0x20 DUP3 DUP5 SUB SLT ISZERO PUSH2 0x5ED JUMPI PUSH1 0x0 DUP1 REVERT JUMPDEST DUP2 CALLDATALOAD DUP1 ISZERO ISZERO DUP2 EQ PUSH2 0x5FD JUMPI PUSH1 0x0 DUP1 REVERT JUMPDEST SWAP4 SWAP3 POP POP POP JUMP JUMPDEST PUSH1 0x0 PUSH1 0x20 DUP3 DUP5 SUB SLT ISZERO PUSH2 0x616 JUMPI PUSH1 0x0 DUP1 REVERT JUMPDEST POP CALLDATALOAD SWAP2 SWAP1 POP JUMP JUMPDEST PUSH1 0x1 DUP2 DUP2 SHR SWAP1 DUP3 AND DUP1 PUSH2 0x631 JUMPI PUSH1 0x7F DUP3 AND SWAP2 POP JUMPDEST PUSH1 0x20 DUP3 LT DUP2 SUB PUSH2 0x651 JUMPI PUSH4 0x4E487B71 PUSH1 0xE0 SHL PUSH1 0x0 MSTORE PUSH1 0x22 PUSH1 0x4 MSTORE PUSH1 0x24 PUSH1 0x0 REVERT JUMPDEST POP SWAP2 SWAP1 POP JUMP JUMPDEST PUSH1 0x1F DUP3 GT ISZERO PUSH2 0x6A1 JUMPI PUSH1 0x0 DUP2 DUP2 MSTORE PUSH1 0x20 DUP2 KECCAK256 PUSH1 0x1F DUP6 ADD PUSH1 0x5 SHR DUP2 ADD PUSH1 0x20 DUP7 LT ISZERO PUSH2 0x67E JUMPI POP DUP1 JUMPDEST PUSH1 0x1F DUP6 ADD PUSH1 0x5 SHR DUP3 ADD SWAP2 POP JUMPDEST DUP2 DUP2 LT ISZERO PUSH2 0x69D JUMPI DUP3 DUP2 SSTORE PUSH1 0x1 ADD PUSH2 0x68A JUMP JUMPDEST POP POP POP JUMPDEST POP POP POP JUMP JUMPDEST DUP2 MLOAD PUSH8 0xFFFFFFFFFFFFFFFF DUP2 GT ISZERO PUSH2 0x6C0 JUMPI PUSH2 0x6C0 PUSH2 0x514 JUMP JUMPDEST PUSH2 0x6D4 DUP2 PUSH2 0x6CE DUP5 SLOAD PUSH2 0x61D JUMP JUMPDEST DUP5 PUSH2 0x657 JUMP JUMPDEST PUSH1 0x20 DUP1 PUSH1 0x1F DUP4 GT PUSH1 0x1 DUP2 EQ PUSH2 0x709 JUMPI PUSH1 0x0 DUP5 ISZERO PUSH2 0x6F1 JUMPI POP DUP6 DUP4 ADD MLOAD JUMPDEST PUSH1 0x0 NOT PUSH1 0x3 DUP7 SWAP1 SHL SHR NOT AND PUSH1 0x1 DUP6 SWAP1 SHL OR DUP6 SSTORE PUSH2 0x69D JUMP JUMPDEST PUSH1 0x0 DUP6 DUP2 MSTORE PUSH1 0x20 DUP2 KECCAK256 PUSH1 0x1F NOT DUP7 AND SWAP2 JUMPDEST DUP3 DUP2 LT ISZERO PUSH2 0x738 JUMPI DUP9 DUP7 ADD MLOAD DUP3 SSTORE SWAP5 DUP5 ADD SWAP5 PUSH1 0x1 SWAP1 SWAP2 ADD SWAP1 DUP5 ADD PUSH2 0x719 JUMP JUMPDEST POP DUP6 DUP3 LT ISZERO PUSH2 0x756 JUMPI DUP8 DUP6 ADD MLOAD PUSH1 0x0 NOT PUSH1 0x3 DUP9 SWAP1 SHL PUSH1 0xF8 AND SHR NOT AND DUP2 SSTORE JUMPDEST POP POP POP POP POP PUSH1 0x1 SWAP1 DUP2 SHL ADD SWAP1 SSTORE POP JUMP JUMPDEST PUSH4 0x4E487B71 PUSH1 0xE0 SHL PUSH1 0x0 MSTORE PUSH1 0x11 PUSH1 0x4 MSTORE PUSH1 0x24 PUSH1 0x0 REVERT JUMPDEST PUSH1 0x1 PUSH1 0x1 PUSH1 0x50 SHL SUB DUP3 DUP2 AND DUP3 DUP3 AND SUB SWAP1 DUP1 DUP3 GT ISZERO PUSH2 0x79C JUMPI PUSH2 0x79C PUSH2 0x766 JUMP JUMPDEST POP SWAP3 SWAP2 POP POP JUMP JUMPDEST DUP1 DUP3 ADD DUP1 DUP3 GT ISZERO PUSH2 0x7B6 JUMPI PUSH2 0x7B6 PUSH2 0x766 JUMP JUMPDEST SWAP3 SWAP2 POP POP JUMP JUMPDEST DUP2 DUP2 SUB PUSH1 0x0 DUP4 SLT DUP1 ISZERO DUP4 DUP4 SGT AND DUP4 DUP4 SLT DUP3 AND OR ISZERO PUSH2 0x79C JUMPI PUSH2 0x79C PUSH2 0x766 JUMP JUMPDEST DUP1 DUP3 MUL DUP2 ISZERO DUP3 DUP3 DIV DUP5 EQ OR PUSH2 0x7B6 JUMPI PUSH2 0x7B6 PUSH2 0x766 JUMP JUMPDEST PUSH1 0x0 DUP3 PUSH2 0x810 JUMPI PUSH4 0x4E487B71 PUSH1 0xE0 SHL PUSH1 0x0 MSTORE PUSH1 0x12 PUSH1 0x4 MSTORE PUSH1 0x24 PUSH1 0x0 REVERT JUMPDEST POP DIV SWAP1 JUMP JUMPDEST PUSH1 0x0 PUSH1 0x1 PUSH1 0x1 PUSH1 0x50 SHL SUB DUP1 DUP4 AND DUP2 DUP2 SUB PUSH2 0x831 JUMPI PUSH2 0x831 PUSH2 0x766 JUMP JUMPDEST PUSH1 0x1 ADD SWAP4 SWAP3 POP POP POP JUMP INVALID LOG2 PUSH5 0x6970667358 0x22 SLT KECCAK256 PUSH4 0xD42694C1 0xEB 0xD1 0xE4 NUMBER 0x4A SWAP9 0x2F SWAP15 0x2B 0xE8 OR 0xC4 0x4D 0xD5 SWAP6 DUP14 0xC2 CALLVALUE 0xD0 0x2D SELFDESTRUCT 0xC0 0xD6 SGT 0xC9 0xBB 0xB0 PUSH5 0x736F6C6343 STOP ADDMOD EQ STOP CALLER "},"methodIdentifiers":{"MAX_PRICE_CHANGE()":"2084bf9f","MIN_ROUNDS()":"843cbbc6","MIN_UPDATE_DELAY()":"5416c818","answeredInRound()":"c22c2499","description()":"7284e416","isStale()":"1a26f447","lastUpdate()":"c0463711","latestRoundData()":"feaf968c","price()":"a035b1fe","roundId()":"8cd221c9","setDescription(string)":"90c3f38f","setPrice(int256)":"f7a30806","setStale(bool)":"e1312147","timestamp()":"b80777ea"}}}}}