{"contracts/ElasticToken.sol":{"ElasticToken":{"abi":[{"inputs":[],"stateMutability":"nonpayable","type":"constructor"},{"anonymous":false,"inputs":[{"indexed":true,"internalType":"address","name":"owner","type":"address"},{"indexed":true,"internalType":"address","name":"spender","type":"address"},{"indexed":false,"internalType":"uint256","name":"value","type":"uint256"}],"name":"Approval","type":"event"},{"anonymous":false,"inputs":[{"indexed":false,"internalType":"address","name":"by","type":"address"}],"name":"EmergencyShutdown","type":"event"},{"anonymous":false,"inputs":[{"indexed":false,"internalType":"string","name":"symbol","type":"string"},{"indexed":false,"internalType":"address","name":"holder","type":"address"}],"name":"HolderAdded","type":"event"},{"anonymous":false,"inputs":[{"indexed":false,"internalType":"string","name":"symbol","type":"string"},{"indexed":false,"internalType":"address","name":"holder","type":"address"}],"name":"HolderRemoved","type":"event"},{"anonymous":false,"inputs":[{"indexed":true,"internalType":"address","name":"staker","type":"address"},{"indexed":false,"internalType":"uint256","name":"profit","type":"uint256"}],"name":"LongPositionClosed","type":"event"},{"anonymous":false,"inputs":[{"indexed":true,"internalType":"address","name":"staker","type":"address"},{"indexed":false,"internalType":"uint256","name":"ethAmount","type":"uint256"},{"indexed":false,"internalType":"int256","name":"entryPrice","type":"int256"}],"name":"LongPositionOpened","type":"event"},{"anonymous":false,"inputs":[{"indexed":false,"internalType":"address","name":"operator","type":"address"}],"name":"OperatorAdded","type":"event"},{"anonymous":false,"inputs":[{"indexed":false,"internalType":"address","name":"operator","type":"address"}],"name":"OperatorRemoved","type":"event"},{"anonymous":false,"inputs":[{"indexed":true,"internalType":"uint256","name":"id","type":"uint256"},{"indexed":false,"internalType":"string","name":"symbol","type":"string"},{"indexed":false,"internalType":"int256","name":"price","type":"int256"},{"indexed":false,"internalType":"int256","name":"change","type":"int256"}],"name":"PriceTracked","type":"event"},{"anonymous":false,"inputs":[{"indexed":false,"internalType":"bytes32","name":"symbolHash","type":"bytes32"},{"indexed":false,"internalType":"int256","name":"price","type":"int256"},{"indexed":false,"internalType":"uint256","name":"impact","type":"uint256"}],"name":"PriceUpdateRejected","type":"event"},{"anonymous":false,"inputs":[{"indexed":false,"internalType":"int256","name":"oldPrice","type":"int256"},{"indexed":false,"internalType":"int256","name":"newPrice","type":"int256"},{"indexed":false,"internalType":"int256","name":"priceDelta","type":"int256"}],"name":"Rebase","type":"event"},{"anonymous":false,"inputs":[{"indexed":true,"internalType":"uint256","name":"id","type":"uint256"},{"indexed":false,"internalType":"string","name":"symbol","type":"string"},{"indexed":false,"internalType":"address","name":"priceFeed","type":"address"}],"name":"SymbolAdded","type":"event"},{"anonymous":false,"inputs":[{"indexed":true,"internalType":"uint256","name":"id","type":"uint256"},{"indexed":false,"internalType":"string","name":"symbol","type":"string"}],"name":"SymbolDeactivated","type":"event"},{"anonymous":false,"inputs":[{"indexed":false,"internalType":"uint256","name":"amount","type":"uint256"},{"indexed":false,"internalType":"bool","name":"isBuyTax","type":"bool"}],"name":"TaxCollected","type":"event"},{"anonymous":false,"inputs":[{"indexed":false,"internalType":"string","name":"symbol","type":"string"},{"indexed":false,"internalType":"uint256","name":"timestamp","type":"uint256"}],"name":"TradeExecuted","type":"event"},{"anonymous":false,"inputs":[{"indexed":true,"internalType":"address","name":"from","type":"address"},{"indexed":true,"internalType":"address","name":"to","type":"address"},{"indexed":false,"internalType":"uint256","name":"value","type":"uint256"}],"name":"Transfer","type":"event"},{"anonymous":false,"inputs":[{"indexed":true,"internalType":"uint256","name":"id","type":"uint256"},{"indexed":false,"internalType":"string","name":"symbol","type":"string"},{"indexed":false,"internalType":"address","name":"priceFeed","type":"address"},{"indexed":false,"internalType":"uint256","name":"targetPrice","type":"uint256"}],"name":"VirtualPairCreated","type":"event"},{"anonymous":false,"inputs":[{"indexed":false,"internalType":"uint256","name":"withdrawalId","type":"uint256"},{"indexed":false,"internalType":"uint256","name":"amount","type":"uint256"}],"name":"WithdrawalInitiated","type":"event"},{"inputs":[],"name":"BLOCKS_BETWEEN_TRADES","outputs":[{"internalType":"uint256","name":"","type":"uint256"}],"stateMutability":"view","type":"function"},{"inputs":[],"name":"BUY_TAX","outputs":[{"internalType":"uint256","name":"","type":"uint256"}],"stateMutability":"view","type":"function"},{"inputs":[],"name":"COLLATERAL_RATIO","outputs":[{"internalType":"uint256","name":"","type":"uint256"}],"stateMutability":"view","type":"function"},{"inputs":[],"name":"CURVE_DENOMINATOR","outputs":[{"internalType":"uint256","name":"","type":"uint256"}],"stateMutability":"view","type":"function"},{"inputs":[],"name":"INITIAL_PRICE_SCALE","outputs":[{"internalType":"uint256","name":"","type":"uint256"}],"stateMutability":"view","type":"function"},{"inputs":[],"name":"INVERSE_INITIAL_SCALE","outputs":[{"internalType":"uint256","name":"","type":"uint256"}],"stateMutability":"view","type":"function"},{"inputs":[],"name":"MAX_OPERATORS","outputs":[{"internalType":"uint256","name":"","type":"uint256"}],"stateMutability":"view","type":"function"},{"inputs":[],"name":"MAX_PRICE_IMPACT","outputs":[{"internalType":"uint256","name":"","type":"uint256"}],"stateMutability":"view","type":"function"},{"inputs":[],"name":"MAX_REBASE_PERCENT","outputs":[{"internalType":"uint256","name":"","type":"uint256"}],"stateMutability":"view","type":"function"},{"inputs":[],"name":"MAX_RESERVE_RATIO","outputs":[{"internalType":"uint256","name":"","type":"uint256"}],"stateMutability":"view","type":"function"},{"inputs":[],"name":"MAX_SUPPLY","outputs":[{"internalType":"uint256","name":"","type":"uint256"}],"stateMutability":"view","type":"function"},{"inputs":[],"name":"MIN_PRICE_ANSWERS","outputs":[{"internalType":"uint256","name":"","type":"uint256"}],"stateMutability":"view","type":"function"},{"inputs":[],"name":"MIN_PRICE_CHANGE_INTERVAL","outputs":[{"internalType":"uint256","name":"","type":"uint256"}],"stateMutability":"view","type":"function"},{"inputs":[],"name":"MIN_PRICE_UPDATE_TIME","outputs":[{"internalType":"uint256","name":"","type":"uint256"}],"stateMutability":"view","type":"function"},{"inputs":[],"name":"MIN_SUPPLY","outputs":[{"internalType":"uint256","name":"","type":"uint256"}],"stateMutability":"view","type":"function"},{"inputs":[],"name":"PRICE_DECIMALS","outputs":[{"internalType":"uint256","name":"","type":"uint256"}],"stateMutability":"view","type":"function"},{"inputs":[],"name":"PRICE_FRESHNESS_PERIOD","outputs":[{"internalType":"uint256","name":"","type":"uint256"}],"stateMutability":"view","type":"function"},{"inputs":[],"name":"PRICE_MULTIPLIER","outputs":[{"internalType":"uint256","name":"","type":"uint256"}],"stateMutability":"view","type":"function"},{"inputs":[],"name":"REBASE_DENOMINATOR","outputs":[{"internalType":"uint256","name":"","type":"uint256"}],"stateMutability":"view","type":"function"},{"inputs":[],"name":"SELL_TAX","outputs":[{"internalType":"uint256","name":"","type":"uint256"}],"stateMutability":"view","type":"function"},{"inputs":[],"name":"TAX_DENOMINATOR","outputs":[{"internalType":"uint256","name":"","type":"uint256"}],"stateMutability":"view","type":"function"},{"inputs":[],"name":"TRACKED_DECIMALS","outputs":[{"internalType":"uint256","name":"","type":"uint256"}],"stateMutability":"view","type":"function"},{"inputs":[],"name":"VERSION","outputs":[{"internalType":"string","name":"","type":"string"}],"stateMutability":"view","type":"function"},{"inputs":[],"name":"WEBSITE","outputs":[{"internalType":"string","name":"","type":"string"}],"stateMutability":"view","type":"function"},{"inputs":[],"name":"WITHDRAWAL_DELAY","outputs":[{"internalType":"uint256","name":"","type":"uint256"}],"stateMutability":"view","type":"function"},{"inputs":[{"internalType":"address","name":"operator","type":"address"}],"name":"addOperator","outputs":[],"stateMutability":"nonpayable","type":"function"},{"inputs":[{"internalType":"address","name":"priceFeed","type":"address"},{"internalType":"bool","name":"isInverse","type":"bool"}],"name":"addSymbol","outputs":[],"stateMutability":"nonpayable","type":"function"},{"inputs":[{"internalType":"bytes32","name":"","type":"bytes32"},{"internalType":"address","name":"","type":"address"},{"internalType":"address","name":"","type":"address"}],"name":"allowance","outputs":[{"internalType":"uint256","name":"","type":"uint256"}],"stateMutability":"view","type":"function"},{"inputs":[{"internalType":"bytes32","name":"symbolHash","type":"bytes32"},{"internalType":"address","name":"_spender","type":"address"},{"internalType":"uint256","name":"_amount","type":"uint256"}],"name":"approve","outputs":[{"internalType":"bool","name":"","type":"bool"}],"stateMutability":"nonpayable","type":"function"},{"inputs":[{"internalType":"bytes32","name":"","type":"bytes32"},{"internalType":"address","name":"","type":"address"}],"name":"balanceOf","outputs":[{"internalType":"uint256","name":"","type":"uint256"}],"stateMutability":"view","type":"function"},{"inputs":[],"name":"burnCurveRate","outputs":[{"internalType":"uint256","name":"","type":"uint256"}],"stateMutability":"view","type":"function"},{"inputs":[{"internalType":"uint256","name":"symbolId","type":"uint256"},{"internalType":"uint256","name":"minTokensOut_","type":"uint256"}],"name":"buyTokensByIndex","outputs":[{"internalType":"uint256","name":"","type":"uint256"}],"stateMutability":"payable","type":"function"},{"inputs":[],"name":"closeLongPosition","outputs":[],"stateMutability":"nonpayable","type":"function"},{"inputs":[{"internalType":"uint256","name":"symbolId","type":"uint256"},{"internalType":"uint256","name":"amount","type":"uint256"}],"name":"closeShort","outputs":[],"stateMutability":"nonpayable","type":"function"},{"inputs":[],"name":"collectedTaxes","outputs":[{"internalType":"uint256","name":"","type":"uint256"}],"stateMutability":"view","type":"function"},{"inputs":[{"internalType":"uint256","name":"withdrawalId","type":"uint256"}],"name":"completeWithdrawal","outputs":[],"stateMutability":"nonpayable","type":"function"},{"inputs":[{"internalType":"string","name":"symbol_","type":"string"}],"name":"deactivateSymbol","outputs":[],"stateMutability":"nonpayable","type":"function"},{"inputs":[],"name":"decimals","outputs":[{"internalType":"uint8","name":"","type":"uint8"}],"stateMutability":"view","type":"function"},{"inputs":[],"name":"description","outputs":[{"internalType":"string","name":"","type":"string"}],"stateMutability":"view","type":"function"},{"inputs":[],"name":"emergencyShutdown","outputs":[],"stateMutability":"nonpayable","type":"function"},{"inputs":[{"internalType":"address","name":"staker","type":"address"}],"name":"getPositionInfo","outputs":[{"internalType":"string","name":"symbol_","type":"string"},{"internalType":"uint256","name":"ethAmount","type":"uint256"},{"internalType":"int256","name":"entryPrice","type":"int256"},{"internalType":"uint256","name":"timestamp","type":"uint256"},{"internalType":"int256","name":"currentPnL","type":"int256"}],"stateMutability":"view","type":"function"},{"inputs":[{"internalType":"bytes32","name":"symbolHash","type":"bytes32"},{"internalType":"address","name":"holder","type":"address"}],"name":"getPositionType","outputs":[{"internalType":"bool","name":"isShort","type":"bool"},{"internalType":"int256","name":"amount","type":"int256"}],"stateMutability":"view","type":"function"},{"inputs":[{"internalType":"bytes32","name":"symbolHash","type":"bytes32"},{"internalType":"address","name":"account","type":"address"}],"name":"getShortPosition","outputs":[{"internalType":"int256","name":"","type":"int256"}],"stateMutability":"view","type":"function"},{"inputs":[],"name":"getSupportedSymbolsCount","outputs":[{"internalType":"uint256","name":"","type":"uint256"}],"stateMutability":"view","type":"function"},{"inputs":[{"internalType":"string","name":"symbol_","type":"string"}],"name":"getSymbolHash","outputs":[{"internalType":"bytes32","name":"","type":"bytes32"}],"stateMutability":"pure","type":"function"},{"inputs":[{"internalType":"string","name":"symbol_","type":"string"}],"name":"getSymbolInfo","outputs":[{"internalType":"address","name":"priceFeed","type":"address"},{"internalType":"int256","name":"lastPrice","type":"int256"},{"internalType":"uint256","name":"reserveBalance","type":"uint256"},{"internalType":"bool","name":"active","type":"bool"}],"stateMutability":"view","type":"function"},{"inputs":[{"internalType":"uint256","name":"symbolId","type":"uint256"}],"name":"getSymbolPriceByIndex","outputs":[{"internalType":"int256","name":"price","type":"int256"}],"stateMutability":"view","type":"function"},{"inputs":[{"internalType":"uint256","name":"symbolId","type":"uint256"}],"name":"getSymbolStats","outputs":[{"internalType":"uint256","name":"totalSupply","type":"uint256"},{"internalType":"uint256","name":"holders","type":"uint256"},{"internalType":"uint256","name":"trades24h","type":"uint256"},{"internalType":"int256","name":"price24hAgo","type":"int256"},{"internalType":"uint256","name":"lastTradeTime","type":"uint256"}],"stateMutability":"view","type":"function"},{"inputs":[],"name":"getSystemInfo","outputs":[{"internalType":"string","name":"info","type":"string"}],"stateMutability":"pure","type":"function"},{"inputs":[{"internalType":"string","name":"","type":"string"}],"name":"idBySymbol","outputs":[{"internalType":"uint256","name":"","type":"uint256"}],"stateMutability":"view","type":"function"},{"inputs":[],"name":"initiateWithdrawal","outputs":[],"stateMutability":"nonpayable","type":"function"},{"inputs":[{"internalType":"address","name":"","type":"address"},{"internalType":"string","name":"","type":"string"}],"name":"lastTradeBlock","outputs":[{"internalType":"uint256","name":"","type":"uint256"}],"stateMutability":"view","type":"function"},{"inputs":[{"internalType":"address","name":"","type":"address"}],"name":"longPositions","outputs":[{"internalType":"bytes32","name":"symbolHash","type":"bytes32"},{"internalType":"uint256","name":"ethAmount","type":"uint256"},{"internalType":"int256","name":"entryPrice","type":"int256"},{"internalType":"uint256","name":"timestamp","type":"uint256"}],"stateMutability":"view","type":"function"},{"inputs":[],"name":"mintCurveRate","outputs":[{"internalType":"uint256","name":"","type":"uint256"}],"stateMutability":"view","type":"function"},{"inputs":[],"name":"name","outputs":[{"internalType":"string","name":"","type":"string"}],"stateMutability":"view","type":"function"},{"inputs":[],"name":"nextWithdrawalId","outputs":[{"internalType":"uint256","name":"","type":"uint256"}],"stateMutability":"view","type":"function"},{"inputs":[{"internalType":"uint256","name":"symbolId","type":"uint256"}],"name":"openLongPositionByIndex","outputs":[],"stateMutability":"payable","type":"function"},{"inputs":[],"name":"operatorCount","outputs":[{"internalType":"uint256","name":"","type":"uint256"}],"stateMutability":"view","type":"function"},{"inputs":[{"internalType":"address","name":"","type":"address"}],"name":"operators","outputs":[{"internalType":"bool","name":"","type":"bool"}],"stateMutability":"view","type":"function"},{"inputs":[],"name":"owner","outputs":[{"internalType":"address","name":"","type":"address"}],"stateMutability":"view","type":"function"},{"inputs":[{"internalType":"uint256","name":"","type":"uint256"}],"name":"pendingWithdrawals","outputs":[{"internalType":"uint256","name":"","type":"uint256"}],"stateMutability":"view","type":"function"},{"inputs":[],"name":"rebaseFactor","outputs":[{"internalType":"uint256","name":"","type":"uint256"}],"stateMutability":"view","type":"function"},{"inputs":[],"name":"rebaseSupply","outputs":[],"stateMutability":"nonpayable","type":"function"},{"inputs":[{"internalType":"address","name":"operator","type":"address"}],"name":"removeOperator","outputs":[],"stateMutability":"nonpayable","type":"function"},{"inputs":[{"internalType":"uint256","name":"symbolId","type":"uint256"},{"internalType":"uint256","name":"tokenAmount","type":"uint256"}],"name":"sellTokensByIndex","outputs":[],"stateMutability":"payable","type":"function"},{"inputs":[{"internalType":"bytes32","name":"","type":"bytes32"},{"internalType":"address","name":"","type":"address"}],"name":"shorts","outputs":[{"internalType":"uint256","name":"size","type":"uint256"},{"internalType":"uint256","name":"collateral","type":"uint256"},{"internalType":"int256","name":"entryPrice","type":"int256"}],"stateMutability":"view","type":"function"},{"inputs":[{"internalType":"uint256","name":"","type":"uint256"}],"name":"supportedSymbols","outputs":[{"internalType":"bytes32","name":"","type":"bytes32"}],"stateMutability":"view","type":"function"},{"inputs":[],"name":"symbol","outputs":[{"internalType":"string","name":"","type":"string"}],"stateMutability":"view","type":"function"},{"inputs":[{"internalType":"uint256","name":"","type":"uint256"}],"name":"symbolById","outputs":[{"internalType":"string","name":"","type":"string"}],"stateMutability":"view","type":"function"},{"inputs":[{"internalType":"bytes32","name":"","type":"bytes32"}],"name":"symbolData","outputs":[{"internalType":"uint256","name":"id","type":"uint256"},{"internalType":"string","name":"symbol","type":"string"},{"internalType":"address","name":"priceFeed","type":"address"},{"internalType":"int256","name":"lastPrice","type":"int256"},{"internalType":"uint256","name":"reserveBalance","type":"uint256"},{"internalType":"bool","name":"active","type":"bool"},{"internalType":"uint256","name":"lastRebase","type":"uint256"},{"internalType":"uint256","name":"targetPrice","type":"uint256"},{"internalType":"uint256","name":"totalTrades","type":"uint256"}],"stateMutability":"view","type":"function"},{"inputs":[{"internalType":"bytes32","name":"","type":"bytes32"}],"name":"symbolStats","outputs":[{"internalType":"uint256","name":"id","type":"uint256"},{"internalType":"uint256","name":"totalSupply","type":"uint256"},{"internalType":"uint256","name":"holders","type":"uint256"},{"internalType":"uint256","name":"trades24h","type":"uint256"},{"internalType":"int256","name":"price24hAgo","type":"int256"},{"internalType":"uint256","name":"lastTradeTime","type":"uint256"}],"stateMutability":"view","type":"function"},{"inputs":[],"name":"totalStaked","outputs":[{"internalType":"uint256","name":"","type":"uint256"}],"stateMutability":"view","type":"function"},{"inputs":[{"internalType":"bytes32","name":"","type":"bytes32"}],"name":"totalSupplyBySymbol","outputs":[{"internalType":"uint256","name":"","type":"uint256"}],"stateMutability":"view","type":"function"},{"inputs":[],"name":"trackedSymbol","outputs":[{"internalType":"string","name":"","type":"string"}],"stateMutability":"view","type":"function"},{"inputs":[{"internalType":"bytes32","name":"","type":"bytes32"},{"internalType":"uint256","name":"","type":"uint256"}],"name":"tradesPerHour","outputs":[{"internalType":"uint256","name":"","type":"uint256"}],"stateMutability":"view","type":"function"},{"inputs":[{"internalType":"bytes32","name":"symbolHash","type":"bytes32"},{"internalType":"address","name":"_to","type":"address"},{"internalType":"uint256","name":"_amount","type":"uint256"}],"name":"transfer","outputs":[{"internalType":"bool","name":"","type":"bool"}],"stateMutability":"nonpayable","type":"function"},{"inputs":[{"internalType":"bytes32","name":"symbolHash","type":"bytes32"},{"internalType":"address","name":"_from","type":"address"},{"internalType":"address","name":"_to","type":"address"},{"internalType":"uint256","name":"_amount","type":"uint256"}],"name":"transferFrom","outputs":[{"internalType":"bool","name":"","type":"bool"}],"stateMutability":"nonpayable","type":"function"},{"inputs":[{"internalType":"address","name":"newOwner","type":"address"}],"name":"transferOwnership","outputs":[],"stateMutability":"nonpayable","type":"function"},{"inputs":[],"name":"withdrawTaxes","outputs":[],"stateMutability":"nonpayable","type":"function"},{"stateMutability":"payable","type":"receive"}],"evm":{"bytecode":{"linkReferences":{},"object":"60c0604052601460809081527f456c61737469632047726f77746820546f6b656e00000000000000000000000060a052600a906200003e9082620001a6565b506040805180820190915260058152644547524f5760d81b6020820152600b906200006a9082620001a6565b506040518060600160405280603581526020016200525860359139600c90620000949082620001a6565b50600d805460ff19166012908117909155620f4240601055611f40601155612ee09055348015620000c457600080fd5b50600580546001600160a01b031916339081179091556001600081815591825260036020526040909120805460ff19168217905560045562000272565b634e487b7160e01b600052604160045260246000fd5b600181811c908216806200012c57607f821691505b6020821081036200014d57634e487b7160e01b600052602260045260246000fd5b50919050565b601f821115620001a157600081815260208120601f850160051c810160208610156200017c5750805b601f850160051c820191505b818110156200019d5782815560010162000188565b5050505b505050565b81516001600160401b03811115620001c257620001c262000101565b620001da81620001d3845462000117565b8462000153565b602080601f831160018114620002125760008415620001f95750858301515b600019600386901b1c1916600185901b1785556200019d565b600085815260208120601f198616915b82811015620002435788860151825594840194600190910190840162000222565b5085821015620002625787850151600019600388901b60f8161c191681555b5050505050600190811b01905550565b614fd680620002826000396000f3fe60806040526004361061046c5760003560e01c80637c6f31581161024a578063b729705711610139578063e3378404116100b6578063f2fde38b1161007a578063f2fde38b14610dc7578063f430924e14610de7578063f69d91ae14610e2f578063fbd1d25a14610e4e578063ffa1ad7414610e7f57600080fd5b8063e337840414610d19578063e615040014610d46578063e88a317814610d73578063f1a640f814610c24578063f2068b7314610db157600080fd5b8063c2038236116100fd578063c203823614610c6c578063c8a30d7c14610ca4578063cab7ac3a14610cdb578063d9e69a0514610cf0578063dc87210414610d0657600080fd5b8063b729705714610bee578063b98e959e14610c04578063bba0e72214610c24578063bf1ed1eb14610c39578063bfb5a1fc14610c5957600080fd5b80639e18f399116101c7578063ac511bc01161018b578063ac511bc014610b21578063ac8a584a14610b83578063ad62769e14610ba3578063b51d1d4f14610bc3578063b608bbd014610bd857600080fd5b80639e18f39914610a935780639f65106c14610aa8578063a4c2e7d314610af4578063a51c9ace146105ac578063a7ea74b714610b0c57600080fd5b8063932d68a61161020e578063932d68a614610993578063948afdae146109b357806395a43078146109fc57806395d89b4114610a5e5780639870d7fe14610a7357600080fd5b80637c6f31581461092f578063817b1cd2146109455780638da5cb5b1461095b5780638fea2def146105ac57806391c93b251461089857600080fd5b80633a7adc64116103665780635536487c116102e3578063696cf8f0116102a7578063696cf8f0146108ae57806369dbf9d5146108c55780636c9b6340146108e55780636cb69f42146109055780637284e4161461091a57600080fd5b80635536487c14610835578063556f98fc1461084b578063621a9c43146108605780636839b5fa14610898578063683d0a0e1461055757600080fd5b80634f0cb5f31161032a5780634f0cb5f3146107c0578063500d2f6d146107e057806352c2c2941461080057806353baf0ad1461082057806354ad8aee1461047857600080fd5b80633a7adc64146107425780633fb07c7f146107625780633feb1bd81461077557806346829831146107955780634a9122e3146107aa57600080fd5b80631e15d1a5116103f4578063313ce567116103b8578063313ce5671461068f57806332cb6b0c146106bb5780633403c2fc146106d957806335917c64146106f057806336e1af4b1461070d57600080fd5b80631e15d1a5146105d8578063283dc96f146105ee5780632b78c9f71461062d5780632f3892f5146106425780632fad76bf1461065757600080fd5b8063113990b81161043b578063113990b8146105575780631190016c1461047857806313e7c9d81461056c57806317d16bfb146105ac5780631cdd82dc146105c257600080fd5b806302af37bb1461047857806306fdde03146104a15780630ebb172a146104c357806311121de0146104da57600080fd5b3661047357005b600080fd5b34801561048457600080fd5b5061048e6101f481565b6040519081526020015b60405180910390f35b3480156104ad57600080fd5b506104b6610eb0565b6040516104989190614360565b3480156104cf57600080fd5b5061048e6202a30081565b3480156104e657600080fd5b5061052a6104f5366004614373565b601660205260009081526040902080546001820154600283015460038401546004850154600590950154939492939192909186565b604080519687526020870195909552938501929092526060840152608083015260a082015260c001610498565b34801561056357600080fd5b5061048e606481565b34801561057857600080fd5b5061059c6105873660046143a8565b60036020526000908152604090205460ff1681565b6040519015158152602001610498565b3480156105b857600080fd5b5061048e61271081565b3480156105ce57600080fd5b5061048e60105481565b3480156105e457600080fd5b5061048e60125481565b3480156105fa57600080fd5b506104b6604051806040016040528060138152602001721a1d1d1c1cce8bcbd95b185cdd1a58cb9b1bdb606a1b81525081565b34801561063957600080fd5b5061048e600581565b34801561064e57600080fd5b5061048e600f81565b34801561066357600080fd5b5061048e6106723660046143c3565b601760209081526000928352604080842090915290825290205481565b34801561069b57600080fd5b50600d546106a99060ff1681565b60405160ff9091168152602001610498565b3480156106c757600080fd5b5061048e69d3c21bcecceda100000081565b3480156106e557600080fd5b506106ee610f3e565b005b3480156106fc57600080fd5b5061048e683635c9adc5dea0000081565b34801561071957600080fd5b5061072d610728366004614373565b610fc9565b604051610498999897969594939291906143e5565b34801561074e57600080fd5b5061048e61075d366004614506565b6110a8565b6106ee610770366004614373565b6110d8565b34801561078157600080fd5b5061059c61079036600461453b565b611498565b3480156107a157600080fd5b506106ee611594565b3480156107b657600080fd5b5061048e601d5481565b3480156107cc57600080fd5b506106ee6107db366004614373565b6116ae565b3480156107ec57600080fd5b5061059c6107fb366004614570565b611849565b34801561080c57600080fd5b506106ee61081b3660046145b4565b611a12565b34801561082c57600080fd5b506106ee611b0c565b34801561084157600080fd5b5061048e610e1081565b34801561085757600080fd5b506106ee611e1e565b34801561086c57600080fd5b5061048e61087b366004614506565b8051602081830181018051601a8252928201919093012091525481565b3480156108a457600080fd5b5061048e6103e881565b3480156108ba57600080fd5b5061048e6201518081565b3480156108d157600080fd5b5061048e6108e0366004614373565b611e93565b3480156108f157600080fd5b5061048e610900366004614626565b61203f565b34801561091157600080fd5b506104b66120a8565b34801561092657600080fd5b506104b66120cb565b34801561093b57600080fd5b5061048e60045481565b34801561095157600080fd5b5061048e60145481565b34801561096757600080fd5b5060055461097b906001600160a01b031681565b6040516001600160a01b039091168152602001610498565b34801561099f57600080fd5b5061048e6109ae366004614373565b6120d8565b3480156109bf57600080fd5b5061048e6109ce366004614652565b6002602090815260009283526040909220815180830184018051928152908401929093019190912091525481565b348015610a0857600080fd5b50610a43610a17366004614626565b600760209081526000928352604080842090915290825290208054600182015460029092015490919083565b60408051938452602084019290925290820152606001610498565b348015610a6a57600080fd5b506104b66120f9565b348015610a7f57600080fd5b506106ee610a8e3660046143a8565b612106565b348015610a9f57600080fd5b5060095461048e565b348015610ab457600080fd5b50610ac8610ac33660046145b4565b612249565b604080516001600160a01b03909516855260208501939093529183015215156060820152608001610498565b348015610b0057600080fd5b5061048e6305f5e10081565b348015610b1857600080fd5b5061048e600181565b348015610b2d57600080fd5b50610b63610b3c3660046143a8565b60136020526000908152604090208054600182015460028301546003909301549192909184565b604080519485526020850193909352918301526060820152608001610498565b348015610b8f57600080fd5b506106ee610b9e3660046143a8565b6122d1565b348015610baf57600080fd5b506104b6610bbe366004614373565b612412565b348015610bcf57600080fd5b506106ee61242b565b348015610be457600080fd5b5061048e60115481565b348015610bfa57600080fd5b5061048e60065481565b348015610c1057600080fd5b506106ee610c1f3660046146a0565b6124c7565b348015610c3057600080fd5b5061048e600881565b348015610c4557600080fd5b5061059c610c5436600461453b565b6129ff565b6106ee610c673660046143c3565b612a60565b348015610c7857600080fd5b5061048e610c87366004614626565b600e60209081526000928352604080842090915290825290205481565b348015610cb057600080fd5b50610cc4610cbf366004614626565b613274565b604080519215158352602083019190915201610498565b348015610ce757600080fd5b506104b66132d7565b348015610cfc57600080fd5b5061048e613a9881565b61048e610d143660046143c3565b6132e4565b348015610d2557600080fd5b5061048e610d34366004614373565b600f6020526000908152604090205481565b348015610d5257600080fd5b5061048e610d61366004614373565b601c6020526000908152604090205481565b348015610d7f57600080fd5b5061048e610d8e3660046146dc565b601b60209081526000938452604080852082529284528284209052825290205481565b348015610dbd57600080fd5b5061048e61138881565b348015610dd357600080fd5b506106ee610de23660046143a8565b61391d565b348015610df357600080fd5b50610e07610e02366004614373565b6139b1565b604080519586526020860194909452928401919091526060830152608082015260a001610498565b348015610e3b57600080fd5b506106ee610e4a3660046143c3565b5050565b348015610e5a57600080fd5b50610e6e610e693660046143a8565b613abf565b604051610498959493929190614718565b348015610e8b57600080fd5b506104b6604051806040016040528060058152602001640312e302e360dc1b81525081565b600a8054610ebd9061474f565b80601f0160208091040260200160405190810160405280929190818152602001828054610ee99061474f565b8015610f365780601f10610f0b57610100808354040283529160200191610f36565b820191906000526020600020905b815481529060010190602001808311610f1957829003601f168201915b505050505081565b3360009081526003602052604090205460ff16610f945760405162461bcd60e51b815260206004820152600f60248201526e2737ba1030b71037b832b930ba37b960891b60448201526064015b60405180910390fd5b6040513381527f1fc1e771236d2e93bb9541cdcb4654ba0fd3fb615b48d829b7b365f0399851269060200160405180910390a1565b60086020526000908152604090208054600182018054919291610feb9061474f565b80601f01602080910402602001604051908101604052809291908181526020018280546110179061474f565b80156110645780601f1061103957610100808354040283529160200191611064565b820191906000526020600020905b81548152906001019060200180831161104757829003601f168201915b50505060028401546003850154600486015460058701546006880154600789015460089099015497986001600160a01b039095169793965091945060ff1692909189565b6000816040516020016110bb9190614789565b604051602081830303815290604052805190602001209050919050565b6002600054036110fa5760405162461bcd60e51b8152600401610f8b906147a5565b6002600081815560408051808201825260048152636c6f6e6760e01b60208083019190915233845293909352908190209051439160019161113c908590614789565b90815260200160405180910390205461115591906147f2565b106111725760405162461bcd60e51b8152600401610f8b90614805565b33600090815260026020526040908190209051439190611193908490614789565b90815260200160405180910390208190555060006019600084815260200190815260200160002080546111c59061474f565b80601f01602080910402602001604051908101604052809291908181526020018280546111f19061474f565b801561123e5780601f106112135761010080835404028352916020019161123e565b820191906000526020600020905b81548152906001019060200180831161122157829003601f168201915b5050505050905060008151116112665760405162461bcd60e51b8152600401610f8b9061484c565b600060086000611275846110a8565b81526020810191909152604001600020600581015490915060ff166112ac5760405162461bcd60e51b8152600401610f8b90614877565b662386f26fc100003410156112f25760405162461bcd60e51b815260206004820152600c60248201526b09ad2dc40605c6062408aa8960a31b6044820152606401610f8b565b33600090815260136020526040902060010154156113445760405162461bcd60e51b815260206004820152600f60248201526e506f736974696f6e2065786973747360881b6044820152606401610f8b565b600281015460408051633fabe5a360e21b815290516000926001600160a01b03169163feaf968c9160048083019260a09291908290030181865afa158015611390573d6000803e3d6000fd5b505050506040513d601f19601f820116820180604052508101906113b491906148b9565b505050915050600081136113da5760405162461bcd60e51b8152600401610f8b90614909565b60405180608001604052806113ee856110a8565b815234602080830182905260408084018690524260609485015233600090815260138352818120865181559286015160018401559085015160028301559390920151600390920191909155601480549192909161144c9084906147f2565b9091555050604080513481526020810183905233917ff4ba3ebcd3c40319f1834baa786a0f71b5a4b6015addb0db1fcf2b1377f64e1b910160405180910390a250506001600055505050565b6000838152600e602090815260408083203384529091528120548211156114f55760405162461bcd60e51b81526020600482015260116024820152704e6f7420656e6f75676820746f6b656e7360781b6044820152606401610f8b565b6000848152600e602090815260408083203384529091528120805484929061151e908490614930565b90915550506000848152600e602090815260408083206001600160a01b0387168452909152812080548492906115559084906147f2565b90915550506040518281526001600160a01b038416903390600080516020614e5e833981519152906020015b60405180910390a35060015b9392505050565b6005546001600160a01b031633146115be5760405162461bcd60e51b8152600401610f8b90614943565b6000600654116116075760405162461bcd60e51b81526020600482015260146024820152734e6f20746178657320746f20776974686472617760601b6044820152606401610f8b565b600680546000918290556005546040519192916001600160a01b039091169083908381818185875af1925050503d8060008114611660576040519150601f19603f3d011682016040523d82523d6000602084013e611665565b606091505b5050905080610e4a5760405162461bcd60e51b815260206004820152601560248201527415185e081dda5d1a191c985dd85b0819985a5b1959605a1b6044820152606401610f8b565b6005546001600160a01b031633146116d85760405162461bcd60e51b8152600401610f8b90614943565b6000818152601c60205260409020546117285760405162461bcd60e51b8152602060048201526012602482015271125b9d985b1a59081dda5d1a191c985dd85b60721b6044820152606401610f8b565b6000818152601c6020526040902054611745906202a300906147f2565b4210156117945760405162461bcd60e51b815260206004820152601860248201527f5769746864726177616c2064656c6179206e6f74206d657400000000000000006044820152606401610f8b565b60068054600091829055828252601c602052604080832083905560055490519192916001600160a01b039091169083908381818185875af1925050503d80600081146117fc576040519150601f19603f3d011682016040523d82523d6000602084013e611801565b606091505b50509050806118445760405162461bcd60e51b815260206004820152600f60248201526e151c985b9cd9995c8819985a5b1959608a1b6044820152606401610f8b565b505050565b6000848152600e602090815260408083206001600160a01b03871684529091528120548211156118af5760405162461bcd60e51b81526020600482015260116024820152704e6f7420656e6f75676820746f6b656e7360781b6044820152606401610f8b565b6000858152601b602090815260408083206001600160a01b0388168452825280832033845290915290205482111561191d5760405162461bcd60e51b8152602060048201526011602482015270416c6c6f77616e636520746f6f206c6f7760781b6044820152606401610f8b565b6000858152601b602090815260408083206001600160a01b0388168452825280832033845290915281208054849290611957908490614930565b90915550506000858152600e602090815260408083206001600160a01b03881684529091528120805484929061198e908490614930565b90915550506000858152600e602090815260408083206001600160a01b0387168452909152812080548492906119c59084906147f2565b92505081905550826001600160a01b0316846001600160a01b0316600080516020614e5e833981519152846040516119ff91815260200190565b60405180910390a3506001949350505050565b6000611a5383838080601f0160208091040260200160405190810160405280939291908181526020018383808284376000920191909152506110a892505050565b60008181526008602052604090206005015490915060ff16611a875760405162461bcd60e51b8152600401610f8b90614877565b6005546001600160a01b03163314611ab15760405162461bcd60e51b8152600401610f8b90614943565b6000818152600860205260409081902060058101805460ff191690555490517f64dad9b3fabdd97633fc4f36f58edc29aa15f28cba3a4a760e8c37afde9f7ea090611aff9086908690614967565b60405180910390a2505050565b600260005403611b2e5760405162461bcd60e51b8152600401610f8b906147a5565b6002600081815533815260136020908152604091829020825160808101845281548152600182015492810183905293810154928401929092526003909101546060830152611bac5760405162461bcd60e51b815260206004820152600b60248201526a2737903837b9b4ba34b7b760a91b6044820152606401610f8b565b805160009081526008602052604080822060028101548251633fabe5a360e21b815292519193926001600160a01b039091169163feaf968c9160048082019260a0929091908290030181865afa158015611c0a573d6000803e3d6000fd5b505050506040513d601f19601f82011682018060405250810190611c2e91906148b9565b50505091505060008113611c545760405162461bcd60e51b8152600401610f8b90614909565b6000836040015182611c669190614996565b9050600080821315611cf9578460400151828660200151611c8791906149bd565b611c9191906149ea565b90508360040154811115611cdf5760405162461bcd60e51b8152602060048201526015602482015274496e73756666696369656e7420726573657276657360581b6044820152606401610f8b565b80846004016000828254611cf39190614930565b90915550505b846020015160146000828254611d0f9190614930565b909155505033600090815260136020908152604082208281556001810183905560028101839055600301829055860151611d4a9083906147f2565b604051909150600090339083908381818185875af1925050503d8060008114611d8f576040519150601f19603f3d011682016040523d82523d6000602084013e611d94565b606091505b5050905080611ddb5760405162461bcd60e51b8152602060048201526013602482015272115512081d1c985b9cd9995c8819985a5b1959606a1b6044820152606401610f8b565b60405183815233907fe26feab862b8dc2729bd359c56323c001ef16cd20eae9fc4e0d461a6f0f29f159060200160405180910390a2505060016000555050505050565b60005b600954811015611e9057600060098281548110611e4057611e406149fe565b60009182526020808320909101548083526008909152604090912060058101549192509060ff16611e72575050611e7e565b611e7b82613cc4565b50505b80611e8881614a14565b915050611e21565b50565b60008181526019602052604081208054829190611eaf9061474f565b80601f0160208091040260200160405190810160405280929190818152602001828054611edb9061474f565b8015611f285780601f10611efd57610100808354040283529160200191611f28565b820191906000526020600020905b815481529060010190602001808311611f0b57829003601f168201915b505050505090506000815111611f505760405162461bcd60e51b8152600401610f8b9061484c565b600060086000611f5f846110a8565b81526020810191909152604001600020600581015490915060ff16611f965760405162461bcd60e51b8152600401610f8b90614877565b8060020160009054906101000a90046001600160a01b03166001600160a01b031663feaf968c6040518163ffffffff1660e01b815260040160a060405180830381865afa158015611feb573d6000803e3d6000fd5b505050506040513d601f19601f8201168201806040525081019061200f91906148b9565b509195505060008513915061203890505760405162461bcd60e51b8152600401610f8b90614909565b5050919050565b60008281526007602090815260408083206001600160a01b0385168452825280832081516060810183528154808252600183015494820194909452600290910154918101919091529061209357600061209e565b805161209e90614a2d565b9150505b92915050565b60606040518061016001604052806101238152602001614e7e6101239139905090565b600c8054610ebd9061474f565b600981815481106120e857600080fd5b600091825260209091200154905081565b600b8054610ebd9061474f565b6005546001600160a01b031633146121305760405162461bcd60e51b8152600401610f8b90614943565b6001600160a01b03811660009081526003602052604090205460ff161561218c5760405162461bcd60e51b815260206004820152601060248201526f20b63932b0b23c9037b832b930ba37b960811b6044820152606401610f8b565b6005600454106121d35760405162461bcd60e51b8152602060048201526012602482015271546f6f206d616e79206f70657261746f727360701b6044820152606401610f8b565b6001600160a01b0381166000908152600360205260408120805460ff19166001179055600480549161220483614a14565b90915550506040516001600160a01b03821681527fac6fa858e9350a46cec16539926e0fde25b7629f84b5a72bffaae4df888ae86d906020015b60405180910390a150565b600080600080600061229087878080601f0160208091040260200160405190810160405280939291908181526020018383808284376000920191909152506110a892505050565b60009081526008602052604090206002810154600382015460048301546005909301546001600160a01b039092169a90995091975060ff1695509350505050565b6005546001600160a01b031633146122fb5760405162461bcd60e51b8152600401610f8b90614943565b6001600160a01b03811660009081526003602052604090205460ff166123525760405162461bcd60e51b815260206004820152600c60248201526b2737ba1037b832b930ba37b960a11b6044820152606401610f8b565b6005546001600160a01b03908116908216036123a65760405162461bcd60e51b815260206004820152601360248201527221b0b73737ba103932b6b7bb329037bbb732b960691b6044820152606401610f8b565b6001600160a01b0381166000908152600360205260408120805460ff1916905560048054916123d483614a49565b90915550506040516001600160a01b03821681527f80c0b871b97b595b16a7741c1b06fed0c6f6f558639f18ccbce50724325dc40d9060200161223e565b60196020526000908152604090208054610ebd9061474f565b6005546001600160a01b031633146124555760405162461bcd60e51b8152600401610f8b90614943565b60006006541161249e5760405162461bcd60e51b81526020600482015260146024820152734e6f20746178657320746f20776974686472617760601b6044820152606401610f8b565b601d8054600091826124af83614a14565b909155506000908152601c6020526040902042905550565b60008290506000816001600160a01b0316637284e4166040518163ffffffff1660e01b8152600401600060405180830381865afa15801561250c573d6000803e3d6000fd5b505050506040513d6000823e601f3d908101601f191682016040526125349190810190614a60565b90506000836125435781612564565b816040516020016125549190614ad7565b6040516020818303038152906040525b905060008151116125a65760405162461bcd60e51b815260206004820152600c60248201526b115b5c1d1e481cde5b589bdb60a21b6044820152606401610f8b565b60006125b1826110a8565b60008181526008602052604090206005015490915060ff161561260e5760405162461bcd60e51b815260206004820152601560248201527453796d626f6c20616c72656164792065786973747360581b6044820152606401610f8b565b601a8260405161261e9190614789565b90815260200160405180910390205460001461266f5760405162461bcd60e51b815260206004820152601060248201526f53796d626f6c2049442065786973747360801b6044820152606401610f8b565b6000806000806000886001600160a01b031663feaf968c6040518163ffffffff1660e01b815260040160a060405180830381865afa1580156126b5573d6000803e3d6000fd5b505050506040513d601f19601f820116820180604052508101906126d991906148b9565b94509450945094509450600084136127035760405162461bcd60e51b8152600401610f8b90614909565b6127106201518042614930565b8210156127545760405162461bcd60e51b8152602060048201526012602482015271141c9a58d94819995959081d1bdbc81bdb1960721b6044820152606401610f8b565b846001600160501b0316816001600160501b031610156127a95760405162461bcd60e51b815260206004820152601060248201526f50726963652066656564207374616c6560801b6044820152606401610f8b565b6064856001600160501b031610156127f85760405162461bcd60e51b81526020600482015260126024820152715072696365206665656420746f6f206e657760701b6044820152606401610f8b565b6018805490600061280883614a14565b909155505060185460008181526019602052604090206128288982614b4e565b5080601a8960405161283a9190614789565b9081526020016040518091039020819055506040518061012001604052808281526020018981526020018d6001600160a01b0316815260200186815260200160008152602001600115158152602001428152602001600081526020016000815250600860008981526020019081526020016000206000820151816000015560208201518160010190816128cd9190614b4e565b5060408201518160020160006101000a8154816001600160a01b0302191690836001600160a01b03160217905550606082015181600301556080820151816004015560a08201518160050160006101000a81548160ff02191690831515021790555060c0820151816006015560e0820151816007015561010082015181600801559050506009879080600181540180825580915050600190039060005260206000200160009091909190915055807fea7454ddda8966d07c7b7316f29cb523c288e3f4721ab4b48f72d7d720ecb2f2898e6040516129ac929190614c0e565b60405180910390a2807fa2bf0592340f3ceadadb82be6c592fd26ec9a925573f4f5f669c1fe8cbdb4a07898e60006040516129e993929190614c38565b60405180910390a2505050505050505050505050565b6000838152601b60209081526040808320338085529083528184206001600160a01b038716808652935281842085905590517f8c5be1e5ebec7d5bd14f71427d1e84f3dd0314c0f7b2291e5b200ac8c7c3b925906115819086815260200190565b600260005403612a825760405162461bcd60e51b8152600401610f8b906147a5565b6002600081815560408051808201825260048152631cd95b1b60e21b602080830191909152338452939093529081902090514391600191612ac4908590614789565b908152602001604051809103902054612add91906147f2565b10612afa5760405162461bcd60e51b8152600401610f8b90614805565b33600090815260026020526040908190209051439190612b1b908490614789565b9081526020016040518091039020819055506000601960008581526020019081526020016000208054612b4d9061474f565b80601f0160208091040260200160405190810160405280929190818152602001828054612b799061474f565b8015612bc65780601f10612b9b57610100808354040283529160200191612bc6565b820191906000526020600020905b815481529060010190602001808311612ba957829003601f168201915b505050505090506000815111612bee5760405162461bcd60e51b8152600401610f8b9061484c565b600060086000612bfd846110a8565b81526020810191909152604001600020600581015490915060ff16612c345760405162461bcd60e51b8152600401610f8b90614877565b60008411612c845760405162461bcd60e51b815260206004820152601760248201527f416d6f756e74206d75737420626520706f7369746976650000000000000000006044820152606401610f8b565b600060086000612cae6040518060400160405280600381526020016208aa8960eb1b8152506110a8565b815260200190815260200160002060020160009054906101000a90046001600160a01b03166001600160a01b031663feaf968c6040518163ffffffff1660e01b815260040160a060405180830381865afa158015612d10573d6000803e3d6000fd5b505050506040513d601f19601f82011682018060405250810190612d3491906148b9565b50505091505060008113612d7e5760405162461bcd60e51b8152602060048201526011602482015270496e76616c69642045544820707269636560781b6044820152606401610f8b565b6000612d8987611e93565b600d54909150600090612dad9088908490612da89060ff16600a614d4a565b613e04565b90506000612dc782612dc16008600a614d59565b86613e04565b90506000612710612dda6101f4846149bd565b612de491906149ea565b90506000612df28284614930565b90508160066000828254612e0691906147f2565b90915550506004870154831115612e565760405162461bcd60e51b8152602060048201526014602482015273496e73756666696369656e74207265736572766560601b6044820152606401610f8b565b6101f48760040154612e6891906149bd565b612e74846127106149bd565b1115612eba5760405162461bcd60e51b8152602060048201526015602482015274151bdbc81b5d58da081c1c9a58d9481a5b5c1858dd605a1b6044820152606401610f8b565b6000612ec5896110a8565b6000818152600e602090815260408083203384529091529020549091508b8110612f1c57612ef38c82614930565b6000838152600e60209081526040808320338452909152902055612f17828d613ebf565b61305b565b6000600760008481526020019081526020016000206000336001600160a01b03166001600160a01b0316815260200190815260200160002090506000612f87612f7c8f8b600d60009054906101000a900460ff16600a612da89190614d4a565b613a98612710613e04565b905080341015612ff75760405162461bcd60e51b815260206004820152603560248201527f496e73756666696369656e7420636f6c6c61746572616c202d206e6565642031604482015274353025206f6620706f736974696f6e2076616c756560581b6064820152608401610f8b565b8d82600001600082825461300b91906147f2565b925050819055503482600101600082825461302691906147f2565b9091555050600282015460000361303f57600282018990555b348b600401600082825461305391906147f2565b909155505050505b8489600401600082825461306f9190614930565b9091555061308790506130818b6110a8565b33613f13565b8b601660006130958d6110a8565b815260200190815260200160002060010160008282546130b59190614930565b90915550600e905060006130c88c6110a8565b8152602080820192909252604090810160009081203382529092528120549003613198576000601660006130fb8d6110a8565b8152602080820192909252604090810160009081203382526006019092528120805460ff1916921515929092179091556016906131378c6110a8565b8152602001908152602001600020600201600081548092919061315990614a49565b91905055507f747dcb361ad1c268a415d08bb9cef6b6e40b42eab9e3a356733a34977f09d3208a3360405161318f929190614c0e565b60405180910390a15b604051600090339085908381818185875af1925050503d80600081146131da576040519150601f19603f3d011682016040523d82523d6000602084013e6131df565b606091505b50509050806132265760405162461bcd60e51b8152602060048201526013602482015272115512081d1c985b9cd9995c8819985a5b1959606a1b6044820152606401610f8b565b60408051868152600060208201527f39f668d6f1b4338891dc891669079f6724a94b39e1ce3570bcfc68b2c036ff5e910160405180910390a150506001600055505050505050505050505050565b60008281526007602090815260408083206001600160a01b0385168452825280832081516060810183528154808252600183015494820194909452600290910154918101919091528291801515906132cb90614a2d565b92509250509250929050565b60158054610ebd9061474f565b60006002600054036133085760405162461bcd60e51b8152600401610f8b906147a5565b60026000818155604080518082018252600381526262757960e81b602080830191909152338452939093529081902090514391600191613349908590614789565b90815260200160405180910390205461336291906147f2565b1061337f5760405162461bcd60e51b8152600401610f8b90614805565b336000908152600260205260409081902090514391906133a0908490614789565b90815260200160405180910390208190555060006019600086815260200190815260200160002080546133d29061474f565b80601f01602080910402602001604051908101604052809291908181526020018280546133fe9061474f565b801561344b5780601f106134205761010080835404028352916020019161344b565b820191906000526020600020905b81548152906001019060200180831161342e57829003601f168201915b5050505050905060008151116134735760405162461bcd60e51b8152600401610f8b9061484c565b600060086000613482846110a8565b81526020810191909152604001600020600581015490915060ff166134b95760405162461bcd60e51b8152600401610f8b90614877565b600034116134fb5760405162461bcd60e51b815260206004820152600f60248201526e53656e642045544820746f2062757960881b6044820152606401610f8b565b600061271061350c6101f4346149bd565b61351691906149ea565b905060006135248234614930565b9050816006600082825461353891906147f2565b9250508190555060006135656040518060400160405280600381526020016208aa8960eb1b8152506110a8565b60008181526008602052604090206005015490915060ff166135c95760405162461bcd60e51b815260206004820152601c60248201527f4d697373696e67206f7220696e616374697665204554482066656564000000006044820152606401610f8b565b600081815260086020526040808220600201548151633fabe5a360e21b815291516001600160a01b039091169163feaf968c9160048083019260a09291908290030181865afa158015613620573d6000803e3d6000fd5b505050506040513d601f19601f8201168201806040525081019061364491906148b9565b5050509150506000811361368e5760405162461bcd60e51b8152602060048201526011602482015270496e76616c69642045544820707269636560781b6044820152606401610f8b565b600285015460408051633fabe5a360e21b815290516000926001600160a01b03169163feaf968c9160048083019260a09291908290030181865afa1580156136da573d6000803e3d6000fd5b505050506040513d601f19601f820116820180604052508101906136fe91906148b9565b5050509150506000811361374a5760405162461bcd60e51b8152602060048201526013602482015272496e76616c696420746f6b656e20707269636560681b6044820152606401610f8b565b60008161375784876149bd565b61376191906149ea565b90506000600f60006137728b6110a8565b81526020019081526020016000205469d3c21bcecceda10000006137969190614930565b9050808211156137a4578091505b816000036137be5760009a50505050505050505050613911565b8b8210156138025760405162461bcd60e51b81526020600482015260116024820152700a6d8d2e0e0c2ceca40e8dede40d0d2ced607b1b6044820152606401610f8b565b3488600401600082825461381691906147f2565b9091555061382f9050338361382a8c6110a8565b61405b565b60408051888152600160208201527f39f668d6f1b4338891dc891669079f6724a94b39e1ce3570bcfc68b2c036ff5e910160405180910390a16138746130818a6110a8565b81601660006138828c6110a8565b815260200190815260200160002060010160008282546138a291906147f2565b9091555050604051600090819033906001908381818185875af1925050503d80600081146138ec576040519150601f19603f3d011682016040523d82523d6000602084013e6138f1565b606091505b50915091508161390357805160208201fd5b50919a505050505050505050505b50600160005592915050565b6005546001600160a01b031633146139475760405162461bcd60e51b8152600401610f8b90614943565b6001600160a01b03811661398f5760405162461bcd60e51b815260206004820152600f60248201526e496e76616c6964206164647265737360881b6044820152606401610f8b565b600580546001600160a01b0319166001600160a01b0392909216919091179055565b6000806000806000806019600088815260200190815260200160002080546139d89061474f565b80601f0160208091040260200160405190810160405280929190818152602001828054613a049061474f565b8015613a515780601f10613a2657610100808354040283529160200191613a51565b820191906000526020600020905b815481529060010190602001808311613a3457829003601f168201915b505050505090506000815111613a795760405162461bcd60e51b8152600401610f8b9061484c565b6000613a84826110a8565b60009081526016602052604090206001810154600282015460038301546004840154600590940154929c919b50995091975095509350505050565b6001600160a01b0381166000908152601360209081526040808320815160808101835281548152600182015493810184905260028201549281019290925260030154606082810191909152929182918291829190613b4d5760405162461bcd60e51b815260206004820152600b60248201526a2737903837b9b4ba34b7b760a91b6044820152606401610f8b565b805160009081526008602052604080822060028101548251633fabe5a360e21b815292519193926001600160a01b039091169163feaf968c9160048082019260a0929091908290030181865afa158015613bab573d6000803e3d6000fd5b505050506040513d601f19601f82011682018060405250810190613bcf91906148b9565b5050509150506000836040015182613be79190614996565b905060008460400151828660200151613c009190614d65565b613c0a9190614d95565b90508360010185602001518660400151876060015184848054613c2c9061474f565b80601f0160208091040260200160405190810160405280929190818152602001828054613c589061474f565b8015613ca55780601f10613c7a57610100808354040283529160200191613ca5565b820191906000526020600020905b815481529060010190602001808311613c8857829003601f168201915b5050505050945099509950995099509950505050505091939590929450565b6000806000613cd2846140e1565b600087815260166020526040812093965091945092506006909101905b600954811015613d9b576001600160a01b038116600090815260208390526040902054819060ff16613d215750613d89565b60008781526007602090815260408083206001600160a01b038516845290915281208054909103613d53575050613d89565b8054612710908702048515613d6d57815481018255613d85565b81548110613d7c576000613d82565b81548190035b82555b5050505b80613d9381614a14565b915050613cef565b506000858152600860205260409020600381018590557fd61dc40ef1106764e1d9eb364856a6143485951a5d6fbb5fbdff5de65a5695d68580613dde8180614996565b6040805193845260208401929092529082015260600160405180910390a1505050505050565b6000838302816000198587098281108382030391505080600003613e3b57838281613e3157613e316149d4565b049250505061158d565b808411613e5257613e5260038515026011186142fe565b6000848688096000868103871696879004966002600389028118808a02820302808a02820302808a02820302808a02820302808a02820302808a02909103029181900381900460010186841190950394909402919094039290920491909117919091029150509392505050565b600082815260086020526040812060048101805491928492613ee2908490614930565b90915550506040518281526000903390600080516020614e5e833981519152906020015b60405180910390a3505050565b600082815260166020526040812090613f2e610e10426149ea565b60008581526017602090815260408083208484529091528120805492935090613f5683614a14565b9091555050600084815260176020908152604080832084845282528083205460038601554260058601556001600160a01b03861683526006850190915290205460ff16158015613fc757506000848152600e602090815260408083206001600160a01b038716845290915290205415155b15614055576001600160a01b03831660009081526006830160205260408120805460ff191660011790556002830180549161400183614a14565b91905055507f98c84a3686adea5c061d8519391569151f91fccec19655755fb216862353eb1d600860008681526020019081526020016000206001018460405161404c929190614dc3565b60405180910390a15b50505050565b6000818152600f6020526040812080548492906140799084906147f2565b90915550506000818152600e602090815260408083206001600160a01b0387168452909152812080548492906140b09084906147f2565b90915550506040518281526001600160a01b03841690600090600080516020614e5e83398151915290602001613f06565b60008181526008602052604080822060028101548251633fabe5a360e21b815292518493849392849283928392839283926001600160a01b039092169163feaf968c9160048083019260a09291908290030181865afa158015614148573d6000803e3d6000fd5b505050506040513d601f19601f8201168201806040525081019061416c91906148b9565b94509450945094509450846001600160501b0316816001600160501b031610156141c65760405162461bcd60e51b815260206004820152600b60248201526a5374616c6520707269636560a81b6044820152606401610f8b565b610e106141d38342614930565b11156142115760405162461bcd60e51b815260206004820152600d60248201526c141c9a58d9481d1bdbc81bdb19609a1b6044820152606401610f8b565b600084136142315760405162461bcd60e51b8152600401610f8b90614909565b60008660030154136142795760405162461bcd60e51b81526020600482015260116024820152704e6f2070726576696f757320707269636560781b6044820152606401610f8b565b600386015484818111156142b457816127106142958284614930565b61429f91906149bd565b6142a991906149ea565b9950600198506142dd565b816127106142c28383614930565b6142cc91906149bd565b6142d691906149ea565b9950600098505b6113888a11156142ed5761138899505b50939a979950959750505050505050565b634e487b71600052806020526024601cfd5b60005b8381101561432b578181015183820152602001614313565b50506000910152565b6000815180845261434c816020860160208601614310565b601f01601f19169290920160200192915050565b60208152600061158d6020830184614334565b60006020828403121561438557600080fd5b5035919050565b80356001600160a01b03811681146143a357600080fd5b919050565b6000602082840312156143ba57600080fd5b61158d8261438c565b600080604083850312156143d657600080fd5b50508035926020909101359150565b60006101208b83528060208401526143ff8184018c614334565b6001600160a01b039a909a16604084015250506060810196909652608086019490945291151560a085015260c084015260e08301526101009091015292915050565b634e487b7160e01b600052604160045260246000fd5b604051601f8201601f1916810167ffffffffffffffff8111828210171561448057614480614441565b604052919050565b600067ffffffffffffffff8211156144a2576144a2614441565b50601f01601f191660200190565b600082601f8301126144c157600080fd5b81356144d46144cf82614488565b614457565b8181528460208386010111156144e957600080fd5b816020850160208301376000918101602001919091529392505050565b60006020828403121561451857600080fd5b813567ffffffffffffffff81111561452f57600080fd5b61209e848285016144b0565b60008060006060848603121561455057600080fd5b833592506145606020850161438c565b9150604084013590509250925092565b6000806000806080858703121561458657600080fd5b843593506145966020860161438c565b92506145a46040860161438c565b9396929550929360600135925050565b600080602083850312156145c757600080fd5b823567ffffffffffffffff808211156145df57600080fd5b818501915085601f8301126145f357600080fd5b81358181111561460257600080fd5b86602082850101111561461457600080fd5b60209290920196919550909350505050565b6000806040838503121561463957600080fd5b823591506146496020840161438c565b90509250929050565b6000806040838503121561466557600080fd5b61466e8361438c565b9150602083013567ffffffffffffffff81111561468a57600080fd5b614696858286016144b0565b9150509250929050565b600080604083850312156146b357600080fd5b6146bc8361438c565b9150602083013580151581146146d157600080fd5b809150509250929050565b6000806000606084860312156146f157600080fd5b833592506147016020850161438c565b915061470f6040850161438c565b90509250925092565b60a08152600061472b60a0830188614334565b90508560208301528460408301528360608301528260808301529695505050505050565b600181811c9082168061476357607f821691505b60208210810361478357634e487b7160e01b600052602260045260246000fd5b50919050565b6000825161479b818460208701614310565b9190910192915050565b6020808252601f908201527f5265656e7472616e637947756172643a207265656e7472616e742063616c6c00604082015260600190565b634e487b7160e01b600052601160045260246000fd5b808201808211156120a2576120a26147dc565b60208082526027908201527f506c65617365207761697420612066657720626c6f636b73206265747765656e6040820152662074726164657360c81b606082015260800190565b602080825260119082015270125b9d985b1a59081cde5b589bdb081251607a1b604082015260600190565b60208082526011908201527053796d626f6c206e6f742061637469766560781b604082015260600190565b80516001600160501b03811681146143a357600080fd5b600080600080600060a086880312156148d157600080fd5b6148da866148a2565b94506020860151935060408601519250606086015191506148fd608087016148a2565b90509295509295909350565b6020808252600d908201526c496e76616c696420707269636560981b604082015260600190565b818103818111156120a2576120a26147dc565b6020808252600a908201526927b7363c9037bbb732b960b11b604082015260600190565b60208152816020820152818360408301376000818301604090810191909152601f909201601f19160101919050565b81810360008312801583831316838312821617156149b6576149b66147dc565b5092915050565b80820281158282048414176120a2576120a26147dc565b634e487b7160e01b600052601260045260246000fd5b6000826149f9576149f96149d4565b500490565b634e487b7160e01b600052603260045260246000fd5b600060018201614a2657614a266147dc565b5060010190565b6000600160ff1b8201614a4257614a426147dc565b5060000390565b600081614a5857614a586147dc565b506000190190565b600060208284031215614a7257600080fd5b815167ffffffffffffffff811115614a8957600080fd5b8201601f81018413614a9a57600080fd5b8051614aa86144cf82614488565b818152856020838501011115614abd57600080fd5b614ace826020830160208601614310565b95945050505050565b606960f81b815260008251614af3816001850160208701614310565b9190910160010192915050565b601f82111561184457600081815260208120601f850160051c81016020861015614b275750805b601f850160051c820191505b81811015614b4657828155600101614b33565b505050505050565b815167ffffffffffffffff811115614b6857614b68614441565b614b7c81614b76845461474f565b84614b00565b602080601f831160018114614bb15760008415614b995750858301515b600019600386901b1c1916600185901b178555614b46565b600085815260208120601f198616915b82811015614be057888601518255948401946001909101908401614bc1565b5085821015614bfe5787850151600019600388901b60f8161c191681555b5050505050600190811b01905550565b604081526000614c216040830185614334565b905060018060a01b03831660208301529392505050565b606081526000614c4b6060830186614334565b6001600160a01b039490941660208301525060400152919050565b600181815b80851115614ca1578160001904821115614c8757614c876147dc565b80851615614c9457918102915b93841c9390800290614c6b565b509250929050565b600082614cb8575060016120a2565b81614cc5575060006120a2565b8160018114614cdb5760028114614ce557614d01565b60019150506120a2565b60ff841115614cf657614cf66147dc565b50506001821b6120a2565b5060208310610133831016604e8410600b8410161715614d24575081810a6120a2565b614d2e8383614c66565b8060001904821115614d4257614d426147dc565b029392505050565b600061158d60ff841683614ca9565b600061158d8383614ca9565b80820260008212600160ff1b84141615614d8157614d816147dc565b81810583148215176120a2576120a26147dc565b600082614da457614da46149d4565b600160ff1b821460001984141615614dbe57614dbe6147dc565b500590565b604081526000808454614dd58161474f565b8060408601526060600180841660008114614df75760018114614e1157614e42565b60ff1985168884015283151560051b880183019550614e42565b8960005260208060002060005b86811015614e395781548b8201870152908401908201614e1e565b8a018501975050505b505050506001600160a01b038516602085015250905061158d56feddf252ad1be2c89b69c2b068fc378daa952ba7f163c4a11628f55a4df523b3ef4547524f572069732061206d756c74692d617373657420656c617374696320737570706c7920746f6b656e2073797374656d2e20566973697420656c61737469632e6c6f6c20666f722064657461696c656420646f63756d656e746174696f6e2e204561636820737570706f727465642073796d626f6c20637265617465732061207669727475616c2074726164696e67207061697220616761696e737420455448207573696e6720436861696e6c696e6b2070726963652066656564732e205468652073797374656d206d61696e7461696e732070726963652d6177617265206c697175696469747920706f6f6c7320616e642061646a7573747320746f6b656e20737570706c79206261736564206f6e207072696365206d6f76656d656e74732ea2646970667358221220288aba8391e7634ddddb0e5489626cb8e35eecb4dc2453fdb7fc6a284aaa864064736f6c634300081400334d756c74692d617373657420656c617374696320737570706c7920746f6b656e2073797374656d202d20656c61737469632e6c6f6c","opcodes":"PUSH1 0xC0 PUSH1 0x40 MSTORE PUSH1 0x14 PUSH1 0x80 SWAP1 DUP2 MSTORE PUSH32 0x456C61737469632047726F77746820546F6B656E000000000000000000000000 PUSH1 0xA0 MSTORE PUSH1 0xA SWAP1 PUSH3 0x3E SWAP1 DUP3 PUSH3 0x1A6 JUMP JUMPDEST POP PUSH1 0x40 DUP1 MLOAD DUP1 DUP3 ADD SWAP1 SWAP2 MSTORE PUSH1 0x5 DUP2 MSTORE PUSH5 0x4547524F57 PUSH1 0xD8 SHL PUSH1 0x20 DUP3 ADD MSTORE PUSH1 0xB SWAP1 PUSH3 0x6A SWAP1 DUP3 PUSH3 0x1A6 JUMP JUMPDEST POP PUSH1 0x40 MLOAD DUP1 PUSH1 0x60 ADD PUSH1 0x40 MSTORE DUP1 PUSH1 0x35 DUP2 MSTORE PUSH1 0x20 ADD PUSH3 0x5258 PUSH1 0x35 SWAP2 CODECOPY PUSH1 0xC SWAP1 PUSH3 0x94 SWAP1 DUP3 PUSH3 0x1A6 JUMP JUMPDEST POP PUSH1 0xD DUP1 SLOAD PUSH1 0xFF NOT AND PUSH1 0x12 SWAP1 DUP2 OR SWAP1 SWAP2 SSTORE PUSH3 0xF4240 PUSH1 0x10 SSTORE PUSH2 0x1F40 PUSH1 0x11 SSTORE PUSH2 0x2EE0 SWAP1 SSTORE CALLVALUE DUP1 ISZERO PUSH3 0xC4 JUMPI PUSH1 0x0 DUP1 REVERT JUMPDEST POP PUSH1 0x5 DUP1 SLOAD PUSH1 0x1 PUSH1 0x1 PUSH1 0xA0 SHL SUB NOT AND CALLER SWAP1 DUP2 OR SWAP1 SWAP2 SSTORE PUSH1 0x1 PUSH1 0x0 DUP2 DUP2 SSTORE SWAP2 DUP3 MSTORE PUSH1 0x3 PUSH1 0x20 MSTORE PUSH1 0x40 SWAP1 SWAP2 KECCAK256 DUP1 SLOAD PUSH1 0xFF NOT AND DUP3 OR SWAP1 SSTORE PUSH1 0x4 SSTORE PUSH3 0x272 JUMP JUMPDEST PUSH4 0x4E487B71 PUSH1 0xE0 SHL PUSH1 0x0 MSTORE PUSH1 0x41 PUSH1 0x4 MSTORE PUSH1 0x24 PUSH1 0x0 REVERT JUMPDEST PUSH1 0x1 DUP2 DUP2 SHR SWAP1 DUP3 AND DUP1 PUSH3 0x12C JUMPI PUSH1 0x7F DUP3 AND SWAP2 POP JUMPDEST PUSH1 0x20 DUP3 LT DUP2 SUB PUSH3 0x14D JUMPI PUSH4 0x4E487B71 PUSH1 0xE0 SHL PUSH1 0x0 MSTORE PUSH1 0x22 PUSH1 0x4 MSTORE PUSH1 0x24 PUSH1 0x0 REVERT JUMPDEST POP SWAP2 SWAP1 POP JUMP JUMPDEST PUSH1 0x1F DUP3 GT ISZERO PUSH3 0x1A1 JUMPI PUSH1 0x0 DUP2 DUP2 MSTORE PUSH1 0x20 DUP2 KECCAK256 PUSH1 0x1F DUP6 ADD PUSH1 0x5 SHR DUP2 ADD PUSH1 0x20 DUP7 LT ISZERO PUSH3 0x17C JUMPI POP DUP1 JUMPDEST PUSH1 0x1F DUP6 ADD PUSH1 0x5 SHR DUP3 ADD SWAP2 POP JUMPDEST DUP2 DUP2 LT ISZERO PUSH3 0x19D JUMPI DUP3 DUP2 SSTORE PUSH1 0x1 ADD PUSH3 0x188 JUMP JUMPDEST POP POP POP JUMPDEST POP POP POP JUMP JUMPDEST DUP2 MLOAD PUSH1 0x1 PUSH1 0x1 PUSH1 0x40 SHL SUB DUP2 GT ISZERO PUSH3 0x1C2 JUMPI PUSH3 0x1C2 PUSH3 0x101 JUMP JUMPDEST PUSH3 0x1DA DUP2 PUSH3 0x1D3 DUP5 SLOAD PUSH3 0x117 JUMP JUMPDEST DUP5 PUSH3 0x153 JUMP JUMPDEST PUSH1 0x20 DUP1 PUSH1 0x1F DUP4 GT PUSH1 0x1 DUP2 EQ PUSH3 0x212 JUMPI PUSH1 0x0 DUP5 ISZERO PUSH3 0x1F9 JUMPI POP DUP6 DUP4 ADD MLOAD JUMPDEST PUSH1 0x0 NOT PUSH1 0x3 DUP7 SWAP1 SHL SHR NOT AND PUSH1 0x1 DUP6 SWAP1 SHL OR DUP6 SSTORE PUSH3 0x19D JUMP JUMPDEST PUSH1 0x0 DUP6 DUP2 MSTORE PUSH1 0x20 DUP2 KECCAK256 PUSH1 0x1F NOT DUP7 AND SWAP2 JUMPDEST DUP3 DUP2 LT ISZERO PUSH3 0x243 JUMPI DUP9 DUP7 ADD MLOAD DUP3 SSTORE SWAP5 DUP5 ADD SWAP5 PUSH1 0x1 SWAP1 SWAP2 ADD SWAP1 DUP5 ADD PUSH3 0x222 JUMP JUMPDEST POP DUP6 DUP3 LT ISZERO PUSH3 0x262 JUMPI DUP8 DUP6 ADD MLOAD PUSH1 0x0 NOT PUSH1 0x3 DUP9 SWAP1 SHL PUSH1 0xF8 AND SHR NOT AND DUP2 SSTORE JUMPDEST POP POP POP POP POP PUSH1 0x1 SWAP1 DUP2 SHL ADD SWAP1 SSTORE POP JUMP JUMPDEST PUSH2 0x4FD6 DUP1 PUSH3 0x282 PUSH1 0x0 CODECOPY PUSH1 0x0 RETURN INVALID PUSH1 0x80 PUSH1 0x40 MSTORE PUSH1 0x4 CALLDATASIZE LT PUSH2 0x46C JUMPI PUSH1 0x0 CALLDATALOAD PUSH1 0xE0 SHR DUP1 PUSH4 0x7C6F3158 GT PUSH2 0x24A JUMPI DUP1 PUSH4 0xB7297057 GT PUSH2 0x139 JUMPI DUP1 PUSH4 0xE3378404 GT PUSH2 0xB6 JUMPI DUP1 PUSH4 0xF2FDE38B GT PUSH2 0x7A JUMPI DUP1 PUSH4 0xF2FDE38B EQ PUSH2 0xDC7 JUMPI DUP1 PUSH4 0xF430924E EQ PUSH2 0xDE7 JUMPI DUP1 PUSH4 0xF69D91AE EQ PUSH2 0xE2F JUMPI DUP1 PUSH4 0xFBD1D25A EQ PUSH2 0xE4E JUMPI DUP1 PUSH4 0xFFA1AD74 EQ PUSH2 0xE7F JUMPI PUSH1 0x0 DUP1 REVERT JUMPDEST DUP1 PUSH4 0xE3378404 EQ PUSH2 0xD19 JUMPI DUP1 PUSH4 0xE6150400 EQ PUSH2 0xD46 JUMPI DUP1 PUSH4 0xE88A3178 EQ PUSH2 0xD73 JUMPI DUP1 PUSH4 0xF1A640F8 EQ PUSH2 0xC24 JUMPI DUP1 PUSH4 0xF2068B73 EQ PUSH2 0xDB1 JUMPI PUSH1 0x0 DUP1 REVERT JUMPDEST DUP1 PUSH4 0xC2038236 GT PUSH2 0xFD JUMPI DUP1 PUSH4 0xC2038236 EQ PUSH2 0xC6C JUMPI DUP1 PUSH4 0xC8A30D7C EQ PUSH2 0xCA4 JUMPI DUP1 PUSH4 0xCAB7AC3A EQ PUSH2 0xCDB JUMPI DUP1 PUSH4 0xD9E69A05 EQ PUSH2 0xCF0 JUMPI DUP1 PUSH4 0xDC872104 EQ PUSH2 0xD06 JUMPI PUSH1 0x0 DUP1 REVERT JUMPDEST DUP1 PUSH4 0xB7297057 EQ PUSH2 0xBEE JUMPI DUP1 PUSH4 0xB98E959E EQ PUSH2 0xC04 JUMPI DUP1 PUSH4 0xBBA0E722 EQ PUSH2 0xC24 JUMPI DUP1 PUSH4 0xBF1ED1EB EQ PUSH2 0xC39 JUMPI DUP1 PUSH4 0xBFB5A1FC EQ PUSH2 0xC59 JUMPI PUSH1 0x0 DUP1 REVERT JUMPDEST DUP1 PUSH4 0x9E18F399 GT PUSH2 0x1C7 JUMPI DUP1 PUSH4 0xAC511BC0 GT PUSH2 0x18B JUMPI DUP1 PUSH4 0xAC511BC0 EQ PUSH2 0xB21 JUMPI DUP1 PUSH4 0xAC8A584A EQ PUSH2 0xB83 JUMPI DUP1 PUSH4 0xAD62769E EQ PUSH2 0xBA3 JUMPI DUP1 PUSH4 0xB51D1D4F EQ PUSH2 0xBC3 JUMPI DUP1 PUSH4 0xB608BBD0 EQ PUSH2 0xBD8 JUMPI PUSH1 0x0 DUP1 REVERT JUMPDEST DUP1 PUSH4 0x9E18F399 EQ PUSH2 0xA93 JUMPI DUP1 PUSH4 0x9F65106C EQ PUSH2 0xAA8 JUMPI DUP1 PUSH4 0xA4C2E7D3 EQ PUSH2 0xAF4 JUMPI DUP1 PUSH4 0xA51C9ACE EQ PUSH2 0x5AC JUMPI DUP1 PUSH4 0xA7EA74B7 EQ PUSH2 0xB0C JUMPI PUSH1 0x0 DUP1 REVERT JUMPDEST DUP1 PUSH4 0x932D68A6 GT PUSH2 0x20E JUMPI DUP1 PUSH4 0x932D68A6 EQ PUSH2 0x993 JUMPI DUP1 PUSH4 0x948AFDAE EQ PUSH2 0x9B3 JUMPI DUP1 PUSH4 0x95A43078 EQ PUSH2 0x9FC JUMPI DUP1 PUSH4 0x95D89B41 EQ PUSH2 0xA5E JUMPI DUP1 PUSH4 0x9870D7FE EQ PUSH2 0xA73 JUMPI PUSH1 0x0 DUP1 REVERT JUMPDEST DUP1 PUSH4 0x7C6F3158 EQ PUSH2 0x92F JUMPI DUP1 PUSH4 0x817B1CD2 EQ PUSH2 0x945 JUMPI DUP1 PUSH4 0x8DA5CB5B EQ PUSH2 0x95B JUMPI DUP1 PUSH4 0x8FEA2DEF EQ PUSH2 0x5AC JUMPI DUP1 PUSH4 0x91C93B25 EQ PUSH2 0x898 JUMPI PUSH1 0x0 DUP1 REVERT JUMPDEST DUP1 PUSH4 0x3A7ADC64 GT PUSH2 0x366 JUMPI DUP1 PUSH4 0x5536487C GT PUSH2 0x2E3 JUMPI DUP1 PUSH4 0x696CF8F0 GT PUSH2 0x2A7 JUMPI DUP1 PUSH4 0x696CF8F0 EQ PUSH2 0x8AE JUMPI DUP1 PUSH4 0x69DBF9D5 EQ PUSH2 0x8C5 JUMPI DUP1 PUSH4 0x6C9B6340 EQ PUSH2 0x8E5 JUMPI DUP1 PUSH4 0x6CB69F42 EQ PUSH2 0x905 JUMPI DUP1 PUSH4 0x7284E416 EQ PUSH2 0x91A JUMPI PUSH1 0x0 DUP1 REVERT JUMPDEST DUP1 PUSH4 0x5536487C EQ PUSH2 0x835 JUMPI DUP1 PUSH4 0x556F98FC EQ PUSH2 0x84B JUMPI DUP1 PUSH4 0x621A9C43 EQ PUSH2 0x860 JUMPI DUP1 PUSH4 0x6839B5FA EQ PUSH2 0x898 JUMPI DUP1 PUSH4 0x683D0A0E EQ PUSH2 0x557 JUMPI PUSH1 0x0 DUP1 REVERT JUMPDEST DUP1 PUSH4 0x4F0CB5F3 GT PUSH2 0x32A JUMPI DUP1 PUSH4 0x4F0CB5F3 EQ PUSH2 0x7C0 JUMPI DUP1 PUSH4 0x500D2F6D EQ PUSH2 0x7E0 JUMPI DUP1 PUSH4 0x52C2C294 EQ PUSH2 0x800 JUMPI DUP1 PUSH4 0x53BAF0AD EQ PUSH2 0x820 JUMPI DUP1 PUSH4 0x54AD8AEE EQ PUSH2 0x478 JUMPI PUSH1 0x0 DUP1 REVERT JUMPDEST DUP1 PUSH4 0x3A7ADC64 EQ PUSH2 0x742 JUMPI DUP1 PUSH4 0x3FB07C7F EQ PUSH2 0x762 JUMPI DUP1 PUSH4 0x3FEB1BD8 EQ PUSH2 0x775 JUMPI DUP1 PUSH4 0x46829831 EQ PUSH2 0x795 JUMPI DUP1 PUSH4 0x4A9122E3 EQ PUSH2 0x7AA JUMPI PUSH1 0x0 DUP1 REVERT JUMPDEST DUP1 PUSH4 0x1E15D1A5 GT PUSH2 0x3F4 JUMPI DUP1 PUSH4 0x313CE567 GT PUSH2 0x3B8 JUMPI DUP1 PUSH4 0x313CE567 EQ PUSH2 0x68F JUMPI DUP1 PUSH4 0x32CB6B0C EQ PUSH2 0x6BB JUMPI DUP1 PUSH4 0x3403C2FC EQ PUSH2 0x6D9 JUMPI DUP1 PUSH4 0x35917C64 EQ PUSH2 0x6F0 JUMPI DUP1 PUSH4 0x36E1AF4B EQ PUSH2 0x70D JUMPI PUSH1 0x0 DUP1 REVERT JUMPDEST DUP1 PUSH4 0x1E15D1A5 EQ PUSH2 0x5D8 JUMPI DUP1 PUSH4 0x283DC96F EQ PUSH2 0x5EE JUMPI DUP1 PUSH4 0x2B78C9F7 EQ PUSH2 0x62D JUMPI DUP1 PUSH4 0x2F3892F5 EQ PUSH2 0x642 JUMPI DUP1 PUSH4 0x2FAD76BF EQ PUSH2 0x657 JUMPI PUSH1 0x0 DUP1 REVERT JUMPDEST DUP1 PUSH4 0x113990B8 GT PUSH2 0x43B JUMPI DUP1 PUSH4 0x113990B8 EQ PUSH2 0x557 JUMPI DUP1 PUSH4 0x1190016C EQ PUSH2 0x478 JUMPI DUP1 PUSH4 0x13E7C9D8 EQ PUSH2 0x56C JUMPI DUP1 PUSH4 0x17D16BFB EQ PUSH2 0x5AC JUMPI DUP1 PUSH4 0x1CDD82DC EQ PUSH2 0x5C2 JUMPI PUSH1 0x0 DUP1 REVERT JUMPDEST DUP1 PUSH4 0x2AF37BB EQ PUSH2 0x478 JUMPI DUP1 PUSH4 0x6FDDE03 EQ PUSH2 0x4A1 JUMPI DUP1 PUSH4 0xEBB172A EQ PUSH2 0x4C3 JUMPI DUP1 PUSH4 0x11121DE0 EQ PUSH2 0x4DA JUMPI PUSH1 0x0 DUP1 REVERT JUMPDEST CALLDATASIZE PUSH2 0x473 JUMPI STOP JUMPDEST PUSH1 0x0 DUP1 REVERT JUMPDEST CALLVALUE DUP1 ISZERO PUSH2 0x484 JUMPI PUSH1 0x0 DUP1 REVERT JUMPDEST POP PUSH2 0x48E PUSH2 0x1F4 DUP2 JUMP JUMPDEST PUSH1 0x40 MLOAD SWAP1 DUP2 MSTORE PUSH1 0x20 ADD JUMPDEST PUSH1 0x40 MLOAD DUP1 SWAP2 SUB SWAP1 RETURN JUMPDEST CALLVALUE DUP1 ISZERO PUSH2 0x4AD JUMPI PUSH1 0x0 DUP1 REVERT JUMPDEST POP PUSH2 0x4B6 PUSH2 0xEB0 JUMP JUMPDEST PUSH1 0x40 MLOAD PUSH2 0x498 SWAP2 SWAP1 PUSH2 0x4360 JUMP JUMPDEST CALLVALUE DUP1 ISZERO PUSH2 0x4CF JUMPI PUSH1 0x0 DUP1 REVERT JUMPDEST POP PUSH2 0x48E PUSH3 0x2A300 DUP2 JUMP JUMPDEST CALLVALUE DUP1 ISZERO PUSH2 0x4E6 JUMPI PUSH1 0x0 DUP1 REVERT JUMPDEST POP PUSH2 0x52A PUSH2 0x4F5 CALLDATASIZE PUSH1 0x4 PUSH2 0x4373 JUMP JUMPDEST PUSH1 0x16 PUSH1 0x20 MSTORE PUSH1 0x0 SWAP1 DUP2 MSTORE PUSH1 0x40 SWAP1 KECCAK256 DUP1 SLOAD PUSH1 0x1 DUP3 ADD SLOAD PUSH1 0x2 DUP4 ADD SLOAD PUSH1 0x3 DUP5 ADD SLOAD PUSH1 0x4 DUP6 ADD SLOAD PUSH1 0x5 SWAP1 SWAP6 ADD SLOAD SWAP4 SWAP5 SWAP3 SWAP4 SWAP2 SWAP3 SWAP1 SWAP2 DUP7 JUMP JUMPDEST PUSH1 0x40 DUP1 MLOAD SWAP7 DUP8 MSTORE PUSH1 0x20 DUP8 ADD SWAP6 SWAP1 SWAP6 MSTORE SWAP4 DUP6 ADD SWAP3 SWAP1 SWAP3 MSTORE PUSH1 0x60 DUP5 ADD MSTORE PUSH1 0x80 DUP4 ADD MSTORE PUSH1 0xA0 DUP3 ADD MSTORE PUSH1 0xC0 ADD PUSH2 0x498 JUMP JUMPDEST CALLVALUE DUP1 ISZERO PUSH2 0x563 JUMPI PUSH1 0x0 DUP1 REVERT JUMPDEST POP PUSH2 0x48E PUSH1 0x64 DUP2 JUMP JUMPDEST CALLVALUE DUP1 ISZERO PUSH2 0x578 JUMPI PUSH1 0x0 DUP1 REVERT JUMPDEST POP PUSH2 0x59C PUSH2 0x587 CALLDATASIZE PUSH1 0x4 PUSH2 0x43A8 JUMP JUMPDEST PUSH1 0x3 PUSH1 0x20 MSTORE PUSH1 0x0 SWAP1 DUP2 MSTORE PUSH1 0x40 SWAP1 KECCAK256 SLOAD PUSH1 0xFF AND DUP2 JUMP JUMPDEST PUSH1 0x40 MLOAD SWAP1 ISZERO ISZERO DUP2 MSTORE PUSH1 0x20 ADD PUSH2 0x498 JUMP JUMPDEST CALLVALUE DUP1 ISZERO PUSH2 0x5B8 JUMPI PUSH1 0x0 DUP1 REVERT JUMPDEST POP PUSH2 0x48E PUSH2 0x2710 DUP2 JUMP JUMPDEST CALLVALUE DUP1 ISZERO PUSH2 0x5CE JUMPI PUSH1 0x0 DUP1 REVERT JUMPDEST POP PUSH2 0x48E PUSH1 0x10 SLOAD DUP2 JUMP JUMPDEST CALLVALUE DUP1 ISZERO PUSH2 0x5E4 JUMPI PUSH1 0x0 DUP1 REVERT JUMPDEST POP PUSH2 0x48E PUSH1 0x12 SLOAD DUP2 JUMP JUMPDEST CALLVALUE DUP1 ISZERO PUSH2 0x5FA JUMPI PUSH1 0x0 DUP1 REVERT JUMPDEST POP PUSH2 0x4B6 PUSH1 0x40 MLOAD DUP1 PUSH1 0x40 ADD PUSH1 0x40 MSTORE DUP1 PUSH1 0x13 DUP2 MSTORE PUSH1 0x20 ADD PUSH19 0x1A1D1D1C1CCE8BCBD95B185CDD1A58CB9B1BDB PUSH1 0x6A SHL DUP2 MSTORE POP DUP2 JUMP JUMPDEST CALLVALUE DUP1 ISZERO PUSH2 0x639 JUMPI PUSH1 0x0 DUP1 REVERT JUMPDEST POP PUSH2 0x48E PUSH1 0x5 DUP2 JUMP JUMPDEST CALLVALUE DUP1 ISZERO PUSH2 0x64E JUMPI PUSH1 0x0 DUP1 REVERT JUMPDEST POP PUSH2 0x48E PUSH1 0xF DUP2 JUMP JUMPDEST CALLVALUE DUP1 ISZERO PUSH2 0x663 JUMPI PUSH1 0x0 DUP1 REVERT JUMPDEST POP PUSH2 0x48E PUSH2 0x672 CALLDATASIZE PUSH1 0x4 PUSH2 0x43C3 JUMP JUMPDEST PUSH1 0x17 PUSH1 0x20 SWAP1 DUP2 MSTORE PUSH1 0x0 SWAP3 DUP4 MSTORE PUSH1 0x40 DUP1 DUP5 KECCAK256 SWAP1 SWAP2 MSTORE SWAP1 DUP3 MSTORE SWAP1 KECCAK256 SLOAD DUP2 JUMP JUMPDEST CALLVALUE DUP1 ISZERO PUSH2 0x69B JUMPI PUSH1 0x0 DUP1 REVERT JUMPDEST POP PUSH1 0xD SLOAD PUSH2 0x6A9 SWAP1 PUSH1 0xFF AND DUP2 JUMP JUMPDEST PUSH1 0x40 MLOAD PUSH1 0xFF SWAP1 SWAP2 AND DUP2 MSTORE PUSH1 0x20 ADD PUSH2 0x498 JUMP JUMPDEST CALLVALUE DUP1 ISZERO PUSH2 0x6C7 JUMPI PUSH1 0x0 DUP1 REVERT JUMPDEST POP PUSH2 0x48E PUSH10 0xD3C21BCECCEDA1000000 DUP2 JUMP JUMPDEST CALLVALUE DUP1 ISZERO PUSH2 0x6E5 JUMPI PUSH1 0x0 DUP1 REVERT JUMPDEST POP PUSH2 0x6EE PUSH2 0xF3E JUMP JUMPDEST STOP JUMPDEST CALLVALUE DUP1 ISZERO PUSH2 0x6FC JUMPI PUSH1 0x0 DUP1 REVERT JUMPDEST POP PUSH2 0x48E PUSH9 0x3635C9ADC5DEA00000 DUP2 JUMP JUMPDEST CALLVALUE DUP1 ISZERO PUSH2 0x719 JUMPI PUSH1 0x0 DUP1 REVERT JUMPDEST POP PUSH2 0x72D PUSH2 0x728 CALLDATASIZE PUSH1 0x4 PUSH2 0x4373 JUMP JUMPDEST PUSH2 0xFC9 JUMP JUMPDEST PUSH1 0x40 MLOAD PUSH2 0x498 SWAP10 SWAP9 SWAP8 SWAP7 SWAP6 SWAP5 SWAP4 SWAP3 SWAP2 SWAP1 PUSH2 0x43E5 JUMP JUMPDEST CALLVALUE DUP1 ISZERO PUSH2 0x74E JUMPI PUSH1 0x0 DUP1 REVERT JUMPDEST POP PUSH2 0x48E PUSH2 0x75D CALLDATASIZE PUSH1 0x4 PUSH2 0x4506 JUMP JUMPDEST PUSH2 0x10A8 JUMP JUMPDEST PUSH2 0x6EE PUSH2 0x770 CALLDATASIZE PUSH1 0x4 PUSH2 0x4373 JUMP JUMPDEST PUSH2 0x10D8 JUMP JUMPDEST CALLVALUE DUP1 ISZERO PUSH2 0x781 JUMPI PUSH1 0x0 DUP1 REVERT JUMPDEST POP PUSH2 0x59C PUSH2 0x790 CALLDATASIZE PUSH1 0x4 PUSH2 0x453B JUMP JUMPDEST PUSH2 0x1498 JUMP JUMPDEST CALLVALUE DUP1 ISZERO PUSH2 0x7A1 JUMPI PUSH1 0x0 DUP1 REVERT JUMPDEST POP PUSH2 0x6EE PUSH2 0x1594 JUMP JUMPDEST CALLVALUE DUP1 ISZERO PUSH2 0x7B6 JUMPI PUSH1 0x0 DUP1 REVERT JUMPDEST POP PUSH2 0x48E PUSH1 0x1D SLOAD DUP2 JUMP JUMPDEST CALLVALUE DUP1 ISZERO PUSH2 0x7CC JUMPI PUSH1 0x0 DUP1 REVERT JUMPDEST POP PUSH2 0x6EE PUSH2 0x7DB CALLDATASIZE PUSH1 0x4 PUSH2 0x4373 JUMP JUMPDEST PUSH2 0x16AE JUMP JUMPDEST CALLVALUE DUP1 ISZERO PUSH2 0x7EC JUMPI PUSH1 0x0 DUP1 REVERT JUMPDEST POP PUSH2 0x59C PUSH2 0x7FB CALLDATASIZE PUSH1 0x4 PUSH2 0x4570 JUMP JUMPDEST PUSH2 0x1849 JUMP JUMPDEST CALLVALUE DUP1 ISZERO PUSH2 0x80C JUMPI PUSH1 0x0 DUP1 REVERT JUMPDEST POP PUSH2 0x6EE PUSH2 0x81B CALLDATASIZE PUSH1 0x4 PUSH2 0x45B4 JUMP JUMPDEST PUSH2 0x1A12 JUMP JUMPDEST CALLVALUE DUP1 ISZERO PUSH2 0x82C JUMPI PUSH1 0x0 DUP1 REVERT JUMPDEST POP PUSH2 0x6EE PUSH2 0x1B0C JUMP JUMPDEST CALLVALUE DUP1 ISZERO PUSH2 0x841 JUMPI PUSH1 0x0 DUP1 REVERT JUMPDEST POP PUSH2 0x48E PUSH2 0xE10 DUP2 JUMP JUMPDEST CALLVALUE DUP1 ISZERO PUSH2 0x857 JUMPI PUSH1 0x0 DUP1 REVERT JUMPDEST POP PUSH2 0x6EE PUSH2 0x1E1E JUMP JUMPDEST CALLVALUE DUP1 ISZERO PUSH2 0x86C JUMPI PUSH1 0x0 DUP1 REVERT JUMPDEST POP PUSH2 0x48E PUSH2 0x87B CALLDATASIZE PUSH1 0x4 PUSH2 0x4506 JUMP JUMPDEST DUP1 MLOAD PUSH1 0x20 DUP2 DUP4 ADD DUP2 ADD DUP1 MLOAD PUSH1 0x1A DUP3 MSTORE SWAP3 DUP3 ADD SWAP2 SWAP1 SWAP4 ADD KECCAK256 SWAP2 MSTORE SLOAD DUP2 JUMP JUMPDEST CALLVALUE DUP1 ISZERO PUSH2 0x8A4 JUMPI PUSH1 0x0 DUP1 REVERT JUMPDEST POP PUSH2 0x48E PUSH2 0x3E8 DUP2 JUMP JUMPDEST CALLVALUE DUP1 ISZERO PUSH2 0x8BA JUMPI PUSH1 0x0 DUP1 REVERT JUMPDEST POP PUSH2 0x48E PUSH3 0x15180 DUP2 JUMP JUMPDEST CALLVALUE DUP1 ISZERO PUSH2 0x8D1 JUMPI PUSH1 0x0 DUP1 REVERT JUMPDEST POP PUSH2 0x48E PUSH2 0x8E0 CALLDATASIZE PUSH1 0x4 PUSH2 0x4373 JUMP JUMPDEST PUSH2 0x1E93 JUMP JUMPDEST CALLVALUE DUP1 ISZERO PUSH2 0x8F1 JUMPI PUSH1 0x0 DUP1 REVERT JUMPDEST POP PUSH2 0x48E PUSH2 0x900 CALLDATASIZE PUSH1 0x4 PUSH2 0x4626 JUMP JUMPDEST PUSH2 0x203F JUMP JUMPDEST CALLVALUE DUP1 ISZERO PUSH2 0x911 JUMPI PUSH1 0x0 DUP1 REVERT JUMPDEST POP PUSH2 0x4B6 PUSH2 0x20A8 JUMP JUMPDEST CALLVALUE DUP1 ISZERO PUSH2 0x926 JUMPI PUSH1 0x0 DUP1 REVERT JUMPDEST POP PUSH2 0x4B6 PUSH2 0x20CB JUMP JUMPDEST CALLVALUE DUP1 ISZERO PUSH2 0x93B JUMPI PUSH1 0x0 DUP1 REVERT JUMPDEST POP PUSH2 0x48E PUSH1 0x4 SLOAD DUP2 JUMP JUMPDEST CALLVALUE DUP1 ISZERO PUSH2 0x951 JUMPI PUSH1 0x0 DUP1 REVERT JUMPDEST POP PUSH2 0x48E PUSH1 0x14 SLOAD DUP2 JUMP JUMPDEST CALLVALUE DUP1 ISZERO PUSH2 0x967 JUMPI PUSH1 0x0 DUP1 REVERT JUMPDEST POP PUSH1 0x5 SLOAD PUSH2 0x97B SWAP1 PUSH1 0x1 PUSH1 0x1 PUSH1 0xA0 SHL SUB AND DUP2 JUMP JUMPDEST PUSH1 0x40 MLOAD PUSH1 0x1 PUSH1 0x1 PUSH1 0xA0 SHL SUB SWAP1 SWAP2 AND DUP2 MSTORE PUSH1 0x20 ADD PUSH2 0x498 JUMP JUMPDEST CALLVALUE DUP1 ISZERO PUSH2 0x99F JUMPI PUSH1 0x0 DUP1 REVERT JUMPDEST POP PUSH2 0x48E PUSH2 0x9AE CALLDATASIZE PUSH1 0x4 PUSH2 0x4373 JUMP JUMPDEST PUSH2 0x20D8 JUMP JUMPDEST CALLVALUE DUP1 ISZERO PUSH2 0x9BF JUMPI PUSH1 0x0 DUP1 REVERT JUMPDEST POP PUSH2 0x48E PUSH2 0x9CE CALLDATASIZE PUSH1 0x4 PUSH2 0x4652 JUMP JUMPDEST PUSH1 0x2 PUSH1 0x20 SWAP1 DUP2 MSTORE PUSH1 0x0 SWAP3 DUP4 MSTORE PUSH1 0x40 SWAP1 SWAP3 KECCAK256 DUP2 MLOAD DUP1 DUP4 ADD DUP5 ADD DUP1 MLOAD SWAP3 DUP2 MSTORE SWAP1 DUP5 ADD SWAP3 SWAP1 SWAP4 ADD SWAP2 SWAP1 SWAP2 KECCAK256 SWAP2 MSTORE SLOAD DUP2 JUMP JUMPDEST CALLVALUE DUP1 ISZERO PUSH2 0xA08 JUMPI PUSH1 0x0 DUP1 REVERT JUMPDEST POP PUSH2 0xA43 PUSH2 0xA17 CALLDATASIZE PUSH1 0x4 PUSH2 0x4626 JUMP JUMPDEST PUSH1 0x7 PUSH1 0x20 SWAP1 DUP2 MSTORE PUSH1 0x0 SWAP3 DUP4 MSTORE PUSH1 0x40 DUP1 DUP5 KECCAK256 SWAP1 SWAP2 MSTORE SWAP1 DUP3 MSTORE SWAP1 KECCAK256 DUP1 SLOAD PUSH1 0x1 DUP3 ADD SLOAD PUSH1 0x2 SWAP1 SWAP3 ADD SLOAD SWAP1 SWAP2 SWAP1 DUP4 JUMP JUMPDEST PUSH1 0x40 DUP1 MLOAD SWAP4 DUP5 MSTORE PUSH1 0x20 DUP5 ADD SWAP3 SWAP1 SWAP3 MSTORE SWAP1 DUP3 ADD MSTORE PUSH1 0x60 ADD PUSH2 0x498 JUMP JUMPDEST CALLVALUE DUP1 ISZERO PUSH2 0xA6A JUMPI PUSH1 0x0 DUP1 REVERT JUMPDEST POP PUSH2 0x4B6 PUSH2 0x20F9 JUMP JUMPDEST CALLVALUE DUP1 ISZERO PUSH2 0xA7F JUMPI PUSH1 0x0 DUP1 REVERT JUMPDEST POP PUSH2 0x6EE PUSH2 0xA8E CALLDATASIZE PUSH1 0x4 PUSH2 0x43A8 JUMP JUMPDEST PUSH2 0x2106 JUMP JUMPDEST CALLVALUE DUP1 ISZERO PUSH2 0xA9F JUMPI PUSH1 0x0 DUP1 REVERT JUMPDEST POP PUSH1 0x9 SLOAD PUSH2 0x48E JUMP JUMPDEST CALLVALUE DUP1 ISZERO PUSH2 0xAB4 JUMPI PUSH1 0x0 DUP1 REVERT JUMPDEST POP PUSH2 0xAC8 PUSH2 0xAC3 CALLDATASIZE PUSH1 0x4 PUSH2 0x45B4 JUMP JUMPDEST PUSH2 0x2249 JUMP JUMPDEST PUSH1 0x40 DUP1 MLOAD PUSH1 0x1 PUSH1 0x1 PUSH1 0xA0 SHL SUB SWAP1 SWAP6 AND DUP6 MSTORE PUSH1 0x20 DUP6 ADD SWAP4 SWAP1 SWAP4 MSTORE SWAP2 DUP4 ADD MSTORE ISZERO ISZERO PUSH1 0x60 DUP3 ADD MSTORE PUSH1 0x80 ADD PUSH2 0x498 JUMP JUMPDEST CALLVALUE DUP1 ISZERO PUSH2 0xB00 JUMPI PUSH1 0x0 DUP1 REVERT JUMPDEST POP PUSH2 0x48E PUSH4 0x5F5E100 DUP2 JUMP JUMPDEST CALLVALUE DUP1 ISZERO PUSH2 0xB18 JUMPI PUSH1 0x0 DUP1 REVERT JUMPDEST POP PUSH2 0x48E PUSH1 0x1 DUP2 JUMP JUMPDEST CALLVALUE DUP1 ISZERO PUSH2 0xB2D JUMPI PUSH1 0x0 DUP1 REVERT JUMPDEST POP PUSH2 0xB63 PUSH2 0xB3C CALLDATASIZE PUSH1 0x4 PUSH2 0x43A8 JUMP JUMPDEST PUSH1 0x13 PUSH1 0x20 MSTORE PUSH1 0x0 SWAP1 DUP2 MSTORE PUSH1 0x40 SWAP1 KECCAK256 DUP1 SLOAD PUSH1 0x1 DUP3 ADD SLOAD PUSH1 0x2 DUP4 ADD SLOAD PUSH1 0x3 SWAP1 SWAP4 ADD SLOAD SWAP2 SWAP3 SWAP1 SWAP2 DUP5 JUMP JUMPDEST PUSH1 0x40 DUP1 MLOAD SWAP5 DUP6 MSTORE PUSH1 0x20 DUP6 ADD SWAP4 SWAP1 SWAP4 MSTORE SWAP2 DUP4 ADD MSTORE PUSH1 0x60 DUP3 ADD MSTORE PUSH1 0x80 ADD PUSH2 0x498 JUMP JUMPDEST CALLVALUE DUP1 ISZERO PUSH2 0xB8F JUMPI PUSH1 0x0 DUP1 REVERT JUMPDEST POP PUSH2 0x6EE PUSH2 0xB9E CALLDATASIZE PUSH1 0x4 PUSH2 0x43A8 JUMP JUMPDEST PUSH2 0x22D1 JUMP JUMPDEST CALLVALUE DUP1 ISZERO PUSH2 0xBAF JUMPI PUSH1 0x0 DUP1 REVERT JUMPDEST POP PUSH2 0x4B6 PUSH2 0xBBE CALLDATASIZE PUSH1 0x4 PUSH2 0x4373 JUMP JUMPDEST PUSH2 0x2412 JUMP JUMPDEST CALLVALUE DUP1 ISZERO PUSH2 0xBCF JUMPI PUSH1 0x0 DUP1 REVERT JUMPDEST POP PUSH2 0x6EE PUSH2 0x242B JUMP JUMPDEST CALLVALUE DUP1 ISZERO PUSH2 0xBE4 JUMPI PUSH1 0x0 DUP1 REVERT JUMPDEST POP PUSH2 0x48E PUSH1 0x11 SLOAD DUP2 JUMP JUMPDEST CALLVALUE DUP1 ISZERO PUSH2 0xBFA JUMPI PUSH1 0x0 DUP1 REVERT JUMPDEST POP PUSH2 0x48E PUSH1 0x6 SLOAD DUP2 JUMP JUMPDEST CALLVALUE DUP1 ISZERO PUSH2 0xC10 JUMPI PUSH1 0x0 DUP1 REVERT JUMPDEST POP PUSH2 0x6EE PUSH2 0xC1F CALLDATASIZE PUSH1 0x4 PUSH2 0x46A0 JUMP JUMPDEST PUSH2 0x24C7 JUMP JUMPDEST CALLVALUE DUP1 ISZERO PUSH2 0xC30 JUMPI PUSH1 0x0 DUP1 REVERT JUMPDEST POP PUSH2 0x48E PUSH1 0x8 DUP2 JUMP JUMPDEST CALLVALUE DUP1 ISZERO PUSH2 0xC45 JUMPI PUSH1 0x0 DUP1 REVERT JUMPDEST POP PUSH2 0x59C PUSH2 0xC54 CALLDATASIZE PUSH1 0x4 PUSH2 0x453B JUMP JUMPDEST PUSH2 0x29FF JUMP JUMPDEST PUSH2 0x6EE PUSH2 0xC67 CALLDATASIZE PUSH1 0x4 PUSH2 0x43C3 JUMP JUMPDEST PUSH2 0x2A60 JUMP JUMPDEST CALLVALUE DUP1 ISZERO PUSH2 0xC78 JUMPI PUSH1 0x0 DUP1 REVERT JUMPDEST POP PUSH2 0x48E PUSH2 0xC87 CALLDATASIZE PUSH1 0x4 PUSH2 0x4626 JUMP JUMPDEST PUSH1 0xE PUSH1 0x20 SWAP1 DUP2 MSTORE PUSH1 0x0 SWAP3 DUP4 MSTORE PUSH1 0x40 DUP1 DUP5 KECCAK256 SWAP1 SWAP2 MSTORE SWAP1 DUP3 MSTORE SWAP1 KECCAK256 SLOAD DUP2 JUMP JUMPDEST CALLVALUE DUP1 ISZERO PUSH2 0xCB0 JUMPI PUSH1 0x0 DUP1 REVERT JUMPDEST POP PUSH2 0xCC4 PUSH2 0xCBF CALLDATASIZE PUSH1 0x4 PUSH2 0x4626 JUMP JUMPDEST PUSH2 0x3274 JUMP JUMPDEST PUSH1 0x40 DUP1 MLOAD SWAP3 ISZERO ISZERO DUP4 MSTORE PUSH1 0x20 DUP4 ADD SWAP2 SWAP1 SWAP2 MSTORE ADD PUSH2 0x498 JUMP JUMPDEST CALLVALUE DUP1 ISZERO PUSH2 0xCE7 JUMPI PUSH1 0x0 DUP1 REVERT JUMPDEST POP PUSH2 0x4B6 PUSH2 0x32D7 JUMP JUMPDEST CALLVALUE DUP1 ISZERO PUSH2 0xCFC JUMPI PUSH1 0x0 DUP1 REVERT JUMPDEST POP PUSH2 0x48E PUSH2 0x3A98 DUP2 JUMP JUMPDEST PUSH2 0x48E PUSH2 0xD14 CALLDATASIZE PUSH1 0x4 PUSH2 0x43C3 JUMP JUMPDEST PUSH2 0x32E4 JUMP JUMPDEST CALLVALUE DUP1 ISZERO PUSH2 0xD25 JUMPI PUSH1 0x0 DUP1 REVERT JUMPDEST POP PUSH2 0x48E PUSH2 0xD34 CALLDATASIZE PUSH1 0x4 PUSH2 0x4373 JUMP JUMPDEST PUSH1 0xF PUSH1 0x20 MSTORE PUSH1 0x0 SWAP1 DUP2 MSTORE PUSH1 0x40 SWAP1 KECCAK256 SLOAD DUP2 JUMP JUMPDEST CALLVALUE DUP1 ISZERO PUSH2 0xD52 JUMPI PUSH1 0x0 DUP1 REVERT JUMPDEST POP PUSH2 0x48E PUSH2 0xD61 CALLDATASIZE PUSH1 0x4 PUSH2 0x4373 JUMP JUMPDEST PUSH1 0x1C PUSH1 0x20 MSTORE PUSH1 0x0 SWAP1 DUP2 MSTORE PUSH1 0x40 SWAP1 KECCAK256 SLOAD DUP2 JUMP JUMPDEST CALLVALUE DUP1 ISZERO PUSH2 0xD7F JUMPI PUSH1 0x0 DUP1 REVERT JUMPDEST POP PUSH2 0x48E PUSH2 0xD8E CALLDATASIZE PUSH1 0x4 PUSH2 0x46DC JUMP JUMPDEST PUSH1 0x1B PUSH1 0x20 SWAP1 DUP2 MSTORE PUSH1 0x0 SWAP4 DUP5 MSTORE PUSH1 0x40 DUP1 DUP6 KECCAK256 DUP3 MSTORE SWAP3 DUP5 MSTORE DUP3 DUP5 KECCAK256 SWAP1 MSTORE DUP3 MSTORE SWAP1 KECCAK256 SLOAD DUP2 JUMP JUMPDEST CALLVALUE DUP1 ISZERO PUSH2 0xDBD JUMPI PUSH1 0x0 DUP1 REVERT JUMPDEST POP PUSH2 0x48E PUSH2 0x1388 DUP2 JUMP JUMPDEST CALLVALUE DUP1 ISZERO PUSH2 0xDD3 JUMPI PUSH1 0x0 DUP1 REVERT JUMPDEST POP PUSH2 0x6EE PUSH2 0xDE2 CALLDATASIZE PUSH1 0x4 PUSH2 0x43A8 JUMP JUMPDEST PUSH2 0x391D JUMP JUMPDEST CALLVALUE DUP1 ISZERO PUSH2 0xDF3 JUMPI PUSH1 0x0 DUP1 REVERT JUMPDEST POP PUSH2 0xE07 PUSH2 0xE02 CALLDATASIZE PUSH1 0x4 PUSH2 0x4373 JUMP JUMPDEST PUSH2 0x39B1 JUMP JUMPDEST PUSH1 0x40 DUP1 MLOAD SWAP6 DUP7 MSTORE PUSH1 0x20 DUP7 ADD SWAP5 SWAP1 SWAP5 MSTORE SWAP3 DUP5 ADD SWAP2 SWAP1 SWAP2 MSTORE PUSH1 0x60 DUP4 ADD MSTORE PUSH1 0x80 DUP3 ADD MSTORE PUSH1 0xA0 ADD PUSH2 0x498 JUMP JUMPDEST CALLVALUE DUP1 ISZERO PUSH2 0xE3B JUMPI PUSH1 0x0 DUP1 REVERT JUMPDEST POP PUSH2 0x6EE PUSH2 0xE4A CALLDATASIZE PUSH1 0x4 PUSH2 0x43C3 JUMP JUMPDEST POP POP JUMP JUMPDEST CALLVALUE DUP1 ISZERO PUSH2 0xE5A JUMPI PUSH1 0x0 DUP1 REVERT JUMPDEST POP PUSH2 0xE6E PUSH2 0xE69 CALLDATASIZE PUSH1 0x4 PUSH2 0x43A8 JUMP JUMPDEST PUSH2 0x3ABF JUMP JUMPDEST PUSH1 0x40 MLOAD PUSH2 0x498 SWAP6 SWAP5 SWAP4 SWAP3 SWAP2 SWAP1 PUSH2 0x4718 JUMP JUMPDEST CALLVALUE DUP1 ISZERO PUSH2 0xE8B JUMPI PUSH1 0x0 DUP1 REVERT JUMPDEST POP PUSH2 0x4B6 PUSH1 0x40 MLOAD DUP1 PUSH1 0x40 ADD PUSH1 0x40 MSTORE DUP1 PUSH1 0x5 DUP2 MSTORE PUSH1 0x20 ADD PUSH5 0x312E302E3 PUSH1 0xDC SHL DUP2 MSTORE POP DUP2 JUMP JUMPDEST PUSH1 0xA DUP1 SLOAD PUSH2 0xEBD SWAP1 PUSH2 0x474F JUMP JUMPDEST DUP1 PUSH1 0x1F ADD PUSH1 0x20 DUP1 SWAP2 DIV MUL PUSH1 0x20 ADD PUSH1 0x40 MLOAD SWAP1 DUP2 ADD PUSH1 0x40 MSTORE DUP1 SWAP3 SWAP2 SWAP1 DUP2 DUP2 MSTORE PUSH1 0x20 ADD DUP3 DUP1 SLOAD PUSH2 0xEE9 SWAP1 PUSH2 0x474F JUMP JUMPDEST DUP1 ISZERO PUSH2 0xF36 JUMPI DUP1 PUSH1 0x1F LT PUSH2 0xF0B JUMPI PUSH2 0x100 DUP1 DUP4 SLOAD DIV MUL DUP4 MSTORE SWAP2 PUSH1 0x20 ADD SWAP2 PUSH2 0xF36 JUMP JUMPDEST DUP3 ADD SWAP2 SWAP1 PUSH1 0x0 MSTORE PUSH1 0x20 PUSH1 0x0 KECCAK256 SWAP1 JUMPDEST DUP2 SLOAD DUP2 MSTORE SWAP1 PUSH1 0x1 ADD SWAP1 PUSH1 0x20 ADD DUP1 DUP4 GT PUSH2 0xF19 JUMPI DUP3 SWAP1 SUB PUSH1 0x1F AND DUP3 ADD SWAP2 JUMPDEST POP POP POP POP POP DUP2 JUMP JUMPDEST CALLER PUSH1 0x0 SWAP1 DUP2 MSTORE PUSH1 0x3 PUSH1 0x20 MSTORE PUSH1 0x40 SWAP1 KECCAK256 SLOAD PUSH1 0xFF AND PUSH2 0xF94 JUMPI PUSH1 0x40 MLOAD PUSH3 0x461BCD PUSH1 0xE5 SHL DUP2 MSTORE PUSH1 0x20 PUSH1 0x4 DUP3 ADD MSTORE PUSH1 0xF PUSH1 0x24 DUP3 ADD MSTORE PUSH15 0x2737BA1030B71037B832B930BA37B9 PUSH1 0x89 SHL PUSH1 0x44 DUP3 ADD MSTORE PUSH1 0x64 ADD JUMPDEST PUSH1 0x40 MLOAD DUP1 SWAP2 SUB SWAP1 REVERT JUMPDEST PUSH1 0x40 MLOAD CALLER DUP2 MSTORE PUSH32 0x1FC1E771236D2E93BB9541CDCB4654BA0FD3FB615B48D829B7B365F039985126 SWAP1 PUSH1 0x20 ADD PUSH1 0x40 MLOAD DUP1 SWAP2 SUB SWAP1 LOG1 JUMP JUMPDEST PUSH1 0x8 PUSH1 0x20 MSTORE PUSH1 0x0 SWAP1 DUP2 MSTORE PUSH1 0x40 SWAP1 KECCAK256 DUP1 SLOAD PUSH1 0x1 DUP3 ADD DUP1 SLOAD SWAP2 SWAP3 SWAP2 PUSH2 0xFEB SWAP1 PUSH2 0x474F JUMP JUMPDEST DUP1 PUSH1 0x1F ADD PUSH1 0x20 DUP1 SWAP2 DIV MUL PUSH1 0x20 ADD PUSH1 0x40 MLOAD SWAP1 DUP2 ADD PUSH1 0x40 MSTORE DUP1 SWAP3 SWAP2 SWAP1 DUP2 DUP2 MSTORE PUSH1 0x20 ADD DUP3 DUP1 SLOAD PUSH2 0x1017 SWAP1 PUSH2 0x474F JUMP JUMPDEST DUP1 ISZERO PUSH2 0x1064 JUMPI DUP1 PUSH1 0x1F LT PUSH2 0x1039 JUMPI PUSH2 0x100 DUP1 DUP4 SLOAD DIV MUL DUP4 MSTORE SWAP2 PUSH1 0x20 ADD SWAP2 PUSH2 0x1064 JUMP JUMPDEST DUP3 ADD SWAP2 SWAP1 PUSH1 0x0 MSTORE PUSH1 0x20 PUSH1 0x0 KECCAK256 SWAP1 JUMPDEST DUP2 SLOAD DUP2 MSTORE SWAP1 PUSH1 0x1 ADD SWAP1 PUSH1 0x20 ADD DUP1 DUP4 GT PUSH2 0x1047 JUMPI DUP3 SWAP1 SUB PUSH1 0x1F AND DUP3 ADD SWAP2 JUMPDEST POP POP POP PUSH1 0x2 DUP5 ADD SLOAD PUSH1 0x3 DUP6 ADD SLOAD PUSH1 0x4 DUP7 ADD SLOAD PUSH1 0x5 DUP8 ADD SLOAD PUSH1 0x6 DUP9 ADD SLOAD PUSH1 0x7 DUP10 ADD SLOAD PUSH1 0x8 SWAP1 SWAP10 ADD SLOAD SWAP8 SWAP9 PUSH1 0x1 PUSH1 0x1 PUSH1 0xA0 SHL SUB SWAP1 SWAP6 AND SWAP8 SWAP4 SWAP7 POP SWAP2 SWAP5 POP PUSH1 0xFF AND SWAP3 SWAP1 SWAP2 DUP10 JUMP JUMPDEST PUSH1 0x0 DUP2 PUSH1 0x40 MLOAD PUSH1 0x20 ADD PUSH2 0x10BB SWAP2 SWAP1 PUSH2 0x4789 JUMP JUMPDEST PUSH1 0x40 MLOAD PUSH1 0x20 DUP2 DUP4 SUB SUB DUP2 MSTORE SWAP1 PUSH1 0x40 MSTORE DUP1 MLOAD SWAP1 PUSH1 0x20 ADD KECCAK256 SWAP1 POP SWAP2 SWAP1 POP JUMP JUMPDEST PUSH1 0x2 PUSH1 0x0 SLOAD SUB PUSH2 0x10FA JUMPI PUSH1 0x40 MLOAD PUSH3 0x461BCD PUSH1 0xE5 SHL DUP2 MSTORE PUSH1 0x4 ADD PUSH2 0xF8B SWAP1 PUSH2 0x47A5 JUMP JUMPDEST PUSH1 0x2 PUSH1 0x0 DUP2 DUP2 SSTORE PUSH1 0x40 DUP1 MLOAD DUP1 DUP3 ADD DUP3 MSTORE PUSH1 0x4 DUP2 MSTORE PUSH4 0x6C6F6E67 PUSH1 0xE0 SHL PUSH1 0x20 DUP1 DUP4 ADD SWAP2 SWAP1 SWAP2 MSTORE CALLER DUP5 MSTORE SWAP4 SWAP1 SWAP4 MSTORE SWAP1 DUP2 SWAP1 KECCAK256 SWAP1 MLOAD NUMBER SWAP2 PUSH1 0x1 SWAP2 PUSH2 0x113C SWAP1 DUP6 SWAP1 PUSH2 0x4789 JUMP JUMPDEST SWAP1 DUP2 MSTORE PUSH1 0x20 ADD PUSH1 0x40 MLOAD DUP1 SWAP2 SUB SWAP1 KECCAK256 SLOAD PUSH2 0x1155 SWAP2 SWAP1 PUSH2 0x47F2 JUMP JUMPDEST LT PUSH2 0x1172 JUMPI PUSH1 0x40 MLOAD PUSH3 0x461BCD PUSH1 0xE5 SHL DUP2 MSTORE PUSH1 0x4 ADD PUSH2 0xF8B SWAP1 PUSH2 0x4805 JUMP JUMPDEST CALLER PUSH1 0x0 SWAP1 DUP2 MSTORE PUSH1 0x2 PUSH1 0x20 MSTORE PUSH1 0x40 SWAP1 DUP2 SWAP1 KECCAK256 SWAP1 MLOAD NUMBER SWAP2 SWAP1 PUSH2 0x1193 SWAP1 DUP5 SWAP1 PUSH2 0x4789 JUMP JUMPDEST SWAP1 DUP2 MSTORE PUSH1 0x20 ADD PUSH1 0x40 MLOAD DUP1 SWAP2 SUB SWAP1 KECCAK256 DUP2 SWAP1 SSTORE POP PUSH1 0x0 PUSH1 0x19 PUSH1 0x0 DUP5 DUP2 MSTORE PUSH1 0x20 ADD SWAP1 DUP2 MSTORE PUSH1 0x20 ADD PUSH1 0x0 KECCAK256 DUP1 SLOAD PUSH2 0x11C5 SWAP1 PUSH2 0x474F JUMP JUMPDEST DUP1 PUSH1 0x1F ADD PUSH1 0x20 DUP1 SWAP2 DIV MUL PUSH1 0x20 ADD PUSH1 0x40 MLOAD SWAP1 DUP2 ADD PUSH1 0x40 MSTORE DUP1 SWAP3 SWAP2 SWAP1 DUP2 DUP2 MSTORE PUSH1 0x20 ADD DUP3 DUP1 SLOAD PUSH2 0x11F1 SWAP1 PUSH2 0x474F JUMP JUMPDEST DUP1 ISZERO PUSH2 0x123E JUMPI DUP1 PUSH1 0x1F LT PUSH2 0x1213 JUMPI PUSH2 0x100 DUP1 DUP4 SLOAD DIV MUL DUP4 MSTORE SWAP2 PUSH1 0x20 ADD SWAP2 PUSH2 0x123E JUMP JUMPDEST DUP3 ADD SWAP2 SWAP1 PUSH1 0x0 MSTORE PUSH1 0x20 PUSH1 0x0 KECCAK256 SWAP1 JUMPDEST DUP2 SLOAD DUP2 MSTORE SWAP1 PUSH1 0x1 ADD SWAP1 PUSH1 0x20 ADD DUP1 DUP4 GT PUSH2 0x1221 JUMPI DUP3 SWAP1 SUB PUSH1 0x1F AND DUP3 ADD SWAP2 JUMPDEST POP POP POP POP POP SWAP1 POP PUSH1 0x0 DUP2 MLOAD GT PUSH2 0x1266 JUMPI PUSH1 0x40 MLOAD PUSH3 0x461BCD PUSH1 0xE5 SHL DUP2 MSTORE PUSH1 0x4 ADD PUSH2 0xF8B SWAP1 PUSH2 0x484C JUMP JUMPDEST PUSH1 0x0 PUSH1 0x8 PUSH1 0x0 PUSH2 0x1275 DUP5 PUSH2 0x10A8 JUMP JUMPDEST DUP2 MSTORE PUSH1 0x20 DUP2 ADD SWAP2 SWAP1 SWAP2 MSTORE PUSH1 0x40 ADD PUSH1 0x0 KECCAK256 PUSH1 0x5 DUP2 ADD SLOAD SWAP1 SWAP2 POP PUSH1 0xFF AND PUSH2 0x12AC JUMPI PUSH1 0x40 MLOAD PUSH3 0x461BCD PUSH1 0xE5 SHL DUP2 MSTORE PUSH1 0x4 ADD PUSH2 0xF8B SWAP1 PUSH2 0x4877 JUMP JUMPDEST PUSH7 0x2386F26FC10000 CALLVALUE LT ISZERO PUSH2 0x12F2 JUMPI PUSH1 0x40 MLOAD PUSH3 0x461BCD PUSH1 0xE5 SHL DUP2 MSTORE PUSH1 0x20 PUSH1 0x4 DUP3 ADD MSTORE PUSH1 0xC PUSH1 0x24 DUP3 ADD MSTORE PUSH12 0x9AD2DC40605C6062408AA89 PUSH1 0xA3 SHL PUSH1 0x44 DUP3 ADD MSTORE PUSH1 0x64 ADD PUSH2 0xF8B JUMP JUMPDEST CALLER PUSH1 0x0 SWAP1 DUP2 MSTORE PUSH1 0x13 PUSH1 0x20 MSTORE PUSH1 0x40 SWAP1 KECCAK256 PUSH1 0x1 ADD SLOAD ISZERO PUSH2 0x1344 JUMPI PUSH1 0x40 MLOAD PUSH3 0x461BCD PUSH1 0xE5 SHL DUP2 MSTORE PUSH1 0x20 PUSH1 0x4 DUP3 ADD MSTORE PUSH1 0xF PUSH1 0x24 DUP3 ADD MSTORE PUSH15 0x506F736974696F6E20657869737473 PUSH1 0x88 SHL PUSH1 0x44 DUP3 ADD MSTORE PUSH1 0x64 ADD PUSH2 0xF8B JUMP JUMPDEST PUSH1 0x2 DUP2 ADD SLOAD PUSH1 0x40 DUP1 MLOAD PUSH4 0x3FABE5A3 PUSH1 0xE2 SHL DUP2 MSTORE SWAP1 MLOAD PUSH1 0x0 SWAP3 PUSH1 0x1 PUSH1 0x1 PUSH1 0xA0 SHL SUB AND SWAP2 PUSH4 0xFEAF968C SWAP2 PUSH1 0x4 DUP1 DUP4 ADD SWAP3 PUSH1 0xA0 SWAP3 SWAP2 SWAP1 DUP3 SWAP1 SUB ADD DUP2 DUP7 GAS STATICCALL ISZERO DUP1 ISZERO PUSH2 0x1390 JUMPI RETURNDATASIZE PUSH1 0x0 DUP1 RETURNDATACOPY RETURNDATASIZE PUSH1 0x0 REVERT JUMPDEST POP POP POP POP PUSH1 0x40 MLOAD RETURNDATASIZE PUSH1 0x1F NOT PUSH1 0x1F DUP3 ADD AND DUP3 ADD DUP1 PUSH1 0x40 MSTORE POP DUP2 ADD SWAP1 PUSH2 0x13B4 SWAP2 SWAP1 PUSH2 0x48B9 JUMP JUMPDEST POP POP POP SWAP2 POP POP PUSH1 0x0 DUP2 SGT PUSH2 0x13DA JUMPI PUSH1 0x40 MLOAD PUSH3 0x461BCD PUSH1 0xE5 SHL DUP2 MSTORE PUSH1 0x4 ADD PUSH2 0xF8B SWAP1 PUSH2 0x4909 JUMP JUMPDEST PUSH1 0x40 MLOAD DUP1 PUSH1 0x80 ADD PUSH1 0x40 MSTORE DUP1 PUSH2 0x13EE DUP6 PUSH2 0x10A8 JUMP JUMPDEST DUP2 MSTORE CALLVALUE PUSH1 0x20 DUP1 DUP4 ADD DUP3 SWAP1 MSTORE PUSH1 0x40 DUP1 DUP5 ADD DUP7 SWAP1 MSTORE TIMESTAMP PUSH1 0x60 SWAP5 DUP6 ADD MSTORE CALLER PUSH1 0x0 SWAP1 DUP2 MSTORE PUSH1 0x13 DUP4 MSTORE DUP2 DUP2 KECCAK256 DUP7 MLOAD DUP2 SSTORE SWAP3 DUP7 ADD MLOAD PUSH1 0x1 DUP5 ADD SSTORE SWAP1 DUP6 ADD MLOAD PUSH1 0x2 DUP4 ADD SSTORE SWAP4 SWAP1 SWAP3 ADD MLOAD PUSH1 0x3 SWAP1 SWAP3 ADD SWAP2 SWAP1 SWAP2 SSTORE PUSH1 0x14 DUP1 SLOAD SWAP2 SWAP3 SWAP1 SWAP2 PUSH2 0x144C SWAP1 DUP5 SWAP1 PUSH2 0x47F2 JUMP JUMPDEST SWAP1 SWAP2 SSTORE POP POP PUSH1 0x40 DUP1 MLOAD CALLVALUE DUP2 MSTORE PUSH1 0x20 DUP2 ADD DUP4 SWAP1 MSTORE CALLER SWAP2 PUSH32 0xF4BA3EBCD3C40319F1834BAA786A0F71B5A4B6015ADDB0DB1FCF2B1377F64E1B SWAP2 ADD PUSH1 0x40 MLOAD DUP1 SWAP2 SUB SWAP1 LOG2 POP POP PUSH1 0x1 PUSH1 0x0 SSTORE POP POP POP JUMP JUMPDEST PUSH1 0x0 DUP4 DUP2 MSTORE PUSH1 0xE PUSH1 0x20 SWAP1 DUP2 MSTORE PUSH1 0x40 DUP1 DUP4 KECCAK256 CALLER DUP5 MSTORE SWAP1 SWAP2 MSTORE DUP2 KECCAK256 SLOAD DUP3 GT ISZERO PUSH2 0x14F5 JUMPI PUSH1 0x40 MLOAD PUSH3 0x461BCD PUSH1 0xE5 SHL DUP2 MSTORE PUSH1 0x20 PUSH1 0x4 DUP3 ADD MSTORE PUSH1 0x11 PUSH1 0x24 DUP3 ADD MSTORE PUSH17 0x4E6F7420656E6F75676820746F6B656E73 PUSH1 0x78 SHL PUSH1 0x44 DUP3 ADD MSTORE PUSH1 0x64 ADD PUSH2 0xF8B JUMP JUMPDEST PUSH1 0x0 DUP5 DUP2 MSTORE PUSH1 0xE PUSH1 0x20 SWAP1 DUP2 MSTORE PUSH1 0x40 DUP1 DUP4 KECCAK256 CALLER DUP5 MSTORE SWAP1 SWAP2 MSTORE DUP2 KECCAK256 DUP1 SLOAD DUP5 SWAP3 SWAP1 PUSH2 0x151E SWAP1 DUP5 SWAP1 PUSH2 0x4930 JUMP JUMPDEST SWAP1 SWAP2 SSTORE POP POP PUSH1 0x0 DUP5 DUP2 MSTORE PUSH1 0xE PUSH1 0x20 SWAP1 DUP2 MSTORE PUSH1 0x40 DUP1 DUP4 KECCAK256 PUSH1 0x1 PUSH1 0x1 PUSH1 0xA0 SHL SUB DUP8 AND DUP5 MSTORE SWAP1 SWAP2 MSTORE DUP2 KECCAK256 DUP1 SLOAD DUP5 SWAP3 SWAP1 PUSH2 0x1555 SWAP1 DUP5 SWAP1 PUSH2 0x47F2 JUMP JUMPDEST SWAP1 SWAP2 SSTORE POP POP PUSH1 0x40 MLOAD DUP3 DUP2 MSTORE PUSH1 0x1 PUSH1 0x1 PUSH1 0xA0 SHL SUB DUP5 AND SWAP1 CALLER SWAP1 PUSH1 0x0 DUP1 MLOAD PUSH1 0x20 PUSH2 0x4E5E DUP4 CODECOPY DUP2 MLOAD SWAP2 MSTORE SWAP1 PUSH1 0x20 ADD JUMPDEST PUSH1 0x40 MLOAD DUP1 SWAP2 SUB SWAP1 LOG3 POP PUSH1 0x1 JUMPDEST SWAP4 SWAP3 POP POP POP JUMP JUMPDEST PUSH1 0x5 SLOAD PUSH1 0x1 PUSH1 0x1 PUSH1 0xA0 SHL SUB AND CALLER EQ PUSH2 0x15BE JUMPI PUSH1 0x40 MLOAD PUSH3 0x461BCD PUSH1 0xE5 SHL DUP2 MSTORE PUSH1 0x4 ADD PUSH2 0xF8B SWAP1 PUSH2 0x4943 JUMP JUMPDEST PUSH1 0x0 PUSH1 0x6 SLOAD GT PUSH2 0x1607 JUMPI PUSH1 0x40 MLOAD PUSH3 0x461BCD PUSH1 0xE5 SHL DUP2 MSTORE PUSH1 0x20 PUSH1 0x4 DUP3 ADD MSTORE PUSH1 0x14 PUSH1 0x24 DUP3 ADD MSTORE PUSH20 0x4E6F20746178657320746F207769746864726177 PUSH1 0x60 SHL PUSH1 0x44 DUP3 ADD MSTORE PUSH1 0x64 ADD PUSH2 0xF8B JUMP JUMPDEST PUSH1 0x6 DUP1 SLOAD PUSH1 0x0 SWAP2 DUP3 SWAP1 SSTORE PUSH1 0x5 SLOAD PUSH1 0x40 MLOAD SWAP2 SWAP3 SWAP2 PUSH1 0x1 PUSH1 0x1 PUSH1 0xA0 SHL SUB SWAP1 SWAP2 AND SWAP1 DUP4 SWAP1 DUP4 DUP2 DUP2 DUP2 DUP6 DUP8 GAS CALL SWAP3 POP POP POP RETURNDATASIZE DUP1 PUSH1 0x0 DUP2 EQ PUSH2 0x1660 JUMPI PUSH1 0x40 MLOAD SWAP2 POP PUSH1 0x1F NOT PUSH1 0x3F RETURNDATASIZE ADD AND DUP3 ADD PUSH1 0x40 MSTORE RETURNDATASIZE DUP3 MSTORE RETURNDATASIZE PUSH1 0x0 PUSH1 0x20 DUP5 ADD RETURNDATACOPY PUSH2 0x1665 JUMP JUMPDEST PUSH1 0x60 SWAP2 POP JUMPDEST POP POP SWAP1 POP DUP1 PUSH2 0xE4A JUMPI PUSH1 0x40 MLOAD PUSH3 0x461BCD PUSH1 0xE5 SHL DUP2 MSTORE PUSH1 0x20 PUSH1 0x4 DUP3 ADD MSTORE PUSH1 0x15 PUSH1 0x24 DUP3 ADD MSTORE PUSH21 0x15185E081DDA5D1A191C985DD85B0819985A5B1959 PUSH1 0x5A SHL PUSH1 0x44 DUP3 ADD MSTORE PUSH1 0x64 ADD PUSH2 0xF8B JUMP JUMPDEST PUSH1 0x5 SLOAD PUSH1 0x1 PUSH1 0x1 PUSH1 0xA0 SHL SUB AND CALLER EQ PUSH2 0x16D8 JUMPI PUSH1 0x40 MLOAD PUSH3 0x461BCD PUSH1 0xE5 SHL DUP2 MSTORE PUSH1 0x4 ADD PUSH2 0xF8B SWAP1 PUSH2 0x4943 JUMP JUMPDEST PUSH1 0x0 DUP2 DUP2 MSTORE PUSH1 0x1C PUSH1 0x20 MSTORE PUSH1 0x40 SWAP1 KECCAK256 SLOAD PUSH2 0x1728 JUMPI PUSH1 0x40 MLOAD PUSH3 0x461BCD PUSH1 0xE5 SHL DUP2 MSTORE PUSH1 0x20 PUSH1 0x4 DUP3 ADD MSTORE PUSH1 0x12 PUSH1 0x24 DUP3 ADD MSTORE PUSH18 0x125B9D985B1A59081DDA5D1A191C985DD85B PUSH1 0x72 SHL PUSH1 0x44 DUP3 ADD MSTORE PUSH1 0x64 ADD PUSH2 0xF8B JUMP JUMPDEST PUSH1 0x0 DUP2 DUP2 MSTORE PUSH1 0x1C PUSH1 0x20 MSTORE PUSH1 0x40 SWAP1 KECCAK256 SLOAD PUSH2 0x1745 SWAP1 PUSH3 0x2A300 SWAP1 PUSH2 0x47F2 JUMP JUMPDEST TIMESTAMP LT ISZERO PUSH2 0x1794 JUMPI PUSH1 0x40 MLOAD PUSH3 0x461BCD PUSH1 0xE5 SHL DUP2 MSTORE PUSH1 0x20 PUSH1 0x4 DUP3 ADD MSTORE PUSH1 0x18 PUSH1 0x24 DUP3 ADD MSTORE PUSH32 0x5769746864726177616C2064656C6179206E6F74206D65740000000000000000 PUSH1 0x44 DUP3 ADD MSTORE PUSH1 0x64 ADD PUSH2 0xF8B JUMP JUMPDEST PUSH1 0x6 DUP1 SLOAD PUSH1 0x0 SWAP2 DUP3 SWAP1 SSTORE DUP3 DUP3 MSTORE PUSH1 0x1C PUSH1 0x20 MSTORE PUSH1 0x40 DUP1 DUP4 KECCAK256 DUP4 SWAP1 SSTORE PUSH1 0x5 SLOAD SWAP1 MLOAD SWAP2 SWAP3 SWAP2 PUSH1 0x1 PUSH1 0x1 PUSH1 0xA0 SHL SUB SWAP1 SWAP2 AND SWAP1 DUP4 SWAP1 DUP4 DUP2 DUP2 DUP2 DUP6 DUP8 GAS CALL SWAP3 POP POP POP RETURNDATASIZE DUP1 PUSH1 0x0 DUP2 EQ PUSH2 0x17FC JUMPI PUSH1 0x40 MLOAD SWAP2 POP PUSH1 0x1F NOT PUSH1 0x3F RETURNDATASIZE ADD AND DUP3 ADD PUSH1 0x40 MSTORE RETURNDATASIZE DUP3 MSTORE RETURNDATASIZE PUSH1 0x0 PUSH1 0x20 DUP5 ADD RETURNDATACOPY PUSH2 0x1801 JUMP JUMPDEST PUSH1 0x60 SWAP2 POP JUMPDEST POP POP SWAP1 POP DUP1 PUSH2 0x1844 JUMPI PUSH1 0x40 MLOAD PUSH3 0x461BCD PUSH1 0xE5 SHL DUP2 MSTORE PUSH1 0x20 PUSH1 0x4 DUP3 ADD MSTORE PUSH1 0xF PUSH1 0x24 DUP3 ADD MSTORE PUSH15 0x151C985B9CD9995C8819985A5B1959 PUSH1 0x8A SHL PUSH1 0x44 DUP3 ADD MSTORE PUSH1 0x64 ADD PUSH2 0xF8B JUMP JUMPDEST POP POP POP JUMP JUMPDEST PUSH1 0x0 DUP5 DUP2 MSTORE PUSH1 0xE PUSH1 0x20 SWAP1 DUP2 MSTORE PUSH1 0x40 DUP1 DUP4 KECCAK256 PUSH1 0x1 PUSH1 0x1 PUSH1 0xA0 SHL SUB DUP8 AND DUP5 MSTORE SWAP1 SWAP2 MSTORE DUP2 KECCAK256 SLOAD DUP3 GT ISZERO PUSH2 0x18AF JUMPI PUSH1 0x40 MLOAD PUSH3 0x461BCD PUSH1 0xE5 SHL DUP2 MSTORE PUSH1 0x20 PUSH1 0x4 DUP3 ADD MSTORE PUSH1 0x11 PUSH1 0x24 DUP3 ADD MSTORE PUSH17 0x4E6F7420656E6F75676820746F6B656E73 PUSH1 0x78 SHL PUSH1 0x44 DUP3 ADD MSTORE PUSH1 0x64 ADD PUSH2 0xF8B JUMP JUMPDEST PUSH1 0x0 DUP6 DUP2 MSTORE PUSH1 0x1B PUSH1 0x20 SWAP1 DUP2 MSTORE PUSH1 0x40 DUP1 DUP4 KECCAK256 PUSH1 0x1 PUSH1 0x1 PUSH1 0xA0 SHL SUB DUP9 AND DUP5 MSTORE DUP3 MSTORE DUP1 DUP4 KECCAK256 CALLER DUP5 MSTORE SWAP1 SWAP2 MSTORE SWAP1 KECCAK256 SLOAD DUP3 GT ISZERO PUSH2 0x191D JUMPI PUSH1 0x40 MLOAD PUSH3 0x461BCD PUSH1 0xE5 SHL DUP2 MSTORE PUSH1 0x20 PUSH1 0x4 DUP3 ADD MSTORE PUSH1 0x11 PUSH1 0x24 DUP3 ADD MSTORE PUSH17 0x416C6C6F77616E636520746F6F206C6F77 PUSH1 0x78 SHL PUSH1 0x44 DUP3 ADD MSTORE PUSH1 0x64 ADD PUSH2 0xF8B JUMP JUMPDEST PUSH1 0x0 DUP6 DUP2 MSTORE PUSH1 0x1B PUSH1 0x20 SWAP1 DUP2 MSTORE PUSH1 0x40 DUP1 DUP4 KECCAK256 PUSH1 0x1 PUSH1 0x1 PUSH1 0xA0 SHL SUB DUP9 AND DUP5 MSTORE DUP3 MSTORE DUP1 DUP4 KECCAK256 CALLER DUP5 MSTORE SWAP1 SWAP2 MSTORE DUP2 KECCAK256 DUP1 SLOAD DUP5 SWAP3 SWAP1 PUSH2 0x1957 SWAP1 DUP5 SWAP1 PUSH2 0x4930 JUMP JUMPDEST SWAP1 SWAP2 SSTORE POP POP PUSH1 0x0 DUP6 DUP2 MSTORE PUSH1 0xE PUSH1 0x20 SWAP1 DUP2 MSTORE PUSH1 0x40 DUP1 DUP4 KECCAK256 PUSH1 0x1 PUSH1 0x1 PUSH1 0xA0 SHL SUB DUP9 AND DUP5 MSTORE SWAP1 SWAP2 MSTORE DUP2 KECCAK256 DUP1 SLOAD DUP5 SWAP3 SWAP1 PUSH2 0x198E SWAP1 DUP5 SWAP1 PUSH2 0x4930 JUMP JUMPDEST SWAP1 SWAP2 SSTORE POP POP PUSH1 0x0 DUP6 DUP2 MSTORE PUSH1 0xE PUSH1 0x20 SWAP1 DUP2 MSTORE PUSH1 0x40 DUP1 DUP4 KECCAK256 PUSH1 0x1 PUSH1 0x1 PUSH1 0xA0 SHL SUB DUP8 AND DUP5 MSTORE SWAP1 SWAP2 MSTORE DUP2 KECCAK256 DUP1 SLOAD DUP5 SWAP3 SWAP1 PUSH2 0x19C5 SWAP1 DUP5 SWAP1 PUSH2 0x47F2 JUMP JUMPDEST SWAP3 POP POP DUP2 SWAP1 SSTORE POP DUP3 PUSH1 0x1 PUSH1 0x1 PUSH1 0xA0 SHL SUB AND DUP5 PUSH1 0x1 PUSH1 0x1 PUSH1 0xA0 SHL SUB AND PUSH1 0x0 DUP1 MLOAD PUSH1 0x20 PUSH2 0x4E5E DUP4 CODECOPY DUP2 MLOAD SWAP2 MSTORE DUP5 PUSH1 0x40 MLOAD PUSH2 0x19FF SWAP2 DUP2 MSTORE PUSH1 0x20 ADD SWAP1 JUMP JUMPDEST PUSH1 0x40 MLOAD DUP1 SWAP2 SUB SWAP1 LOG3 POP PUSH1 0x1 SWAP5 SWAP4 POP POP POP POP JUMP JUMPDEST PUSH1 0x0 PUSH2 0x1A53 DUP4 DUP4 DUP1 DUP1 PUSH1 0x1F ADD PUSH1 0x20 DUP1 SWAP2 DIV MUL PUSH1 0x20 ADD PUSH1 0x40 MLOAD SWAP1 DUP2 ADD PUSH1 0x40 MSTORE DUP1 SWAP4 SWAP3 SWAP2 SWAP1 DUP2 DUP2 MSTORE PUSH1 0x20 ADD DUP4 DUP4 DUP1 DUP3 DUP5 CALLDATACOPY PUSH1 0x0 SWAP3 ADD SWAP2 SWAP1 SWAP2 MSTORE POP PUSH2 0x10A8 SWAP3 POP POP POP JUMP JUMPDEST PUSH1 0x0 DUP2 DUP2 MSTORE PUSH1 0x8 PUSH1 0x20 MSTORE PUSH1 0x40 SWAP1 KECCAK256 PUSH1 0x5 ADD SLOAD SWAP1 SWAP2 POP PUSH1 0xFF AND PUSH2 0x1A87 JUMPI PUSH1 0x40 MLOAD PUSH3 0x461BCD PUSH1 0xE5 SHL DUP2 MSTORE PUSH1 0x4 ADD PUSH2 0xF8B SWAP1 PUSH2 0x4877 JUMP JUMPDEST PUSH1 0x5 SLOAD PUSH1 0x1 PUSH1 0x1 PUSH1 0xA0 SHL SUB AND CALLER EQ PUSH2 0x1AB1 JUMPI PUSH1 0x40 MLOAD PUSH3 0x461BCD PUSH1 0xE5 SHL DUP2 MSTORE PUSH1 0x4 ADD PUSH2 0xF8B SWAP1 PUSH2 0x4943 JUMP JUMPDEST PUSH1 0x0 DUP2 DUP2 MSTORE PUSH1 0x8 PUSH1 0x20 MSTORE PUSH1 0x40 SWAP1 DUP2 SWAP1 KECCAK256 PUSH1 0x5 DUP2 ADD DUP1 SLOAD PUSH1 0xFF NOT AND SWAP1 SSTORE SLOAD SWAP1 MLOAD PUSH32 0x64DAD9B3FABDD97633FC4F36F58EDC29AA15F28CBA3A4A760E8C37AFDE9F7EA0 SWAP1 PUSH2 0x1AFF SWAP1 DUP7 SWAP1 DUP7 SWAP1 PUSH2 0x4967 JUMP JUMPDEST PUSH1 0x40 MLOAD DUP1 SWAP2 SUB SWAP1 LOG2 POP POP POP JUMP JUMPDEST PUSH1 0x2 PUSH1 0x0 SLOAD SUB PUSH2 0x1B2E JUMPI PUSH1 0x40 MLOAD PUSH3 0x461BCD PUSH1 0xE5 SHL DUP2 MSTORE PUSH1 0x4 ADD PUSH2 0xF8B SWAP1 PUSH2 0x47A5 JUMP JUMPDEST PUSH1 0x2 PUSH1 0x0 DUP2 DUP2 SSTORE CALLER DUP2 MSTORE PUSH1 0x13 PUSH1 0x20 SWAP1 DUP2 MSTORE PUSH1 0x40 SWAP2 DUP3 SWAP1 KECCAK256 DUP3 MLOAD PUSH1 0x80 DUP2 ADD DUP5 MSTORE DUP2 SLOAD DUP2 MSTORE PUSH1 0x1 DUP3 ADD SLOAD SWAP3 DUP2 ADD DUP4 SWAP1 MSTORE SWAP4 DUP2 ADD SLOAD SWAP3 DUP5 ADD SWAP3 SWAP1 SWAP3 MSTORE PUSH1 0x3 SWAP1 SWAP2 ADD SLOAD PUSH1 0x60 DUP4 ADD MSTORE PUSH2 0x1BAC JUMPI PUSH1 0x40 MLOAD PUSH3 0x461BCD PUSH1 0xE5 SHL DUP2 MSTORE PUSH1 0x20 PUSH1 0x4 DUP3 ADD MSTORE PUSH1 0xB PUSH1 0x24 DUP3 ADD MSTORE PUSH11 0x2737903837B9B4BA34B7B7 PUSH1 0xA9 SHL PUSH1 0x44 DUP3 ADD MSTORE PUSH1 0x64 ADD PUSH2 0xF8B JUMP JUMPDEST DUP1 MLOAD PUSH1 0x0 SWAP1 DUP2 MSTORE PUSH1 0x8 PUSH1 0x20 MSTORE PUSH1 0x40 DUP1 DUP3 KECCAK256 PUSH1 0x2 DUP2 ADD SLOAD DUP3 MLOAD PUSH4 0x3FABE5A3 PUSH1 0xE2 SHL DUP2 MSTORE SWAP3 MLOAD SWAP2 SWAP4 SWAP3 PUSH1 0x1 PUSH1 0x1 PUSH1 0xA0 SHL SUB SWAP1 SWAP2 AND SWAP2 PUSH4 0xFEAF968C SWAP2 PUSH1 0x4 DUP1 DUP3 ADD SWAP3 PUSH1 0xA0 SWAP3 SWAP1 SWAP2 SWAP1 DUP3 SWAP1 SUB ADD DUP2 DUP7 GAS STATICCALL ISZERO DUP1 ISZERO PUSH2 0x1C0A JUMPI RETURNDATASIZE PUSH1 0x0 DUP1 RETURNDATACOPY RETURNDATASIZE PUSH1 0x0 REVERT JUMPDEST POP POP POP POP PUSH1 0x40 MLOAD RETURNDATASIZE PUSH1 0x1F NOT PUSH1 0x1F DUP3 ADD AND DUP3 ADD DUP1 PUSH1 0x40 MSTORE POP DUP2 ADD SWAP1 PUSH2 0x1C2E SWAP2 SWAP1 PUSH2 0x48B9 JUMP JUMPDEST POP POP POP SWAP2 POP POP PUSH1 0x0 DUP2 SGT PUSH2 0x1C54 JUMPI PUSH1 0x40 MLOAD PUSH3 0x461BCD PUSH1 0xE5 SHL DUP2 MSTORE PUSH1 0x4 ADD PUSH2 0xF8B SWAP1 PUSH2 0x4909 JUMP JUMPDEST PUSH1 0x0 DUP4 PUSH1 0x40 ADD MLOAD DUP3 PUSH2 0x1C66 SWAP2 SWAP1 PUSH2 0x4996 JUMP JUMPDEST SWAP1 POP PUSH1 0x0 DUP1 DUP3 SGT ISZERO PUSH2 0x1CF9 JUMPI DUP5 PUSH1 0x40 ADD MLOAD DUP3 DUP7 PUSH1 0x20 ADD MLOAD PUSH2 0x1C87 SWAP2 SWAP1 PUSH2 0x49BD JUMP JUMPDEST PUSH2 0x1C91 SWAP2 SWAP1 PUSH2 0x49EA JUMP JUMPDEST SWAP1 POP DUP4 PUSH1 0x4 ADD SLOAD DUP2 GT ISZERO PUSH2 0x1CDF JUMPI PUSH1 0x40 MLOAD PUSH3 0x461BCD PUSH1 0xE5 SHL DUP2 MSTORE PUSH1 0x20 PUSH1 0x4 DUP3 ADD MSTORE PUSH1 0x15 PUSH1 0x24 DUP3 ADD MSTORE PUSH21 0x496E73756666696369656E74207265736572766573 PUSH1 0x58 SHL PUSH1 0x44 DUP3 ADD MSTORE PUSH1 0x64 ADD PUSH2 0xF8B JUMP JUMPDEST DUP1 DUP5 PUSH1 0x4 ADD PUSH1 0x0 DUP3 DUP3 SLOAD PUSH2 0x1CF3 SWAP2 SWAP1 PUSH2 0x4930 JUMP JUMPDEST SWAP1 SWAP2 SSTORE POP POP JUMPDEST DUP5 PUSH1 0x20 ADD MLOAD PUSH1 0x14 PUSH1 0x0 DUP3 DUP3 SLOAD PUSH2 0x1D0F SWAP2 SWAP1 PUSH2 0x4930 JUMP JUMPDEST SWAP1 SWAP2 SSTORE POP POP CALLER PUSH1 0x0 SWAP1 DUP2 MSTORE PUSH1 0x13 PUSH1 0x20 SWAP1 DUP2 MSTORE PUSH1 0x40 DUP3 KECCAK256 DUP3 DUP2 SSTORE PUSH1 0x1 DUP2 ADD DUP4 SWAP1 SSTORE PUSH1 0x2 DUP2 ADD DUP4 SWAP1 SSTORE PUSH1 0x3 ADD DUP3 SWAP1 SSTORE DUP7 ADD MLOAD PUSH2 0x1D4A SWAP1 DUP4 SWAP1 PUSH2 0x47F2 JUMP JUMPDEST PUSH1 0x40 MLOAD SWAP1 SWAP2 POP PUSH1 0x0 SWAP1 CALLER SWAP1 DUP4 SWAP1 DUP4 DUP2 DUP2 DUP2 DUP6 DUP8 GAS CALL SWAP3 POP POP POP RETURNDATASIZE DUP1 PUSH1 0x0 DUP2 EQ PUSH2 0x1D8F JUMPI PUSH1 0x40 MLOAD SWAP2 POP PUSH1 0x1F NOT PUSH1 0x3F RETURNDATASIZE ADD AND DUP3 ADD PUSH1 0x40 MSTORE RETURNDATASIZE DUP3 MSTORE RETURNDATASIZE PUSH1 0x0 PUSH1 0x20 DUP5 ADD RETURNDATACOPY PUSH2 0x1D94 JUMP JUMPDEST PUSH1 0x60 SWAP2 POP JUMPDEST POP POP SWAP1 POP DUP1 PUSH2 0x1DDB JUMPI PUSH1 0x40 MLOAD PUSH3 0x461BCD PUSH1 0xE5 SHL DUP2 MSTORE PUSH1 0x20 PUSH1 0x4 DUP3 ADD MSTORE PUSH1 0x13 PUSH1 0x24 DUP3 ADD MSTORE PUSH19 0x115512081D1C985B9CD9995C8819985A5B1959 PUSH1 0x6A SHL PUSH1 0x44 DUP3 ADD MSTORE PUSH1 0x64 ADD PUSH2 0xF8B JUMP JUMPDEST PUSH1 0x40 MLOAD DUP4 DUP2 MSTORE CALLER SWAP1 PUSH32 0xE26FEAB862B8DC2729BD359C56323C001EF16CD20EAE9FC4E0D461A6F0F29F15 SWAP1 PUSH1 0x20 ADD PUSH1 0x40 MLOAD DUP1 SWAP2 SUB SWAP1 LOG2 POP POP PUSH1 0x1 PUSH1 0x0 SSTORE POP POP POP POP POP JUMP JUMPDEST PUSH1 0x0 JUMPDEST PUSH1 0x9 SLOAD DUP2 LT ISZERO PUSH2 0x1E90 JUMPI PUSH1 0x0 PUSH1 0x9 DUP3 DUP2 SLOAD DUP2 LT PUSH2 0x1E40 JUMPI PUSH2 0x1E40 PUSH2 0x49FE JUMP JUMPDEST PUSH1 0x0 SWAP2 DUP3 MSTORE PUSH1 0x20 DUP1 DUP4 KECCAK256 SWAP1 SWAP2 ADD SLOAD DUP1 DUP4 MSTORE PUSH1 0x8 SWAP1 SWAP2 MSTORE PUSH1 0x40 SWAP1 SWAP2 KECCAK256 PUSH1 0x5 DUP2 ADD SLOAD SWAP2 SWAP3 POP SWAP1 PUSH1 0xFF AND PUSH2 0x1E72 JUMPI POP POP PUSH2 0x1E7E JUMP JUMPDEST PUSH2 0x1E7B DUP3 PUSH2 0x3CC4 JUMP JUMPDEST POP POP JUMPDEST DUP1 PUSH2 0x1E88 DUP2 PUSH2 0x4A14 JUMP JUMPDEST SWAP2 POP POP PUSH2 0x1E21 JUMP JUMPDEST POP JUMP JUMPDEST PUSH1 0x0 DUP2 DUP2 MSTORE PUSH1 0x19 PUSH1 0x20 MSTORE PUSH1 0x40 DUP2 KECCAK256 DUP1 SLOAD DUP3 SWAP2 SWAP1 PUSH2 0x1EAF SWAP1 PUSH2 0x474F JUMP JUMPDEST DUP1 PUSH1 0x1F ADD PUSH1 0x20 DUP1 SWAP2 DIV MUL PUSH1 0x20 ADD PUSH1 0x40 MLOAD SWAP1 DUP2 ADD PUSH1 0x40 MSTORE DUP1 SWAP3 SWAP2 SWAP1 DUP2 DUP2 MSTORE PUSH1 0x20 ADD DUP3 DUP1 SLOAD PUSH2 0x1EDB SWAP1 PUSH2 0x474F JUMP JUMPDEST DUP1 ISZERO PUSH2 0x1F28 JUMPI DUP1 PUSH1 0x1F LT PUSH2 0x1EFD JUMPI PUSH2 0x100 DUP1 DUP4 SLOAD DIV MUL DUP4 MSTORE SWAP2 PUSH1 0x20 ADD SWAP2 PUSH2 0x1F28 JUMP JUMPDEST DUP3 ADD SWAP2 SWAP1 PUSH1 0x0 MSTORE PUSH1 0x20 PUSH1 0x0 KECCAK256 SWAP1 JUMPDEST DUP2 SLOAD DUP2 MSTORE SWAP1 PUSH1 0x1 ADD SWAP1 PUSH1 0x20 ADD DUP1 DUP4 GT PUSH2 0x1F0B JUMPI DUP3 SWAP1 SUB PUSH1 0x1F AND DUP3 ADD SWAP2 JUMPDEST POP POP POP POP POP SWAP1 POP PUSH1 0x0 DUP2 MLOAD GT PUSH2 0x1F50 JUMPI PUSH1 0x40 MLOAD PUSH3 0x461BCD PUSH1 0xE5 SHL DUP2 MSTORE PUSH1 0x4 ADD PUSH2 0xF8B SWAP1 PUSH2 0x484C JUMP JUMPDEST PUSH1 0x0 PUSH1 0x8 PUSH1 0x0 PUSH2 0x1F5F DUP5 PUSH2 0x10A8 JUMP JUMPDEST DUP2 MSTORE PUSH1 0x20 DUP2 ADD SWAP2 SWAP1 SWAP2 MSTORE PUSH1 0x40 ADD PUSH1 0x0 KECCAK256 PUSH1 0x5 DUP2 ADD SLOAD SWAP1 SWAP2 POP PUSH1 0xFF AND PUSH2 0x1F96 JUMPI PUSH1 0x40 MLOAD PUSH3 0x461BCD PUSH1 0xE5 SHL DUP2 MSTORE PUSH1 0x4 ADD PUSH2 0xF8B SWAP1 PUSH2 0x4877 JUMP JUMPDEST DUP1 PUSH1 0x2 ADD PUSH1 0x0 SWAP1 SLOAD SWAP1 PUSH2 0x100 EXP SWAP1 DIV PUSH1 0x1 PUSH1 0x1 PUSH1 0xA0 SHL SUB AND PUSH1 0x1 PUSH1 0x1 PUSH1 0xA0 SHL SUB AND PUSH4 0xFEAF968C PUSH1 0x40 MLOAD DUP2 PUSH4 0xFFFFFFFF AND PUSH1 0xE0 SHL DUP2 MSTORE PUSH1 0x4 ADD PUSH1 0xA0 PUSH1 0x40 MLOAD DUP1 DUP4 SUB DUP2 DUP7 GAS STATICCALL ISZERO DUP1 ISZERO PUSH2 0x1FEB JUMPI RETURNDATASIZE PUSH1 0x0 DUP1 RETURNDATACOPY RETURNDATASIZE PUSH1 0x0 REVERT JUMPDEST POP POP POP POP PUSH1 0x40 MLOAD RETURNDATASIZE PUSH1 0x1F NOT PUSH1 0x1F DUP3 ADD AND DUP3 ADD DUP1 PUSH1 0x40 MSTORE POP DUP2 ADD SWAP1 PUSH2 0x200F SWAP2 SWAP1 PUSH2 0x48B9 JUMP JUMPDEST POP SWAP2 SWAP6 POP POP PUSH1 0x0 DUP6 SGT SWAP2 POP PUSH2 0x2038 SWAP1 POP JUMPI PUSH1 0x40 MLOAD PUSH3 0x461BCD PUSH1 0xE5 SHL DUP2 MSTORE PUSH1 0x4 ADD PUSH2 0xF8B SWAP1 PUSH2 0x4909 JUMP JUMPDEST POP POP SWAP2 SWAP1 POP JUMP JUMPDEST PUSH1 0x0 DUP3 DUP2 MSTORE PUSH1 0x7 PUSH1 0x20 SWAP1 DUP2 MSTORE PUSH1 0x40 DUP1 DUP4 KECCAK256 PUSH1 0x1 PUSH1 0x1 PUSH1 0xA0 SHL SUB DUP6 AND DUP5 MSTORE DUP3 MSTORE DUP1 DUP4 KECCAK256 DUP2 MLOAD PUSH1 0x60 DUP2 ADD DUP4 MSTORE DUP2 SLOAD DUP1 DUP3 MSTORE PUSH1 0x1 DUP4 ADD SLOAD SWAP5 DUP3 ADD SWAP5 SWAP1 SWAP5 MSTORE PUSH1 0x2 SWAP1 SWAP2 ADD SLOAD SWAP2 DUP2 ADD SWAP2 SWAP1 SWAP2 MSTORE SWAP1 PUSH2 0x2093 JUMPI PUSH1 0x0 PUSH2 0x209E JUMP JUMPDEST DUP1 MLOAD PUSH2 0x209E SWAP1 PUSH2 0x4A2D JUMP JUMPDEST SWAP2 POP POP JUMPDEST SWAP3 SWAP2 POP POP JUMP JUMPDEST PUSH1 0x60 PUSH1 0x40 MLOAD DUP1 PUSH2 0x160 ADD PUSH1 0x40 MSTORE DUP1 PUSH2 0x123 DUP2 MSTORE PUSH1 0x20 ADD PUSH2 0x4E7E PUSH2 0x123 SWAP2 CODECOPY SWAP1 POP SWAP1 JUMP JUMPDEST PUSH1 0xC DUP1 SLOAD PUSH2 0xEBD SWAP1 PUSH2 0x474F JUMP JUMPDEST PUSH1 0x9 DUP2 DUP2 SLOAD DUP2 LT PUSH2 0x20E8 JUMPI PUSH1 0x0 DUP1 REVERT JUMPDEST PUSH1 0x0 SWAP2 DUP3 MSTORE PUSH1 0x20 SWAP1 SWAP2 KECCAK256 ADD SLOAD SWAP1 POP DUP2 JUMP JUMPDEST PUSH1 0xB DUP1 SLOAD PUSH2 0xEBD SWAP1 PUSH2 0x474F JUMP JUMPDEST PUSH1 0x5 SLOAD PUSH1 0x1 PUSH1 0x1 PUSH1 0xA0 SHL SUB AND CALLER EQ PUSH2 0x2130 JUMPI PUSH1 0x40 MLOAD PUSH3 0x461BCD PUSH1 0xE5 SHL DUP2 MSTORE PUSH1 0x4 ADD PUSH2 0xF8B SWAP1 PUSH2 0x4943 JUMP JUMPDEST PUSH1 0x1 PUSH1 0x1 PUSH1 0xA0 SHL SUB DUP2 AND PUSH1 0x0 SWAP1 DUP2 MSTORE PUSH1 0x3 PUSH1 0x20 MSTORE PUSH1 0x40 SWAP1 KECCAK256 SLOAD PUSH1 0xFF AND ISZERO PUSH2 0x218C JUMPI PUSH1 0x40 MLOAD PUSH3 0x461BCD PUSH1 0xE5 SHL DUP2 MSTORE PUSH1 0x20 PUSH1 0x4 DUP3 ADD MSTORE PUSH1 0x10 PUSH1 0x24 DUP3 ADD MSTORE PUSH16 0x20B63932B0B23C9037B832B930BA37B9 PUSH1 0x81 SHL PUSH1 0x44 DUP3 ADD MSTORE PUSH1 0x64 ADD PUSH2 0xF8B JUMP JUMPDEST PUSH1 0x5 PUSH1 0x4 SLOAD LT PUSH2 0x21D3 JUMPI PUSH1 0x40 MLOAD PUSH3 0x461BCD PUSH1 0xE5 SHL DUP2 MSTORE PUSH1 0x20 PUSH1 0x4 DUP3 ADD MSTORE PUSH1 0x12 PUSH1 0x24 DUP3 ADD MSTORE PUSH18 0x546F6F206D616E79206F70657261746F7273 PUSH1 0x70 SHL PUSH1 0x44 DUP3 ADD MSTORE PUSH1 0x64 ADD PUSH2 0xF8B JUMP JUMPDEST PUSH1 0x1 PUSH1 0x1 PUSH1 0xA0 SHL SUB DUP2 AND PUSH1 0x0 SWAP1 DUP2 MSTORE PUSH1 0x3 PUSH1 0x20 MSTORE PUSH1 0x40 DUP2 KECCAK256 DUP1 SLOAD PUSH1 0xFF NOT AND PUSH1 0x1 OR SWAP1 SSTORE PUSH1 0x4 DUP1 SLOAD SWAP2 PUSH2 0x2204 DUP4 PUSH2 0x4A14 JUMP JUMPDEST SWAP1 SWAP2 SSTORE POP POP PUSH1 0x40 MLOAD PUSH1 0x1 PUSH1 0x1 PUSH1 0xA0 SHL SUB DUP3 AND DUP2 MSTORE PUSH32 0xAC6FA858E9350A46CEC16539926E0FDE25B7629F84B5A72BFFAAE4DF888AE86D SWAP1 PUSH1 0x20 ADD JUMPDEST PUSH1 0x40 MLOAD DUP1 SWAP2 SUB SWAP1 LOG1 POP JUMP JUMPDEST PUSH1 0x0 DUP1 PUSH1 0x0 DUP1 PUSH1 0x0 PUSH2 0x2290 DUP8 DUP8 DUP1 DUP1 PUSH1 0x1F ADD PUSH1 0x20 DUP1 SWAP2 DIV MUL PUSH1 0x20 ADD PUSH1 0x40 MLOAD SWAP1 DUP2 ADD PUSH1 0x40 MSTORE DUP1 SWAP4 SWAP3 SWAP2 SWAP1 DUP2 DUP2 MSTORE PUSH1 0x20 ADD DUP4 DUP4 DUP1 DUP3 DUP5 CALLDATACOPY PUSH1 0x0 SWAP3 ADD SWAP2 SWAP1 SWAP2 MSTORE POP PUSH2 0x10A8 SWAP3 POP POP POP JUMP JUMPDEST PUSH1 0x0 SWAP1 DUP2 MSTORE PUSH1 0x8 PUSH1 0x20 MSTORE PUSH1 0x40 SWAP1 KECCAK256 PUSH1 0x2 DUP2 ADD SLOAD PUSH1 0x3 DUP3 ADD SLOAD PUSH1 0x4 DUP4 ADD SLOAD PUSH1 0x5 SWAP1 SWAP4 ADD SLOAD PUSH1 0x1 PUSH1 0x1 PUSH1 0xA0 SHL SUB SWAP1 SWAP3 AND SWAP11 SWAP1 SWAP10 POP SWAP2 SWAP8 POP PUSH1 0xFF AND SWAP6 POP SWAP4 POP POP POP POP JUMP JUMPDEST PUSH1 0x5 SLOAD PUSH1 0x1 PUSH1 0x1 PUSH1 0xA0 SHL SUB AND CALLER EQ PUSH2 0x22FB JUMPI PUSH1 0x40 MLOAD PUSH3 0x461BCD PUSH1 0xE5 SHL DUP2 MSTORE PUSH1 0x4 ADD PUSH2 0xF8B SWAP1 PUSH2 0x4943 JUMP JUMPDEST PUSH1 0x1 PUSH1 0x1 PUSH1 0xA0 SHL SUB DUP2 AND PUSH1 0x0 SWAP1 DUP2 MSTORE PUSH1 0x3 PUSH1 0x20 MSTORE PUSH1 0x40 SWAP1 KECCAK256 SLOAD PUSH1 0xFF AND PUSH2 0x2352 JUMPI PUSH1 0x40 MLOAD PUSH3 0x461BCD PUSH1 0xE5 SHL DUP2 MSTORE PUSH1 0x20 PUSH1 0x4 DUP3 ADD MSTORE PUSH1 0xC PUSH1 0x24 DUP3 ADD MSTORE PUSH12 0x2737BA1037B832B930BA37B9 PUSH1 0xA1 SHL PUSH1 0x44 DUP3 ADD MSTORE PUSH1 0x64 ADD PUSH2 0xF8B JUMP JUMPDEST PUSH1 0x5 SLOAD PUSH1 0x1 PUSH1 0x1 PUSH1 0xA0 SHL SUB SWAP1 DUP2 AND SWAP1 DUP3 AND SUB PUSH2 0x23A6 JUMPI PUSH1 0x40 MLOAD PUSH3 0x461BCD PUSH1 0xE5 SHL DUP2 MSTORE PUSH1 0x20 PUSH1 0x4 DUP3 ADD MSTORE PUSH1 0x13 PUSH1 0x24 DUP3 ADD MSTORE PUSH19 0x21B0B73737BA103932B6B7BB329037BBB732B9 PUSH1 0x69 SHL PUSH1 0x44 DUP3 ADD MSTORE PUSH1 0x64 ADD PUSH2 0xF8B JUMP JUMPDEST PUSH1 0x1 PUSH1 0x1 PUSH1 0xA0 SHL SUB DUP2 AND PUSH1 0x0 SWAP1 DUP2 MSTORE PUSH1 0x3 PUSH1 0x20 MSTORE PUSH1 0x40 DUP2 KECCAK256 DUP1 SLOAD PUSH1 0xFF NOT AND SWAP1 SSTORE PUSH1 0x4 DUP1 SLOAD SWAP2 PUSH2 0x23D4 DUP4 PUSH2 0x4A49 JUMP JUMPDEST SWAP1 SWAP2 SSTORE POP POP PUSH1 0x40 MLOAD PUSH1 0x1 PUSH1 0x1 PUSH1 0xA0 SHL SUB DUP3 AND DUP2 MSTORE PUSH32 0x80C0B871B97B595B16A7741C1B06FED0C6F6F558639F18CCBCE50724325DC40D SWAP1 PUSH1 0x20 ADD PUSH2 0x223E JUMP JUMPDEST PUSH1 0x19 PUSH1 0x20 MSTORE PUSH1 0x0 SWAP1 DUP2 MSTORE PUSH1 0x40 SWAP1 KECCAK256 DUP1 SLOAD PUSH2 0xEBD SWAP1 PUSH2 0x474F JUMP JUMPDEST PUSH1 0x5 SLOAD PUSH1 0x1 PUSH1 0x1 PUSH1 0xA0 SHL SUB AND CALLER EQ PUSH2 0x2455 JUMPI PUSH1 0x40 MLOAD PUSH3 0x461BCD PUSH1 0xE5 SHL DUP2 MSTORE PUSH1 0x4 ADD PUSH2 0xF8B SWAP1 PUSH2 0x4943 JUMP JUMPDEST PUSH1 0x0 PUSH1 0x6 SLOAD GT PUSH2 0x249E JUMPI PUSH1 0x40 MLOAD PUSH3 0x461BCD PUSH1 0xE5 SHL DUP2 MSTORE PUSH1 0x20 PUSH1 0x4 DUP3 ADD MSTORE PUSH1 0x14 PUSH1 0x24 DUP3 ADD MSTORE PUSH20 0x4E6F20746178657320746F207769746864726177 PUSH1 0x60 SHL PUSH1 0x44 DUP3 ADD MSTORE PUSH1 0x64 ADD PUSH2 0xF8B JUMP JUMPDEST PUSH1 0x1D DUP1 SLOAD PUSH1 0x0 SWAP2 DUP3 PUSH2 0x24AF DUP4 PUSH2 0x4A14 JUMP JUMPDEST SWAP1 SWAP2 SSTORE POP PUSH1 0x0 SWAP1 DUP2 MSTORE PUSH1 0x1C PUSH1 0x20 MSTORE PUSH1 0x40 SWAP1 KECCAK256 TIMESTAMP SWAP1 SSTORE POP JUMP JUMPDEST PUSH1 0x0 DUP3 SWAP1 POP PUSH1 0x0 DUP2 PUSH1 0x1 PUSH1 0x1 PUSH1 0xA0 SHL SUB AND PUSH4 0x7284E416 PUSH1 0x40 MLOAD DUP2 PUSH4 0xFFFFFFFF AND PUSH1 0xE0 SHL DUP2 MSTORE PUSH1 0x4 ADD PUSH1 0x0 PUSH1 0x40 MLOAD DUP1 DUP4 SUB DUP2 DUP7 GAS STATICCALL ISZERO DUP1 ISZERO PUSH2 0x250C JUMPI RETURNDATASIZE PUSH1 0x0 DUP1 RETURNDATACOPY RETURNDATASIZE PUSH1 0x0 REVERT JUMPDEST POP POP POP POP PUSH1 0x40 MLOAD RETURNDATASIZE PUSH1 0x0 DUP3 RETURNDATACOPY PUSH1 0x1F RETURNDATASIZE SWAP1 DUP2 ADD PUSH1 0x1F NOT AND DUP3 ADD PUSH1 0x40 MSTORE PUSH2 0x2534 SWAP2 SWAP1 DUP2 ADD SWAP1 PUSH2 0x4A60 JUMP JUMPDEST SWAP1 POP PUSH1 0x0 DUP4 PUSH2 0x2543 JUMPI DUP2 PUSH2 0x2564 JUMP JUMPDEST DUP2 PUSH1 0x40 MLOAD PUSH1 0x20 ADD PUSH2 0x2554 SWAP2 SWAP1 PUSH2 0x4AD7 JUMP JUMPDEST PUSH1 0x40 MLOAD PUSH1 0x20 DUP2 DUP4 SUB SUB DUP2 MSTORE SWAP1 PUSH1 0x40 MSTORE JUMPDEST SWAP1 POP PUSH1 0x0 DUP2 MLOAD GT PUSH2 0x25A6 JUMPI PUSH1 0x40 MLOAD PUSH3 0x461BCD PUSH1 0xE5 SHL DUP2 MSTORE PUSH1 0x20 PUSH1 0x4 DUP3 ADD MSTORE PUSH1 0xC PUSH1 0x24 DUP3 ADD MSTORE PUSH12 0x115B5C1D1E481CDE5B589BDB PUSH1 0xA2 SHL PUSH1 0x44 DUP3 ADD MSTORE PUSH1 0x64 ADD PUSH2 0xF8B JUMP JUMPDEST PUSH1 0x0 PUSH2 0x25B1 DUP3 PUSH2 0x10A8 JUMP JUMPDEST PUSH1 0x0 DUP2 DUP2 MSTORE PUSH1 0x8 PUSH1 0x20 MSTORE PUSH1 0x40 SWAP1 KECCAK256 PUSH1 0x5 ADD SLOAD SWAP1 SWAP2 POP PUSH1 0xFF AND ISZERO PUSH2 0x260E JUMPI PUSH1 0x40 MLOAD PUSH3 0x461BCD PUSH1 0xE5 SHL DUP2 MSTORE PUSH1 0x20 PUSH1 0x4 DUP3 ADD MSTORE PUSH1 0x15 PUSH1 0x24 DUP3 ADD MSTORE PUSH21 0x53796D626F6C20616C726561647920657869737473 PUSH1 0x58 SHL PUSH1 0x44 DUP3 ADD MSTORE PUSH1 0x64 ADD PUSH2 0xF8B JUMP JUMPDEST PUSH1 0x1A DUP3 PUSH1 0x40 MLOAD PUSH2 0x261E SWAP2 SWAP1 PUSH2 0x4789 JUMP JUMPDEST SWAP1 DUP2 MSTORE PUSH1 0x20 ADD PUSH1 0x40 MLOAD DUP1 SWAP2 SUB SWAP1 KECCAK256 SLOAD PUSH1 0x0 EQ PUSH2 0x266F JUMPI PUSH1 0x40 MLOAD PUSH3 0x461BCD PUSH1 0xE5 SHL DUP2 MSTORE PUSH1 0x20 PUSH1 0x4 DUP3 ADD MSTORE PUSH1 0x10 PUSH1 0x24 DUP3 ADD MSTORE PUSH16 0x53796D626F6C20494420657869737473 PUSH1 0x80 SHL PUSH1 0x44 DUP3 ADD MSTORE PUSH1 0x64 ADD PUSH2 0xF8B JUMP JUMPDEST PUSH1 0x0 DUP1 PUSH1 0x0 DUP1 PUSH1 0x0 DUP9 PUSH1 0x1 PUSH1 0x1 PUSH1 0xA0 SHL SUB AND PUSH4 0xFEAF968C PUSH1 0x40 MLOAD DUP2 PUSH4 0xFFFFFFFF AND PUSH1 0xE0 SHL DUP2 MSTORE PUSH1 0x4 ADD PUSH1 0xA0 PUSH1 0x40 MLOAD DUP1 DUP4 SUB DUP2 DUP7 GAS STATICCALL ISZERO DUP1 ISZERO PUSH2 0x26B5 JUMPI RETURNDATASIZE PUSH1 0x0 DUP1 RETURNDATACOPY RETURNDATASIZE PUSH1 0x0 REVERT JUMPDEST POP POP POP POP PUSH1 0x40 MLOAD RETURNDATASIZE PUSH1 0x1F NOT PUSH1 0x1F DUP3 ADD AND DUP3 ADD DUP1 PUSH1 0x40 MSTORE POP DUP2 ADD SWAP1 PUSH2 0x26D9 SWAP2 SWAP1 PUSH2 0x48B9 JUMP JUMPDEST SWAP5 POP SWAP5 POP SWAP5 POP SWAP5 POP SWAP5 POP PUSH1 0x0 DUP5 SGT PUSH2 0x2703 JUMPI PUSH1 0x40 MLOAD PUSH3 0x461BCD PUSH1 0xE5 SHL DUP2 MSTORE PUSH1 0x4 ADD PUSH2 0xF8B SWAP1 PUSH2 0x4909 JUMP JUMPDEST PUSH2 0x2710 PUSH3 0x15180 TIMESTAMP PUSH2 0x4930 JUMP JUMPDEST DUP3 LT ISZERO PUSH2 0x2754 JUMPI PUSH1 0x40 MLOAD PUSH3 0x461BCD PUSH1 0xE5 SHL DUP2 MSTORE PUSH1 0x20 PUSH1 0x4 DUP3 ADD MSTORE PUSH1 0x12 PUSH1 0x24 DUP3 ADD MSTORE PUSH18 0x141C9A58D94819995959081D1BDBC81BDB19 PUSH1 0x72 SHL PUSH1 0x44 DUP3 ADD MSTORE PUSH1 0x64 ADD PUSH2 0xF8B JUMP JUMPDEST DUP5 PUSH1 0x1 PUSH1 0x1 PUSH1 0x50 SHL SUB AND DUP2 PUSH1 0x1 PUSH1 0x1 PUSH1 0x50 SHL SUB AND LT ISZERO PUSH2 0x27A9 JUMPI PUSH1 0x40 MLOAD PUSH3 0x461BCD PUSH1 0xE5 SHL DUP2 MSTORE PUSH1 0x20 PUSH1 0x4 DUP3 ADD MSTORE PUSH1 0x10 PUSH1 0x24 DUP3 ADD MSTORE PUSH16 0x50726963652066656564207374616C65 PUSH1 0x80 SHL PUSH1 0x44 DUP3 ADD MSTORE PUSH1 0x64 ADD PUSH2 0xF8B JUMP JUMPDEST PUSH1 0x64 DUP6 PUSH1 0x1 PUSH1 0x1 PUSH1 0x50 SHL SUB AND LT ISZERO PUSH2 0x27F8 JUMPI PUSH1 0x40 MLOAD PUSH3 0x461BCD PUSH1 0xE5 SHL DUP2 MSTORE PUSH1 0x20 PUSH1 0x4 DUP3 ADD MSTORE PUSH1 0x12 PUSH1 0x24 DUP3 ADD MSTORE PUSH18 0x5072696365206665656420746F6F206E6577 PUSH1 0x70 SHL PUSH1 0x44 DUP3 ADD MSTORE PUSH1 0x64 ADD PUSH2 0xF8B JUMP JUMPDEST PUSH1 0x18 DUP1 SLOAD SWAP1 PUSH1 0x0 PUSH2 0x2808 DUP4 PUSH2 0x4A14 JUMP JUMPDEST SWAP1 SWAP2 SSTORE POP POP PUSH1 0x18 SLOAD PUSH1 0x0 DUP2 DUP2 MSTORE PUSH1 0x19 PUSH1 0x20 MSTORE PUSH1 0x40 SWAP1 KECCAK256 PUSH2 0x2828 DUP10 DUP3 PUSH2 0x4B4E JUMP JUMPDEST POP DUP1 PUSH1 0x1A DUP10 PUSH1 0x40 MLOAD PUSH2 0x283A SWAP2 SWAP1 PUSH2 0x4789 JUMP JUMPDEST SWAP1 DUP2 MSTORE PUSH1 0x20 ADD PUSH1 0x40 MLOAD DUP1 SWAP2 SUB SWAP1 KECCAK256 DUP2 SWAP1 SSTORE POP PUSH1 0x40 MLOAD DUP1 PUSH2 0x120 ADD PUSH1 0x40 MSTORE DUP1 DUP3 DUP2 MSTORE PUSH1 0x20 ADD DUP10 DUP2 MSTORE PUSH1 0x20 ADD DUP14 PUSH1 0x1 PUSH1 0x1 PUSH1 0xA0 SHL SUB AND DUP2 MSTORE PUSH1 0x20 ADD DUP7 DUP2 MSTORE PUSH1 0x20 ADD PUSH1 0x0 DUP2 MSTORE PUSH1 0x20 ADD PUSH1 0x1 ISZERO ISZERO DUP2 MSTORE PUSH1 0x20 ADD TIMESTAMP DUP2 MSTORE PUSH1 0x20 ADD PUSH1 0x0 DUP2 MSTORE PUSH1 0x20 ADD PUSH1 0x0 DUP2 MSTORE POP PUSH1 0x8 PUSH1 0x0 DUP10 DUP2 MSTORE PUSH1 0x20 ADD SWAP1 DUP2 MSTORE PUSH1 0x20 ADD PUSH1 0x0 KECCAK256 PUSH1 0x0 DUP3 ADD MLOAD DUP2 PUSH1 0x0 ADD SSTORE PUSH1 0x20 DUP3 ADD MLOAD DUP2 PUSH1 0x1 ADD SWAP1 DUP2 PUSH2 0x28CD SWAP2 SWAP1 PUSH2 0x4B4E JUMP JUMPDEST POP PUSH1 0x40 DUP3 ADD MLOAD DUP2 PUSH1 0x2 ADD PUSH1 0x0 PUSH2 0x100 EXP DUP2 SLOAD DUP2 PUSH1 0x1 PUSH1 0x1 PUSH1 0xA0 SHL SUB MUL NOT AND SWAP1 DUP4 PUSH1 0x1 PUSH1 0x1 PUSH1 0xA0 SHL SUB AND MUL OR SWAP1 SSTORE POP PUSH1 0x60 DUP3 ADD MLOAD DUP2 PUSH1 0x3 ADD SSTORE PUSH1 0x80 DUP3 ADD MLOAD DUP2 PUSH1 0x4 ADD SSTORE PUSH1 0xA0 DUP3 ADD MLOAD DUP2 PUSH1 0x5 ADD PUSH1 0x0 PUSH2 0x100 EXP DUP2 SLOAD DUP2 PUSH1 0xFF MUL NOT AND SWAP1 DUP4 ISZERO ISZERO MUL OR SWAP1 SSTORE POP PUSH1 0xC0 DUP3 ADD MLOAD DUP2 PUSH1 0x6 ADD SSTORE PUSH1 0xE0 DUP3 ADD MLOAD DUP2 PUSH1 0x7 ADD SSTORE PUSH2 0x100 DUP3 ADD MLOAD DUP2 PUSH1 0x8 ADD SSTORE SWAP1 POP POP PUSH1 0x9 DUP8 SWAP1 DUP1 PUSH1 0x1 DUP2 SLOAD ADD DUP1 DUP3 SSTORE DUP1 SWAP2 POP POP PUSH1 0x1 SWAP1 SUB SWAP1 PUSH1 0x0 MSTORE PUSH1 0x20 PUSH1 0x0 KECCAK256 ADD PUSH1 0x0 SWAP1 SWAP2 SWAP1 SWAP2 SWAP1 SWAP2 POP SSTORE DUP1 PUSH32 0xEA7454DDDA8966D07C7B7316F29CB523C288E3F4721AB4B48F72D7D720ECB2F2 DUP10 DUP15 PUSH1 0x40 MLOAD PUSH2 0x29AC SWAP3 SWAP2 SWAP1 PUSH2 0x4C0E JUMP JUMPDEST PUSH1 0x40 MLOAD DUP1 SWAP2 SUB SWAP1 LOG2 DUP1 PUSH32 0xA2BF0592340F3CEADADB82BE6C592FD26EC9A925573F4F5F669C1FE8CBDB4A07 DUP10 DUP15 PUSH1 0x0 PUSH1 0x40 MLOAD PUSH2 0x29E9 SWAP4 SWAP3 SWAP2 SWAP1 PUSH2 0x4C38 JUMP JUMPDEST PUSH1 0x40 MLOAD DUP1 SWAP2 SUB SWAP1 LOG2 POP POP POP POP POP POP POP POP POP POP POP POP JUMP JUMPDEST PUSH1 0x0 DUP4 DUP2 MSTORE PUSH1 0x1B PUSH1 0x20 SWAP1 DUP2 MSTORE PUSH1 0x40 DUP1 DUP4 KECCAK256 CALLER DUP1 DUP6 MSTORE SWAP1 DUP4 MSTORE DUP2 DUP5 KECCAK256 PUSH1 0x1 PUSH1 0x1 PUSH1 0xA0 SHL SUB DUP8 AND DUP1 DUP7 MSTORE SWAP4 MSTORE DUP2 DUP5 KECCAK256 DUP6 SWAP1 SSTORE SWAP1 MLOAD PUSH32 0x8C5BE1E5EBEC7D5BD14F71427D1E84F3DD0314C0F7B2291E5B200AC8C7C3B925 SWAP1 PUSH2 0x1581 SWAP1 DUP7 DUP2 MSTORE PUSH1 0x20 ADD SWAP1 JUMP JUMPDEST PUSH1 0x2 PUSH1 0x0 SLOAD SUB PUSH2 0x2A82 JUMPI PUSH1 0x40 MLOAD PUSH3 0x461BCD PUSH1 0xE5 SHL DUP2 MSTORE PUSH1 0x4 ADD PUSH2 0xF8B SWAP1 PUSH2 0x47A5 JUMP JUMPDEST PUSH1 0x2 PUSH1 0x0 DUP2 DUP2 SSTORE PUSH1 0x40 DUP1 MLOAD DUP1 DUP3 ADD DUP3 MSTORE PUSH1 0x4 DUP2 MSTORE PUSH4 0x1CD95B1B PUSH1 0xE2 SHL PUSH1 0x20 DUP1 DUP4 ADD SWAP2 SWAP1 SWAP2 MSTORE CALLER DUP5 MSTORE SWAP4 SWAP1 SWAP4 MSTORE SWAP1 DUP2 SWAP1 KECCAK256 SWAP1 MLOAD NUMBER SWAP2 PUSH1 0x1 SWAP2 PUSH2 0x2AC4 SWAP1 DUP6 SWAP1 PUSH2 0x4789 JUMP JUMPDEST SWAP1 DUP2 MSTORE PUSH1 0x20 ADD PUSH1 0x40 MLOAD DUP1 SWAP2 SUB SWAP1 KECCAK256 SLOAD PUSH2 0x2ADD SWAP2 SWAP1 PUSH2 0x47F2 JUMP JUMPDEST LT PUSH2 0x2AFA JUMPI PUSH1 0x40 MLOAD PUSH3 0x461BCD PUSH1 0xE5 SHL DUP2 MSTORE PUSH1 0x4 ADD PUSH2 0xF8B SWAP1 PUSH2 0x4805 JUMP JUMPDEST CALLER PUSH1 0x0 SWAP1 DUP2 MSTORE PUSH1 0x2 PUSH1 0x20 MSTORE PUSH1 0x40 SWAP1 DUP2 SWAP1 KECCAK256 SWAP1 MLOAD NUMBER SWAP2 SWAP1 PUSH2 0x2B1B SWAP1 DUP5 SWAP1 PUSH2 0x4789 JUMP JUMPDEST SWAP1 DUP2 MSTORE PUSH1 0x20 ADD PUSH1 0x40 MLOAD DUP1 SWAP2 SUB SWAP1 KECCAK256 DUP2 SWAP1 SSTORE POP PUSH1 0x0 PUSH1 0x19 PUSH1 0x0 DUP6 DUP2 MSTORE PUSH1 0x20 ADD SWAP1 DUP2 MSTORE PUSH1 0x20 ADD PUSH1 0x0 KECCAK256 DUP1 SLOAD PUSH2 0x2B4D SWAP1 PUSH2 0x474F JUMP JUMPDEST DUP1 PUSH1 0x1F ADD PUSH1 0x20 DUP1 SWAP2 DIV MUL PUSH1 0x20 ADD PUSH1 0x40 MLOAD SWAP1 DUP2 ADD PUSH1 0x40 MSTORE DUP1 SWAP3 SWAP2 SWAP1 DUP2 DUP2 MSTORE PUSH1 0x20 ADD DUP3 DUP1 SLOAD PUSH2 0x2B79 SWAP1 PUSH2 0x474F JUMP JUMPDEST DUP1 ISZERO PUSH2 0x2BC6 JUMPI DUP1 PUSH1 0x1F LT PUSH2 0x2B9B JUMPI PUSH2 0x100 DUP1 DUP4 SLOAD DIV MUL DUP4 MSTORE SWAP2 PUSH1 0x20 ADD SWAP2 PUSH2 0x2BC6 JUMP JUMPDEST DUP3 ADD SWAP2 SWAP1 PUSH1 0x0 MSTORE PUSH1 0x20 PUSH1 0x0 KECCAK256 SWAP1 JUMPDEST DUP2 SLOAD DUP2 MSTORE SWAP1 PUSH1 0x1 ADD SWAP1 PUSH1 0x20 ADD DUP1 DUP4 GT PUSH2 0x2BA9 JUMPI DUP3 SWAP1 SUB PUSH1 0x1F AND DUP3 ADD SWAP2 JUMPDEST POP POP POP POP POP SWAP1 POP PUSH1 0x0 DUP2 MLOAD GT PUSH2 0x2BEE JUMPI PUSH1 0x40 MLOAD PUSH3 0x461BCD PUSH1 0xE5 SHL DUP2 MSTORE PUSH1 0x4 ADD PUSH2 0xF8B SWAP1 PUSH2 0x484C JUMP JUMPDEST PUSH1 0x0 PUSH1 0x8 PUSH1 0x0 PUSH2 0x2BFD DUP5 PUSH2 0x10A8 JUMP JUMPDEST DUP2 MSTORE PUSH1 0x20 DUP2 ADD SWAP2 SWAP1 SWAP2 MSTORE PUSH1 0x40 ADD PUSH1 0x0 KECCAK256 PUSH1 0x5 DUP2 ADD SLOAD SWAP1 SWAP2 POP PUSH1 0xFF AND PUSH2 0x2C34 JUMPI PUSH1 0x40 MLOAD PUSH3 0x461BCD PUSH1 0xE5 SHL DUP2 MSTORE PUSH1 0x4 ADD PUSH2 0xF8B SWAP1 PUSH2 0x4877 JUMP JUMPDEST PUSH1 0x0 DUP5 GT PUSH2 0x2C84 JUMPI PUSH1 0x40 MLOAD PUSH3 0x461BCD PUSH1 0xE5 SHL DUP2 MSTORE PUSH1 0x20 PUSH1 0x4 DUP3 ADD MSTORE PUSH1 0x17 PUSH1 0x24 DUP3 ADD MSTORE PUSH32 0x416D6F756E74206D75737420626520706F736974697665000000000000000000 PUSH1 0x44 DUP3 ADD MSTORE PUSH1 0x64 ADD PUSH2 0xF8B JUMP JUMPDEST PUSH1 0x0 PUSH1 0x8 PUSH1 0x0 PUSH2 0x2CAE PUSH1 0x40 MLOAD DUP1 PUSH1 0x40 ADD PUSH1 0x40 MSTORE DUP1 PUSH1 0x3 DUP2 MSTORE PUSH1 0x20 ADD PUSH3 0x8AA89 PUSH1 0xEB SHL DUP2 MSTORE POP PUSH2 0x10A8 JUMP JUMPDEST DUP2 MSTORE PUSH1 0x20 ADD SWAP1 DUP2 MSTORE PUSH1 0x20 ADD PUSH1 0x0 KECCAK256 PUSH1 0x2 ADD PUSH1 0x0 SWAP1 SLOAD SWAP1 PUSH2 0x100 EXP SWAP1 DIV PUSH1 0x1 PUSH1 0x1 PUSH1 0xA0 SHL SUB AND PUSH1 0x1 PUSH1 0x1 PUSH1 0xA0 SHL SUB AND PUSH4 0xFEAF968C PUSH1 0x40 MLOAD DUP2 PUSH4 0xFFFFFFFF AND PUSH1 0xE0 SHL DUP2 MSTORE PUSH1 0x4 ADD PUSH1 0xA0 PUSH1 0x40 MLOAD DUP1 DUP4 SUB DUP2 DUP7 GAS STATICCALL ISZERO DUP1 ISZERO PUSH2 0x2D10 JUMPI RETURNDATASIZE PUSH1 0x0 DUP1 RETURNDATACOPY RETURNDATASIZE PUSH1 0x0 REVERT JUMPDEST POP POP POP POP PUSH1 0x40 MLOAD RETURNDATASIZE PUSH1 0x1F NOT PUSH1 0x1F DUP3 ADD AND DUP3 ADD DUP1 PUSH1 0x40 MSTORE POP DUP2 ADD SWAP1 PUSH2 0x2D34 SWAP2 SWAP1 PUSH2 0x48B9 JUMP JUMPDEST POP POP POP SWAP2 POP POP PUSH1 0x0 DUP2 SGT PUSH2 0x2D7E JUMPI PUSH1 0x40 MLOAD PUSH3 0x461BCD PUSH1 0xE5 SHL DUP2 MSTORE PUSH1 0x20 PUSH1 0x4 DUP3 ADD MSTORE PUSH1 0x11 PUSH1 0x24 DUP3 ADD MSTORE PUSH17 0x496E76616C696420455448207072696365 PUSH1 0x78 SHL PUSH1 0x44 DUP3 ADD MSTORE PUSH1 0x64 ADD PUSH2 0xF8B JUMP JUMPDEST PUSH1 0x0 PUSH2 0x2D89 DUP8 PUSH2 0x1E93 JUMP JUMPDEST PUSH1 0xD SLOAD SWAP1 SWAP2 POP PUSH1 0x0 SWAP1 PUSH2 0x2DAD SWAP1 DUP9 SWAP1 DUP5 SWAP1 PUSH2 0x2DA8 SWAP1 PUSH1 0xFF AND PUSH1 0xA PUSH2 0x4D4A JUMP JUMPDEST PUSH2 0x3E04 JUMP JUMPDEST SWAP1 POP PUSH1 0x0 PUSH2 0x2DC7 DUP3 PUSH2 0x2DC1 PUSH1 0x8 PUSH1 0xA PUSH2 0x4D59 JUMP JUMPDEST DUP7 PUSH2 0x3E04 JUMP JUMPDEST SWAP1 POP PUSH1 0x0 PUSH2 0x2710 PUSH2 0x2DDA PUSH2 0x1F4 DUP5 PUSH2 0x49BD JUMP JUMPDEST PUSH2 0x2DE4 SWAP2 SWAP1 PUSH2 0x49EA JUMP JUMPDEST SWAP1 POP PUSH1 0x0 PUSH2 0x2DF2 DUP3 DUP5 PUSH2 0x4930 JUMP JUMPDEST SWAP1 POP DUP2 PUSH1 0x6 PUSH1 0x0 DUP3 DUP3 SLOAD PUSH2 0x2E06 SWAP2 SWAP1 PUSH2 0x47F2 JUMP JUMPDEST SWAP1 SWAP2 SSTORE POP POP PUSH1 0x4 DUP8 ADD SLOAD DUP4 GT ISZERO PUSH2 0x2E56 JUMPI PUSH1 0x40 MLOAD PUSH3 0x461BCD PUSH1 0xE5 SHL DUP2 MSTORE PUSH1 0x20 PUSH1 0x4 DUP3 ADD MSTORE PUSH1 0x14 PUSH1 0x24 DUP3 ADD MSTORE PUSH20 0x496E73756666696369656E742072657365727665 PUSH1 0x60 SHL PUSH1 0x44 DUP3 ADD MSTORE PUSH1 0x64 ADD PUSH2 0xF8B JUMP JUMPDEST PUSH2 0x1F4 DUP8 PUSH1 0x4 ADD SLOAD PUSH2 0x2E68 SWAP2 SWAP1 PUSH2 0x49BD JUMP JUMPDEST PUSH2 0x2E74 DUP5 PUSH2 0x2710 PUSH2 0x49BD JUMP JUMPDEST GT ISZERO PUSH2 0x2EBA JUMPI PUSH1 0x40 MLOAD PUSH3 0x461BCD PUSH1 0xE5 SHL DUP2 MSTORE PUSH1 0x20 PUSH1 0x4 DUP3 ADD MSTORE PUSH1 0x15 PUSH1 0x24 DUP3 ADD MSTORE PUSH21 0x151BDBC81B5D58DA081C1C9A58D9481A5B5C1858DD PUSH1 0x5A SHL PUSH1 0x44 DUP3 ADD MSTORE PUSH1 0x64 ADD PUSH2 0xF8B JUMP JUMPDEST PUSH1 0x0 PUSH2 0x2EC5 DUP10 PUSH2 0x10A8 JUMP JUMPDEST PUSH1 0x0 DUP2 DUP2 MSTORE PUSH1 0xE PUSH1 0x20 SWAP1 DUP2 MSTORE PUSH1 0x40 DUP1 DUP4 KECCAK256 CALLER DUP5 MSTORE SWAP1 SWAP2 MSTORE SWAP1 KECCAK256 SLOAD SWAP1 SWAP2 POP DUP12 DUP2 LT PUSH2 0x2F1C JUMPI PUSH2 0x2EF3 DUP13 DUP3 PUSH2 0x4930 JUMP JUMPDEST PUSH1 0x0 DUP4 DUP2 MSTORE PUSH1 0xE PUSH1 0x20 SWAP1 DUP2 MSTORE PUSH1 0x40 DUP1 DUP4 KECCAK256 CALLER DUP5 MSTORE SWAP1 SWAP2 MSTORE SWAP1 KECCAK256 SSTORE PUSH2 0x2F17 DUP3 DUP14 PUSH2 0x3EBF JUMP JUMPDEST PUSH2 0x305B JUMP JUMPDEST PUSH1 0x0 PUSH1 0x7 PUSH1 0x0 DUP5 DUP2 MSTORE PUSH1 0x20 ADD SWAP1 DUP2 MSTORE PUSH1 0x20 ADD PUSH1 0x0 KECCAK256 PUSH1 0x0 CALLER PUSH1 0x1 PUSH1 0x1 PUSH1 0xA0 SHL SUB AND PUSH1 0x1 PUSH1 0x1 PUSH1 0xA0 SHL SUB AND DUP2 MSTORE PUSH1 0x20 ADD SWAP1 DUP2 MSTORE PUSH1 0x20 ADD PUSH1 0x0 KECCAK256 SWAP1 POP PUSH1 0x0 PUSH2 0x2F87 PUSH2 0x2F7C DUP16 DUP12 PUSH1 0xD PUSH1 0x0 SWAP1 SLOAD SWAP1 PUSH2 0x100 EXP SWAP1 DIV PUSH1 0xFF AND PUSH1 0xA PUSH2 0x2DA8 SWAP2 SWAP1 PUSH2 0x4D4A JUMP JUMPDEST PUSH2 0x3A98 PUSH2 0x2710 PUSH2 0x3E04 JUMP JUMPDEST SWAP1 POP DUP1 CALLVALUE LT ISZERO PUSH2 0x2FF7 JUMPI PUSH1 0x40 MLOAD PUSH3 0x461BCD PUSH1 0xE5 SHL DUP2 MSTORE PUSH1 0x20 PUSH1 0x4 DUP3 ADD MSTORE PUSH1 0x35 PUSH1 0x24 DUP3 ADD MSTORE PUSH32 0x496E73756666696369656E7420636F6C6C61746572616C202D206E6565642031 PUSH1 0x44 DUP3 ADD MSTORE PUSH21 0x353025206F6620706F736974696F6E2076616C7565 PUSH1 0x58 SHL PUSH1 0x64 DUP3 ADD MSTORE PUSH1 0x84 ADD PUSH2 0xF8B JUMP JUMPDEST DUP14 DUP3 PUSH1 0x0 ADD PUSH1 0x0 DUP3 DUP3 SLOAD PUSH2 0x300B SWAP2 SWAP1 PUSH2 0x47F2 JUMP JUMPDEST SWAP3 POP POP DUP2 SWAP1 SSTORE POP CALLVALUE DUP3 PUSH1 0x1 ADD PUSH1 0x0 DUP3 DUP3 SLOAD PUSH2 0x3026 SWAP2 SWAP1 PUSH2 0x47F2 JUMP JUMPDEST SWAP1 SWAP2 SSTORE POP POP PUSH1 0x2 DUP3 ADD SLOAD PUSH1 0x0 SUB PUSH2 0x303F JUMPI PUSH1 0x2 DUP3 ADD DUP10 SWAP1 SSTORE JUMPDEST CALLVALUE DUP12 PUSH1 0x4 ADD PUSH1 0x0 DUP3 DUP3 SLOAD PUSH2 0x3053 SWAP2 SWAP1 PUSH2 0x47F2 JUMP JUMPDEST SWAP1 SWAP2 SSTORE POP POP POP POP JUMPDEST DUP5 DUP10 PUSH1 0x4 ADD PUSH1 0x0 DUP3 DUP3 SLOAD PUSH2 0x306F SWAP2 SWAP1 PUSH2 0x4930 JUMP JUMPDEST SWAP1 SWAP2 SSTORE POP PUSH2 0x3087 SWAP1 POP PUSH2 0x3081 DUP12 PUSH2 0x10A8 JUMP JUMPDEST CALLER PUSH2 0x3F13 JUMP JUMPDEST DUP12 PUSH1 0x16 PUSH1 0x0 PUSH2 0x3095 DUP14 PUSH2 0x10A8 JUMP JUMPDEST DUP2 MSTORE PUSH1 0x20 ADD SWAP1 DUP2 MSTORE PUSH1 0x20 ADD PUSH1 0x0 KECCAK256 PUSH1 0x1 ADD PUSH1 0x0 DUP3 DUP3 SLOAD PUSH2 0x30B5 SWAP2 SWAP1 PUSH2 0x4930 JUMP JUMPDEST SWAP1 SWAP2 SSTORE POP PUSH1 0xE SWAP1 POP PUSH1 0x0 PUSH2 0x30C8 DUP13 PUSH2 0x10A8 JUMP JUMPDEST DUP2 MSTORE PUSH1 0x20 DUP1 DUP3 ADD SWAP3 SWAP1 SWAP3 MSTORE PUSH1 0x40 SWAP1 DUP2 ADD PUSH1 0x0 SWAP1 DUP2 KECCAK256 CALLER DUP3 MSTORE SWAP1 SWAP3 MSTORE DUP2 KECCAK256 SLOAD SWAP1 SUB PUSH2 0x3198 JUMPI PUSH1 0x0 PUSH1 0x16 PUSH1 0x0 PUSH2 0x30FB DUP14 PUSH2 0x10A8 JUMP JUMPDEST DUP2 MSTORE PUSH1 0x20 DUP1 DUP3 ADD SWAP3 SWAP1 SWAP3 MSTORE PUSH1 0x40 SWAP1 DUP2 ADD PUSH1 0x0 SWAP1 DUP2 KECCAK256 CALLER DUP3 MSTORE PUSH1 0x6 ADD SWAP1 SWAP3 MSTORE DUP2 KECCAK256 DUP1 SLOAD PUSH1 0xFF NOT AND SWAP3 ISZERO ISZERO SWAP3 SWAP1 SWAP3 OR SWAP1 SWAP2 SSTORE PUSH1 0x16 SWAP1 PUSH2 0x3137 DUP13 PUSH2 0x10A8 JUMP JUMPDEST DUP2 MSTORE PUSH1 0x20 ADD SWAP1 DUP2 MSTORE PUSH1 0x20 ADD PUSH1 0x0 KECCAK256 PUSH1 0x2 ADD PUSH1 0x0 DUP2 SLOAD DUP1 SWAP3 SWAP2 SWAP1 PUSH2 0x3159 SWAP1 PUSH2 0x4A49 JUMP JUMPDEST SWAP2 SWAP1 POP SSTORE POP PUSH32 0x747DCB361AD1C268A415D08BB9CEF6B6E40B42EAB9E3A356733A34977F09D320 DUP11 CALLER PUSH1 0x40 MLOAD PUSH2 0x318F SWAP3 SWAP2 SWAP1 PUSH2 0x4C0E JUMP JUMPDEST PUSH1 0x40 MLOAD DUP1 SWAP2 SUB SWAP1 LOG1 JUMPDEST PUSH1 0x40 MLOAD PUSH1 0x0 SWAP1 CALLER SWAP1 DUP6 SWAP1 DUP4 DUP2 DUP2 DUP2 DUP6 DUP8 GAS CALL SWAP3 POP POP POP RETURNDATASIZE DUP1 PUSH1 0x0 DUP2 EQ PUSH2 0x31DA JUMPI PUSH1 0x40 MLOAD SWAP2 POP PUSH1 0x1F NOT PUSH1 0x3F RETURNDATASIZE ADD AND DUP3 ADD PUSH1 0x40 MSTORE RETURNDATASIZE DUP3 MSTORE RETURNDATASIZE PUSH1 0x0 PUSH1 0x20 DUP5 ADD RETURNDATACOPY PUSH2 0x31DF JUMP JUMPDEST PUSH1 0x60 SWAP2 POP JUMPDEST POP POP SWAP1 POP DUP1 PUSH2 0x3226 JUMPI PUSH1 0x40 MLOAD PUSH3 0x461BCD PUSH1 0xE5 SHL DUP2 MSTORE PUSH1 0x20 PUSH1 0x4 DUP3 ADD MSTORE PUSH1 0x13 PUSH1 0x24 DUP3 ADD MSTORE PUSH19 0x115512081D1C985B9CD9995C8819985A5B1959 PUSH1 0x6A SHL PUSH1 0x44 DUP3 ADD MSTORE PUSH1 0x64 ADD PUSH2 0xF8B JUMP JUMPDEST PUSH1 0x40 DUP1 MLOAD DUP7 DUP2 MSTORE PUSH1 0x0 PUSH1 0x20 DUP3 ADD MSTORE PUSH32 0x39F668D6F1B4338891DC891669079F6724A94B39E1CE3570BCFC68B2C036FF5E SWAP2 ADD PUSH1 0x40 MLOAD DUP1 SWAP2 SUB SWAP1 LOG1 POP POP PUSH1 0x1 PUSH1 0x0 SSTORE POP POP POP POP POP POP POP POP POP POP POP POP JUMP JUMPDEST PUSH1 0x0 DUP3 DUP2 MSTORE PUSH1 0x7 PUSH1 0x20 SWAP1 DUP2 MSTORE PUSH1 0x40 DUP1 DUP4 KECCAK256 PUSH1 0x1 PUSH1 0x1 PUSH1 0xA0 SHL SUB DUP6 AND DUP5 MSTORE DUP3 MSTORE DUP1 DUP4 KECCAK256 DUP2 MLOAD PUSH1 0x60 DUP2 ADD DUP4 MSTORE DUP2 SLOAD DUP1 DUP3 MSTORE PUSH1 0x1 DUP4 ADD SLOAD SWAP5 DUP3 ADD SWAP5 SWAP1 SWAP5 MSTORE PUSH1 0x2 SWAP1 SWAP2 ADD SLOAD SWAP2 DUP2 ADD SWAP2 SWAP1 SWAP2 MSTORE DUP3 SWAP2 DUP1 ISZERO ISZERO SWAP1 PUSH2 0x32CB SWAP1 PUSH2 0x4A2D JUMP JUMPDEST SWAP3 POP SWAP3 POP POP SWAP3 POP SWAP3 SWAP1 POP JUMP JUMPDEST PUSH1 0x15 DUP1 SLOAD PUSH2 0xEBD SWAP1 PUSH2 0x474F JUMP JUMPDEST PUSH1 0x0 PUSH1 0x2 PUSH1 0x0 SLOAD SUB PUSH2 0x3308 JUMPI PUSH1 0x40 MLOAD PUSH3 0x461BCD PUSH1 0xE5 SHL DUP2 MSTORE PUSH1 0x4 ADD PUSH2 0xF8B SWAP1 PUSH2 0x47A5 JUMP JUMPDEST PUSH1 0x2 PUSH1 0x0 DUP2 DUP2 SSTORE PUSH1 0x40 DUP1 MLOAD DUP1 DUP3 ADD DUP3 MSTORE PUSH1 0x3 DUP2 MSTORE PUSH3 0x627579 PUSH1 0xE8 SHL PUSH1 0x20 DUP1 DUP4 ADD SWAP2 SWAP1 SWAP2 MSTORE CALLER DUP5 MSTORE SWAP4 SWAP1 SWAP4 MSTORE SWAP1 DUP2 SWAP1 KECCAK256 SWAP1 MLOAD NUMBER SWAP2 PUSH1 0x1 SWAP2 PUSH2 0x3349 SWAP1 DUP6 SWAP1 PUSH2 0x4789 JUMP JUMPDEST SWAP1 DUP2 MSTORE PUSH1 0x20 ADD PUSH1 0x40 MLOAD DUP1 SWAP2 SUB SWAP1 KECCAK256 SLOAD PUSH2 0x3362 SWAP2 SWAP1 PUSH2 0x47F2 JUMP JUMPDEST LT PUSH2 0x337F JUMPI PUSH1 0x40 MLOAD PUSH3 0x461BCD PUSH1 0xE5 SHL DUP2 MSTORE PUSH1 0x4 ADD PUSH2 0xF8B SWAP1 PUSH2 0x4805 JUMP JUMPDEST CALLER PUSH1 0x0 SWAP1 DUP2 MSTORE PUSH1 0x2 PUSH1 0x20 MSTORE PUSH1 0x40 SWAP1 DUP2 SWAP1 KECCAK256 SWAP1 MLOAD NUMBER SWAP2 SWAP1 PUSH2 0x33A0 SWAP1 DUP5 SWAP1 PUSH2 0x4789 JUMP JUMPDEST SWAP1 DUP2 MSTORE PUSH1 0x20 ADD PUSH1 0x40 MLOAD DUP1 SWAP2 SUB SWAP1 KECCAK256 DUP2 SWAP1 SSTORE POP PUSH1 0x0 PUSH1 0x19 PUSH1 0x0 DUP7 DUP2 MSTORE PUSH1 0x20 ADD SWAP1 DUP2 MSTORE PUSH1 0x20 ADD PUSH1 0x0 KECCAK256 DUP1 SLOAD PUSH2 0x33D2 SWAP1 PUSH2 0x474F JUMP JUMPDEST DUP1 PUSH1 0x1F ADD PUSH1 0x20 DUP1 SWAP2 DIV MUL PUSH1 0x20 ADD PUSH1 0x40 MLOAD SWAP1 DUP2 ADD PUSH1 0x40 MSTORE DUP1 SWAP3 SWAP2 SWAP1 DUP2 DUP2 MSTORE PUSH1 0x20 ADD DUP3 DUP1 SLOAD PUSH2 0x33FE SWAP1 PUSH2 0x474F JUMP JUMPDEST DUP1 ISZERO PUSH2 0x344B JUMPI DUP1 PUSH1 0x1F LT PUSH2 0x3420 JUMPI PUSH2 0x100 DUP1 DUP4 SLOAD DIV MUL DUP4 MSTORE SWAP2 PUSH1 0x20 ADD SWAP2 PUSH2 0x344B JUMP JUMPDEST DUP3 ADD SWAP2 SWAP1 PUSH1 0x0 MSTORE PUSH1 0x20 PUSH1 0x0 KECCAK256 SWAP1 JUMPDEST DUP2 SLOAD DUP2 MSTORE SWAP1 PUSH1 0x1 ADD SWAP1 PUSH1 0x20 ADD DUP1 DUP4 GT PUSH2 0x342E JUMPI DUP3 SWAP1 SUB PUSH1 0x1F AND DUP3 ADD SWAP2 JUMPDEST POP POP POP POP POP SWAP1 POP PUSH1 0x0 DUP2 MLOAD GT PUSH2 0x3473 JUMPI PUSH1 0x40 MLOAD PUSH3 0x461BCD PUSH1 0xE5 SHL DUP2 MSTORE PUSH1 0x4 ADD PUSH2 0xF8B SWAP1 PUSH2 0x484C JUMP JUMPDEST PUSH1 0x0 PUSH1 0x8 PUSH1 0x0 PUSH2 0x3482 DUP5 PUSH2 0x10A8 JUMP JUMPDEST DUP2 MSTORE PUSH1 0x20 DUP2 ADD SWAP2 SWAP1 SWAP2 MSTORE PUSH1 0x40 ADD PUSH1 0x0 KECCAK256 PUSH1 0x5 DUP2 ADD SLOAD SWAP1 SWAP2 POP PUSH1 0xFF AND PUSH2 0x34B9 JUMPI PUSH1 0x40 MLOAD PUSH3 0x461BCD PUSH1 0xE5 SHL DUP2 MSTORE PUSH1 0x4 ADD PUSH2 0xF8B SWAP1 PUSH2 0x4877 JUMP JUMPDEST PUSH1 0x0 CALLVALUE GT PUSH2 0x34FB JUMPI PUSH1 0x40 MLOAD PUSH3 0x461BCD PUSH1 0xE5 SHL DUP2 MSTORE PUSH1 0x20 PUSH1 0x4 DUP3 ADD MSTORE PUSH1 0xF PUSH1 0x24 DUP3 ADD MSTORE PUSH15 0x53656E642045544820746F20627579 PUSH1 0x88 SHL PUSH1 0x44 DUP3 ADD MSTORE PUSH1 0x64 ADD PUSH2 0xF8B JUMP JUMPDEST PUSH1 0x0 PUSH2 0x2710 PUSH2 0x350C PUSH2 0x1F4 CALLVALUE PUSH2 0x49BD JUMP JUMPDEST PUSH2 0x3516 SWAP2 SWAP1 PUSH2 0x49EA JUMP JUMPDEST SWAP1 POP PUSH1 0x0 PUSH2 0x3524 DUP3 CALLVALUE PUSH2 0x4930 JUMP JUMPDEST SWAP1 POP DUP2 PUSH1 0x6 PUSH1 0x0 DUP3 DUP3 SLOAD PUSH2 0x3538 SWAP2 SWAP1 PUSH2 0x47F2 JUMP JUMPDEST SWAP3 POP POP DUP2 SWAP1 SSTORE POP PUSH1 0x0 PUSH2 0x3565 PUSH1 0x40 MLOAD DUP1 PUSH1 0x40 ADD PUSH1 0x40 MSTORE DUP1 PUSH1 0x3 DUP2 MSTORE PUSH1 0x20 ADD PUSH3 0x8AA89 PUSH1 0xEB SHL DUP2 MSTORE POP PUSH2 0x10A8 JUMP JUMPDEST PUSH1 0x0 DUP2 DUP2 MSTORE PUSH1 0x8 PUSH1 0x20 MSTORE PUSH1 0x40 SWAP1 KECCAK256 PUSH1 0x5 ADD SLOAD SWAP1 SWAP2 POP PUSH1 0xFF AND PUSH2 0x35C9 JUMPI PUSH1 0x40 MLOAD PUSH3 0x461BCD PUSH1 0xE5 SHL DUP2 MSTORE PUSH1 0x20 PUSH1 0x4 DUP3 ADD MSTORE PUSH1 0x1C PUSH1 0x24 DUP3 ADD MSTORE PUSH32 0x4D697373696E67206F7220696E61637469766520455448206665656400000000 PUSH1 0x44 DUP3 ADD MSTORE PUSH1 0x64 ADD PUSH2 0xF8B JUMP JUMPDEST PUSH1 0x0 DUP2 DUP2 MSTORE PUSH1 0x8 PUSH1 0x20 MSTORE PUSH1 0x40 DUP1 DUP3 KECCAK256 PUSH1 0x2 ADD SLOAD DUP2 MLOAD PUSH4 0x3FABE5A3 PUSH1 0xE2 SHL DUP2 MSTORE SWAP2 MLOAD PUSH1 0x1 PUSH1 0x1 PUSH1 0xA0 SHL SUB SWAP1 SWAP2 AND SWAP2 PUSH4 0xFEAF968C SWAP2 PUSH1 0x4 DUP1 DUP4 ADD SWAP3 PUSH1 0xA0 SWAP3 SWAP2 SWAP1 DUP3 SWAP1 SUB ADD DUP2 DUP7 GAS STATICCALL ISZERO DUP1 ISZERO PUSH2 0x3620 JUMPI RETURNDATASIZE PUSH1 0x0 DUP1 RETURNDATACOPY RETURNDATASIZE PUSH1 0x0 REVERT JUMPDEST POP POP POP POP PUSH1 0x40 MLOAD RETURNDATASIZE PUSH1 0x1F NOT PUSH1 0x1F DUP3 ADD AND DUP3 ADD DUP1 PUSH1 0x40 MSTORE POP DUP2 ADD SWAP1 PUSH2 0x3644 SWAP2 SWAP1 PUSH2 0x48B9 JUMP JUMPDEST POP POP POP SWAP2 POP POP PUSH1 0x0 DUP2 SGT PUSH2 0x368E JUMPI PUSH1 0x40 MLOAD PUSH3 0x461BCD PUSH1 0xE5 SHL DUP2 MSTORE PUSH1 0x20 PUSH1 0x4 DUP3 ADD MSTORE PUSH1 0x11 PUSH1 0x24 DUP3 ADD MSTORE PUSH17 0x496E76616C696420455448207072696365 PUSH1 0x78 SHL PUSH1 0x44 DUP3 ADD MSTORE PUSH1 0x64 ADD PUSH2 0xF8B JUMP JUMPDEST PUSH1 0x2 DUP6 ADD SLOAD PUSH1 0x40 DUP1 MLOAD PUSH4 0x3FABE5A3 PUSH1 0xE2 SHL DUP2 MSTORE SWAP1 MLOAD PUSH1 0x0 SWAP3 PUSH1 0x1 PUSH1 0x1 PUSH1 0xA0 SHL SUB AND SWAP2 PUSH4 0xFEAF968C SWAP2 PUSH1 0x4 DUP1 DUP4 ADD SWAP3 PUSH1 0xA0 SWAP3 SWAP2 SWAP1 DUP3 SWAP1 SUB ADD DUP2 DUP7 GAS STATICCALL ISZERO DUP1 ISZERO PUSH2 0x36DA JUMPI RETURNDATASIZE PUSH1 0x0 DUP1 RETURNDATACOPY RETURNDATASIZE PUSH1 0x0 REVERT JUMPDEST POP POP POP POP PUSH1 0x40 MLOAD RETURNDATASIZE PUSH1 0x1F NOT PUSH1 0x1F DUP3 ADD AND DUP3 ADD DUP1 PUSH1 0x40 MSTORE POP DUP2 ADD SWAP1 PUSH2 0x36FE SWAP2 SWAP1 PUSH2 0x48B9 JUMP JUMPDEST POP POP POP SWAP2 POP POP PUSH1 0x0 DUP2 SGT PUSH2 0x374A JUMPI PUSH1 0x40 MLOAD PUSH3 0x461BCD PUSH1 0xE5 SHL DUP2 MSTORE PUSH1 0x20 PUSH1 0x4 DUP3 ADD MSTORE PUSH1 0x13 PUSH1 0x24 DUP3 ADD MSTORE PUSH19 0x496E76616C696420746F6B656E207072696365 PUSH1 0x68 SHL PUSH1 0x44 DUP3 ADD MSTORE PUSH1 0x64 ADD PUSH2 0xF8B JUMP JUMPDEST PUSH1 0x0 DUP2 PUSH2 0x3757 DUP5 DUP8 PUSH2 0x49BD JUMP JUMPDEST PUSH2 0x3761 SWAP2 SWAP1 PUSH2 0x49EA JUMP JUMPDEST SWAP1 POP PUSH1 0x0 PUSH1 0xF PUSH1 0x0 PUSH2 0x3772 DUP12 PUSH2 0x10A8 JUMP JUMPDEST DUP2 MSTORE PUSH1 0x20 ADD SWAP1 DUP2 MSTORE PUSH1 0x20 ADD PUSH1 0x0 KECCAK256 SLOAD PUSH10 0xD3C21BCECCEDA1000000 PUSH2 0x3796 SWAP2 SWAP1 PUSH2 0x4930 JUMP JUMPDEST SWAP1 POP DUP1 DUP3 GT ISZERO PUSH2 0x37A4 JUMPI DUP1 SWAP2 POP JUMPDEST DUP2 PUSH1 0x0 SUB PUSH2 0x37BE JUMPI PUSH1 0x0 SWAP11 POP POP POP POP POP POP POP POP POP POP PUSH2 0x3911 JUMP JUMPDEST DUP12 DUP3 LT ISZERO PUSH2 0x3802 JUMPI PUSH1 0x40 MLOAD PUSH3 0x461BCD PUSH1 0xE5 SHL DUP2 MSTORE PUSH1 0x20 PUSH1 0x4 DUP3 ADD MSTORE PUSH1 0x11 PUSH1 0x24 DUP3 ADD MSTORE PUSH17 0xA6D8D2E0E0C2CECA40E8DEDE40D0D2CED PUSH1 0x7B SHL PUSH1 0x44 DUP3 ADD MSTORE PUSH1 0x64 ADD PUSH2 0xF8B JUMP JUMPDEST CALLVALUE DUP9 PUSH1 0x4 ADD PUSH1 0x0 DUP3 DUP3 SLOAD PUSH2 0x3816 SWAP2 SWAP1 PUSH2 0x47F2 JUMP JUMPDEST SWAP1 SWAP2 SSTORE POP PUSH2 0x382F SWAP1 POP CALLER DUP4 PUSH2 0x382A DUP13 PUSH2 0x10A8 JUMP JUMPDEST PUSH2 0x405B JUMP JUMPDEST PUSH1 0x40 DUP1 MLOAD DUP9 DUP2 MSTORE PUSH1 0x1 PUSH1 0x20 DUP3 ADD MSTORE PUSH32 0x39F668D6F1B4338891DC891669079F6724A94B39E1CE3570BCFC68B2C036FF5E SWAP2 ADD PUSH1 0x40 MLOAD DUP1 SWAP2 SUB SWAP1 LOG1 PUSH2 0x3874 PUSH2 0x3081 DUP11 PUSH2 0x10A8 JUMP JUMPDEST DUP2 PUSH1 0x16 PUSH1 0x0 PUSH2 0x3882 DUP13 PUSH2 0x10A8 JUMP JUMPDEST DUP2 MSTORE PUSH1 0x20 ADD SWAP1 DUP2 MSTORE PUSH1 0x20 ADD PUSH1 0x0 KECCAK256 PUSH1 0x1 ADD PUSH1 0x0 DUP3 DUP3 SLOAD PUSH2 0x38A2 SWAP2 SWAP1 PUSH2 0x47F2 JUMP JUMPDEST SWAP1 SWAP2 SSTORE POP POP PUSH1 0x40 MLOAD PUSH1 0x0 SWAP1 DUP2 SWAP1 CALLER SWAP1 PUSH1 0x1 SWAP1 DUP4 DUP2 DUP2 DUP2 DUP6 DUP8 GAS CALL SWAP3 POP POP POP RETURNDATASIZE DUP1 PUSH1 0x0 DUP2 EQ PUSH2 0x38EC JUMPI PUSH1 0x40 MLOAD SWAP2 POP PUSH1 0x1F NOT PUSH1 0x3F RETURNDATASIZE ADD AND DUP3 ADD PUSH1 0x40 MSTORE RETURNDATASIZE DUP3 MSTORE RETURNDATASIZE PUSH1 0x0 PUSH1 0x20 DUP5 ADD RETURNDATACOPY PUSH2 0x38F1 JUMP JUMPDEST PUSH1 0x60 SWAP2 POP JUMPDEST POP SWAP2 POP SWAP2 POP DUP2 PUSH2 0x3903 JUMPI DUP1 MLOAD PUSH1 0x20 DUP3 ADD REVERT JUMPDEST POP SWAP2 SWAP11 POP POP POP POP POP POP POP POP POP POP JUMPDEST POP PUSH1 0x1 PUSH1 0x0 SSTORE SWAP3 SWAP2 POP POP JUMP JUMPDEST PUSH1 0x5 SLOAD PUSH1 0x1 PUSH1 0x1 PUSH1 0xA0 SHL SUB AND CALLER EQ PUSH2 0x3947 JUMPI PUSH1 0x40 MLOAD PUSH3 0x461BCD PUSH1 0xE5 SHL DUP2 MSTORE PUSH1 0x4 ADD PUSH2 0xF8B SWAP1 PUSH2 0x4943 JUMP JUMPDEST PUSH1 0x1 PUSH1 0x1 PUSH1 0xA0 SHL SUB DUP2 AND PUSH2 0x398F JUMPI PUSH1 0x40 MLOAD PUSH3 0x461BCD PUSH1 0xE5 SHL DUP2 MSTORE PUSH1 0x20 PUSH1 0x4 DUP3 ADD MSTORE PUSH1 0xF PUSH1 0x24 DUP3 ADD MSTORE PUSH15 0x496E76616C69642061646472657373 PUSH1 0x88 SHL PUSH1 0x44 DUP3 ADD MSTORE PUSH1 0x64 ADD PUSH2 0xF8B JUMP JUMPDEST PUSH1 0x5 DUP1 SLOAD PUSH1 0x1 PUSH1 0x1 PUSH1 0xA0 SHL SUB NOT AND PUSH1 0x1 PUSH1 0x1 PUSH1 0xA0 SHL SUB SWAP3 SWAP1 SWAP3 AND SWAP2 SWAP1 SWAP2 OR SWAP1 SSTORE JUMP JUMPDEST PUSH1 0x0 DUP1 PUSH1 0x0 DUP1 PUSH1 0x0 DUP1 PUSH1 0x19 PUSH1 0x0 DUP9 DUP2 MSTORE PUSH1 0x20 ADD SWAP1 DUP2 MSTORE PUSH1 0x20 ADD PUSH1 0x0 KECCAK256 DUP1 SLOAD PUSH2 0x39D8 SWAP1 PUSH2 0x474F JUMP JUMPDEST DUP1 PUSH1 0x1F ADD PUSH1 0x20 DUP1 SWAP2 DIV MUL PUSH1 0x20 ADD PUSH1 0x40 MLOAD SWAP1 DUP2 ADD PUSH1 0x40 MSTORE DUP1 SWAP3 SWAP2 SWAP1 DUP2 DUP2 MSTORE PUSH1 0x20 ADD DUP3 DUP1 SLOAD PUSH2 0x3A04 SWAP1 PUSH2 0x474F JUMP JUMPDEST DUP1 ISZERO PUSH2 0x3A51 JUMPI DUP1 PUSH1 0x1F LT PUSH2 0x3A26 JUMPI PUSH2 0x100 DUP1 DUP4 SLOAD DIV MUL DUP4 MSTORE SWAP2 PUSH1 0x20 ADD SWAP2 PUSH2 0x3A51 JUMP JUMPDEST DUP3 ADD SWAP2 SWAP1 PUSH1 0x0 MSTORE PUSH1 0x20 PUSH1 0x0 KECCAK256 SWAP1 JUMPDEST DUP2 SLOAD DUP2 MSTORE SWAP1 PUSH1 0x1 ADD SWAP1 PUSH1 0x20 ADD DUP1 DUP4 GT PUSH2 0x3A34 JUMPI DUP3 SWAP1 SUB PUSH1 0x1F AND DUP3 ADD SWAP2 JUMPDEST POP POP POP POP POP SWAP1 POP PUSH1 0x0 DUP2 MLOAD GT PUSH2 0x3A79 JUMPI PUSH1 0x40 MLOAD PUSH3 0x461BCD PUSH1 0xE5 SHL DUP2 MSTORE PUSH1 0x4 ADD PUSH2 0xF8B SWAP1 PUSH2 0x484C JUMP JUMPDEST PUSH1 0x0 PUSH2 0x3A84 DUP3 PUSH2 0x10A8 JUMP JUMPDEST PUSH1 0x0 SWAP1 DUP2 MSTORE PUSH1 0x16 PUSH1 0x20 MSTORE PUSH1 0x40 SWAP1 KECCAK256 PUSH1 0x1 DUP2 ADD SLOAD PUSH1 0x2 DUP3 ADD SLOAD PUSH1 0x3 DUP4 ADD SLOAD PUSH1 0x4 DUP5 ADD SLOAD PUSH1 0x5 SWAP1 SWAP5 ADD SLOAD SWAP3 SWAP13 SWAP2 SWAP12 POP SWAP10 POP SWAP2 SWAP8 POP SWAP6 POP SWAP4 POP POP POP POP JUMP JUMPDEST PUSH1 0x1 PUSH1 0x1 PUSH1 0xA0 SHL SUB DUP2 AND PUSH1 0x0 SWAP1 DUP2 MSTORE PUSH1 0x13 PUSH1 0x20 SWAP1 DUP2 MSTORE PUSH1 0x40 DUP1 DUP4 KECCAK256 DUP2 MLOAD PUSH1 0x80 DUP2 ADD DUP4 MSTORE DUP2 SLOAD DUP2 MSTORE PUSH1 0x1 DUP3 ADD SLOAD SWAP4 DUP2 ADD DUP5 SWAP1 MSTORE PUSH1 0x2 DUP3 ADD SLOAD SWAP3 DUP2 ADD SWAP3 SWAP1 SWAP3 MSTORE PUSH1 0x3 ADD SLOAD PUSH1 0x60 DUP3 DUP2 ADD SWAP2 SWAP1 SWAP2 MSTORE SWAP3 SWAP2 DUP3 SWAP2 DUP3 SWAP2 DUP3 SWAP2 SWAP1 PUSH2 0x3B4D JUMPI PUSH1 0x40 MLOAD PUSH3 0x461BCD PUSH1 0xE5 SHL DUP2 MSTORE PUSH1 0x20 PUSH1 0x4 DUP3 ADD MSTORE PUSH1 0xB PUSH1 0x24 DUP3 ADD MSTORE PUSH11 0x2737903837B9B4BA34B7B7 PUSH1 0xA9 SHL PUSH1 0x44 DUP3 ADD MSTORE PUSH1 0x64 ADD PUSH2 0xF8B JUMP JUMPDEST DUP1 MLOAD PUSH1 0x0 SWAP1 DUP2 MSTORE PUSH1 0x8 PUSH1 0x20 MSTORE PUSH1 0x40 DUP1 DUP3 KECCAK256 PUSH1 0x2 DUP2 ADD SLOAD DUP3 MLOAD PUSH4 0x3FABE5A3 PUSH1 0xE2 SHL DUP2 MSTORE SWAP3 MLOAD SWAP2 SWAP4 SWAP3 PUSH1 0x1 PUSH1 0x1 PUSH1 0xA0 SHL SUB SWAP1 SWAP2 AND SWAP2 PUSH4 0xFEAF968C SWAP2 PUSH1 0x4 DUP1 DUP3 ADD SWAP3 PUSH1 0xA0 SWAP3 SWAP1 SWAP2 SWAP1 DUP3 SWAP1 SUB ADD DUP2 DUP7 GAS STATICCALL ISZERO DUP1 ISZERO PUSH2 0x3BAB JUMPI RETURNDATASIZE PUSH1 0x0 DUP1 RETURNDATACOPY RETURNDATASIZE PUSH1 0x0 REVERT JUMPDEST POP POP POP POP PUSH1 0x40 MLOAD RETURNDATASIZE PUSH1 0x1F NOT PUSH1 0x1F DUP3 ADD AND DUP3 ADD DUP1 PUSH1 0x40 MSTORE POP DUP2 ADD SWAP1 PUSH2 0x3BCF SWAP2 SWAP1 PUSH2 0x48B9 JUMP JUMPDEST POP POP POP SWAP2 POP POP PUSH1 0x0 DUP4 PUSH1 0x40 ADD MLOAD DUP3 PUSH2 0x3BE7 SWAP2 SWAP1 PUSH2 0x4996 JUMP JUMPDEST SWAP1 POP PUSH1 0x0 DUP5 PUSH1 0x40 ADD MLOAD DUP3 DUP7 PUSH1 0x20 ADD MLOAD PUSH2 0x3C00 SWAP2 SWAP1 PUSH2 0x4D65 JUMP JUMPDEST PUSH2 0x3C0A SWAP2 SWAP1 PUSH2 0x4D95 JUMP JUMPDEST SWAP1 POP DUP4 PUSH1 0x1 ADD DUP6 PUSH1 0x20 ADD MLOAD DUP7 PUSH1 0x40 ADD MLOAD DUP8 PUSH1 0x60 ADD MLOAD DUP5 DUP5 DUP1 SLOAD PUSH2 0x3C2C SWAP1 PUSH2 0x474F JUMP JUMPDEST DUP1 PUSH1 0x1F ADD PUSH1 0x20 DUP1 SWAP2 DIV MUL PUSH1 0x20 ADD PUSH1 0x40 MLOAD SWAP1 DUP2 ADD PUSH1 0x40 MSTORE DUP1 SWAP3 SWAP2 SWAP1 DUP2 DUP2 MSTORE PUSH1 0x20 ADD DUP3 DUP1 SLOAD PUSH2 0x3C58 SWAP1 PUSH2 0x474F JUMP JUMPDEST DUP1 ISZERO PUSH2 0x3CA5 JUMPI DUP1 PUSH1 0x1F LT PUSH2 0x3C7A JUMPI PUSH2 0x100 DUP1 DUP4 SLOAD DIV MUL DUP4 MSTORE SWAP2 PUSH1 0x20 ADD SWAP2 PUSH2 0x3CA5 JUMP JUMPDEST DUP3 ADD SWAP2 SWAP1 PUSH1 0x0 MSTORE PUSH1 0x20 PUSH1 0x0 KECCAK256 SWAP1 JUMPDEST DUP2 SLOAD DUP2 MSTORE SWAP1 PUSH1 0x1 ADD SWAP1 PUSH1 0x20 ADD DUP1 DUP4 GT PUSH2 0x3C88 JUMPI DUP3 SWAP1 SUB PUSH1 0x1F AND DUP3 ADD SWAP2 JUMPDEST POP POP POP POP POP SWAP5 POP SWAP10 POP SWAP10 POP SWAP10 POP SWAP10 POP SWAP10 POP POP POP POP POP POP SWAP2 SWAP4 SWAP6 SWAP1 SWAP3 SWAP5 POP JUMP JUMPDEST PUSH1 0x0 DUP1 PUSH1 0x0 PUSH2 0x3CD2 DUP5 PUSH2 0x40E1 JUMP JUMPDEST PUSH1 0x0 DUP8 DUP2 MSTORE PUSH1 0x16 PUSH1 0x20 MSTORE PUSH1 0x40 DUP2 KECCAK256 SWAP4 SWAP7 POP SWAP2 SWAP5 POP SWAP3 POP PUSH1 0x6 SWAP1 SWAP2 ADD SWAP1 JUMPDEST PUSH1 0x9 SLOAD DUP2 LT ISZERO PUSH2 0x3D9B JUMPI PUSH1 0x1 PUSH1 0x1 PUSH1 0xA0 SHL SUB DUP2 AND PUSH1 0x0 SWAP1 DUP2 MSTORE PUSH1 0x20 DUP4 SWAP1 MSTORE PUSH1 0x40 SWAP1 KECCAK256 SLOAD DUP2 SWAP1 PUSH1 0xFF AND PUSH2 0x3D21 JUMPI POP PUSH2 0x3D89 JUMP JUMPDEST PUSH1 0x0 DUP8 DUP2 MSTORE PUSH1 0x7 PUSH1 0x20 SWAP1 DUP2 MSTORE PUSH1 0x40 DUP1 DUP4 KECCAK256 PUSH1 0x1 PUSH1 0x1 PUSH1 0xA0 SHL SUB DUP6 AND DUP5 MSTORE SWAP1 SWAP2 MSTORE DUP2 KECCAK256 DUP1 SLOAD SWAP1 SWAP2 SUB PUSH2 0x3D53 JUMPI POP POP PUSH2 0x3D89 JUMP JUMPDEST DUP1 SLOAD PUSH2 0x2710 SWAP1 DUP8 MUL DIV DUP6 ISZERO PUSH2 0x3D6D JUMPI DUP2 SLOAD DUP2 ADD DUP3 SSTORE PUSH2 0x3D85 JUMP JUMPDEST DUP2 SLOAD DUP2 LT PUSH2 0x3D7C JUMPI PUSH1 0x0 PUSH2 0x3D82 JUMP JUMPDEST DUP2 SLOAD DUP2 SWAP1 SUB JUMPDEST DUP3 SSTORE JUMPDEST POP POP POP JUMPDEST DUP1 PUSH2 0x3D93 DUP2 PUSH2 0x4A14 JUMP JUMPDEST SWAP2 POP POP PUSH2 0x3CEF JUMP JUMPDEST POP PUSH1 0x0 DUP6 DUP2 MSTORE PUSH1 0x8 PUSH1 0x20 MSTORE PUSH1 0x40 SWAP1 KECCAK256 PUSH1 0x3 DUP2 ADD DUP6 SWAP1 SSTORE PUSH32 0xD61DC40EF1106764E1D9EB364856A6143485951A5D6FBB5FBDFF5DE65A5695D6 DUP6 DUP1 PUSH2 0x3DDE DUP2 DUP1 PUSH2 0x4996 JUMP JUMPDEST PUSH1 0x40 DUP1 MLOAD SWAP4 DUP5 MSTORE PUSH1 0x20 DUP5 ADD SWAP3 SWAP1 SWAP3 MSTORE SWAP1 DUP3 ADD MSTORE PUSH1 0x60 ADD PUSH1 0x40 MLOAD DUP1 SWAP2 SUB SWAP1 LOG1 POP POP POP POP POP POP JUMP JUMPDEST PUSH1 0x0 DUP4 DUP4 MUL DUP2 PUSH1 0x0 NOT DUP6 DUP8 MULMOD DUP3 DUP2 LT DUP4 DUP3 SUB SUB SWAP2 POP POP DUP1 PUSH1 0x0 SUB PUSH2 0x3E3B JUMPI DUP4 DUP3 DUP2 PUSH2 0x3E31 JUMPI PUSH2 0x3E31 PUSH2 0x49D4 JUMP JUMPDEST DIV SWAP3 POP POP POP PUSH2 0x158D JUMP JUMPDEST DUP1 DUP5 GT PUSH2 0x3E52 JUMPI PUSH2 0x3E52 PUSH1 0x3 DUP6 ISZERO MUL PUSH1 0x11 XOR PUSH2 0x42FE JUMP JUMPDEST PUSH1 0x0 DUP5 DUP7 DUP9 MULMOD PUSH1 0x0 DUP7 DUP2 SUB DUP8 AND SWAP7 DUP8 SWAP1 DIV SWAP7 PUSH1 0x2 PUSH1 0x3 DUP10 MUL DUP2 XOR DUP1 DUP11 MUL DUP3 SUB MUL DUP1 DUP11 MUL DUP3 SUB MUL DUP1 DUP11 MUL DUP3 SUB MUL DUP1 DUP11 MUL DUP3 SUB MUL DUP1 DUP11 MUL DUP3 SUB MUL DUP1 DUP11 MUL SWAP1 SWAP2 SUB MUL SWAP2 DUP2 SWAP1 SUB DUP2 SWAP1 DIV PUSH1 0x1 ADD DUP7 DUP5 GT SWAP1 SWAP6 SUB SWAP5 SWAP1 SWAP5 MUL SWAP2 SWAP1 SWAP5 SUB SWAP3 SWAP1 SWAP3 DIV SWAP2 SWAP1 SWAP2 OR SWAP2 SWAP1 SWAP2 MUL SWAP2 POP POP SWAP4 SWAP3 POP POP POP JUMP JUMPDEST PUSH1 0x0 DUP3 DUP2 MSTORE PUSH1 0x8 PUSH1 0x20 MSTORE PUSH1 0x40 DUP2 KECCAK256 PUSH1 0x4 DUP2 ADD DUP1 SLOAD SWAP2 SWAP3 DUP5 SWAP3 PUSH2 0x3EE2 SWAP1 DUP5 SWAP1 PUSH2 0x4930 JUMP JUMPDEST SWAP1 SWAP2 SSTORE POP POP PUSH1 0x40 MLOAD DUP3 DUP2 MSTORE PUSH1 0x0 SWAP1 CALLER SWAP1 PUSH1 0x0 DUP1 MLOAD PUSH1 0x20 PUSH2 0x4E5E DUP4 CODECOPY DUP2 MLOAD SWAP2 MSTORE SWAP1 PUSH1 0x20 ADD JUMPDEST PUSH1 0x40 MLOAD DUP1 SWAP2 SUB SWAP1 LOG3 POP POP POP JUMP JUMPDEST PUSH1 0x0 DUP3 DUP2 MSTORE PUSH1 0x16 PUSH1 0x20 MSTORE PUSH1 0x40 DUP2 KECCAK256 SWAP1 PUSH2 0x3F2E PUSH2 0xE10 TIMESTAMP PUSH2 0x49EA JUMP JUMPDEST PUSH1 0x0 DUP6 DUP2 MSTORE PUSH1 0x17 PUSH1 0x20 SWAP1 DUP2 MSTORE PUSH1 0x40 DUP1 DUP4 KECCAK256 DUP5 DUP5 MSTORE SWAP1 SWAP2 MSTORE DUP2 KECCAK256 DUP1 SLOAD SWAP3 SWAP4 POP SWAP1 PUSH2 0x3F56 DUP4 PUSH2 0x4A14 JUMP JUMPDEST SWAP1 SWAP2 SSTORE POP POP PUSH1 0x0 DUP5 DUP2 MSTORE PUSH1 0x17 PUSH1 0x20 SWAP1 DUP2 MSTORE PUSH1 0x40 DUP1 DUP4 KECCAK256 DUP5 DUP5 MSTORE DUP3 MSTORE DUP1 DUP4 KECCAK256 SLOAD PUSH1 0x3 DUP7 ADD SSTORE TIMESTAMP PUSH1 0x5 DUP7 ADD SSTORE PUSH1 0x1 PUSH1 0x1 PUSH1 0xA0 SHL SUB DUP7 AND DUP4 MSTORE PUSH1 0x6 DUP6 ADD SWAP1 SWAP2 MSTORE SWAP1 KECCAK256 SLOAD PUSH1 0xFF AND ISZERO DUP1 ISZERO PUSH2 0x3FC7 JUMPI POP PUSH1 0x0 DUP5 DUP2 MSTORE PUSH1 0xE PUSH1 0x20 SWAP1 DUP2 MSTORE PUSH1 0x40 DUP1 DUP4 KECCAK256 PUSH1 0x1 PUSH1 0x1 PUSH1 0xA0 SHL SUB DUP8 AND DUP5 MSTORE SWAP1 SWAP2 MSTORE SWAP1 KECCAK256 SLOAD ISZERO ISZERO JUMPDEST ISZERO PUSH2 0x4055 JUMPI PUSH1 0x1 PUSH1 0x1 PUSH1 0xA0 SHL SUB DUP4 AND PUSH1 0x0 SWAP1 DUP2 MSTORE PUSH1 0x6 DUP4 ADD PUSH1 0x20 MSTORE PUSH1 0x40 DUP2 KECCAK256 DUP1 SLOAD PUSH1 0xFF NOT AND PUSH1 0x1 OR SWAP1 SSTORE PUSH1 0x2 DUP4 ADD DUP1 SLOAD SWAP2 PUSH2 0x4001 DUP4 PUSH2 0x4A14 JUMP JUMPDEST SWAP2 SWAP1 POP SSTORE POP PUSH32 0x98C84A3686ADEA5C061D8519391569151F91FCCEC19655755FB216862353EB1D PUSH1 0x8 PUSH1 0x0 DUP7 DUP2 MSTORE PUSH1 0x20 ADD SWAP1 DUP2 MSTORE PUSH1 0x20 ADD PUSH1 0x0 KECCAK256 PUSH1 0x1 ADD DUP5 PUSH1 0x40 MLOAD PUSH2 0x404C SWAP3 SWAP2 SWAP1 PUSH2 0x4DC3 JUMP JUMPDEST PUSH1 0x40 MLOAD DUP1 SWAP2 SUB SWAP1 LOG1 JUMPDEST POP POP POP POP JUMP JUMPDEST PUSH1 0x0 DUP2 DUP2 MSTORE PUSH1 0xF PUSH1 0x20 MSTORE PUSH1 0x40 DUP2 KECCAK256 DUP1 SLOAD DUP5 SWAP3 SWAP1 PUSH2 0x4079 SWAP1 DUP5 SWAP1 PUSH2 0x47F2 JUMP JUMPDEST SWAP1 SWAP2 SSTORE POP POP PUSH1 0x0 DUP2 DUP2 MSTORE PUSH1 0xE PUSH1 0x20 SWAP1 DUP2 MSTORE PUSH1 0x40 DUP1 DUP4 KECCAK256 PUSH1 0x1 PUSH1 0x1 PUSH1 0xA0 SHL SUB DUP8 AND DUP5 MSTORE SWAP1 SWAP2 MSTORE DUP2 KECCAK256 DUP1 SLOAD DUP5 SWAP3 SWAP1 PUSH2 0x40B0 SWAP1 DUP5 SWAP1 PUSH2 0x47F2 JUMP JUMPDEST SWAP1 SWAP2 SSTORE POP POP PUSH1 0x40 MLOAD DUP3 DUP2 MSTORE PUSH1 0x1 PUSH1 0x1 PUSH1 0xA0 SHL SUB DUP5 AND SWAP1 PUSH1 0x0 SWAP1 PUSH1 0x0 DUP1 MLOAD PUSH1 0x20 PUSH2 0x4E5E DUP4 CODECOPY DUP2 MLOAD SWAP2 MSTORE SWAP1 PUSH1 0x20 ADD PUSH2 0x3F06 JUMP JUMPDEST PUSH1 0x0 DUP2 DUP2 MSTORE PUSH1 0x8 PUSH1 0x20 MSTORE PUSH1 0x40 DUP1 DUP3 KECCAK256 PUSH1 0x2 DUP2 ADD SLOAD DUP3 MLOAD PUSH4 0x3FABE5A3 PUSH1 0xE2 SHL DUP2 MSTORE SWAP3 MLOAD DUP5 SWAP4 DUP5 SWAP4 SWAP3 DUP5 SWAP3 DUP4 SWAP3 DUP4 SWAP3 DUP4 SWAP3 DUP4 SWAP3 PUSH1 0x1 PUSH1 0x1 PUSH1 0xA0 SHL SUB SWAP1 SWAP3 AND SWAP2 PUSH4 0xFEAF968C SWAP2 PUSH1 0x4 DUP1 DUP4 ADD SWAP3 PUSH1 0xA0 SWAP3 SWAP2 SWAP1 DUP3 SWAP1 SUB ADD DUP2 DUP7 GAS STATICCALL ISZERO DUP1 ISZERO PUSH2 0x4148 JUMPI RETURNDATASIZE PUSH1 0x0 DUP1 RETURNDATACOPY RETURNDATASIZE PUSH1 0x0 REVERT JUMPDEST POP POP POP POP PUSH1 0x40 MLOAD RETURNDATASIZE PUSH1 0x1F NOT PUSH1 0x1F DUP3 ADD AND DUP3 ADD DUP1 PUSH1 0x40 MSTORE POP DUP2 ADD SWAP1 PUSH2 0x416C SWAP2 SWAP1 PUSH2 0x48B9 JUMP JUMPDEST SWAP5 POP SWAP5 POP SWAP5 POP SWAP5 POP SWAP5 POP DUP5 PUSH1 0x1 PUSH1 0x1 PUSH1 0x50 SHL SUB AND DUP2 PUSH1 0x1 PUSH1 0x1 PUSH1 0x50 SHL SUB AND LT ISZERO PUSH2 0x41C6 JUMPI PUSH1 0x40 MLOAD PUSH3 0x461BCD PUSH1 0xE5 SHL DUP2 MSTORE PUSH1 0x20 PUSH1 0x4 DUP3 ADD MSTORE PUSH1 0xB PUSH1 0x24 DUP3 ADD MSTORE PUSH11 0x5374616C65207072696365 PUSH1 0xA8 SHL PUSH1 0x44 DUP3 ADD MSTORE PUSH1 0x64 ADD PUSH2 0xF8B JUMP JUMPDEST PUSH2 0xE10 PUSH2 0x41D3 DUP4 TIMESTAMP PUSH2 0x4930 JUMP JUMPDEST GT ISZERO PUSH2 0x4211 JUMPI PUSH1 0x40 MLOAD PUSH3 0x461BCD PUSH1 0xE5 SHL DUP2 MSTORE PUSH1 0x20 PUSH1 0x4 DUP3 ADD MSTORE PUSH1 0xD PUSH1 0x24 DUP3 ADD MSTORE PUSH13 0x141C9A58D9481D1BDBC81BDB19 PUSH1 0x9A SHL PUSH1 0x44 DUP3 ADD MSTORE PUSH1 0x64 ADD PUSH2 0xF8B JUMP JUMPDEST PUSH1 0x0 DUP5 SGT PUSH2 0x4231 JUMPI PUSH1 0x40 MLOAD PUSH3 0x461BCD PUSH1 0xE5 SHL DUP2 MSTORE PUSH1 0x4 ADD PUSH2 0xF8B SWAP1 PUSH2 0x4909 JUMP JUMPDEST PUSH1 0x0 DUP7 PUSH1 0x3 ADD SLOAD SGT PUSH2 0x4279 JUMPI PUSH1 0x40 MLOAD PUSH3 0x461BCD PUSH1 0xE5 SHL DUP2 MSTORE PUSH1 0x20 PUSH1 0x4 DUP3 ADD MSTORE PUSH1 0x11 PUSH1 0x24 DUP3 ADD MSTORE PUSH17 0x4E6F2070726576696F7573207072696365 PUSH1 0x78 SHL PUSH1 0x44 DUP3 ADD MSTORE PUSH1 0x64 ADD PUSH2 0xF8B JUMP JUMPDEST PUSH1 0x3 DUP7 ADD SLOAD DUP5 DUP2 DUP2 GT ISZERO PUSH2 0x42B4 JUMPI DUP2 PUSH2 0x2710 PUSH2 0x4295 DUP3 DUP5 PUSH2 0x4930 JUMP JUMPDEST PUSH2 0x429F SWAP2 SWAP1 PUSH2 0x49BD JUMP JUMPDEST PUSH2 0x42A9 SWAP2 SWAP1 PUSH2 0x49EA JUMP JUMPDEST SWAP10 POP PUSH1 0x1 SWAP9 POP PUSH2 0x42DD JUMP JUMPDEST DUP2 PUSH2 0x2710 PUSH2 0x42C2 DUP4 DUP4 PUSH2 0x4930 JUMP JUMPDEST PUSH2 0x42CC SWAP2 SWAP1 PUSH2 0x49BD JUMP JUMPDEST PUSH2 0x42D6 SWAP2 SWAP1 PUSH2 0x49EA JUMP JUMPDEST SWAP10 POP PUSH1 0x0 SWAP9 POP JUMPDEST PUSH2 0x1388 DUP11 GT ISZERO PUSH2 0x42ED JUMPI PUSH2 0x1388 SWAP10 POP JUMPDEST POP SWAP4 SWAP11 SWAP8 SWAP10 POP SWAP6 SWAP8 POP POP POP POP POP POP POP JUMP JUMPDEST PUSH4 0x4E487B71 PUSH1 0x0 MSTORE DUP1 PUSH1 0x20 MSTORE PUSH1 0x24 PUSH1 0x1C REVERT JUMPDEST PUSH1 0x0 JUMPDEST DUP4 DUP2 LT ISZERO PUSH2 0x432B JUMPI DUP2 DUP2 ADD MLOAD DUP4 DUP3 ADD MSTORE PUSH1 0x20 ADD PUSH2 0x4313 JUMP JUMPDEST POP POP PUSH1 0x0 SWAP2 ADD MSTORE JUMP JUMPDEST PUSH1 0x0 DUP2 MLOAD DUP1 DUP5 MSTORE PUSH2 0x434C DUP2 PUSH1 0x20 DUP7 ADD PUSH1 0x20 DUP7 ADD PUSH2 0x4310 JUMP JUMPDEST PUSH1 0x1F ADD PUSH1 0x1F NOT AND SWAP3 SWAP1 SWAP3 ADD PUSH1 0x20 ADD SWAP3 SWAP2 POP POP JUMP JUMPDEST PUSH1 0x20 DUP2 MSTORE PUSH1 0x0 PUSH2 0x158D PUSH1 0x20 DUP4 ADD DUP5 PUSH2 0x4334 JUMP JUMPDEST PUSH1 0x0 PUSH1 0x20 DUP3 DUP5 SUB SLT ISZERO PUSH2 0x4385 JUMPI PUSH1 0x0 DUP1 REVERT JUMPDEST POP CALLDATALOAD SWAP2 SWAP1 POP JUMP JUMPDEST DUP1 CALLDATALOAD PUSH1 0x1 PUSH1 0x1 PUSH1 0xA0 SHL SUB DUP2 AND DUP2 EQ PUSH2 0x43A3 JUMPI PUSH1 0x0 DUP1 REVERT JUMPDEST SWAP2 SWAP1 POP JUMP JUMPDEST PUSH1 0x0 PUSH1 0x20 DUP3 DUP5 SUB SLT ISZERO PUSH2 0x43BA JUMPI PUSH1 0x0 DUP1 REVERT JUMPDEST PUSH2 0x158D DUP3 PUSH2 0x438C JUMP JUMPDEST PUSH1 0x0 DUP1 PUSH1 0x40 DUP4 DUP6 SUB SLT ISZERO PUSH2 0x43D6 JUMPI PUSH1 0x0 DUP1 REVERT JUMPDEST POP POP DUP1 CALLDATALOAD SWAP3 PUSH1 0x20 SWAP1 SWAP2 ADD CALLDATALOAD SWAP2 POP JUMP JUMPDEST PUSH1 0x0 PUSH2 0x120 DUP12 DUP4 MSTORE DUP1 PUSH1 0x20 DUP5 ADD MSTORE PUSH2 0x43FF DUP2 DUP5 ADD DUP13 PUSH2 0x4334 JUMP JUMPDEST PUSH1 0x1 PUSH1 0x1 PUSH1 0xA0 SHL SUB SWAP11 SWAP1 SWAP11 AND PUSH1 0x40 DUP5 ADD MSTORE POP POP PUSH1 0x60 DUP2 ADD SWAP7 SWAP1 SWAP7 MSTORE PUSH1 0x80 DUP7 ADD SWAP5 SWAP1 SWAP5 MSTORE SWAP2 ISZERO ISZERO PUSH1 0xA0 DUP6 ADD MSTORE PUSH1 0xC0 DUP5 ADD MSTORE PUSH1 0xE0 DUP4 ADD MSTORE PUSH2 0x100 SWAP1 SWAP2 ADD MSTORE SWAP3 SWAP2 POP POP JUMP JUMPDEST PUSH4 0x4E487B71 PUSH1 0xE0 SHL PUSH1 0x0 MSTORE PUSH1 0x41 PUSH1 0x4 MSTORE PUSH1 0x24 PUSH1 0x0 REVERT JUMPDEST PUSH1 0x40 MLOAD PUSH1 0x1F DUP3 ADD PUSH1 0x1F NOT AND DUP2 ADD PUSH8 0xFFFFFFFFFFFFFFFF DUP2 GT DUP3 DUP3 LT OR ISZERO PUSH2 0x4480 JUMPI PUSH2 0x4480 PUSH2 0x4441 JUMP JUMPDEST PUSH1 0x40 MSTORE SWAP2 SWAP1 POP JUMP JUMPDEST PUSH1 0x0 PUSH8 0xFFFFFFFFFFFFFFFF DUP3 GT ISZERO PUSH2 0x44A2 JUMPI PUSH2 0x44A2 PUSH2 0x4441 JUMP JUMPDEST POP PUSH1 0x1F ADD PUSH1 0x1F NOT AND PUSH1 0x20 ADD SWAP1 JUMP JUMPDEST PUSH1 0x0 DUP3 PUSH1 0x1F DUP4 ADD SLT PUSH2 0x44C1 JUMPI PUSH1 0x0 DUP1 REVERT JUMPDEST DUP2 CALLDATALOAD PUSH2 0x44D4 PUSH2 0x44CF DUP3 PUSH2 0x4488 JUMP JUMPDEST PUSH2 0x4457 JUMP JUMPDEST DUP2 DUP2 MSTORE DUP5 PUSH1 0x20 DUP4 DUP7 ADD ADD GT ISZERO PUSH2 0x44E9 JUMPI PUSH1 0x0 DUP1 REVERT JUMPDEST DUP2 PUSH1 0x20 DUP6 ADD PUSH1 0x20 DUP4 ADD CALLDATACOPY PUSH1 0x0 SWAP2 DUP2 ADD PUSH1 0x20 ADD SWAP2 SWAP1 SWAP2 MSTORE SWAP4 SWAP3 POP POP POP JUMP JUMPDEST PUSH1 0x0 PUSH1 0x20 DUP3 DUP5 SUB SLT ISZERO PUSH2 0x4518 JUMPI PUSH1 0x0 DUP1 REVERT JUMPDEST DUP2 CALLDATALOAD PUSH8 0xFFFFFFFFFFFFFFFF DUP2 GT ISZERO PUSH2 0x452F JUMPI PUSH1 0x0 DUP1 REVERT JUMPDEST PUSH2 0x209E DUP5 DUP3 DUP6 ADD PUSH2 0x44B0 JUMP JUMPDEST PUSH1 0x0 DUP1 PUSH1 0x0 PUSH1 0x60 DUP5 DUP7 SUB SLT ISZERO PUSH2 0x4550 JUMPI PUSH1 0x0 DUP1 REVERT JUMPDEST DUP4 CALLDATALOAD SWAP3 POP PUSH2 0x4560 PUSH1 0x20 DUP6 ADD PUSH2 0x438C JUMP JUMPDEST SWAP2 POP PUSH1 0x40 DUP5 ADD CALLDATALOAD SWAP1 POP SWAP3 POP SWAP3 POP SWAP3 JUMP JUMPDEST PUSH1 0x0 DUP1 PUSH1 0x0 DUP1 PUSH1 0x80 DUP6 DUP8 SUB SLT ISZERO PUSH2 0x4586 JUMPI PUSH1 0x0 DUP1 REVERT JUMPDEST DUP5 CALLDATALOAD SWAP4 POP PUSH2 0x4596 PUSH1 0x20 DUP7 ADD PUSH2 0x438C JUMP JUMPDEST SWAP3 POP PUSH2 0x45A4 PUSH1 0x40 DUP7 ADD PUSH2 0x438C JUMP JUMPDEST SWAP4 SWAP7 SWAP3 SWAP6 POP SWAP3 SWAP4 PUSH1 0x60 ADD CALLDATALOAD SWAP3 POP POP JUMP JUMPDEST PUSH1 0x0 DUP1 PUSH1 0x20 DUP4 DUP6 SUB SLT ISZERO PUSH2 0x45C7 JUMPI PUSH1 0x0 DUP1 REVERT JUMPDEST DUP3 CALLDATALOAD PUSH8 0xFFFFFFFFFFFFFFFF DUP1 DUP3 GT ISZERO PUSH2 0x45DF JUMPI PUSH1 0x0 DUP1 REVERT JUMPDEST DUP2 DUP6 ADD SWAP2 POP DUP6 PUSH1 0x1F DUP4 ADD SLT PUSH2 0x45F3 JUMPI PUSH1 0x0 DUP1 REVERT JUMPDEST DUP2 CALLDATALOAD DUP2 DUP2 GT ISZERO PUSH2 0x4602 JUMPI PUSH1 0x0 DUP1 REVERT JUMPDEST DUP7 PUSH1 0x20 DUP3 DUP6 ADD ADD GT ISZERO PUSH2 0x4614 JUMPI PUSH1 0x0 DUP1 REVERT JUMPDEST PUSH1 0x20 SWAP3 SWAP1 SWAP3 ADD SWAP7 SWAP2 SWAP6 POP SWAP1 SWAP4 POP POP POP POP JUMP JUMPDEST PUSH1 0x0 DUP1 PUSH1 0x40 DUP4 DUP6 SUB SLT ISZERO PUSH2 0x4639 JUMPI PUSH1 0x0 DUP1 REVERT JUMPDEST DUP3 CALLDATALOAD SWAP2 POP PUSH2 0x4649 PUSH1 0x20 DUP5 ADD PUSH2 0x438C JUMP JUMPDEST SWAP1 POP SWAP3 POP SWAP3 SWAP1 POP JUMP JUMPDEST PUSH1 0x0 DUP1 PUSH1 0x40 DUP4 DUP6 SUB SLT ISZERO PUSH2 0x4665 JUMPI PUSH1 0x0 DUP1 REVERT JUMPDEST PUSH2 0x466E DUP4 PUSH2 0x438C JUMP JUMPDEST SWAP2 POP PUSH1 0x20 DUP4 ADD CALLDATALOAD PUSH8 0xFFFFFFFFFFFFFFFF DUP2 GT ISZERO PUSH2 0x468A JUMPI PUSH1 0x0 DUP1 REVERT JUMPDEST PUSH2 0x4696 DUP6 DUP3 DUP7 ADD PUSH2 0x44B0 JUMP JUMPDEST SWAP2 POP POP SWAP3 POP SWAP3 SWAP1 POP JUMP JUMPDEST PUSH1 0x0 DUP1 PUSH1 0x40 DUP4 DUP6 SUB SLT ISZERO PUSH2 0x46B3 JUMPI PUSH1 0x0 DUP1 REVERT JUMPDEST PUSH2 0x46BC DUP4 PUSH2 0x438C JUMP JUMPDEST SWAP2 POP PUSH1 0x20 DUP4 ADD CALLDATALOAD DUP1 ISZERO ISZERO DUP2 EQ PUSH2 0x46D1 JUMPI PUSH1 0x0 DUP1 REVERT JUMPDEST DUP1 SWAP2 POP POP SWAP3 POP SWAP3 SWAP1 POP JUMP JUMPDEST PUSH1 0x0 DUP1 PUSH1 0x0 PUSH1 0x60 DUP5 DUP7 SUB SLT ISZERO PUSH2 0x46F1 JUMPI PUSH1 0x0 DUP1 REVERT JUMPDEST DUP4 CALLDATALOAD SWAP3 POP PUSH2 0x4701 PUSH1 0x20 DUP6 ADD PUSH2 0x438C JUMP JUMPDEST SWAP2 POP PUSH2 0x470F PUSH1 0x40 DUP6 ADD PUSH2 0x438C JUMP JUMPDEST SWAP1 POP SWAP3 POP SWAP3 POP SWAP3 JUMP JUMPDEST PUSH1 0xA0 DUP2 MSTORE PUSH1 0x0 PUSH2 0x472B PUSH1 0xA0 DUP4 ADD DUP9 PUSH2 0x4334 JUMP JUMPDEST SWAP1 POP DUP6 PUSH1 0x20 DUP4 ADD MSTORE DUP5 PUSH1 0x40 DUP4 ADD MSTORE DUP4 PUSH1 0x60 DUP4 ADD MSTORE DUP3 PUSH1 0x80 DUP4 ADD MSTORE SWAP7 SWAP6 POP POP POP POP POP POP JUMP JUMPDEST PUSH1 0x1 DUP2 DUP2 SHR SWAP1 DUP3 AND DUP1 PUSH2 0x4763 JUMPI PUSH1 0x7F DUP3 AND SWAP2 POP JUMPDEST PUSH1 0x20 DUP3 LT DUP2 SUB PUSH2 0x4783 JUMPI PUSH4 0x4E487B71 PUSH1 0xE0 SHL PUSH1 0x0 MSTORE PUSH1 0x22 PUSH1 0x4 MSTORE PUSH1 0x24 PUSH1 0x0 REVERT JUMPDEST POP SWAP2 SWAP1 POP JUMP JUMPDEST PUSH1 0x0 DUP3 MLOAD PUSH2 0x479B DUP2 DUP5 PUSH1 0x20 DUP8 ADD PUSH2 0x4310 JUMP JUMPDEST SWAP2 SWAP1 SWAP2 ADD SWAP3 SWAP2 POP POP JUMP JUMPDEST PUSH1 0x20 DUP1 DUP3 MSTORE PUSH1 0x1F SWAP1 DUP3 ADD MSTORE PUSH32 0x5265656E7472616E637947756172643A207265656E7472616E742063616C6C00 PUSH1 0x40 DUP3 ADD MSTORE PUSH1 0x60 ADD SWAP1 JUMP JUMPDEST PUSH4 0x4E487B71 PUSH1 0xE0 SHL PUSH1 0x0 MSTORE PUSH1 0x11 PUSH1 0x4 MSTORE PUSH1 0x24 PUSH1 0x0 REVERT JUMPDEST DUP1 DUP3 ADD DUP1 DUP3 GT ISZERO PUSH2 0x20A2 JUMPI PUSH2 0x20A2 PUSH2 0x47DC JUMP JUMPDEST PUSH1 0x20 DUP1 DUP3 MSTORE PUSH1 0x27 SWAP1 DUP3 ADD MSTORE PUSH32 0x506C65617365207761697420612066657720626C6F636B73206265747765656E PUSH1 0x40 DUP3 ADD MSTORE PUSH7 0x20747261646573 PUSH1 0xC8 SHL PUSH1 0x60 DUP3 ADD MSTORE PUSH1 0x80 ADD SWAP1 JUMP JUMPDEST PUSH1 0x20 DUP1 DUP3 MSTORE PUSH1 0x11 SWAP1 DUP3 ADD MSTORE PUSH17 0x125B9D985B1A59081CDE5B589BDB081251 PUSH1 0x7A SHL PUSH1 0x40 DUP3 ADD MSTORE PUSH1 0x60 ADD SWAP1 JUMP JUMPDEST PUSH1 0x20 DUP1 DUP3 MSTORE PUSH1 0x11 SWAP1 DUP3 ADD MSTORE PUSH17 0x53796D626F6C206E6F7420616374697665 PUSH1 0x78 SHL PUSH1 0x40 DUP3 ADD MSTORE PUSH1 0x60 ADD SWAP1 JUMP JUMPDEST DUP1 MLOAD PUSH1 0x1 PUSH1 0x1 PUSH1 0x50 SHL SUB DUP2 AND DUP2 EQ PUSH2 0x43A3 JUMPI PUSH1 0x0 DUP1 REVERT JUMPDEST PUSH1 0x0 DUP1 PUSH1 0x0 DUP1 PUSH1 0x0 PUSH1 0xA0 DUP7 DUP9 SUB SLT ISZERO PUSH2 0x48D1 JUMPI PUSH1 0x0 DUP1 REVERT JUMPDEST PUSH2 0x48DA DUP7 PUSH2 0x48A2 JUMP JUMPDEST SWAP5 POP PUSH1 0x20 DUP7 ADD MLOAD SWAP4 POP PUSH1 0x40 DUP7 ADD MLOAD SWAP3 POP PUSH1 0x60 DUP7 ADD MLOAD SWAP2 POP PUSH2 0x48FD PUSH1 0x80 DUP8 ADD PUSH2 0x48A2 JUMP JUMPDEST SWAP1 POP SWAP3 SWAP6 POP SWAP3 SWAP6 SWAP1 SWAP4 POP JUMP JUMPDEST PUSH1 0x20 DUP1 DUP3 MSTORE PUSH1 0xD SWAP1 DUP3 ADD MSTORE PUSH13 0x496E76616C6964207072696365 PUSH1 0x98 SHL PUSH1 0x40 DUP3 ADD MSTORE PUSH1 0x60 ADD SWAP1 JUMP JUMPDEST DUP2 DUP2 SUB DUP2 DUP2 GT ISZERO PUSH2 0x20A2 JUMPI PUSH2 0x20A2 PUSH2 0x47DC JUMP JUMPDEST PUSH1 0x20 DUP1 DUP3 MSTORE PUSH1 0xA SWAP1 DUP3 ADD MSTORE PUSH10 0x27B7363C9037BBB732B9 PUSH1 0xB1 SHL PUSH1 0x40 DUP3 ADD MSTORE PUSH1 0x60 ADD SWAP1 JUMP JUMPDEST PUSH1 0x20 DUP2 MSTORE DUP2 PUSH1 0x20 DUP3 ADD MSTORE DUP2 DUP4 PUSH1 0x40 DUP4 ADD CALLDATACOPY PUSH1 0x0 DUP2 DUP4 ADD PUSH1 0x40 SWAP1 DUP2 ADD SWAP2 SWAP1 SWAP2 MSTORE PUSH1 0x1F SWAP1 SWAP3 ADD PUSH1 0x1F NOT AND ADD ADD SWAP2 SWAP1 POP JUMP JUMPDEST DUP2 DUP2 SUB PUSH1 0x0 DUP4 SLT DUP1 ISZERO DUP4 DUP4 SGT AND DUP4 DUP4 SLT DUP3 AND OR ISZERO PUSH2 0x49B6 JUMPI PUSH2 0x49B6 PUSH2 0x47DC JUMP JUMPDEST POP SWAP3 SWAP2 POP POP JUMP JUMPDEST DUP1 DUP3 MUL DUP2 ISZERO DUP3 DUP3 DIV DUP5 EQ OR PUSH2 0x20A2 JUMPI PUSH2 0x20A2 PUSH2 0x47DC JUMP JUMPDEST PUSH4 0x4E487B71 PUSH1 0xE0 SHL PUSH1 0x0 MSTORE PUSH1 0x12 PUSH1 0x4 MSTORE PUSH1 0x24 PUSH1 0x0 REVERT JUMPDEST PUSH1 0x0 DUP3 PUSH2 0x49F9 JUMPI PUSH2 0x49F9 PUSH2 0x49D4 JUMP JUMPDEST POP DIV SWAP1 JUMP JUMPDEST PUSH4 0x4E487B71 PUSH1 0xE0 SHL PUSH1 0x0 MSTORE PUSH1 0x32 PUSH1 0x4 MSTORE PUSH1 0x24 PUSH1 0x0 REVERT JUMPDEST PUSH1 0x0 PUSH1 0x1 DUP3 ADD PUSH2 0x4A26 JUMPI PUSH2 0x4A26 PUSH2 0x47DC JUMP JUMPDEST POP PUSH1 0x1 ADD SWAP1 JUMP JUMPDEST PUSH1 0x0 PUSH1 0x1 PUSH1 0xFF SHL DUP3 ADD PUSH2 0x4A42 JUMPI PUSH2 0x4A42 PUSH2 0x47DC JUMP JUMPDEST POP PUSH1 0x0 SUB SWAP1 JUMP JUMPDEST PUSH1 0x0 DUP2 PUSH2 0x4A58 JUMPI PUSH2 0x4A58 PUSH2 0x47DC JUMP JUMPDEST POP PUSH1 0x0 NOT ADD SWAP1 JUMP JUMPDEST PUSH1 0x0 PUSH1 0x20 DUP3 DUP5 SUB SLT ISZERO PUSH2 0x4A72 JUMPI PUSH1 0x0 DUP1 REVERT JUMPDEST DUP2 MLOAD PUSH8 0xFFFFFFFFFFFFFFFF DUP2 GT ISZERO PUSH2 0x4A89 JUMPI PUSH1 0x0 DUP1 REVERT JUMPDEST DUP3 ADD PUSH1 0x1F DUP2 ADD DUP5 SGT PUSH2 0x4A9A JUMPI PUSH1 0x0 DUP1 REVERT JUMPDEST DUP1 MLOAD PUSH2 0x4AA8 PUSH2 0x44CF DUP3 PUSH2 0x4488 JUMP JUMPDEST DUP2 DUP2 MSTORE DUP6 PUSH1 0x20 DUP4 DUP6 ADD ADD GT ISZERO PUSH2 0x4ABD JUMPI PUSH1 0x0 DUP1 REVERT JUMPDEST PUSH2 0x4ACE DUP3 PUSH1 0x20 DUP4 ADD PUSH1 0x20 DUP7 ADD PUSH2 0x4310 JUMP JUMPDEST SWAP6 SWAP5 POP POP POP POP POP JUMP JUMPDEST PUSH1 0x69 PUSH1 0xF8 SHL DUP2 MSTORE PUSH1 0x0 DUP3 MLOAD PUSH2 0x4AF3 DUP2 PUSH1 0x1 DUP6 ADD PUSH1 0x20 DUP8 ADD PUSH2 0x4310 JUMP JUMPDEST SWAP2 SWAP1 SWAP2 ADD PUSH1 0x1 ADD SWAP3 SWAP2 POP POP JUMP JUMPDEST PUSH1 0x1F DUP3 GT ISZERO PUSH2 0x1844 JUMPI PUSH1 0x0 DUP2 DUP2 MSTORE PUSH1 0x20 DUP2 KECCAK256 PUSH1 0x1F DUP6 ADD PUSH1 0x5 SHR DUP2 ADD PUSH1 0x20 DUP7 LT ISZERO PUSH2 0x4B27 JUMPI POP DUP1 JUMPDEST PUSH1 0x1F DUP6 ADD PUSH1 0x5 SHR DUP3 ADD SWAP2 POP JUMPDEST DUP2 DUP2 LT ISZERO PUSH2 0x4B46 JUMPI DUP3 DUP2 SSTORE PUSH1 0x1 ADD PUSH2 0x4B33 JUMP JUMPDEST POP POP POP POP POP POP JUMP JUMPDEST DUP2 MLOAD PUSH8 0xFFFFFFFFFFFFFFFF DUP2 GT ISZERO PUSH2 0x4B68 JUMPI PUSH2 0x4B68 PUSH2 0x4441 JUMP JUMPDEST PUSH2 0x4B7C DUP2 PUSH2 0x4B76 DUP5 SLOAD PUSH2 0x474F JUMP JUMPDEST DUP5 PUSH2 0x4B00 JUMP JUMPDEST PUSH1 0x20 DUP1 PUSH1 0x1F DUP4 GT PUSH1 0x1 DUP2 EQ PUSH2 0x4BB1 JUMPI PUSH1 0x0 DUP5 ISZERO PUSH2 0x4B99 JUMPI POP DUP6 DUP4 ADD MLOAD JUMPDEST PUSH1 0x0 NOT PUSH1 0x3 DUP7 SWAP1 SHL SHR NOT AND PUSH1 0x1 DUP6 SWAP1 SHL OR DUP6 SSTORE PUSH2 0x4B46 JUMP JUMPDEST PUSH1 0x0 DUP6 DUP2 MSTORE PUSH1 0x20 DUP2 KECCAK256 PUSH1 0x1F NOT DUP7 AND SWAP2 JUMPDEST DUP3 DUP2 LT ISZERO PUSH2 0x4BE0 JUMPI DUP9 DUP7 ADD MLOAD DUP3 SSTORE SWAP5 DUP5 ADD SWAP5 PUSH1 0x1 SWAP1 SWAP2 ADD SWAP1 DUP5 ADD PUSH2 0x4BC1 JUMP JUMPDEST POP DUP6 DUP3 LT ISZERO PUSH2 0x4BFE JUMPI DUP8 DUP6 ADD MLOAD PUSH1 0x0 NOT PUSH1 0x3 DUP9 SWAP1 SHL PUSH1 0xF8 AND SHR NOT AND DUP2 SSTORE JUMPDEST POP POP POP POP POP PUSH1 0x1 SWAP1 DUP2 SHL ADD SWAP1 SSTORE POP JUMP JUMPDEST PUSH1 0x40 DUP2 MSTORE PUSH1 0x0 PUSH2 0x4C21 PUSH1 0x40 DUP4 ADD DUP6 PUSH2 0x4334 JUMP JUMPDEST SWAP1 POP PUSH1 0x1 DUP1 PUSH1 0xA0 SHL SUB DUP4 AND PUSH1 0x20 DUP4 ADD MSTORE SWAP4 SWAP3 POP POP POP JUMP JUMPDEST PUSH1 0x60 DUP2 MSTORE PUSH1 0x0 PUSH2 0x4C4B PUSH1 0x60 DUP4 ADD DUP7 PUSH2 0x4334 JUMP JUMPDEST PUSH1 0x1 PUSH1 0x1 PUSH1 0xA0 SHL SUB SWAP5 SWAP1 SWAP5 AND PUSH1 0x20 DUP4 ADD MSTORE POP PUSH1 0x40 ADD MSTORE SWAP2 SWAP1 POP JUMP JUMPDEST PUSH1 0x1 DUP2 DUP2 JUMPDEST DUP1 DUP6 GT ISZERO PUSH2 0x4CA1 JUMPI DUP2 PUSH1 0x0 NOT DIV DUP3 GT ISZERO PUSH2 0x4C87 JUMPI PUSH2 0x4C87 PUSH2 0x47DC JUMP JUMPDEST DUP1 DUP6 AND ISZERO PUSH2 0x4C94 JUMPI SWAP2 DUP2 MUL SWAP2 JUMPDEST SWAP4 DUP5 SHR SWAP4 SWAP1 DUP1 MUL SWAP1 PUSH2 0x4C6B JUMP JUMPDEST POP SWAP3 POP SWAP3 SWAP1 POP JUMP JUMPDEST PUSH1 0x0 DUP3 PUSH2 0x4CB8 JUMPI POP PUSH1 0x1 PUSH2 0x20A2 JUMP JUMPDEST DUP2 PUSH2 0x4CC5 JUMPI POP PUSH1 0x0 PUSH2 0x20A2 JUMP JUMPDEST DUP2 PUSH1 0x1 DUP2 EQ PUSH2 0x4CDB JUMPI PUSH1 0x2 DUP2 EQ PUSH2 0x4CE5 JUMPI PUSH2 0x4D01 JUMP JUMPDEST PUSH1 0x1 SWAP2 POP POP PUSH2 0x20A2 JUMP JUMPDEST PUSH1 0xFF DUP5 GT ISZERO PUSH2 0x4CF6 JUMPI PUSH2 0x4CF6 PUSH2 0x47DC JUMP JUMPDEST POP POP PUSH1 0x1 DUP3 SHL PUSH2 0x20A2 JUMP JUMPDEST POP PUSH1 0x20 DUP4 LT PUSH2 0x133 DUP4 LT AND PUSH1 0x4E DUP5 LT PUSH1 0xB DUP5 LT AND OR ISZERO PUSH2 0x4D24 JUMPI POP DUP2 DUP2 EXP PUSH2 0x20A2 JUMP JUMPDEST PUSH2 0x4D2E DUP4 DUP4 PUSH2 0x4C66 JUMP JUMPDEST DUP1 PUSH1 0x0 NOT DIV DUP3 GT ISZERO PUSH2 0x4D42 JUMPI PUSH2 0x4D42 PUSH2 0x47DC JUMP JUMPDEST MUL SWAP4 SWAP3 POP POP POP JUMP JUMPDEST PUSH1 0x0 PUSH2 0x158D PUSH1 0xFF DUP5 AND DUP4 PUSH2 0x4CA9 JUMP JUMPDEST PUSH1 0x0 PUSH2 0x158D DUP4 DUP4 PUSH2 0x4CA9 JUMP JUMPDEST DUP1 DUP3 MUL PUSH1 0x0 DUP3 SLT PUSH1 0x1 PUSH1 0xFF SHL DUP5 EQ AND ISZERO PUSH2 0x4D81 JUMPI PUSH2 0x4D81 PUSH2 0x47DC JUMP JUMPDEST DUP2 DUP2 SDIV DUP4 EQ DUP3 ISZERO OR PUSH2 0x20A2 JUMPI PUSH2 0x20A2 PUSH2 0x47DC JUMP JUMPDEST PUSH1 0x0 DUP3 PUSH2 0x4DA4 JUMPI PUSH2 0x4DA4 PUSH2 0x49D4 JUMP JUMPDEST PUSH1 0x1 PUSH1 0xFF SHL DUP3 EQ PUSH1 0x0 NOT DUP5 EQ AND ISZERO PUSH2 0x4DBE JUMPI PUSH2 0x4DBE PUSH2 0x47DC JUMP JUMPDEST POP SDIV SWAP1 JUMP JUMPDEST PUSH1 0x40 DUP2 MSTORE PUSH1 0x0 DUP1 DUP5 SLOAD PUSH2 0x4DD5 DUP2 PUSH2 0x474F JUMP JUMPDEST DUP1 PUSH1 0x40 DUP7 ADD MSTORE PUSH1 0x60 PUSH1 0x1 DUP1 DUP5 AND PUSH1 0x0 DUP2 EQ PUSH2 0x4DF7 JUMPI PUSH1 0x1 DUP2 EQ PUSH2 0x4E11 JUMPI PUSH2 0x4E42 JUMP JUMPDEST PUSH1 0xFF NOT DUP6 AND DUP9 DUP5 ADD MSTORE DUP4 ISZERO ISZERO PUSH1 0x5 SHL DUP9 ADD DUP4 ADD SWAP6 POP PUSH2 0x4E42 JUMP JUMPDEST DUP10 PUSH1 0x0 MSTORE PUSH1 0x20 DUP1 PUSH1 0x0 KECCAK256 PUSH1 0x0 JUMPDEST DUP7 DUP2 LT ISZERO PUSH2 0x4E39 JUMPI DUP2 SLOAD DUP12 DUP3 ADD DUP8 ADD MSTORE SWAP1 DUP5 ADD SWAP1 DUP3 ADD PUSH2 0x4E1E JUMP JUMPDEST DUP11 ADD DUP6 ADD SWAP8 POP POP POP JUMPDEST POP POP POP POP PUSH1 0x1 PUSH1 0x1 PUSH1 0xA0 SHL SUB DUP6 AND PUSH1 0x20 DUP6 ADD MSTORE POP SWAP1 POP PUSH2 0x158D JUMP INVALID 0xDD CALLCODE MSTORE 0xAD SHL 0xE2 0xC8 SWAP12 PUSH10 0xC2B068FC378DAA952BA7 CALL PUSH4 0xC4A11628 CREATE2 GAS 0x4D CREATE2 0x23 0xB3 0xEF GASLIMIT SELFBALANCE MSTORE 0x4F JUMPI KECCAK256 PUSH10 0x732061206D756C74692D PUSH2 0x7373 PUSH6 0x7420656C6173 PUSH21 0x696320737570706C7920746F6B656E207379737465 PUSH14 0x2E20566973697420656C61737469 PUSH4 0x2E6C6F6C KECCAK256 PUSH7 0x6F722064657461 PUSH10 0x6C656420646F63756D65 PUSH15 0x746174696F6E2E2045616368207375 PUSH17 0x706F727465642073796D626F6C20637265 PUSH2 0x7465 PUSH20 0x2061207669727475616C2074726164696E672070 PUSH2 0x6972 KECCAK256 PUSH2 0x6761 PUSH10 0x6E737420455448207573 PUSH10 0x6E6720436861696E6C69 PUSH15 0x6B2070726963652066656564732E20 SLOAD PUSH9 0x652073797374656D20 PUSH14 0x61696E7461696E73207072696365 0x2D PUSH2 0x7761 PUSH19 0x65206C697175696469747920706F6F6C732061 PUSH15 0x642061646A7573747320746F6B656E KECCAK256 PUSH20 0x7570706C79206261736564206F6E207072696365 KECCAK256 PUSH14 0x6F76656D656E74732EA264697066 PUSH20 0x58221220288ABA8391E7634DDDDB0E5489626CB8 0xE3 0x5E 0xEC 0xB4 0xDC 0x24 MSTORE8 REVERT 0xB7 0xFC PUSH11 0x284AAA864064736F6C6343 STOP ADDMOD EQ STOP CALLER 0x4D PUSH22 0x6C74692D617373657420656C61737469632073757070 PUSH13 0x7920746F6B656E207379737465 PUSH14 0x202D20656C61737469632E6C6F6C "},"methodIdentifiers":{"BLOCKS_BETWEEN_TRADES()":"a7ea74b7","BUY_TAX()":"02af37bb","COLLATERAL_RATIO()":"d9e69a05","CURVE_DENOMINATOR()":"17d16bfb","INITIAL_PRICE_SCALE()":"a4c2e7d3","INVERSE_INITIAL_SCALE()":"91c93b25","MAX_OPERATORS()":"2b78c9f7","MAX_PRICE_IMPACT()":"6839b5fa","MAX_REBASE_PERCENT()":"f2068b73","MAX_RESERVE_RATIO()":"1190016c","MAX_SUPPLY()":"32cb6b0c","MIN_PRICE_ANSWERS()":"683d0a0e","MIN_PRICE_CHANGE_INTERVAL()":"2f3892f5","MIN_PRICE_UPDATE_TIME()":"696cf8f0","MIN_SUPPLY()":"35917c64","PRICE_DECIMALS()":"f1a640f8","PRICE_FRESHNESS_PERIOD()":"5536487c","PRICE_MULTIPLIER()":"113990b8","REBASE_DENOMINATOR()":"8fea2def","SELL_TAX()":"54ad8aee","TAX_DENOMINATOR()":"a51c9ace","TRACKED_DECIMALS()":"bba0e722","VERSION()":"ffa1ad74","WEBSITE()":"283dc96f","WITHDRAWAL_DELAY()":"0ebb172a","addOperator(address)":"9870d7fe","addSymbol(address,bool)":"b98e959e","allowance(bytes32,address,address)":"e88a3178","approve(bytes32,address,uint256)":"bf1ed1eb","balanceOf(bytes32,address)":"c2038236","burnCurveRate()":"b608bbd0","buyTokensByIndex(uint256,uint256)":"dc872104","closeLongPosition()":"53baf0ad","closeShort(uint256,uint256)":"f69d91ae","collectedTaxes()":"b7297057","completeWithdrawal(uint256)":"4f0cb5f3","deactivateSymbol(string)":"52c2c294","decimals()":"313ce567","description()":"7284e416","emergencyShutdown()":"3403c2fc","getPositionInfo(address)":"fbd1d25a","getPositionType(bytes32,address)":"c8a30d7c","getShortPosition(bytes32,address)":"6c9b6340","getSupportedSymbolsCount()":"9e18f399","getSymbolHash(string)":"3a7adc64","getSymbolInfo(string)":"9f65106c","getSymbolPriceByIndex(uint256)":"69dbf9d5","getSymbolStats(uint256)":"f430924e","getSystemInfo()":"6cb69f42","idBySymbol(string)":"621a9c43","initiateWithdrawal()":"b51d1d4f","lastTradeBlock(address,string)":"948afdae","longPositions(address)":"ac511bc0","mintCurveRate()":"1e15d1a5","name()":"06fdde03","nextWithdrawalId()":"4a9122e3","openLongPositionByIndex(uint256)":"3fb07c7f","operatorCount()":"7c6f3158","operators(address)":"13e7c9d8","owner()":"8da5cb5b","pendingWithdrawals(uint256)":"e6150400","rebaseFactor()":"1cdd82dc","rebaseSupply()":"556f98fc","removeOperator(address)":"ac8a584a","sellTokensByIndex(uint256,uint256)":"bfb5a1fc","shorts(bytes32,address)":"95a43078","supportedSymbols(uint256)":"932d68a6","symbol()":"95d89b41","symbolById(uint256)":"ad62769e","symbolData(bytes32)":"36e1af4b","symbolStats(bytes32)":"11121de0","totalStaked()":"817b1cd2","totalSupplyBySymbol(bytes32)":"e3378404","trackedSymbol()":"cab7ac3a","tradesPerHour(bytes32,uint256)":"2fad76bf","transfer(bytes32,address,uint256)":"3feb1bd8","transferFrom(bytes32,address,address,uint256)":"500d2f6d","transferOwnership(address)":"f2fde38b","withdrawTaxes()":"46829831"}}}}}