{
  "_format": "hh-sol-artifact-1",
  "contractName": "MockPriceFeed",
  "sourceName": "contracts/mocks/MockPriceFeed.sol",
  "abi": [
    {
      "inputs": [
        {
          "internalType": "int256",
          "name": "_price",
          "type": "int256"
        }
      ],
      "stateMutability": "nonpayable",
      "type": "constructor"
    },
    {
      "inputs": [],
      "name": "MAX_PRICE_CHANGE",
      "outputs": [
        {
          "internalType": "uint256",
          "name": "",
          "type": "uint256"
        }
      ],
      "stateMutability": "view",
      "type": "function"
    },
    {
      "inputs": [],
      "name": "MIN_UPDATE_DELAY",
      "outputs": [
        {
          "internalType": "uint256",
          "name": "",
          "type": "uint256"
        }
      ],
      "stateMutability": "view",
      "type": "function"
    },
    {
      "inputs": [],
      "name": "answeredInRound",
      "outputs": [
        {
          "internalType": "uint80",
          "name": "",
          "type": "uint80"
        }
      ],
      "stateMutability": "view",
      "type": "function"
    },
    {
      "inputs": [],
      "name": "lastUpdate",
      "outputs": [
        {
          "internalType": "uint256",
          "name": "",
          "type": "uint256"
        }
      ],
      "stateMutability": "view",
      "type": "function"
    },
    {
      "inputs": [],
      "name": "latestRoundData",
      "outputs": [
        {
          "internalType": "uint80",
          "name": "",
          "type": "uint80"
        },
        {
          "internalType": "int256",
          "name": "",
          "type": "int256"
        },
        {
          "internalType": "uint256",
          "name": "",
          "type": "uint256"
        },
        {
          "internalType": "uint256",
          "name": "",
          "type": "uint256"
        },
        {
          "internalType": "uint80",
          "name": "",
          "type": "uint80"
        }
      ],
      "stateMutability": "view",
      "type": "function"
    },
    {
      "inputs": [],
      "name": "price",
      "outputs": [
        {
          "internalType": "int256",
          "name": "",
          "type": "int256"
        }
      ],
      "stateMutability": "view",
      "type": "function"
    },
    {
      "inputs": [],
      "name": "roundId",
      "outputs": [
        {
          "internalType": "uint80",
          "name": "",
          "type": "uint80"
        }
      ],
      "stateMutability": "view",
      "type": "function"
    },
    {
      "inputs": [
        {
          "internalType": "int256",
          "name": "_price",
          "type": "int256"
        }
      ],
      "name": "setPrice",
      "outputs": [],
      "stateMutability": "nonpayable",
      "type": "function"
    },
    {
      "inputs": [],
      "name": "timestamp",
      "outputs": [
        {
          "internalType": "uint256",
          "name": "",
          "type": "uint256"
        }
      ],
      "stateMutability": "view",
      "type": "function"
    }
  ],
  "bytecode": "0x60806040526000805460646001600160501b0319918216811790925560038054909116909117905534801561003357600080fd5b5060405161046a38038061046a83398101604081905261005291610063565b60015542600281905560045561007c565b60006020828403121561007557600080fd5b5051919050565b6103df8061008b6000396000f3fe608060405234801561001057600080fd5b50600436106100935760003560e01c8063b80777ea11610066578063b80777ea146100f0578063c0463711146100f9578063c22c249914610102578063f7a3080614610115578063feaf968c1461012a57600080fd5b80632084bf9f146100985780635416c818146100b45780638cd221c9146100bc578063a035b1fe146100e7575b600080fd5b6100a16103e881565b6040519081526020015b60405180910390f35b6100a1600381565b6000546100cf906001600160501b031681565b6040516001600160501b0390911681526020016100ab565b6100a160015481565b6100a160025481565b6100a160045481565b6003546100cf906001600160501b031681565b6101286101233660046102db565b61016d565b005b600054600154600254600354604080516001600160501b03958616815260208101949094528301829052606083019190915291909116608082015260a0016100ab565b600360045461017c919061030a565b4210156101d05760405162461bcd60e51b815260206004820152601a60248201527f5072696365207570646174656420746f6f20726563656e746c7900000000000060448201526064015b60405180910390fd5b6000600154131561027457600081600154136101f8576001546101f39083610323565b610206565b816001546102069190610323565b905060006001548261271061021b919061034a565b6102259190610361565b90506103e88111156102715760405162461bcd60e51b81526020600482015260156024820152740a0e4d2c6ca40d2dae0c2c6e840e8dede40d0d2ced605b1b60448201526064016101c7565b50505b6001819055426002819055600455600080546001600160501b0316908061029a83610383565b82546101009290920a6001600160501b03818102199093169183160217909155600054600380549190921669ffffffffffffffffffff199091161790555050565b6000602082840312156102ed57600080fd5b5035919050565b634e487b7160e01b600052601160045260246000fd5b8082018082111561031d5761031d6102f4565b92915050565b8181036000831280158383131683831282161715610343576103436102f4565b5092915050565b808202811582820484141761031d5761031d6102f4565b60008261037e57634e487b7160e01b600052601260045260246000fd5b500490565b60006001600160501b0380831681810361039f5761039f6102f4565b600101939250505056fea264697066735822122007e29e5203c84bfc1d206ddb311df2d9cb0c9fd1d20d669f5e010314841d999564736f6c63430008130033",
  "linkReferences": {},
  "deployedLinkReferences": {}
}